{
  "abi": [
    {
      "inputs": [],
      "stateMutability": "nonpayable",
      "type": "constructor"
    },
    {
      "inputs": [
        {
          "internalType": "string",
          "name": "amount",
          "type": "string"
        }
      ],
      "name": "changeAmountDonated",
      "outputs": [],
      "stateMutability": "nonpayable",
      "type": "function"
    },
    {
      "inputs": [],
      "name": "getAllReputations",
      "outputs": [
        {
          "internalType": "uint256[]",
          "name": "",
          "type": "uint256[]"
        }
      ],
      "stateMutability": "view",
      "type": "function"
    },
    {
      "inputs": [],
      "name": "getAmountDonated",
      "outputs": [
        {
          "internalType": "string",
          "name": "",
          "type": "string"
        }
      ],
      "stateMutability": "view",
      "type": "function"
    },
    {
      "inputs": [],
      "name": "getCompaniesAddresses",
      "outputs": [
        {
          "internalType": "address[]",
          "name": "",
          "type": "address[]"
        }
      ],
      "stateMutability": "view",
      "type": "function"
    },
    {
      "inputs": [],
      "name": "getCompaniesNames",
      "outputs": [
        {
          "internalType": "string[]",
          "name": "",
          "type": "string[]"
        }
      ],
      "stateMutability": "view",
      "type": "function"
    },
    {
      "inputs": [
        {
          "internalType": "string",
          "name": "_company",
          "type": "string"
        }
      ],
      "name": "getCompanyAddress",
      "outputs": [
        {
          "internalType": "address",
          "name": "",
          "type": "address"
        }
      ],
      "stateMutability": "view",
      "type": "function"
    },
    {
      "inputs": [
        {
          "internalType": "string",
          "name": "_company",
          "type": "string"
        }
      ],
      "name": "getCompanyComplaints",
      "outputs": [
        {
          "internalType": "string[]",
          "name": "",
          "type": "string[]"
        }
      ],
      "stateMutability": "view",
      "type": "function"
    },
    {
      "inputs": [
        {
          "internalType": "string",
          "name": "_company",
          "type": "string"
        }
      ],
      "name": "getReputation",
      "outputs": [
        {
          "internalType": "uint256",
          "name": "",
          "type": "uint256"
        }
      ],
      "stateMutability": "view",
      "type": "function"
    },
    {
      "inputs": [],
      "name": "getTotalComplaints",
      "outputs": [
        {
          "internalType": "uint256",
          "name": "",
          "type": "uint256"
        }
      ],
      "stateMutability": "view",
      "type": "function"
    },
    {
      "inputs": [
        {
          "internalType": "string[]",
          "name": "_companies",
          "type": "string[]"
        }
      ],
      "name": "newCompanies",
      "outputs": [],
      "stateMutability": "nonpayable",
      "type": "function"
    },
    {
      "inputs": [
        {
          "internalType": "string",
          "name": "_company",
          "type": "string"
        }
      ],
      "name": "newCompany",
      "outputs": [],
      "stateMutability": "nonpayable",
      "type": "function"
    },
    {
      "inputs": [
        {
          "internalType": "string",
          "name": "_company",
          "type": "string"
        },
        {
          "internalType": "string",
          "name": "_hash",
          "type": "string"
        }
      ],
      "name": "newComplaint",
      "outputs": [],
      "stateMutability": "nonpayable",
      "type": "function"
    },
    {
      "inputs": [
        {
          "internalType": "string",
          "name": "_company",
          "type": "string"
        }
      ],
      "name": "retireCompany",
      "outputs": [],
      "stateMutability": "nonpayable",
      "type": "function"
    },
    {
      "inputs": [
        {
          "internalType": "string",
          "name": "_company",
          "type": "string"
        },
        {
          "internalType": "string",
          "name": "_hash",
          "type": "string"
        }
      ],
      "name": "retireComplaint",
      "outputs": [],
      "stateMutability": "nonpayable",
      "type": "function"
    }
  ],
  "devdoc": {
    "kind": "dev",
    "methods": {},
    "version": 1
  },
  "evm": {
    "assembly": "    /* \"ReputationControlV2.sol\":1123:6229  contract ReputationControl {... */\n  mstore(0x40, 0xa0)\n    /* \"ReputationControlV2.sol\":1858:1992  constructor(){... */\n  callvalue\n  dup1\n  iszero\n  tag_1\n  jumpi\n  0x00\n  dup1\n  revert\ntag_1:\n  pop\n    /* \"ReputationControlV2.sol\":1890:1900  msg.sender */\n  caller\n    /* \"ReputationControlV2.sol\":1882:1900  owner = msg.sender */\n  0xffffffffffffffffffffffffffffffffffffffff\n  and\n  0x80\n  dup2\n  0xffffffffffffffffffffffffffffffffffffffff\n  and\n  dup2\n  mstore\n  pop\n  pop\n    /* \"ReputationControlV2.sol\":1927:1954  new ReksTokens(\"Reks\", \"R\") */\n  mload(0x40)\n  tag_4\n  swap1\n  tag_5\n  jump\t// in\ntag_4:\n  tag_6\n  swap1\n  tag_7\n  jump\t// in\ntag_6:\n  mload(0x40)\n  dup1\n  swap2\n  sub\n  swap1\n  0x00\n  create\n  dup1\n  iszero\n  dup1\n  iszero\n  tag_8\n  jumpi\n  returndatasize\n  0x00\n  dup1\n  returndatacopy\n  revert(0x00, returndatasize)\ntag_8:\n  pop\n    /* \"ReputationControlV2.sol\":1911:1924  tokenContract */\n  0x00\n  dup1\n    /* \"ReputationControlV2.sol\":1911:1954  tokenContract = new ReksTokens(\"Reks\", \"R\") */\n  0x0100\n  exp\n  dup2\n  sload\n  dup2\n  0xffffffffffffffffffffffffffffffffffffffff\n  mul\n  not\n  and\n  swap1\n  dup4\n  0xffffffffffffffffffffffffffffffffffffffff\n  and\n  mul\n  or\n  swap1\n  sstore\n  pop\n    /* \"ReputationControlV2.sol\":1965:1984  amountDonated = \"0\" */\n  mload(0x40)\n  dup1\n  0x40\n  add\n  0x40\n  mstore\n  dup1\n  0x01\n  dup2\n  mstore\n  0x20\n  add\n  0x3000000000000000000000000000000000000000000000000000000000000000\n  dup2\n  mstore\n  pop\n    /* \"ReputationControlV2.sol\":1965:1978  amountDonated */\n  0x03\n    /* \"ReputationControlV2.sol\":1965:1984  amountDonated = \"0\" */\n  swap1\n  dup1\n  mload\n  swap1\n  0x20\n  add\n  swap1\n  tag_9\n  swap3\n  swap2\n  swap1\n  tag_10\n  jump\t// in\ntag_9:\n  pop\n    /* \"ReputationControlV2.sol\":1123:6229  contract ReputationControl {... */\n  jump(tag_11)\ntag_5:\n  dataSize(sub_1)\n  dup1\n  dataOffset(sub_1)\n  dup4\n  codecopy\n  add\n  swap1\n  jump\t// out\ntag_10:\n  dup3\n  dup1\n  sload\n  tag_12\n  swap1\n  tag_13\n  jump\t// in\ntag_12:\n  swap1\n  0x00\n  mstore\n  keccak256(0x00, 0x20)\n  swap1\n  0x1f\n  add\n  0x20\n  swap1\n  div\n  dup2\n  add\n  swap3\n  dup3\n  tag_15\n  jumpi\n  0x00\n  dup6\n  sstore\n  jump(tag_14)\ntag_15:\n  dup3\n  0x1f\n  lt\n  tag_16\n  jumpi\n  dup1\n  mload\n  not(0xff)\n  and\n  dup4\n  dup1\n  add\n  or\n  dup6\n  sstore\n  jump(tag_14)\ntag_16:\n  dup3\n  dup1\n  add\n  0x01\n  add\n  dup6\n  sstore\n  dup3\n  iszero\n  tag_14\n  jumpi\n  swap2\n  dup3\n  add\ntag_17:\n  dup3\n  dup2\n  gt\n  iszero\n  tag_18\n  jumpi\n  dup3\n  mload\n  dup3\n  sstore\n  swap2\n  0x20\n  add\n  swap2\n  swap1\n  0x01\n  add\n  swap1\n  jump(tag_17)\ntag_18:\ntag_14:\n  pop\n  swap1\n  pop\n  tag_19\n  swap2\n  swap1\n  tag_20\n  jump\t// in\ntag_19:\n  pop\n  swap1\n  jump\t// out\ntag_20:\ntag_21:\n  dup1\n  dup3\n  gt\n  iszero\n  tag_22\n  jumpi\n  0x00\n  dup2\n  0x00\n  swap1\n  sstore\n  pop\n  0x01\n  add\n  jump(tag_21)\ntag_22:\n  pop\n  swap1\n  jump\t// out\n    /* \"#utility.yul\":7:176   */\ntag_23:\n    /* \"#utility.yul\":91:102   */\n  0x00\n    /* \"#utility.yul\":125:131   */\n  dup3\n    /* \"#utility.yul\":120:123   */\n  dup3\n    /* \"#utility.yul\":113:132   */\n  mstore\n    /* \"#utility.yul\":165:169   */\n  0x20\n    /* \"#utility.yul\":160:163   */\n  dup3\n    /* \"#utility.yul\":156:170   */\n  add\n    /* \"#utility.yul\":141:170   */\n  swap1\n  pop\n    /* \"#utility.yul\":7:176   */\n  swap3\n  swap2\n  pop\n  pop\n  jump\t// out\n    /* \"#utility.yul\":182:336   */\ntag_24:\n    /* \"#utility.yul\":322:328   */\n  0x52656b7300000000000000000000000000000000000000000000000000000000\n    /* \"#utility.yul\":318:319   */\n  0x00\n    /* \"#utility.yul\":310:316   */\n  dup3\n    /* \"#utility.yul\":306:320   */\n  add\n    /* \"#utility.yul\":299:329   */\n  mstore\n    /* \"#utility.yul\":182:336   */\n  pop\n  jump\t// out\n    /* \"#utility.yul\":342:707   */\ntag_25:\n    /* \"#utility.yul\":484:487   */\n  0x00\n    /* \"#utility.yul\":505:571   */\n  tag_33\n    /* \"#utility.yul\":569:570   */\n  0x04\n    /* \"#utility.yul\":564:567   */\n  dup4\n    /* \"#utility.yul\":505:571   */\n  tag_23\n  jump\t// in\ntag_33:\n    /* \"#utility.yul\":498:571   */\n  swap2\n  pop\n    /* \"#utility.yul\":580:673   */\n  tag_34\n    /* \"#utility.yul\":669:672   */\n  dup3\n    /* \"#utility.yul\":580:673   */\n  tag_24\n  jump\t// in\ntag_34:\n    /* \"#utility.yul\":698:700   */\n  0x20\n    /* \"#utility.yul\":693:696   */\n  dup3\n    /* \"#utility.yul\":689:701   */\n  add\n    /* \"#utility.yul\":682:701   */\n  swap1\n  pop\n    /* \"#utility.yul\":342:707   */\n  swap2\n  swap1\n  pop\n  jump\t// out\n    /* \"#utility.yul\":713:864   */\ntag_26:\n    /* \"#utility.yul\":853:856   */\n  0x5200000000000000000000000000000000000000000000000000000000000000\n    /* \"#utility.yul\":849:850   */\n  0x00\n    /* \"#utility.yul\":841:847   */\n  dup3\n    /* \"#utility.yul\":837:851   */\n  add\n    /* \"#utility.yul\":830:857   */\n  mstore\n    /* \"#utility.yul\":713:864   */\n  pop\n  jump\t// out\n    /* \"#utility.yul\":870:1235   */\ntag_27:\n    /* \"#utility.yul\":1012:1015   */\n  0x00\n    /* \"#utility.yul\":1033:1099   */\n  tag_37\n    /* \"#utility.yul\":1097:1098   */\n  0x01\n    /* \"#utility.yul\":1092:1095   */\n  dup4\n    /* \"#utility.yul\":1033:1099   */\n  tag_23\n  jump\t// in\ntag_37:\n    /* \"#utility.yul\":1026:1099   */\n  swap2\n  pop\n    /* \"#utility.yul\":1108:1201   */\n  tag_38\n    /* \"#utility.yul\":1197:1200   */\n  dup3\n    /* \"#utility.yul\":1108:1201   */\n  tag_26\n  jump\t// in\ntag_38:\n    /* \"#utility.yul\":1226:1228   */\n  0x20\n    /* \"#utility.yul\":1221:1224   */\n  dup3\n    /* \"#utility.yul\":1217:1229   */\n  add\n    /* \"#utility.yul\":1210:1229   */\n  swap1\n  pop\n    /* \"#utility.yul\":870:1235   */\n  swap2\n  swap1\n  pop\n  jump\t// out\n    /* \"#utility.yul\":1241:1967   */\ntag_7:\n    /* \"#utility.yul\":1508:1512   */\n  0x00\n    /* \"#utility.yul\":1546:1548   */\n  0x40\n    /* \"#utility.yul\":1535:1544   */\n  dup3\n    /* \"#utility.yul\":1531:1549   */\n  add\n    /* \"#utility.yul\":1523:1549   */\n  swap1\n  pop\n    /* \"#utility.yul\":1595:1604   */\n  dup2\n    /* \"#utility.yul\":1589:1593   */\n  dup2\n    /* \"#utility.yul\":1585:1605   */\n  sub\n    /* \"#utility.yul\":1581:1582   */\n  0x00\n    /* \"#utility.yul\":1570:1579   */\n  dup4\n    /* \"#utility.yul\":1566:1583   */\n  add\n    /* \"#utility.yul\":1559:1606   */\n  mstore\n    /* \"#utility.yul\":1623:1754   */\n  tag_40\n    /* \"#utility.yul\":1749:1753   */\n  dup2\n    /* \"#utility.yul\":1623:1754   */\n  tag_25\n  jump\t// in\ntag_40:\n    /* \"#utility.yul\":1615:1754   */\n  swap1\n  pop\n    /* \"#utility.yul\":1801:1810   */\n  dup2\n    /* \"#utility.yul\":1795:1799   */\n  dup2\n    /* \"#utility.yul\":1791:1811   */\n  sub\n    /* \"#utility.yul\":1786:1788   */\n  0x20\n    /* \"#utility.yul\":1775:1784   */\n  dup4\n    /* \"#utility.yul\":1771:1789   */\n  add\n    /* \"#utility.yul\":1764:1812   */\n  mstore\n    /* \"#utility.yul\":1829:1960   */\n  tag_41\n    /* \"#utility.yul\":1955:1959   */\n  dup2\n    /* \"#utility.yul\":1829:1960   */\n  tag_27\n  jump\t// in\ntag_41:\n    /* \"#utility.yul\":1821:1960   */\n  swap1\n  pop\n    /* \"#utility.yul\":1241:1967   */\n  swap2\n  swap1\n  pop\n  jump\t// out\n    /* \"#utility.yul\":1973:2153   */\ntag_28:\n    /* \"#utility.yul\":2021:2098   */\n  0x4e487b7100000000000000000000000000000000000000000000000000000000\n    /* \"#utility.yul\":2018:2019   */\n  0x00\n    /* \"#utility.yul\":2011:2099   */\n  mstore\n    /* \"#utility.yul\":2118:2122   */\n  0x22\n    /* \"#utility.yul\":2115:2116   */\n  0x04\n    /* \"#utility.yul\":2108:2123   */\n  mstore\n    /* \"#utility.yul\":2142:2146   */\n  0x24\n    /* \"#utility.yul\":2139:2140   */\n  0x00\n    /* \"#utility.yul\":2132:2147   */\n  revert\n    /* \"#utility.yul\":2159:2479   */\ntag_13:\n    /* \"#utility.yul\":2203:2209   */\n  0x00\n    /* \"#utility.yul\":2240:2241   */\n  0x02\n    /* \"#utility.yul\":2234:2238   */\n  dup3\n    /* \"#utility.yul\":2230:2242   */\n  div\n    /* \"#utility.yul\":2220:2242   */\n  swap1\n  pop\n    /* \"#utility.yul\":2287:2288   */\n  0x01\n    /* \"#utility.yul\":2281:2285   */\n  dup3\n    /* \"#utility.yul\":2277:2289   */\n  and\n    /* \"#utility.yul\":2308:2326   */\n  dup1\n    /* \"#utility.yul\":2298:2379   */\n  tag_44\n  jumpi\n    /* \"#utility.yul\":2364:2368   */\n  0x7f\n    /* \"#utility.yul\":2356:2362   */\n  dup3\n    /* \"#utility.yul\":2352:2369   */\n  and\n    /* \"#utility.yul\":2342:2369   */\n  swap2\n  pop\n    /* \"#utility.yul\":2298:2379   */\ntag_44:\n    /* \"#utility.yul\":2426:2428   */\n  0x20\n    /* \"#utility.yul\":2418:2424   */\n  dup3\n    /* \"#utility.yul\":2415:2429   */\n  lt\n    /* \"#utility.yul\":2395:2413   */\n  dup2\n    /* \"#utility.yul\":2392:2430   */\n  eq\n    /* \"#utility.yul\":2389:2473   */\n  iszero\n  tag_45\n  jumpi\n    /* \"#utility.yul\":2445:2463   */\n  tag_46\n  tag_28\n  jump\t// in\ntag_46:\n    /* \"#utility.yul\":2389:2473   */\ntag_45:\n    /* \"#utility.yul\":2210:2479   */\n  pop\n    /* \"#utility.yul\":2159:2479   */\n  swap2\n  swap1\n  pop\n  jump\t// out\n    /* \"ReputationControlV2.sol\":1123:6229  contract ReputationControl {... */\ntag_11:\n  mload(0x80)\n  codecopy(0x00, dataOffset(sub_0), dataSize(sub_0))\n  0x00\n  assignImmutable(\"0xb6477a31e41e27dc2f2cbe4c2bbb37b5a6a34683d5cbca4a1a706df5525a2d30\")\n  return(0x00, dataSize(sub_0))\nstop\n\nsub_0: assembly {\n        /* \"ReputationControlV2.sol\":1123:6229  contract ReputationControl {... */\n      mstore(0x40, 0x80)\n      callvalue\n      dup1\n      iszero\n      tag_1\n      jumpi\n      0x00\n      dup1\n      revert\n    tag_1:\n      pop\n      jumpi(tag_2, lt(calldatasize, 0x04))\n      shr(0xe0, calldataload(0x00))\n      dup1\n      0x59f97801\n      gt\n      tag_17\n      jumpi\n      dup1\n      0xbfef1851\n      gt\n      tag_18\n      jumpi\n      dup1\n      0xbfef1851\n      eq\n      tag_13\n      jumpi\n      dup1\n      0xd09cdac1\n      eq\n      tag_14\n      jumpi\n      dup1\n      0xd6a16afa\n      eq\n      tag_15\n      jumpi\n      dup1\n      0xf1e6fe87\n      eq\n      tag_16\n      jumpi\n      jump(tag_2)\n    tag_18:\n      dup1\n      0x59f97801\n      eq\n      tag_10\n      jumpi\n      dup1\n      0x639147af\n      eq\n      tag_11\n      jumpi\n      dup1\n      0x6b5f35c2\n      eq\n      tag_12\n      jumpi\n      jump(tag_2)\n    tag_17:\n      dup1\n      0x112e4143\n      gt\n      tag_19\n      jumpi\n      dup1\n      0x112e4143\n      eq\n      tag_6\n      jumpi\n      dup1\n      0x1c17dee8\n      eq\n      tag_7\n      jumpi\n      dup1\n      0x2f435b3f\n      eq\n      tag_8\n      jumpi\n      dup1\n      0x3d1103f4\n      eq\n      tag_9\n      jumpi\n      jump(tag_2)\n    tag_19:\n      dup1\n      0x05e5e5a3\n      eq\n      tag_3\n      jumpi\n      dup1\n      0x08459850\n      eq\n      tag_4\n      jumpi\n      dup1\n      0x09a7a006\n      eq\n      tag_5\n      jumpi\n    tag_2:\n      0x00\n      dup1\n      revert\n        /* \"ReputationControlV2.sol\":4334:4648  function getCompaniesAddresses() external view returns (address[] memory){... */\n    tag_3:\n      tag_20\n      tag_21\n      jump\t// in\n    tag_20:\n      mload(0x40)\n      tag_22\n      swap2\n      swap1\n      tag_23\n      jump\t// in\n    tag_22:\n      mload(0x40)\n      dup1\n      swap2\n      sub\n      swap1\n      return\n        /* \"ReputationControlV2.sol\":2006:2505  function newCompanies(string[] memory _companies) external onlyOwner{... */\n    tag_4:\n      tag_24\n      0x04\n      dup1\n      calldatasize\n      sub\n      dup2\n      add\n      swap1\n      tag_25\n      swap2\n      swap1\n      tag_26\n      jump\t// in\n    tag_25:\n      tag_27\n      jump\t// in\n    tag_24:\n      stop\n        /* \"ReputationControlV2.sol\":3543:3646  function getCompaniesNames() external view returns (string[] memory){... */\n    tag_5:\n      tag_28\n      tag_29\n      jump\t// in\n    tag_28:\n      mload(0x40)\n      tag_30\n      swap2\n      swap1\n      tag_31\n      jump\t// in\n    tag_30:\n      mload(0x40)\n      dup1\n      swap2\n      sub\n      swap1\n      return\n        /* \"ReputationControlV2.sol\":2913:3417  function retireCompany(string memory _company) external onlyOwner isCompany(_company){... */\n    tag_6:\n      tag_32\n      0x04\n      dup1\n      calldatasize\n      sub\n      dup2\n      add\n      swap1\n      tag_33\n      swap2\n      swap1\n      tag_34\n      jump\t// in\n    tag_33:\n      tag_35\n      jump\t// in\n    tag_32:\n      stop\n        /* \"ReputationControlV2.sol\":6122:6226  function getAmountDonated() external view returns (string memory){... */\n    tag_7:\n      tag_36\n      tag_37\n      jump\t// in\n    tag_36:\n      mload(0x40)\n      tag_38\n      swap2\n      swap1\n      tag_39\n      jump\t// in\n    tag_38:\n      mload(0x40)\n      dup1\n      swap2\n      sub\n      swap1\n      return\n        /* \"ReputationControlV2.sol\":3840:4159  function getAllReputations() external view returns (uint[] memory){... */\n    tag_8:\n      tag_40\n      tag_41\n      jump\t// in\n    tag_40:\n      mload(0x40)\n      tag_42\n      swap2\n      swap1\n      tag_43\n      jump\t// in\n    tag_42:\n      mload(0x40)\n      dup1\n      swap2\n      sub\n      swap1\n      return\n        /* \"ReputationControlV2.sol\":3654:3832  function getReputation(string memory _company) external view isCompany(_company) returns (uint){... */\n    tag_9:\n      tag_44\n      0x04\n      dup1\n      calldatasize\n      sub\n      dup2\n      add\n      swap1\n      tag_45\n      swap2\n      swap1\n      tag_34\n      jump\t// in\n    tag_45:\n      tag_46\n      jump\t// in\n    tag_44:\n      mload(0x40)\n      tag_47\n      swap2\n      swap1\n      tag_48\n      jump\t// in\n    tag_47:\n      mload(0x40)\n      dup1\n      swap2\n      sub\n      swap1\n      return\n        /* \"ReputationControlV2.sol\":3425:3535  function getTotalComplaints() external view returns(uint){... */\n    tag_10:\n      tag_49\n      tag_50\n      jump\t// in\n    tag_49:\n      mload(0x40)\n      tag_51\n      swap2\n      swap1\n      tag_48\n      jump\t// in\n    tag_51:\n      mload(0x40)\n      dup1\n      swap2\n      sub\n      swap1\n      return\n        /* \"ReputationControlV2.sol\":6004:6114  function changeAmountDonated(string memory amount) external onlyOwner{... */\n    tag_11:\n      tag_52\n      0x04\n      dup1\n      calldatasize\n      sub\n      dup2\n      add\n      swap1\n      tag_53\n      swap2\n      swap1\n      tag_34\n      jump\t// in\n    tag_53:\n      tag_54\n      jump\t// in\n    tag_52:\n      stop\n        /* \"ReputationControlV2.sol\":4656:4833  function getCompanyComplaints(string memory _company) external view isCompany(_company) returns (string[] memory){... */\n    tag_12:\n      tag_55\n      0x04\n      dup1\n      calldatasize\n      sub\n      dup2\n      add\n      swap1\n      tag_56\n      swap2\n      swap1\n      tag_34\n      jump\t// in\n    tag_56:\n      tag_57\n      jump\t// in\n    tag_55:\n      mload(0x40)\n      tag_58\n      swap2\n      swap1\n      tag_31\n      jump\t// in\n    tag_58:\n      mload(0x40)\n      dup1\n      swap2\n      sub\n      swap1\n      return\n        /* \"ReputationControlV2.sol\":5186:5996  function retireComplaint(string memory _company, string memory _hash) external isCompany(_company) onlyOwner{... */\n    tag_13:\n      tag_59\n      0x04\n      dup1\n      calldatasize\n      sub\n      dup2\n      add\n      swap1\n      tag_60\n      swap2\n      swap1\n      tag_61\n      jump\t// in\n    tag_60:\n      tag_62\n      jump\t// in\n    tag_59:\n      stop\n        /* \"ReputationControlV2.sol\":4841:5178  function newComplaint(string memory _company, string memory _hash) external isCompany(_company) onlyOwner{... */\n    tag_14:\n      tag_63\n      0x04\n      dup1\n      calldatasize\n      sub\n      dup2\n      add\n      swap1\n      tag_64\n      swap2\n      swap1\n      tag_61\n      jump\t// in\n    tag_64:\n      tag_65\n      jump\t// in\n    tag_63:\n      stop\n        /* \"ReputationControlV2.sol\":4167:4326  function getCompanyAddress(string memory _company) external view isCompany(_company) returns(address){... */\n    tag_15:\n      tag_66\n      0x04\n      dup1\n      calldatasize\n      sub\n      dup2\n      add\n      swap1\n      tag_67\n      swap2\n      swap1\n      tag_34\n      jump\t// in\n    tag_67:\n      tag_68\n      jump\t// in\n    tag_66:\n      mload(0x40)\n      tag_69\n      swap2\n      swap1\n      tag_70\n      jump\t// in\n    tag_69:\n      mload(0x40)\n      dup1\n      swap2\n      sub\n      swap1\n      return\n        /* \"ReputationControlV2.sol\":2513:2905  function newCompany(string memory _company) external onlyOwner{... */\n    tag_16:\n      tag_71\n      0x04\n      dup1\n      calldatasize\n      sub\n      dup2\n      add\n      swap1\n      tag_72\n      swap2\n      swap1\n      tag_34\n      jump\t// in\n    tag_72:\n      tag_73\n      jump\t// in\n    tag_71:\n      stop\n        /* \"ReputationControlV2.sol\":4334:4648  function getCompaniesAddresses() external view returns (address[] memory){... */\n    tag_21:\n        /* \"ReputationControlV2.sol\":4390:4406  address[] memory */\n      0x60\n        /* \"ReputationControlV2.sol\":4418:4424  uint l */\n      0x00\n        /* \"ReputationControlV2.sol\":4427:4436  companies */\n      0x02\n        /* \"ReputationControlV2.sol\":4427:4443  companies.length */\n      dup1\n      sload\n      swap1\n      pop\n        /* \"ReputationControlV2.sol\":4418:4443  uint l = companies.length */\n      swap1\n      pop\n        /* \"ReputationControlV2.sol\":4454:4480  address [] memory accounts */\n      0x00\n        /* \"ReputationControlV2.sol\":4498:4499  l */\n      dup2\n        /* \"ReputationControlV2.sol\":4484:4500  new address[](l) */\n      0xffffffffffffffff\n      dup2\n      gt\n      iszero\n      tag_75\n      jumpi\n      tag_76\n      tag_77\n      jump\t// in\n    tag_76:\n    tag_75:\n      mload(0x40)\n      swap1\n      dup1\n      dup3\n      mstore\n      dup1\n      0x20\n      mul\n      0x20\n      add\n      dup3\n      add\n      0x40\n      mstore\n      dup1\n      iszero\n      tag_78\n      jumpi\n      dup2\n      0x20\n      add\n      0x20\n      dup3\n      mul\n      dup1\n      calldatasize\n      dup4\n      calldatacopy\n      dup1\n      dup3\n      add\n      swap2\n      pop\n      pop\n      swap1\n      pop\n    tag_78:\n      pop\n        /* \"ReputationControlV2.sol\":4454:4500  address [] memory accounts  = new address[](l) */\n      swap1\n      pop\n        /* \"ReputationControlV2.sol\":4515:4521  uint i */\n      0x00\n        /* \"ReputationControlV2.sol\":4511:4615  for(uint i = 0; i < l; ++i){... */\n    tag_79:\n        /* \"ReputationControlV2.sol\":4531:4532  l */\n      dup3\n        /* \"ReputationControlV2.sol\":4527:4528  i */\n      dup2\n        /* \"ReputationControlV2.sol\":4527:4532  i < l */\n      lt\n        /* \"ReputationControlV2.sol\":4511:4615  for(uint i = 0; i < l; ++i){... */\n      iszero\n      tag_80\n      jumpi\n        /* \"ReputationControlV2.sol\":4567:4580  infoCompanies */\n      0x01\n        /* \"ReputationControlV2.sol\":4581:4590  companies */\n      0x02\n        /* \"ReputationControlV2.sol\":4591:4592  i */\n      dup3\n        /* \"ReputationControlV2.sol\":4581:4593  companies[i] */\n      dup2\n      sload\n      dup2\n      lt\n      tag_82\n      jumpi\n      tag_83\n      tag_84\n      jump\t// in\n    tag_83:\n    tag_82:\n      swap1\n      0x00\n      mstore\n      keccak256(0x00, 0x20)\n      add\n        /* \"ReputationControlV2.sol\":4567:4594  infoCompanies[companies[i]] */\n      mload(0x40)\n      tag_86\n      swap2\n      swap1\n      tag_87\n      jump\t// in\n    tag_86:\n      swap1\n      dup2\n      mstore\n      0x20\n      add\n      mload(0x40)\n      dup1\n      swap2\n      sub\n      swap1\n      keccak256\n        /* \"ReputationControlV2.sol\":4567:4603  infoCompanies[companies[i]]._address */\n      0x00\n      add\n      0x00\n      swap1\n      sload\n      swap1\n      0x0100\n      exp\n      swap1\n      div\n      0xffffffffffffffffffffffffffffffffffffffff\n      and\n        /* \"ReputationControlV2.sol\":4553:4561  accounts */\n      dup3\n        /* \"ReputationControlV2.sol\":4562:4563  i */\n      dup3\n        /* \"ReputationControlV2.sol\":4553:4564  accounts[i] */\n      dup2\n      mload\n      dup2\n      lt\n      tag_88\n      jumpi\n      tag_89\n      tag_84\n      jump\t// in\n    tag_89:\n    tag_88:\n      0x20\n      mul\n      0x20\n      add\n      add\n        /* \"ReputationControlV2.sol\":4553:4603  accounts[i] = infoCompanies[companies[i]]._address */\n      swap1\n      0xffffffffffffffffffffffffffffffffffffffff\n      and\n      swap1\n      dup2\n      0xffffffffffffffffffffffffffffffffffffffff\n      and\n      dup2\n      mstore\n      pop\n      pop\n        /* \"ReputationControlV2.sol\":4534:4537  ++i */\n      dup1\n      tag_90\n      swap1\n      tag_91\n      jump\t// in\n    tag_90:\n      swap1\n      pop\n        /* \"ReputationControlV2.sol\":4511:4615  for(uint i = 0; i < l; ++i){... */\n      jump(tag_79)\n    tag_80:\n      pop\n        /* \"ReputationControlV2.sol\":4632:4640  accounts */\n      dup1\n        /* \"ReputationControlV2.sol\":4625:4640  return accounts */\n      swap3\n      pop\n      pop\n      pop\n        /* \"ReputationControlV2.sol\":4334:4648  function getCompaniesAddresses() external view returns (address[] memory){... */\n      swap1\n      jump\t// out\n        /* \"ReputationControlV2.sol\":2006:2505  function newCompanies(string[] memory _companies) external onlyOwner{... */\n    tag_27:\n        /* \"ReputationControlV2.sol\":1625:1630  owner */\n      immutable(\"0xb6477a31e41e27dc2f2cbe4c2bbb37b5a6a34683d5cbca4a1a706df5525a2d30\")\n        /* \"ReputationControlV2.sol\":1611:1630  msg.sender == owner */\n      0xffffffffffffffffffffffffffffffffffffffff\n      and\n        /* \"ReputationControlV2.sol\":1611:1621  msg.sender */\n      caller\n        /* \"ReputationControlV2.sol\":1611:1630  msg.sender == owner */\n      0xffffffffffffffffffffffffffffffffffffffff\n      and\n      eq\n        /* \"ReputationControlV2.sol\":1603:1647  require(msg.sender == owner,\"No allowances\") */\n      tag_93\n      jumpi\n      mload(0x40)\n      0x08c379a000000000000000000000000000000000000000000000000000000000\n      dup2\n      mstore\n      0x04\n      add\n      tag_94\n      swap1\n      tag_95\n      jump\t// in\n    tag_94:\n      mload(0x40)\n      dup1\n      swap2\n      sub\n      swap1\n      revert\n    tag_93:\n        /* \"ReputationControlV2.sol\":2089:2095  uint i */\n      0x00\n        /* \"ReputationControlV2.sol\":2085:2498  for(uint i = 0; i < _companies.length; ++i){... */\n    tag_97:\n        /* \"ReputationControlV2.sol\":2105:2115  _companies */\n      dup2\n        /* \"ReputationControlV2.sol\":2105:2122  _companies.length */\n      mload\n        /* \"ReputationControlV2.sol\":2101:2102  i */\n      dup2\n        /* \"ReputationControlV2.sol\":2101:2122  i < _companies.length */\n      lt\n        /* \"ReputationControlV2.sol\":2085:2498  for(uint i = 0; i < _companies.length; ++i){... */\n      iszero\n      tag_98\n      jumpi\n        /* \"ReputationControlV2.sol\":2195:2196  0 */\n      0x00\n        /* \"ReputationControlV2.sol\":2146:2197  infoCompanies[_companies[i]]._address == address(0) */\n      0xffffffffffffffffffffffffffffffffffffffff\n      and\n        /* \"ReputationControlV2.sol\":2146:2159  infoCompanies */\n      0x01\n        /* \"ReputationControlV2.sol\":2160:2170  _companies */\n      dup4\n        /* \"ReputationControlV2.sol\":2171:2172  i */\n      dup4\n        /* \"ReputationControlV2.sol\":2160:2173  _companies[i] */\n      dup2\n      mload\n      dup2\n      lt\n      tag_100\n      jumpi\n      tag_101\n      tag_84\n      jump\t// in\n    tag_101:\n    tag_100:\n      0x20\n      mul\n      0x20\n      add\n      add\n      mload\n        /* \"ReputationControlV2.sol\":2146:2174  infoCompanies[_companies[i]] */\n      mload(0x40)\n      tag_102\n      swap2\n      swap1\n      tag_103\n      jump\t// in\n    tag_102:\n      swap1\n      dup2\n      mstore\n      0x20\n      add\n      mload(0x40)\n      dup1\n      swap2\n      sub\n      swap1\n      keccak256\n        /* \"ReputationControlV2.sol\":2146:2183  infoCompanies[_companies[i]]._address */\n      0x00\n      add\n      0x00\n      swap1\n      sload\n      swap1\n      0x0100\n      exp\n      swap1\n      div\n      0xffffffffffffffffffffffffffffffffffffffff\n      and\n        /* \"ReputationControlV2.sol\":2146:2197  infoCompanies[_companies[i]]._address == address(0) */\n      0xffffffffffffffffffffffffffffffffffffffff\n      and\n      eq\n        /* \"ReputationControlV2.sol\":2143:2487  if(infoCompanies[_companies[i]]._address == address(0)){... */\n      iszero\n      tag_104\n      jumpi\n        /* \"ReputationControlV2.sol\":2217:2228  address add */\n      0x00\n        /* \"ReputationControlV2.sol\":2274:2284  _companies */\n      dup3\n        /* \"ReputationControlV2.sol\":2285:2286  i */\n      dup3\n        /* \"ReputationControlV2.sol\":2274:2287  _companies[i] */\n      dup2\n      mload\n      dup2\n      lt\n      tag_105\n      jumpi\n      tag_106\n      tag_84\n      jump\t// in\n    tag_106:\n    tag_105:\n      0x20\n      mul\n      0x20\n      add\n      add\n      mload\n        /* \"ReputationControlV2.sol\":2257:2288  abi.encodePacked(_companies[i]) */\n      add(0x20, mload(0x40))\n      tag_107\n      swap2\n      swap1\n      tag_103\n      jump\t// in\n    tag_107:\n      mload(0x40)\n      0x20\n      dup2\n      dup4\n      sub\n      sub\n      dup2\n      mstore\n      swap1\n      0x40\n      mstore\n        /* \"ReputationControlV2.sol\":2247:2289  keccak256(abi.encodePacked(_companies[i])) */\n      dup1\n      mload\n      swap1\n      0x20\n      add\n      keccak256\n        /* \"ReputationControlV2.sol\":2231:2291  address(bytes20(keccak256(abi.encodePacked(_companies[i])))) */\n      0x60\n      shr\n        /* \"ReputationControlV2.sol\":2217:2291  address add = address(bytes20(keccak256(abi.encodePacked(_companies[i])))) */\n      swap1\n      pop\n        /* \"ReputationControlV2.sol\":2350:2353  add */\n      dup1\n        /* \"ReputationControlV2.sol\":2310:2323  infoCompanies */\n      0x01\n        /* \"ReputationControlV2.sol\":2324:2334  _companies */\n      dup5\n        /* \"ReputationControlV2.sol\":2335:2336  i */\n      dup5\n        /* \"ReputationControlV2.sol\":2324:2337  _companies[i] */\n      dup2\n      mload\n      dup2\n      lt\n      tag_108\n      jumpi\n      tag_109\n      tag_84\n      jump\t// in\n    tag_109:\n    tag_108:\n      0x20\n      mul\n      0x20\n      add\n      add\n      mload\n        /* \"ReputationControlV2.sol\":2310:2338  infoCompanies[_companies[i]] */\n      mload(0x40)\n      tag_110\n      swap2\n      swap1\n      tag_103\n      jump\t// in\n    tag_110:\n      swap1\n      dup2\n      mstore\n      0x20\n      add\n      mload(0x40)\n      dup1\n      swap2\n      sub\n      swap1\n      keccak256\n        /* \"ReputationControlV2.sol\":2310:2347  infoCompanies[_companies[i]]._address */\n      0x00\n      add\n      0x00\n        /* \"ReputationControlV2.sol\":2310:2353  infoCompanies[_companies[i]]._address = add */\n      0x0100\n      exp\n      dup2\n      sload\n      dup2\n      0xffffffffffffffffffffffffffffffffffffffff\n      mul\n      not\n      and\n      swap1\n      dup4\n      0xffffffffffffffffffffffffffffffffffffffff\n      and\n      mul\n      or\n      swap1\n      sstore\n      pop\n        /* \"ReputationControlV2.sol\":2407:2416  companies */\n      0x02\n        /* \"ReputationControlV2.sol\":2407:2423  companies.length */\n      dup1\n      sload\n      swap1\n      pop\n        /* \"ReputationControlV2.sol\":2372:2385  infoCompanies */\n      0x01\n        /* \"ReputationControlV2.sol\":2386:2396  _companies */\n      dup5\n        /* \"ReputationControlV2.sol\":2397:2398  i */\n      dup5\n        /* \"ReputationControlV2.sol\":2386:2399  _companies[i] */\n      dup2\n      mload\n      dup2\n      lt\n      tag_111\n      jumpi\n      tag_112\n      tag_84\n      jump\t// in\n    tag_112:\n    tag_111:\n      0x20\n      mul\n      0x20\n      add\n      add\n      mload\n        /* \"ReputationControlV2.sol\":2372:2400  infoCompanies[_companies[i]] */\n      mload(0x40)\n      tag_113\n      swap2\n      swap1\n      tag_103\n      jump\t// in\n    tag_113:\n      swap1\n      dup2\n      mstore\n      0x20\n      add\n      mload(0x40)\n      dup1\n      swap2\n      sub\n      swap1\n      keccak256\n        /* \"ReputationControlV2.sol\":2372:2404  infoCompanies[_companies[i]].pos */\n      0x01\n      add\n        /* \"ReputationControlV2.sol\":2372:2423  infoCompanies[_companies[i]].pos = companies.length */\n      dup2\n      swap1\n      sstore\n      pop\n        /* \"ReputationControlV2.sol\":2442:2451  companies */\n      0x02\n        /* \"ReputationControlV2.sol\":2457:2467  _companies */\n      dup4\n        /* \"ReputationControlV2.sol\":2468:2469  i */\n      dup4\n        /* \"ReputationControlV2.sol\":2457:2470  _companies[i] */\n      dup2\n      mload\n      dup2\n      lt\n      tag_114\n      jumpi\n      tag_115\n      tag_84\n      jump\t// in\n    tag_115:\n    tag_114:\n      0x20\n      mul\n      0x20\n      add\n      add\n      mload\n        /* \"ReputationControlV2.sol\":2442:2471  companies.push(_companies[i]) */\n      swap1\n      dup1\n      0x01\n      dup2\n      sload\n      add\n      dup1\n      dup3\n      sstore\n      dup1\n      swap2\n      pop\n      pop\n      0x01\n      swap1\n      sub\n      swap1\n      0x00\n      mstore\n      keccak256(0x00, 0x20)\n      add\n      0x00\n      swap1\n      swap2\n      swap1\n      swap2\n      swap1\n      swap2\n      pop\n      swap1\n      dup1\n      mload\n      swap1\n      0x20\n      add\n      swap1\n      tag_117\n      swap3\n      swap2\n      swap1\n      tag_118\n      jump\t// in\n    tag_117:\n      pop\n        /* \"ReputationControlV2.sol\":2198:2487  {... */\n      pop\n        /* \"ReputationControlV2.sol\":2143:2487  if(infoCompanies[_companies[i]]._address == address(0)){... */\n    tag_104:\n        /* \"ReputationControlV2.sol\":2124:2127  ++i */\n      dup1\n      tag_119\n      swap1\n      tag_91\n      jump\t// in\n    tag_119:\n      swap1\n      pop\n        /* \"ReputationControlV2.sol\":2085:2498  for(uint i = 0; i < _companies.length; ++i){... */\n      jump(tag_97)\n    tag_98:\n      pop\n        /* \"ReputationControlV2.sol\":2006:2505  function newCompanies(string[] memory _companies) external onlyOwner{... */\n      pop\n      jump\t// out\n        /* \"ReputationControlV2.sol\":3543:3646  function getCompaniesNames() external view returns (string[] memory){... */\n    tag_29:\n        /* \"ReputationControlV2.sol\":3595:3610  string[] memory */\n      0x60\n        /* \"ReputationControlV2.sol\":3629:3638  companies */\n      0x02\n        /* \"ReputationControlV2.sol\":3622:3638  return companies */\n      dup1\n      sload\n      dup1\n      0x20\n      mul\n      0x20\n      add\n      mload(0x40)\n      swap1\n      dup2\n      add\n      0x40\n      mstore\n      dup1\n      swap3\n      swap2\n      swap1\n      dup2\n      dup2\n      mstore\n      0x20\n      add\n      0x00\n      swap1\n    tag_121:\n      dup3\n      dup3\n      lt\n      iszero\n      tag_122\n      jumpi\n      dup4\n      dup3\n      swap1\n      0x00\n      mstore\n      keccak256(0x00, 0x20)\n      add\n      dup1\n      sload\n      tag_124\n      swap1\n      tag_125\n      jump\t// in\n    tag_124:\n      dup1\n      0x1f\n      add\n      0x20\n      dup1\n      swap2\n      div\n      mul\n      0x20\n      add\n      mload(0x40)\n      swap1\n      dup2\n      add\n      0x40\n      mstore\n      dup1\n      swap3\n      swap2\n      swap1\n      dup2\n      dup2\n      mstore\n      0x20\n      add\n      dup3\n      dup1\n      sload\n      tag_126\n      swap1\n      tag_125\n      jump\t// in\n    tag_126:\n      dup1\n      iszero\n      tag_127\n      jumpi\n      dup1\n      0x1f\n      lt\n      tag_128\n      jumpi\n      0x0100\n      dup1\n      dup4\n      sload\n      div\n      mul\n      dup4\n      mstore\n      swap2\n      0x20\n      add\n      swap2\n      jump(tag_127)\n    tag_128:\n      dup3\n      add\n      swap2\n      swap1\n      0x00\n      mstore\n      keccak256(0x00, 0x20)\n      swap1\n    tag_129:\n      dup2\n      sload\n      dup2\n      mstore\n      swap1\n      0x01\n      add\n      swap1\n      0x20\n      add\n      dup1\n      dup4\n      gt\n      tag_129\n      jumpi\n      dup3\n      swap1\n      sub\n      0x1f\n      and\n      dup3\n      add\n      swap2\n    tag_127:\n      pop\n      pop\n      pop\n      pop\n      pop\n      dup2\n      mstore\n      0x20\n      add\n      swap1\n      0x01\n      add\n      swap1\n      jump(tag_121)\n    tag_122:\n      pop\n      pop\n      pop\n      pop\n      swap1\n      pop\n        /* \"ReputationControlV2.sol\":3543:3646  function getCompaniesNames() external view returns (string[] memory){... */\n      swap1\n      jump\t// out\n        /* \"ReputationControlV2.sol\":2913:3417  function retireCompany(string memory _company) external onlyOwner isCompany(_company){... */\n    tag_35:\n        /* \"ReputationControlV2.sol\":1625:1630  owner */\n      immutable(\"0xb6477a31e41e27dc2f2cbe4c2bbb37b5a6a34683d5cbca4a1a706df5525a2d30\")\n        /* \"ReputationControlV2.sol\":1611:1630  msg.sender == owner */\n      0xffffffffffffffffffffffffffffffffffffffff\n      and\n        /* \"ReputationControlV2.sol\":1611:1621  msg.sender */\n      caller\n        /* \"ReputationControlV2.sol\":1611:1630  msg.sender == owner */\n      0xffffffffffffffffffffffffffffffffffffffff\n      and\n      eq\n        /* \"ReputationControlV2.sol\":1603:1647  require(msg.sender == owner,\"No allowances\") */\n      tag_131\n      jumpi\n      mload(0x40)\n      0x08c379a000000000000000000000000000000000000000000000000000000000\n      dup2\n      mstore\n      0x04\n      add\n      tag_132\n      swap1\n      tag_95\n      jump\t// in\n    tag_132:\n      mload(0x40)\n      dup1\n      swap2\n      sub\n      swap1\n      revert\n    tag_131:\n        /* \"ReputationControlV2.sol\":2989:2997  _company */\n      dup1\n        /* \"ReputationControlV2.sol\":1780:1781  0 */\n      0x00\n        /* \"ReputationControlV2.sol\":1736:1782  infoCompanies[_company]._address != address(0) */\n      0xffffffffffffffffffffffffffffffffffffffff\n      and\n        /* \"ReputationControlV2.sol\":1736:1749  infoCompanies */\n      0x01\n        /* \"ReputationControlV2.sol\":1750:1758  _company */\n      dup3\n        /* \"ReputationControlV2.sol\":1736:1759  infoCompanies[_company] */\n      mload(0x40)\n      tag_134\n      swap2\n      swap1\n      tag_103\n      jump\t// in\n    tag_134:\n      swap1\n      dup2\n      mstore\n      0x20\n      add\n      mload(0x40)\n      dup1\n      swap2\n      sub\n      swap1\n      keccak256\n        /* \"ReputationControlV2.sol\":1736:1768  infoCompanies[_company]._address */\n      0x00\n      add\n      0x00\n      swap1\n      sload\n      swap1\n      0x0100\n      exp\n      swap1\n      div\n      0xffffffffffffffffffffffffffffffffffffffff\n      and\n        /* \"ReputationControlV2.sol\":1736:1782  infoCompanies[_company]._address != address(0) */\n      0xffffffffffffffffffffffffffffffffffffffff\n      and\n      eq\n      iszero\n        /* \"ReputationControlV2.sol\":1728:1830  require(infoCompanies[_company]._address != address(0), \"Not detected as a participant in our system\") */\n      tag_135\n      jumpi\n      mload(0x40)\n      0x08c379a000000000000000000000000000000000000000000000000000000000\n      dup2\n      mstore\n      0x04\n      add\n      tag_136\n      swap1\n      tag_137\n      jump\t// in\n    tag_136:\n      mload(0x40)\n      dup1\n      swap2\n      sub\n      swap1\n      revert\n    tag_135:\n        /* \"ReputationControlV2.sol\":3009:3024  address account */\n      0x00\n        /* \"ReputationControlV2.sol\":3027:3040  infoCompanies */\n      0x01\n        /* \"ReputationControlV2.sol\":3041:3049  _company */\n      dup4\n        /* \"ReputationControlV2.sol\":3027:3050  infoCompanies[_company] */\n      mload(0x40)\n      tag_139\n      swap2\n      swap1\n      tag_103\n      jump\t// in\n    tag_139:\n      swap1\n      dup2\n      mstore\n      0x20\n      add\n      mload(0x40)\n      dup1\n      swap2\n      sub\n      swap1\n      keccak256\n        /* \"ReputationControlV2.sol\":3027:3059  infoCompanies[_company]._address */\n      0x00\n      add\n      0x00\n      swap1\n      sload\n      swap1\n      0x0100\n      exp\n      swap1\n      div\n      0xffffffffffffffffffffffffffffffffffffffff\n      and\n        /* \"ReputationControlV2.sol\":3009:3059  address account = infoCompanies[_company]._address */\n      swap1\n      pop\n        /* \"ReputationControlV2.sol\":3070:3083  tokenContract */\n      0x00\n      dup1\n      sload\n      swap1\n      0x0100\n      exp\n      swap1\n      div\n      0xffffffffffffffffffffffffffffffffffffffff\n      and\n        /* \"ReputationControlV2.sol\":3070:3088  tokenContract.burn */\n      0xffffffffffffffffffffffffffffffffffffffff\n      and\n      0x9dc29fac\n        /* \"ReputationControlV2.sol\":3089:3096  account */\n      dup3\n        /* \"ReputationControlV2.sol\":3098:3111  tokenContract */\n      0x00\n      dup1\n      sload\n      swap1\n      0x0100\n      exp\n      swap1\n      div\n      0xffffffffffffffffffffffffffffffffffffffff\n      and\n        /* \"ReputationControlV2.sol\":3098:3121  tokenContract.balanceOf */\n      0xffffffffffffffffffffffffffffffffffffffff\n      and\n      0x70a08231\n        /* \"ReputationControlV2.sol\":3122:3129  account */\n      dup6\n        /* \"ReputationControlV2.sol\":3098:3130  tokenContract.balanceOf(account) */\n      mload(0x40)\n      dup3\n      0xffffffff\n      and\n      0xe0\n      shl\n      dup2\n      mstore\n      0x04\n      add\n      tag_140\n      swap2\n      swap1\n      tag_70\n      jump\t// in\n    tag_140:\n      0x20\n      mload(0x40)\n      dup1\n      dup4\n      sub\n      dup2\n      dup7\n      gas\n      staticcall\n      iszero\n      dup1\n      iszero\n      tag_142\n      jumpi\n      returndatasize\n      0x00\n      dup1\n      returndatacopy\n      revert(0x00, returndatasize)\n    tag_142:\n      pop\n      pop\n      pop\n      pop\n      mload(0x40)\n      returndatasize\n      not(0x1f)\n      0x1f\n      dup3\n      add\n      and\n      dup3\n      add\n      dup1\n      0x40\n      mstore\n      pop\n      dup2\n      add\n      swap1\n      tag_143\n      swap2\n      swap1\n      tag_144\n      jump\t// in\n    tag_143:\n        /* \"ReputationControlV2.sol\":3070:3131  tokenContract.burn(account, tokenContract.balanceOf(account)) */\n      mload(0x40)\n      dup4\n      0xffffffff\n      and\n      0xe0\n      shl\n      dup2\n      mstore\n      0x04\n      add\n      tag_145\n      swap3\n      swap2\n      swap1\n      tag_146\n      jump\t// in\n    tag_145:\n      0x00\n      mload(0x40)\n      dup1\n      dup4\n      sub\n      dup2\n      0x00\n      dup8\n      dup1\n      extcodesize\n      iszero\n      dup1\n      iszero\n      tag_147\n      jumpi\n      0x00\n      dup1\n      revert\n    tag_147:\n      pop\n      gas\n      call\n      iszero\n      dup1\n      iszero\n      tag_149\n      jumpi\n      returndatasize\n      0x00\n      dup1\n      returndatacopy\n      revert(0x00, returndatasize)\n    tag_149:\n      pop\n      pop\n      pop\n      pop\n        /* \"ReputationControlV2.sol\":3142:3152  uint index */\n      0x00\n        /* \"ReputationControlV2.sol\":3155:3168  infoCompanies */\n      0x01\n        /* \"ReputationControlV2.sol\":3169:3177  _company */\n      dup5\n        /* \"ReputationControlV2.sol\":3155:3178  infoCompanies[_company] */\n      mload(0x40)\n      tag_150\n      swap2\n      swap1\n      tag_103\n      jump\t// in\n    tag_150:\n      swap1\n      dup2\n      mstore\n      0x20\n      add\n      mload(0x40)\n      dup1\n      swap2\n      sub\n      swap1\n      keccak256\n        /* \"ReputationControlV2.sol\":3155:3182  infoCompanies[_company].pos */\n      0x01\n      add\n      sload\n        /* \"ReputationControlV2.sol\":3142:3182  uint index = infoCompanies[_company].pos */\n      swap1\n      pop\n        /* \"ReputationControlV2.sol\":3193:3218  string memory lastCompany */\n      0x00\n        /* \"ReputationControlV2.sol\":3221:3230  companies */\n      0x02\n        /* \"ReputationControlV2.sol\":3250:3251  1 */\n      0x01\n        /* \"ReputationControlV2.sol\":3231:3240  companies */\n      0x02\n        /* \"ReputationControlV2.sol\":3231:3247  companies.length */\n      dup1\n      sload\n      swap1\n      pop\n        /* \"ReputationControlV2.sol\":3231:3251  companies.length - 1 */\n      tag_151\n      swap2\n      swap1\n      tag_152\n      jump\t// in\n    tag_151:\n        /* \"ReputationControlV2.sol\":3221:3252  companies[companies.length - 1] */\n      dup2\n      sload\n      dup2\n      lt\n      tag_153\n      jumpi\n      tag_154\n      tag_84\n      jump\t// in\n    tag_154:\n    tag_153:\n      swap1\n      0x00\n      mstore\n      keccak256(0x00, 0x20)\n      add\n        /* \"ReputationControlV2.sol\":3193:3252  string memory lastCompany = companies[companies.length - 1] */\n      dup1\n      sload\n      tag_156\n      swap1\n      tag_125\n      jump\t// in\n    tag_156:\n      dup1\n      0x1f\n      add\n      0x20\n      dup1\n      swap2\n      div\n      mul\n      0x20\n      add\n      mload(0x40)\n      swap1\n      dup2\n      add\n      0x40\n      mstore\n      dup1\n      swap3\n      swap2\n      swap1\n      dup2\n      dup2\n      mstore\n      0x20\n      add\n      dup3\n      dup1\n      sload\n      tag_157\n      swap1\n      tag_125\n      jump\t// in\n    tag_157:\n      dup1\n      iszero\n      tag_158\n      jumpi\n      dup1\n      0x1f\n      lt\n      tag_159\n      jumpi\n      0x0100\n      dup1\n      dup4\n      sload\n      div\n      mul\n      dup4\n      mstore\n      swap2\n      0x20\n      add\n      swap2\n      jump(tag_158)\n    tag_159:\n      dup3\n      add\n      swap2\n      swap1\n      0x00\n      mstore\n      keccak256(0x00, 0x20)\n      swap1\n    tag_160:\n      dup2\n      sload\n      dup2\n      mstore\n      swap1\n      0x01\n      add\n      swap1\n      0x20\n      add\n      dup1\n      dup4\n      gt\n      tag_160\n      jumpi\n      dup3\n      swap1\n      sub\n      0x1f\n      and\n      dup3\n      add\n      swap2\n    tag_158:\n      pop\n      pop\n      pop\n      pop\n      pop\n      swap1\n      pop\n        /* \"ReputationControlV2.sol\":3282:3293  lastCompany */\n      dup1\n        /* \"ReputationControlV2.sol\":3263:3272  companies */\n      0x02\n        /* \"ReputationControlV2.sol\":3273:3278  index */\n      dup4\n        /* \"ReputationControlV2.sol\":3263:3279  companies[index] */\n      dup2\n      sload\n      dup2\n      lt\n      tag_161\n      jumpi\n      tag_162\n      tag_84\n      jump\t// in\n    tag_162:\n    tag_161:\n      swap1\n      0x00\n      mstore\n      keccak256(0x00, 0x20)\n      add\n        /* \"ReputationControlV2.sol\":3263:3293  companies[index] = lastCompany */\n      swap1\n      dup1\n      mload\n      swap1\n      0x20\n      add\n      swap1\n      tag_164\n      swap3\n      swap2\n      swap1\n      tag_118\n      jump\t// in\n    tag_164:\n      pop\n        /* \"ReputationControlV2.sol\":3337:3342  index */\n      dup2\n        /* \"ReputationControlV2.sol\":3304:3317  infoCompanies */\n      0x01\n        /* \"ReputationControlV2.sol\":3318:3329  lastCompany */\n      dup3\n        /* \"ReputationControlV2.sol\":3304:3330  infoCompanies[lastCompany] */\n      mload(0x40)\n      tag_165\n      swap2\n      swap1\n      tag_103\n      jump\t// in\n    tag_165:\n      swap1\n      dup2\n      mstore\n      0x20\n      add\n      mload(0x40)\n      dup1\n      swap2\n      sub\n      swap1\n      keccak256\n        /* \"ReputationControlV2.sol\":3304:3334  infoCompanies[lastCompany].pos */\n      0x01\n      add\n        /* \"ReputationControlV2.sol\":3304:3342  infoCompanies[lastCompany].pos = index */\n      dup2\n      swap1\n      sstore\n      pop\n        /* \"ReputationControlV2.sol\":3353:3362  companies */\n      0x02\n        /* \"ReputationControlV2.sol\":3353:3368  companies.pop() */\n      dup1\n      sload\n      dup1\n      tag_166\n      jumpi\n      tag_167\n      tag_168\n      jump\t// in\n    tag_167:\n    tag_166:\n      0x01\n      swap1\n      sub\n      dup2\n      dup2\n      swap1\n      0x00\n      mstore\n      keccak256(0x00, 0x20)\n      add\n      0x00\n      tag_170\n      swap2\n      swap1\n      tag_171\n      jump\t// in\n    tag_170:\n      swap1\n      sstore\n        /* \"ReputationControlV2.sol\":3386:3399  infoCompanies */\n      0x01\n        /* \"ReputationControlV2.sol\":3400:3408  _company */\n      dup6\n        /* \"ReputationControlV2.sol\":3386:3409  infoCompanies[_company] */\n      mload(0x40)\n      tag_172\n      swap2\n      swap1\n      tag_103\n      jump\t// in\n    tag_172:\n      swap1\n      dup2\n      mstore\n      0x20\n      add\n      mload(0x40)\n      dup1\n      swap2\n      sub\n      swap1\n      keccak256\n      0x00\n        /* \"ReputationControlV2.sol\":3379:3409  delete infoCompanies[_company] */\n      dup1\n      dup3\n      add\n      exp(0x0100, 0x00)\n      dup2\n      sload\n      swap1\n      0xffffffffffffffffffffffffffffffffffffffff\n      mul\n      not\n      and\n      swap1\n      sstore\n      0x01\n      dup3\n      add\n      0x00\n      swap1\n      sstore\n      0x03\n      dup3\n      add\n      0x00\n      tag_173\n      swap2\n      swap1\n      tag_174\n      jump\t// in\n    tag_173:\n      pop\n      pop\n        /* \"ReputationControlV2.sol\":2998:3417  {... */\n      pop\n      pop\n      pop\n        /* \"ReputationControlV2.sol\":1658:1659  _ */\n      pop\n        /* \"ReputationControlV2.sol\":2913:3417  function retireCompany(string memory _company) external onlyOwner isCompany(_company){... */\n      pop\n      jump\t// out\n        /* \"ReputationControlV2.sol\":6122:6226  function getAmountDonated() external view returns (string memory){... */\n    tag_37:\n        /* \"ReputationControlV2.sol\":6173:6186  string memory */\n      0x60\n        /* \"ReputationControlV2.sol\":6205:6218  amountDonated */\n      0x03\n        /* \"ReputationControlV2.sol\":6198:6218  return amountDonated */\n      dup1\n      sload\n      tag_176\n      swap1\n      tag_125\n      jump\t// in\n    tag_176:\n      dup1\n      0x1f\n      add\n      0x20\n      dup1\n      swap2\n      div\n      mul\n      0x20\n      add\n      mload(0x40)\n      swap1\n      dup2\n      add\n      0x40\n      mstore\n      dup1\n      swap3\n      swap2\n      swap1\n      dup2\n      dup2\n      mstore\n      0x20\n      add\n      dup3\n      dup1\n      sload\n      tag_177\n      swap1\n      tag_125\n      jump\t// in\n    tag_177:\n      dup1\n      iszero\n      tag_178\n      jumpi\n      dup1\n      0x1f\n      lt\n      tag_179\n      jumpi\n      0x0100\n      dup1\n      dup4\n      sload\n      div\n      mul\n      dup4\n      mstore\n      swap2\n      0x20\n      add\n      swap2\n      jump(tag_178)\n    tag_179:\n      dup3\n      add\n      swap2\n      swap1\n      0x00\n      mstore\n      keccak256(0x00, 0x20)\n      swap1\n    tag_180:\n      dup2\n      sload\n      dup2\n      mstore\n      swap1\n      0x01\n      add\n      swap1\n      0x20\n      add\n      dup1\n      dup4\n      gt\n      tag_180\n      jumpi\n      dup3\n      swap1\n      sub\n      0x1f\n      and\n      dup3\n      add\n      swap2\n    tag_178:\n      pop\n      pop\n      pop\n      pop\n      pop\n      swap1\n      pop\n        /* \"ReputationControlV2.sol\":6122:6226  function getAmountDonated() external view returns (string memory){... */\n      swap1\n      jump\t// out\n        /* \"ReputationControlV2.sol\":3840:4159  function getAllReputations() external view returns (uint[] memory){... */\n    tag_41:\n        /* \"ReputationControlV2.sol\":3892:3905  uint[] memory */\n      0x60\n        /* \"ReputationControlV2.sol\":3917:3941  uint [] memory _balances */\n      0x00\n        /* \"ReputationControlV2.sol\":3955:3964  companies */\n      0x02\n        /* \"ReputationControlV2.sol\":3955:3971  companies.length */\n      dup1\n      sload\n      swap1\n      pop\n        /* \"ReputationControlV2.sol\":3944:3972  new uint[](companies.length) */\n      0xffffffffffffffff\n      dup2\n      gt\n      iszero\n      tag_182\n      jumpi\n      tag_183\n      tag_77\n      jump\t// in\n    tag_183:\n    tag_182:\n      mload(0x40)\n      swap1\n      dup1\n      dup3\n      mstore\n      dup1\n      0x20\n      mul\n      0x20\n      add\n      dup3\n      add\n      0x40\n      mstore\n      dup1\n      iszero\n      tag_184\n      jumpi\n      dup2\n      0x20\n      add\n      0x20\n      dup3\n      mul\n      dup1\n      calldatasize\n      dup4\n      calldatacopy\n      dup1\n      dup3\n      add\n      swap2\n      pop\n      pop\n      swap1\n      pop\n    tag_184:\n      pop\n        /* \"ReputationControlV2.sol\":3917:3972  uint [] memory _balances = new uint[](companies.length) */\n      swap1\n      pop\n        /* \"ReputationControlV2.sol\":3987:3993  uint i */\n      0x00\n        /* \"ReputationControlV2.sol\":3983:4125  for(uint i = 0; i<companies.length;++i){... */\n    tag_185:\n        /* \"ReputationControlV2.sol\":4001:4010  companies */\n      0x02\n        /* \"ReputationControlV2.sol\":4001:4017  companies.length */\n      dup1\n      sload\n      swap1\n      pop\n        /* \"ReputationControlV2.sol\":3999:4000  i */\n      dup2\n        /* \"ReputationControlV2.sol\":3999:4017  i<companies.length */\n      lt\n        /* \"ReputationControlV2.sol\":3983:4125  for(uint i = 0; i<companies.length;++i){... */\n      iszero\n      tag_186\n      jumpi\n        /* \"ReputationControlV2.sol\":4052:4065  tokenContract */\n      0x00\n      dup1\n      sload\n      swap1\n      0x0100\n      exp\n      swap1\n      div\n      0xffffffffffffffffffffffffffffffffffffffff\n      and\n        /* \"ReputationControlV2.sol\":4052:4075  tokenContract.balanceOf */\n      0xffffffffffffffffffffffffffffffffffffffff\n      and\n      0x70a08231\n        /* \"ReputationControlV2.sol\":4076:4089  infoCompanies */\n      0x01\n        /* \"ReputationControlV2.sol\":4090:4099  companies */\n      0x02\n        /* \"ReputationControlV2.sol\":4100:4101  i */\n      dup5\n        /* \"ReputationControlV2.sol\":4090:4102  companies[i] */\n      dup2\n      sload\n      dup2\n      lt\n      tag_188\n      jumpi\n      tag_189\n      tag_84\n      jump\t// in\n    tag_189:\n    tag_188:\n      swap1\n      0x00\n      mstore\n      keccak256(0x00, 0x20)\n      add\n        /* \"ReputationControlV2.sol\":4076:4103  infoCompanies[companies[i]] */\n      mload(0x40)\n      tag_191\n      swap2\n      swap1\n      tag_87\n      jump\t// in\n    tag_191:\n      swap1\n      dup2\n      mstore\n      0x20\n      add\n      mload(0x40)\n      dup1\n      swap2\n      sub\n      swap1\n      keccak256\n        /* \"ReputationControlV2.sol\":4076:4112  infoCompanies[companies[i]]._address */\n      0x00\n      add\n      0x00\n      swap1\n      sload\n      swap1\n      0x0100\n      exp\n      swap1\n      div\n      0xffffffffffffffffffffffffffffffffffffffff\n      and\n        /* \"ReputationControlV2.sol\":4052:4113  tokenContract.balanceOf(infoCompanies[companies[i]]._address) */\n      mload(0x40)\n      dup3\n      0xffffffff\n      and\n      0xe0\n      shl\n      dup2\n      mstore\n      0x04\n      add\n      tag_192\n      swap2\n      swap1\n      tag_70\n      jump\t// in\n    tag_192:\n      0x20\n      mload(0x40)\n      dup1\n      dup4\n      sub\n      dup2\n      dup7\n      gas\n      staticcall\n      iszero\n      dup1\n      iszero\n      tag_194\n      jumpi\n      returndatasize\n      0x00\n      dup1\n      returndatacopy\n      revert(0x00, returndatasize)\n    tag_194:\n      pop\n      pop\n      pop\n      pop\n      mload(0x40)\n      returndatasize\n      not(0x1f)\n      0x1f\n      dup3\n      add\n      and\n      dup3\n      add\n      dup1\n      0x40\n      mstore\n      pop\n      dup2\n      add\n      swap1\n      tag_195\n      swap2\n      swap1\n      tag_144\n      jump\t// in\n    tag_195:\n        /* \"ReputationControlV2.sol\":4037:4046  _balances */\n      dup3\n        /* \"ReputationControlV2.sol\":4047:4048  i */\n      dup3\n        /* \"ReputationControlV2.sol\":4037:4049  _balances[i] */\n      dup2\n      mload\n      dup2\n      lt\n      tag_196\n      jumpi\n      tag_197\n      tag_84\n      jump\t// in\n    tag_197:\n    tag_196:\n      0x20\n      mul\n      0x20\n      add\n      add\n        /* \"ReputationControlV2.sol\":4037:4113  _balances[i] = tokenContract.balanceOf(infoCompanies[companies[i]]._address) */\n      dup2\n      dup2\n      mstore\n      pop\n      pop\n        /* \"ReputationControlV2.sol\":4018:4021  ++i */\n      dup1\n      tag_198\n      swap1\n      tag_91\n      jump\t// in\n    tag_198:\n      swap1\n      pop\n        /* \"ReputationControlV2.sol\":3983:4125  for(uint i = 0; i<companies.length;++i){... */\n      jump(tag_185)\n    tag_186:\n      pop\n        /* \"ReputationControlV2.sol\":4142:4151  _balances */\n      dup1\n        /* \"ReputationControlV2.sol\":4135:4151  return _balances */\n      swap2\n      pop\n      pop\n        /* \"ReputationControlV2.sol\":3840:4159  function getAllReputations() external view returns (uint[] memory){... */\n      swap1\n      jump\t// out\n        /* \"ReputationControlV2.sol\":3654:3832  function getReputation(string memory _company) external view isCompany(_company) returns (uint){... */\n    tag_46:\n        /* \"ReputationControlV2.sol\":3744:3748  uint */\n      0x00\n        /* \"ReputationControlV2.sol\":3725:3733  _company */\n      dup2\n        /* \"ReputationControlV2.sol\":1780:1781  0 */\n      0x00\n        /* \"ReputationControlV2.sol\":1736:1782  infoCompanies[_company]._address != address(0) */\n      0xffffffffffffffffffffffffffffffffffffffff\n      and\n        /* \"ReputationControlV2.sol\":1736:1749  infoCompanies */\n      0x01\n        /* \"ReputationControlV2.sol\":1750:1758  _company */\n      dup3\n        /* \"ReputationControlV2.sol\":1736:1759  infoCompanies[_company] */\n      mload(0x40)\n      tag_200\n      swap2\n      swap1\n      tag_103\n      jump\t// in\n    tag_200:\n      swap1\n      dup2\n      mstore\n      0x20\n      add\n      mload(0x40)\n      dup1\n      swap2\n      sub\n      swap1\n      keccak256\n        /* \"ReputationControlV2.sol\":1736:1768  infoCompanies[_company]._address */\n      0x00\n      add\n      0x00\n      swap1\n      sload\n      swap1\n      0x0100\n      exp\n      swap1\n      div\n      0xffffffffffffffffffffffffffffffffffffffff\n      and\n        /* \"ReputationControlV2.sol\":1736:1782  infoCompanies[_company]._address != address(0) */\n      0xffffffffffffffffffffffffffffffffffffffff\n      and\n      eq\n      iszero\n        /* \"ReputationControlV2.sol\":1728:1830  require(infoCompanies[_company]._address != address(0), \"Not detected as a participant in our system\") */\n      tag_201\n      jumpi\n      mload(0x40)\n      0x08c379a000000000000000000000000000000000000000000000000000000000\n      dup2\n      mstore\n      0x04\n      add\n      tag_202\n      swap1\n      tag_137\n      jump\t// in\n    tag_202:\n      mload(0x40)\n      dup1\n      swap2\n      sub\n      swap1\n      revert\n    tag_201:\n        /* \"ReputationControlV2.sol\":3767:3780  tokenContract */\n      0x00\n      dup1\n      sload\n      swap1\n      0x0100\n      exp\n      swap1\n      div\n      0xffffffffffffffffffffffffffffffffffffffff\n      and\n        /* \"ReputationControlV2.sol\":3767:3790  tokenContract.balanceOf */\n      0xffffffffffffffffffffffffffffffffffffffff\n      and\n      0x70a08231\n        /* \"ReputationControlV2.sol\":3791:3804  infoCompanies */\n      0x01\n        /* \"ReputationControlV2.sol\":3805:3813  _company */\n      dup6\n        /* \"ReputationControlV2.sol\":3791:3814  infoCompanies[_company] */\n      mload(0x40)\n      tag_204\n      swap2\n      swap1\n      tag_103\n      jump\t// in\n    tag_204:\n      swap1\n      dup2\n      mstore\n      0x20\n      add\n      mload(0x40)\n      dup1\n      swap2\n      sub\n      swap1\n      keccak256\n        /* \"ReputationControlV2.sol\":3791:3823  infoCompanies[_company]._address */\n      0x00\n      add\n      0x00\n      swap1\n      sload\n      swap1\n      0x0100\n      exp\n      swap1\n      div\n      0xffffffffffffffffffffffffffffffffffffffff\n      and\n        /* \"ReputationControlV2.sol\":3767:3824  tokenContract.balanceOf(infoCompanies[_company]._address) */\n      mload(0x40)\n      dup3\n      0xffffffff\n      and\n      0xe0\n      shl\n      dup2\n      mstore\n      0x04\n      add\n      tag_205\n      swap2\n      swap1\n      tag_70\n      jump\t// in\n    tag_205:\n      0x20\n      mload(0x40)\n      dup1\n      dup4\n      sub\n      dup2\n      dup7\n      gas\n      staticcall\n      iszero\n      dup1\n      iszero\n      tag_207\n      jumpi\n      returndatasize\n      0x00\n      dup1\n      returndatacopy\n      revert(0x00, returndatasize)\n    tag_207:\n      pop\n      pop\n      pop\n      pop\n      mload(0x40)\n      returndatasize\n      not(0x1f)\n      0x1f\n      dup3\n      add\n      and\n      dup3\n      add\n      dup1\n      0x40\n      mstore\n      pop\n      dup2\n      add\n      swap1\n      tag_208\n      swap2\n      swap1\n      tag_144\n      jump\t// in\n    tag_208:\n        /* \"ReputationControlV2.sol\":3760:3824  return tokenContract.balanceOf(infoCompanies[_company]._address) */\n      swap2\n      pop\n        /* \"ReputationControlV2.sol\":3654:3832  function getReputation(string memory _company) external view isCompany(_company) returns (uint){... */\n      pop\n      swap2\n      swap1\n      pop\n      jump\t// out\n        /* \"ReputationControlV2.sol\":3425:3535  function getTotalComplaints() external view returns(uint){... */\n    tag_50:\n        /* \"ReputationControlV2.sol\":3477:3481  uint */\n      0x00\n        /* \"ReputationControlV2.sol\":3500:3513  tokenContract */\n      dup1\n      0x00\n      swap1\n      sload\n      swap1\n      0x0100\n      exp\n      swap1\n      div\n      0xffffffffffffffffffffffffffffffffffffffff\n      and\n        /* \"ReputationControlV2.sol\":3500:3525  tokenContract.totalSupply */\n      0xffffffffffffffffffffffffffffffffffffffff\n      and\n      0x18160ddd\n        /* \"ReputationControlV2.sol\":3500:3527  tokenContract.totalSupply() */\n      mload(0x40)\n      dup2\n      0xffffffff\n      and\n      0xe0\n      shl\n      dup2\n      mstore\n      0x04\n      add\n      0x20\n      mload(0x40)\n      dup1\n      dup4\n      sub\n      dup2\n      dup7\n      gas\n      staticcall\n      iszero\n      dup1\n      iszero\n      tag_211\n      jumpi\n      returndatasize\n      0x00\n      dup1\n      returndatacopy\n      revert(0x00, returndatasize)\n    tag_211:\n      pop\n      pop\n      pop\n      pop\n      mload(0x40)\n      returndatasize\n      not(0x1f)\n      0x1f\n      dup3\n      add\n      and\n      dup3\n      add\n      dup1\n      0x40\n      mstore\n      pop\n      dup2\n      add\n      swap1\n      tag_212\n      swap2\n      swap1\n      tag_144\n      jump\t// in\n    tag_212:\n        /* \"ReputationControlV2.sol\":3493:3527  return tokenContract.totalSupply() */\n      swap1\n      pop\n        /* \"ReputationControlV2.sol\":3425:3535  function getTotalComplaints() external view returns(uint){... */\n      swap1\n      jump\t// out\n        /* \"ReputationControlV2.sol\":6004:6114  function changeAmountDonated(string memory amount) external onlyOwner{... */\n    tag_54:\n        /* \"ReputationControlV2.sol\":1625:1630  owner */\n      immutable(\"0xb6477a31e41e27dc2f2cbe4c2bbb37b5a6a34683d5cbca4a1a706df5525a2d30\")\n        /* \"ReputationControlV2.sol\":1611:1630  msg.sender == owner */\n      0xffffffffffffffffffffffffffffffffffffffff\n      and\n        /* \"ReputationControlV2.sol\":1611:1621  msg.sender */\n      caller\n        /* \"ReputationControlV2.sol\":1611:1630  msg.sender == owner */\n      0xffffffffffffffffffffffffffffffffffffffff\n      and\n      eq\n        /* \"ReputationControlV2.sol\":1603:1647  require(msg.sender == owner,\"No allowances\") */\n      tag_214\n      jumpi\n      mload(0x40)\n      0x08c379a000000000000000000000000000000000000000000000000000000000\n      dup2\n      mstore\n      0x04\n      add\n      tag_215\n      swap1\n      tag_95\n      jump\t// in\n    tag_215:\n      mload(0x40)\n      dup1\n      swap2\n      sub\n      swap1\n      revert\n    tag_214:\n        /* \"ReputationControlV2.sol\":6100:6106  amount */\n      dup1\n        /* \"ReputationControlV2.sol\":6084:6097  amountDonated */\n      0x03\n        /* \"ReputationControlV2.sol\":6084:6106  amountDonated = amount */\n      swap1\n      dup1\n      mload\n      swap1\n      0x20\n      add\n      swap1\n      tag_217\n      swap3\n      swap2\n      swap1\n      tag_118\n      jump\t// in\n    tag_217:\n      pop\n        /* \"ReputationControlV2.sol\":6004:6114  function changeAmountDonated(string memory amount) external onlyOwner{... */\n      pop\n      jump\t// out\n        /* \"ReputationControlV2.sol\":4656:4833  function getCompanyComplaints(string memory _company) external view isCompany(_company) returns (string[] memory){... */\n    tag_57:\n        /* \"ReputationControlV2.sol\":4753:4768  string[] memory */\n      0x60\n        /* \"ReputationControlV2.sol\":4734:4742  _company */\n      dup2\n        /* \"ReputationControlV2.sol\":1780:1781  0 */\n      0x00\n        /* \"ReputationControlV2.sol\":1736:1782  infoCompanies[_company]._address != address(0) */\n      0xffffffffffffffffffffffffffffffffffffffff\n      and\n        /* \"ReputationControlV2.sol\":1736:1749  infoCompanies */\n      0x01\n        /* \"ReputationControlV2.sol\":1750:1758  _company */\n      dup3\n        /* \"ReputationControlV2.sol\":1736:1759  infoCompanies[_company] */\n      mload(0x40)\n      tag_219\n      swap2\n      swap1\n      tag_103\n      jump\t// in\n    tag_219:\n      swap1\n      dup2\n      mstore\n      0x20\n      add\n      mload(0x40)\n      dup1\n      swap2\n      sub\n      swap1\n      keccak256\n        /* \"ReputationControlV2.sol\":1736:1768  infoCompanies[_company]._address */\n      0x00\n      add\n      0x00\n      swap1\n      sload\n      swap1\n      0x0100\n      exp\n      swap1\n      div\n      0xffffffffffffffffffffffffffffffffffffffff\n      and\n        /* \"ReputationControlV2.sol\":1736:1782  infoCompanies[_company]._address != address(0) */\n      0xffffffffffffffffffffffffffffffffffffffff\n      and\n      eq\n      iszero\n        /* \"ReputationControlV2.sol\":1728:1830  require(infoCompanies[_company]._address != address(0), \"Not detected as a participant in our system\") */\n      tag_220\n      jumpi\n      mload(0x40)\n      0x08c379a000000000000000000000000000000000000000000000000000000000\n      dup2\n      mstore\n      0x04\n      add\n      tag_221\n      swap1\n      tag_137\n      jump\t// in\n    tag_221:\n      mload(0x40)\n      dup1\n      swap2\n      sub\n      swap1\n      revert\n    tag_220:\n        /* \"ReputationControlV2.sol\":4787:4800  infoCompanies */\n      0x01\n        /* \"ReputationControlV2.sol\":4801:4809  _company */\n      dup4\n        /* \"ReputationControlV2.sol\":4787:4810  infoCompanies[_company] */\n      mload(0x40)\n      tag_223\n      swap2\n      swap1\n      tag_103\n      jump\t// in\n    tag_223:\n      swap1\n      dup2\n      mstore\n      0x20\n      add\n      mload(0x40)\n      dup1\n      swap2\n      sub\n      swap1\n      keccak256\n        /* \"ReputationControlV2.sol\":4787:4825  infoCompanies[_company].hashComplaints */\n      0x03\n      add\n        /* \"ReputationControlV2.sol\":4780:4825  return infoCompanies[_company].hashComplaints */\n      dup1\n      sload\n      dup1\n      0x20\n      mul\n      0x20\n      add\n      mload(0x40)\n      swap1\n      dup2\n      add\n      0x40\n      mstore\n      dup1\n      swap3\n      swap2\n      swap1\n      dup2\n      dup2\n      mstore\n      0x20\n      add\n      0x00\n      swap1\n    tag_224:\n      dup3\n      dup3\n      lt\n      iszero\n      tag_225\n      jumpi\n      dup4\n      dup3\n      swap1\n      0x00\n      mstore\n      keccak256(0x00, 0x20)\n      add\n      dup1\n      sload\n      tag_227\n      swap1\n      tag_125\n      jump\t// in\n    tag_227:\n      dup1\n      0x1f\n      add\n      0x20\n      dup1\n      swap2\n      div\n      mul\n      0x20\n      add\n      mload(0x40)\n      swap1\n      dup2\n      add\n      0x40\n      mstore\n      dup1\n      swap3\n      swap2\n      swap1\n      dup2\n      dup2\n      mstore\n      0x20\n      add\n      dup3\n      dup1\n      sload\n      tag_228\n      swap1\n      tag_125\n      jump\t// in\n    tag_228:\n      dup1\n      iszero\n      tag_229\n      jumpi\n      dup1\n      0x1f\n      lt\n      tag_230\n      jumpi\n      0x0100\n      dup1\n      dup4\n      sload\n      div\n      mul\n      dup4\n      mstore\n      swap2\n      0x20\n      add\n      swap2\n      jump(tag_229)\n    tag_230:\n      dup3\n      add\n      swap2\n      swap1\n      0x00\n      mstore\n      keccak256(0x00, 0x20)\n      swap1\n    tag_231:\n      dup2\n      sload\n      dup2\n      mstore\n      swap1\n      0x01\n      add\n      swap1\n      0x20\n      add\n      dup1\n      dup4\n      gt\n      tag_231\n      jumpi\n      dup3\n      swap1\n      sub\n      0x1f\n      and\n      dup3\n      add\n      swap2\n    tag_229:\n      pop\n      pop\n      pop\n      pop\n      pop\n      dup2\n      mstore\n      0x20\n      add\n      swap1\n      0x01\n      add\n      swap1\n      jump(tag_224)\n    tag_225:\n      pop\n      pop\n      pop\n      pop\n      swap2\n      pop\n        /* \"ReputationControlV2.sol\":4656:4833  function getCompanyComplaints(string memory _company) external view isCompany(_company) returns (string[] memory){... */\n      pop\n      swap2\n      swap1\n      pop\n      jump\t// out\n        /* \"ReputationControlV2.sol\":5186:5996  function retireComplaint(string memory _company, string memory _hash) external isCompany(_company) onlyOwner{... */\n    tag_62:\n        /* \"ReputationControlV2.sol\":5275:5283  _company */\n      dup2\n        /* \"ReputationControlV2.sol\":1780:1781  0 */\n      0x00\n        /* \"ReputationControlV2.sol\":1736:1782  infoCompanies[_company]._address != address(0) */\n      0xffffffffffffffffffffffffffffffffffffffff\n      and\n        /* \"ReputationControlV2.sol\":1736:1749  infoCompanies */\n      0x01\n        /* \"ReputationControlV2.sol\":1750:1758  _company */\n      dup3\n        /* \"ReputationControlV2.sol\":1736:1759  infoCompanies[_company] */\n      mload(0x40)\n      tag_233\n      swap2\n      swap1\n      tag_103\n      jump\t// in\n    tag_233:\n      swap1\n      dup2\n      mstore\n      0x20\n      add\n      mload(0x40)\n      dup1\n      swap2\n      sub\n      swap1\n      keccak256\n        /* \"ReputationControlV2.sol\":1736:1768  infoCompanies[_company]._address */\n      0x00\n      add\n      0x00\n      swap1\n      sload\n      swap1\n      0x0100\n      exp\n      swap1\n      div\n      0xffffffffffffffffffffffffffffffffffffffff\n      and\n        /* \"ReputationControlV2.sol\":1736:1782  infoCompanies[_company]._address != address(0) */\n      0xffffffffffffffffffffffffffffffffffffffff\n      and\n      eq\n      iszero\n        /* \"ReputationControlV2.sol\":1728:1830  require(infoCompanies[_company]._address != address(0), \"Not detected as a participant in our system\") */\n      tag_234\n      jumpi\n      mload(0x40)\n      0x08c379a000000000000000000000000000000000000000000000000000000000\n      dup2\n      mstore\n      0x04\n      add\n      tag_235\n      swap1\n      tag_137\n      jump\t// in\n    tag_235:\n      mload(0x40)\n      dup1\n      swap2\n      sub\n      swap1\n      revert\n    tag_234:\n        /* \"ReputationControlV2.sol\":1625:1630  owner */\n      immutable(\"0xb6477a31e41e27dc2f2cbe4c2bbb37b5a6a34683d5cbca4a1a706df5525a2d30\")\n        /* \"ReputationControlV2.sol\":1611:1630  msg.sender == owner */\n      0xffffffffffffffffffffffffffffffffffffffff\n      and\n        /* \"ReputationControlV2.sol\":1611:1621  msg.sender */\n      caller\n        /* \"ReputationControlV2.sol\":1611:1630  msg.sender == owner */\n      0xffffffffffffffffffffffffffffffffffffffff\n      and\n      eq\n        /* \"ReputationControlV2.sol\":1603:1647  require(msg.sender == owner,\"No allowances\") */\n      tag_237\n      jumpi\n      mload(0x40)\n      0x08c379a000000000000000000000000000000000000000000000000000000000\n      dup2\n      mstore\n      0x04\n      add\n      tag_238\n      swap1\n      tag_95\n      jump\t// in\n    tag_238:\n      mload(0x40)\n      dup1\n      swap2\n      sub\n      swap1\n      revert\n    tag_237:\n        /* \"ReputationControlV2.sol\":5305:5315  uint index */\n      0x00\n        /* \"ReputationControlV2.sol\":5318:5331  infoCompanies */\n      0x01\n        /* \"ReputationControlV2.sol\":5332:5340  _company */\n      dup5\n        /* \"ReputationControlV2.sol\":5318:5341  infoCompanies[_company] */\n      mload(0x40)\n      tag_240\n      swap2\n      swap1\n      tag_103\n      jump\t// in\n    tag_240:\n      swap1\n      dup2\n      mstore\n      0x20\n      add\n      mload(0x40)\n      dup1\n      swap2\n      sub\n      swap1\n      keccak256\n        /* \"ReputationControlV2.sol\":5318:5350  infoCompanies[_company].posArray */\n      0x02\n      add\n        /* \"ReputationControlV2.sol\":5351:5356  _hash */\n      dup4\n        /* \"ReputationControlV2.sol\":5318:5357  infoCompanies[_company].posArray[_hash] */\n      mload(0x40)\n      tag_241\n      swap2\n      swap1\n      tag_103\n      jump\t// in\n    tag_241:\n      swap1\n      dup2\n      mstore\n      0x20\n      add\n      mload(0x40)\n      dup1\n      swap2\n      sub\n      swap1\n      keccak256\n      sload\n        /* \"ReputationControlV2.sol\":5305:5357  uint index = infoCompanies[_company].posArray[_hash] */\n      swap1\n      pop\n        /* \"ReputationControlV2.sol\":5382:5383  0 */\n      0x00\n        /* \"ReputationControlV2.sol\":5376:5381  index */\n      dup2\n        /* \"ReputationControlV2.sol\":5376:5383  index>0 */\n      gt\n        /* \"ReputationControlV2.sol\":5368:5419  require(index>0, \"This complaint isn't registered\") */\n      tag_242\n      jumpi\n      mload(0x40)\n      0x08c379a000000000000000000000000000000000000000000000000000000000\n      dup2\n      mstore\n      0x04\n      add\n      tag_243\n      swap1\n      tag_244\n      jump\t// in\n    tag_243:\n      mload(0x40)\n      dup1\n      swap2\n      sub\n      swap1\n      revert\n    tag_242:\n        /* \"ReputationControlV2.sol\":5498:5507  uint last */\n      0x00\n        /* \"ReputationControlV2.sol\":5558:5559  1 */\n      0x01\n        /* \"ReputationControlV2.sol\":5510:5523  infoCompanies */\n      dup1\n        /* \"ReputationControlV2.sol\":5524:5532  _company */\n      dup7\n        /* \"ReputationControlV2.sol\":5510:5533  infoCompanies[_company] */\n      mload(0x40)\n      tag_245\n      swap2\n      swap1\n      tag_103\n      jump\t// in\n    tag_245:\n      swap1\n      dup2\n      mstore\n      0x20\n      add\n      mload(0x40)\n      dup1\n      swap2\n      sub\n      swap1\n      keccak256\n        /* \"ReputationControlV2.sol\":5510:5548  infoCompanies[_company].hashComplaints */\n      0x03\n      add\n        /* \"ReputationControlV2.sol\":5510:5555  infoCompanies[_company].hashComplaints.length */\n      dup1\n      sload\n      swap1\n      pop\n        /* \"ReputationControlV2.sol\":5510:5559  infoCompanies[_company].hashComplaints.length - 1 */\n      tag_246\n      swap2\n      swap1\n      tag_152\n      jump\t// in\n    tag_246:\n        /* \"ReputationControlV2.sol\":5498:5559  uint last = infoCompanies[_company].hashComplaints.length - 1 */\n      swap1\n      pop\n        /* \"ReputationControlV2.sol\":5570:5592  string memory lastHash */\n      0x00\n        /* \"ReputationControlV2.sol\":5595:5608  infoCompanies */\n      0x01\n        /* \"ReputationControlV2.sol\":5609:5617  _company */\n      dup7\n        /* \"ReputationControlV2.sol\":5595:5618  infoCompanies[_company] */\n      mload(0x40)\n      tag_247\n      swap2\n      swap1\n      tag_103\n      jump\t// in\n    tag_247:\n      swap1\n      dup2\n      mstore\n      0x20\n      add\n      mload(0x40)\n      dup1\n      swap2\n      sub\n      swap1\n      keccak256\n        /* \"ReputationControlV2.sol\":5595:5633  infoCompanies[_company].hashComplaints */\n      0x03\n      add\n        /* \"ReputationControlV2.sol\":5634:5638  last */\n      dup3\n        /* \"ReputationControlV2.sol\":5595:5639  infoCompanies[_company].hashComplaints[last] */\n      dup2\n      sload\n      dup2\n      lt\n      tag_248\n      jumpi\n      tag_249\n      tag_84\n      jump\t// in\n    tag_249:\n    tag_248:\n      swap1\n      0x00\n      mstore\n      keccak256(0x00, 0x20)\n      add\n        /* \"ReputationControlV2.sol\":5570:5639  string memory lastHash = infoCompanies[_company].hashComplaints[last] */\n      dup1\n      sload\n      tag_251\n      swap1\n      tag_125\n      jump\t// in\n    tag_251:\n      dup1\n      0x1f\n      add\n      0x20\n      dup1\n      swap2\n      div\n      mul\n      0x20\n      add\n      mload(0x40)\n      swap1\n      dup2\n      add\n      0x40\n      mstore\n      dup1\n      swap3\n      swap2\n      swap1\n      dup2\n      dup2\n      mstore\n      0x20\n      add\n      dup3\n      dup1\n      sload\n      tag_252\n      swap1\n      tag_125\n      jump\t// in\n    tag_252:\n      dup1\n      iszero\n      tag_253\n      jumpi\n      dup1\n      0x1f\n      lt\n      tag_254\n      jumpi\n      0x0100\n      dup1\n      dup4\n      sload\n      div\n      mul\n      dup4\n      mstore\n      swap2\n      0x20\n      add\n      swap2\n      jump(tag_253)\n    tag_254:\n      dup3\n      add\n      swap2\n      swap1\n      0x00\n      mstore\n      keccak256(0x00, 0x20)\n      swap1\n    tag_255:\n      dup2\n      sload\n      dup2\n      mstore\n      swap1\n      0x01\n      add\n      swap1\n      0x20\n      add\n      dup1\n      dup4\n      gt\n      tag_255\n      jumpi\n      dup3\n      swap1\n      sub\n      0x1f\n      and\n      dup3\n      add\n      swap2\n    tag_253:\n      pop\n      pop\n      pop\n      pop\n      pop\n      swap1\n      pop\n        /* \"ReputationControlV2.sol\":5695:5700  index */\n      dup3\n        /* \"ReputationControlV2.sol\":5650:5663  infoCompanies */\n      0x01\n        /* \"ReputationControlV2.sol\":5664:5672  _company */\n      dup8\n        /* \"ReputationControlV2.sol\":5650:5673  infoCompanies[_company] */\n      mload(0x40)\n      tag_256\n      swap2\n      swap1\n      tag_103\n      jump\t// in\n    tag_256:\n      swap1\n      dup2\n      mstore\n      0x20\n      add\n      mload(0x40)\n      dup1\n      swap2\n      sub\n      swap1\n      keccak256\n        /* \"ReputationControlV2.sol\":5650:5682  infoCompanies[_company].posArray */\n      0x02\n      add\n        /* \"ReputationControlV2.sol\":5683:5691  lastHash */\n      dup3\n        /* \"ReputationControlV2.sol\":5650:5692  infoCompanies[_company].posArray[lastHash] */\n      mload(0x40)\n      tag_257\n      swap2\n      swap1\n      tag_103\n      jump\t// in\n    tag_257:\n      swap1\n      dup2\n      mstore\n      0x20\n      add\n      mload(0x40)\n      dup1\n      swap2\n      sub\n      swap1\n      keccak256\n        /* \"ReputationControlV2.sol\":5650:5700  infoCompanies[_company].posArray[lastHash] = index */\n      dup2\n      swap1\n      sstore\n      pop\n        /* \"ReputationControlV2.sol\":5753:5754  0 */\n      0x00\n        /* \"ReputationControlV2.sol\":5711:5724  infoCompanies */\n      0x01\n        /* \"ReputationControlV2.sol\":5725:5733  _company */\n      dup8\n        /* \"ReputationControlV2.sol\":5711:5734  infoCompanies[_company] */\n      mload(0x40)\n      tag_258\n      swap2\n      swap1\n      tag_103\n      jump\t// in\n    tag_258:\n      swap1\n      dup2\n      mstore\n      0x20\n      add\n      mload(0x40)\n      dup1\n      swap2\n      sub\n      swap1\n      keccak256\n        /* \"ReputationControlV2.sol\":5711:5743  infoCompanies[_company].posArray */\n      0x02\n      add\n        /* \"ReputationControlV2.sol\":5744:5749  _hash */\n      dup7\n        /* \"ReputationControlV2.sol\":5711:5750  infoCompanies[_company].posArray[_hash] */\n      mload(0x40)\n      tag_259\n      swap2\n      swap1\n      tag_103\n      jump\t// in\n    tag_259:\n      swap1\n      dup2\n      mstore\n      0x20\n      add\n      mload(0x40)\n      dup1\n      swap2\n      sub\n      swap1\n      keccak256\n        /* \"ReputationControlV2.sol\":5711:5754  infoCompanies[_company].posArray[_hash] = 0 */\n      dup2\n      swap1\n      sstore\n      pop\n        /* \"ReputationControlV2.sol\":5817:5825  lastHash */\n      dup1\n        /* \"ReputationControlV2.sol\":5765:5778  infoCompanies */\n      0x01\n        /* \"ReputationControlV2.sol\":5779:5787  _company */\n      dup8\n        /* \"ReputationControlV2.sol\":5765:5788  infoCompanies[_company] */\n      mload(0x40)\n      tag_260\n      swap2\n      swap1\n      tag_103\n      jump\t// in\n    tag_260:\n      swap1\n      dup2\n      mstore\n      0x20\n      add\n      mload(0x40)\n      dup1\n      swap2\n      sub\n      swap1\n      keccak256\n        /* \"ReputationControlV2.sol\":5765:5803  infoCompanies[_company].hashComplaints */\n      0x03\n      add\n        /* \"ReputationControlV2.sol\":5812:5813  1 */\n      0x01\n        /* \"ReputationControlV2.sol\":5804:5809  index */\n      dup6\n        /* \"ReputationControlV2.sol\":5804:5813  index - 1 */\n      tag_261\n      swap2\n      swap1\n      tag_152\n      jump\t// in\n    tag_261:\n        /* \"ReputationControlV2.sol\":5765:5814  infoCompanies[_company].hashComplaints[index - 1] */\n      dup2\n      sload\n      dup2\n      lt\n      tag_262\n      jumpi\n      tag_263\n      tag_84\n      jump\t// in\n    tag_263:\n    tag_262:\n      swap1\n      0x00\n      mstore\n      keccak256(0x00, 0x20)\n      add\n        /* \"ReputationControlV2.sol\":5765:5825  infoCompanies[_company].hashComplaints[index - 1] = lastHash */\n      swap1\n      dup1\n      mload\n      swap1\n      0x20\n      add\n      swap1\n      tag_265\n      swap3\n      swap2\n      swap1\n      tag_118\n      jump\t// in\n    tag_265:\n      pop\n        /* \"ReputationControlV2.sol\":5836:5849  infoCompanies */\n      0x01\n        /* \"ReputationControlV2.sol\":5850:5858  _company */\n      dup7\n        /* \"ReputationControlV2.sol\":5836:5859  infoCompanies[_company] */\n      mload(0x40)\n      tag_266\n      swap2\n      swap1\n      tag_103\n      jump\t// in\n    tag_266:\n      swap1\n      dup2\n      mstore\n      0x20\n      add\n      mload(0x40)\n      dup1\n      swap2\n      sub\n      swap1\n      keccak256\n        /* \"ReputationControlV2.sol\":5836:5874  infoCompanies[_company].hashComplaints */\n      0x03\n      add\n        /* \"ReputationControlV2.sol\":5836:5880  infoCompanies[_company].hashComplaints.pop() */\n      dup1\n      sload\n      dup1\n      tag_267\n      jumpi\n      tag_268\n      tag_168\n      jump\t// in\n    tag_268:\n    tag_267:\n      0x01\n      swap1\n      sub\n      dup2\n      dup2\n      swap1\n      0x00\n      mstore\n      keccak256(0x00, 0x20)\n      add\n      0x00\n      tag_270\n      swap2\n      swap1\n      tag_171\n      jump\t// in\n    tag_270:\n      swap1\n      sstore\n        /* \"ReputationControlV2.sol\":5934:5947  tokenContract */\n      0x00\n      dup1\n      sload\n      swap1\n      0x0100\n      exp\n      swap1\n      div\n      0xffffffffffffffffffffffffffffffffffffffff\n      and\n        /* \"ReputationControlV2.sol\":5934:5952  tokenContract.burn */\n      0xffffffffffffffffffffffffffffffffffffffff\n      and\n      0x9dc29fac\n        /* \"ReputationControlV2.sol\":5953:5966  infoCompanies */\n      0x01\n        /* \"ReputationControlV2.sol\":5967:5975  _company */\n      dup9\n        /* \"ReputationControlV2.sol\":5953:5976  infoCompanies[_company] */\n      mload(0x40)\n      tag_271\n      swap2\n      swap1\n      tag_103\n      jump\t// in\n    tag_271:\n      swap1\n      dup2\n      mstore\n      0x20\n      add\n      mload(0x40)\n      dup1\n      swap2\n      sub\n      swap1\n      keccak256\n        /* \"ReputationControlV2.sol\":5953:5985  infoCompanies[_company]._address */\n      0x00\n      add\n      0x00\n      swap1\n      sload\n      swap1\n      0x0100\n      exp\n      swap1\n      div\n      0xffffffffffffffffffffffffffffffffffffffff\n      and\n        /* \"ReputationControlV2.sol\":5986:5987  1 */\n      0x01\n        /* \"ReputationControlV2.sol\":5934:5988  tokenContract.burn(infoCompanies[_company]._address,1) */\n      mload(0x40)\n      dup4\n      0xffffffff\n      and\n      0xe0\n      shl\n      dup2\n      mstore\n      0x04\n      add\n      tag_272\n      swap3\n      swap2\n      swap1\n      tag_273\n      jump\t// in\n    tag_272:\n      0x00\n      mload(0x40)\n      dup1\n      dup4\n      sub\n      dup2\n      0x00\n      dup8\n      dup1\n      extcodesize\n      iszero\n      dup1\n      iszero\n      tag_274\n      jumpi\n      0x00\n      dup1\n      revert\n    tag_274:\n      pop\n      gas\n      call\n      iszero\n      dup1\n      iszero\n      tag_276\n      jumpi\n      returndatasize\n      0x00\n      dup1\n      returndatacopy\n      revert(0x00, returndatasize)\n    tag_276:\n      pop\n      pop\n      pop\n      pop\n        /* \"ReputationControlV2.sol\":5294:5996  {... */\n      pop\n      pop\n      pop\n        /* \"ReputationControlV2.sol\":5186:5996  function retireComplaint(string memory _company, string memory _hash) external isCompany(_company) onlyOwner{... */\n      pop\n      pop\n      pop\n      jump\t// out\n        /* \"ReputationControlV2.sol\":4841:5178  function newComplaint(string memory _company, string memory _hash) external isCompany(_company) onlyOwner{... */\n    tag_65:\n        /* \"ReputationControlV2.sol\":4927:4935  _company */\n      dup2\n        /* \"ReputationControlV2.sol\":1780:1781  0 */\n      0x00\n        /* \"ReputationControlV2.sol\":1736:1782  infoCompanies[_company]._address != address(0) */\n      0xffffffffffffffffffffffffffffffffffffffff\n      and\n        /* \"ReputationControlV2.sol\":1736:1749  infoCompanies */\n      0x01\n        /* \"ReputationControlV2.sol\":1750:1758  _company */\n      dup3\n        /* \"ReputationControlV2.sol\":1736:1759  infoCompanies[_company] */\n      mload(0x40)\n      tag_278\n      swap2\n      swap1\n      tag_103\n      jump\t// in\n    tag_278:\n      swap1\n      dup2\n      mstore\n      0x20\n      add\n      mload(0x40)\n      dup1\n      swap2\n      sub\n      swap1\n      keccak256\n        /* \"ReputationControlV2.sol\":1736:1768  infoCompanies[_company]._address */\n      0x00\n      add\n      0x00\n      swap1\n      sload\n      swap1\n      0x0100\n      exp\n      swap1\n      div\n      0xffffffffffffffffffffffffffffffffffffffff\n      and\n        /* \"ReputationControlV2.sol\":1736:1782  infoCompanies[_company]._address != address(0) */\n      0xffffffffffffffffffffffffffffffffffffffff\n      and\n      eq\n      iszero\n        /* \"ReputationControlV2.sol\":1728:1830  require(infoCompanies[_company]._address != address(0), \"Not detected as a participant in our system\") */\n      tag_279\n      jumpi\n      mload(0x40)\n      0x08c379a000000000000000000000000000000000000000000000000000000000\n      dup2\n      mstore\n      0x04\n      add\n      tag_280\n      swap1\n      tag_137\n      jump\t// in\n    tag_280:\n      mload(0x40)\n      dup1\n      swap2\n      sub\n      swap1\n      revert\n    tag_279:\n        /* \"ReputationControlV2.sol\":1625:1630  owner */\n      immutable(\"0xb6477a31e41e27dc2f2cbe4c2bbb37b5a6a34683d5cbca4a1a706df5525a2d30\")\n        /* \"ReputationControlV2.sol\":1611:1630  msg.sender == owner */\n      0xffffffffffffffffffffffffffffffffffffffff\n      and\n        /* \"ReputationControlV2.sol\":1611:1621  msg.sender */\n      caller\n        /* \"ReputationControlV2.sol\":1611:1630  msg.sender == owner */\n      0xffffffffffffffffffffffffffffffffffffffff\n      and\n      eq\n        /* \"ReputationControlV2.sol\":1603:1647  require(msg.sender == owner,\"No allowances\") */\n      tag_282\n      jumpi\n      mload(0x40)\n      0x08c379a000000000000000000000000000000000000000000000000000000000\n      dup2\n      mstore\n      0x04\n      add\n      tag_283\n      swap1\n      tag_95\n      jump\t// in\n    tag_283:\n      mload(0x40)\n      dup1\n      swap2\n      sub\n      swap1\n      revert\n    tag_282:\n        /* \"ReputationControlV2.sol\":4957:4970  infoCompanies */\n      0x01\n        /* \"ReputationControlV2.sol\":4971:4979  _company */\n      dup4\n        /* \"ReputationControlV2.sol\":4957:4980  infoCompanies[_company] */\n      mload(0x40)\n      tag_285\n      swap2\n      swap1\n      tag_103\n      jump\t// in\n    tag_285:\n      swap1\n      dup2\n      mstore\n      0x20\n      add\n      mload(0x40)\n      dup1\n      swap2\n      sub\n      swap1\n      keccak256\n        /* \"ReputationControlV2.sol\":4957:4995  infoCompanies[_company].hashComplaints */\n      0x03\n      add\n        /* \"ReputationControlV2.sol\":5001:5006  _hash */\n      dup3\n        /* \"ReputationControlV2.sol\":4957:5007  infoCompanies[_company].hashComplaints.push(_hash) */\n      swap1\n      dup1\n      0x01\n      dup2\n      sload\n      add\n      dup1\n      dup3\n      sstore\n      dup1\n      swap2\n      pop\n      pop\n      0x01\n      swap1\n      sub\n      swap1\n      0x00\n      mstore\n      keccak256(0x00, 0x20)\n      add\n      0x00\n      swap1\n      swap2\n      swap1\n      swap2\n      swap1\n      swap2\n      pop\n      swap1\n      dup1\n      mload\n      swap1\n      0x20\n      add\n      swap1\n      tag_287\n      swap3\n      swap2\n      swap1\n      tag_118\n      jump\t// in\n    tag_287:\n      pop\n        /* \"ReputationControlV2.sol\":5060:5073  infoCompanies */\n      0x01\n        /* \"ReputationControlV2.sol\":5074:5082  _company */\n      dup4\n        /* \"ReputationControlV2.sol\":5060:5083  infoCompanies[_company] */\n      mload(0x40)\n      tag_288\n      swap2\n      swap1\n      tag_103\n      jump\t// in\n    tag_288:\n      swap1\n      dup2\n      mstore\n      0x20\n      add\n      mload(0x40)\n      dup1\n      swap2\n      sub\n      swap1\n      keccak256\n        /* \"ReputationControlV2.sol\":5060:5098  infoCompanies[_company].hashComplaints */\n      0x03\n      add\n        /* \"ReputationControlV2.sol\":5060:5105  infoCompanies[_company].hashComplaints.length */\n      dup1\n      sload\n      swap1\n      pop\n        /* \"ReputationControlV2.sol\":5018:5031  infoCompanies */\n      0x01\n        /* \"ReputationControlV2.sol\":5032:5040  _company */\n      dup5\n        /* \"ReputationControlV2.sol\":5018:5041  infoCompanies[_company] */\n      mload(0x40)\n      tag_289\n      swap2\n      swap1\n      tag_103\n      jump\t// in\n    tag_289:\n      swap1\n      dup2\n      mstore\n      0x20\n      add\n      mload(0x40)\n      dup1\n      swap2\n      sub\n      swap1\n      keccak256\n        /* \"ReputationControlV2.sol\":5018:5050  infoCompanies[_company].posArray */\n      0x02\n      add\n        /* \"ReputationControlV2.sol\":5051:5056  _hash */\n      dup4\n        /* \"ReputationControlV2.sol\":5018:5057  infoCompanies[_company].posArray[_hash] */\n      mload(0x40)\n      tag_290\n      swap2\n      swap1\n      tag_103\n      jump\t// in\n    tag_290:\n      swap1\n      dup2\n      mstore\n      0x20\n      add\n      mload(0x40)\n      dup1\n      swap2\n      sub\n      swap1\n      keccak256\n        /* \"ReputationControlV2.sol\":5018:5105  infoCompanies[_company].posArray[_hash] = infoCompanies[_company].hashComplaints.length */\n      dup2\n      swap1\n      sstore\n      pop\n        /* \"ReputationControlV2.sol\":5116:5129  tokenContract */\n      0x00\n      dup1\n      sload\n      swap1\n      0x0100\n      exp\n      swap1\n      div\n      0xffffffffffffffffffffffffffffffffffffffff\n      and\n        /* \"ReputationControlV2.sol\":5116:5134  tokenContract.mint */\n      0xffffffffffffffffffffffffffffffffffffffff\n      and\n      0x40c10f19\n        /* \"ReputationControlV2.sol\":5135:5148  infoCompanies */\n      0x01\n        /* \"ReputationControlV2.sol\":5149:5157  _company */\n      dup6\n        /* \"ReputationControlV2.sol\":5135:5158  infoCompanies[_company] */\n      mload(0x40)\n      tag_291\n      swap2\n      swap1\n      tag_103\n      jump\t// in\n    tag_291:\n      swap1\n      dup2\n      mstore\n      0x20\n      add\n      mload(0x40)\n      dup1\n      swap2\n      sub\n      swap1\n      keccak256\n        /* \"ReputationControlV2.sol\":5135:5167  infoCompanies[_company]._address */\n      0x00\n      add\n      0x00\n      swap1\n      sload\n      swap1\n      0x0100\n      exp\n      swap1\n      div\n      0xffffffffffffffffffffffffffffffffffffffff\n      and\n        /* \"ReputationControlV2.sol\":5168:5169  1 */\n      0x01\n        /* \"ReputationControlV2.sol\":5116:5170  tokenContract.mint(infoCompanies[_company]._address,1) */\n      mload(0x40)\n      dup4\n      0xffffffff\n      and\n      0xe0\n      shl\n      dup2\n      mstore\n      0x04\n      add\n      tag_292\n      swap3\n      swap2\n      swap1\n      tag_273\n      jump\t// in\n    tag_292:\n      0x00\n      mload(0x40)\n      dup1\n      dup4\n      sub\n      dup2\n      0x00\n      dup8\n      dup1\n      extcodesize\n      iszero\n      dup1\n      iszero\n      tag_293\n      jumpi\n      0x00\n      dup1\n      revert\n    tag_293:\n      pop\n      gas\n      call\n      iszero\n      dup1\n      iszero\n      tag_295\n      jumpi\n      returndatasize\n      0x00\n      dup1\n      returndatacopy\n      revert(0x00, returndatasize)\n    tag_295:\n      pop\n      pop\n      pop\n      pop\n        /* \"ReputationControlV2.sol\":4841:5178  function newComplaint(string memory _company, string memory _hash) external isCompany(_company) onlyOwner{... */\n      pop\n      pop\n      pop\n      jump\t// out\n        /* \"ReputationControlV2.sol\":4167:4326  function getCompanyAddress(string memory _company) external view isCompany(_company) returns(address){... */\n    tag_68:\n        /* \"ReputationControlV2.sol\":4260:4267  address */\n      0x00\n        /* \"ReputationControlV2.sol\":4242:4250  _company */\n      dup2\n        /* \"ReputationControlV2.sol\":1780:1781  0 */\n      0x00\n        /* \"ReputationControlV2.sol\":1736:1782  infoCompanies[_company]._address != address(0) */\n      0xffffffffffffffffffffffffffffffffffffffff\n      and\n        /* \"ReputationControlV2.sol\":1736:1749  infoCompanies */\n      0x01\n        /* \"ReputationControlV2.sol\":1750:1758  _company */\n      dup3\n        /* \"ReputationControlV2.sol\":1736:1759  infoCompanies[_company] */\n      mload(0x40)\n      tag_297\n      swap2\n      swap1\n      tag_103\n      jump\t// in\n    tag_297:\n      swap1\n      dup2\n      mstore\n      0x20\n      add\n      mload(0x40)\n      dup1\n      swap2\n      sub\n      swap1\n      keccak256\n        /* \"ReputationControlV2.sol\":1736:1768  infoCompanies[_company]._address */\n      0x00\n      add\n      0x00\n      swap1\n      sload\n      swap1\n      0x0100\n      exp\n      swap1\n      div\n      0xffffffffffffffffffffffffffffffffffffffff\n      and\n        /* \"ReputationControlV2.sol\":1736:1782  infoCompanies[_company]._address != address(0) */\n      0xffffffffffffffffffffffffffffffffffffffff\n      and\n      eq\n      iszero\n        /* \"ReputationControlV2.sol\":1728:1830  require(infoCompanies[_company]._address != address(0), \"Not detected as a participant in our system\") */\n      tag_298\n      jumpi\n      mload(0x40)\n      0x08c379a000000000000000000000000000000000000000000000000000000000\n      dup2\n      mstore\n      0x04\n      add\n      tag_299\n      swap1\n      tag_137\n      jump\t// in\n    tag_299:\n      mload(0x40)\n      dup1\n      swap2\n      sub\n      swap1\n      revert\n    tag_298:\n        /* \"ReputationControlV2.sol\":4286:4299  infoCompanies */\n      0x01\n        /* \"ReputationControlV2.sol\":4300:4308  _company */\n      dup4\n        /* \"ReputationControlV2.sol\":4286:4309  infoCompanies[_company] */\n      mload(0x40)\n      tag_301\n      swap2\n      swap1\n      tag_103\n      jump\t// in\n    tag_301:\n      swap1\n      dup2\n      mstore\n      0x20\n      add\n      mload(0x40)\n      dup1\n      swap2\n      sub\n      swap1\n      keccak256\n        /* \"ReputationControlV2.sol\":4286:4318  infoCompanies[_company]._address */\n      0x00\n      add\n      0x00\n      swap1\n      sload\n      swap1\n      0x0100\n      exp\n      swap1\n      div\n      0xffffffffffffffffffffffffffffffffffffffff\n      and\n        /* \"ReputationControlV2.sol\":4279:4318  return infoCompanies[_company]._address */\n      swap2\n      pop\n        /* \"ReputationControlV2.sol\":4167:4326  function getCompanyAddress(string memory _company) external view isCompany(_company) returns(address){... */\n      pop\n      swap2\n      swap1\n      pop\n      jump\t// out\n        /* \"ReputationControlV2.sol\":2513:2905  function newCompany(string memory _company) external onlyOwner{... */\n    tag_73:\n        /* \"ReputationControlV2.sol\":1625:1630  owner */\n      immutable(\"0xb6477a31e41e27dc2f2cbe4c2bbb37b5a6a34683d5cbca4a1a706df5525a2d30\")\n        /* \"ReputationControlV2.sol\":1611:1630  msg.sender == owner */\n      0xffffffffffffffffffffffffffffffffffffffff\n      and\n        /* \"ReputationControlV2.sol\":1611:1621  msg.sender */\n      caller\n        /* \"ReputationControlV2.sol\":1611:1630  msg.sender == owner */\n      0xffffffffffffffffffffffffffffffffffffffff\n      and\n      eq\n        /* \"ReputationControlV2.sol\":1603:1647  require(msg.sender == owner,\"No allowances\") */\n      tag_303\n      jumpi\n      mload(0x40)\n      0x08c379a000000000000000000000000000000000000000000000000000000000\n      dup2\n      mstore\n      0x04\n      add\n      tag_304\n      swap1\n      tag_95\n      jump\t// in\n    tag_304:\n      mload(0x40)\n      dup1\n      swap2\n      sub\n      swap1\n      revert\n    tag_303:\n        /* \"ReputationControlV2.sol\":2638:2639  0 */\n      0x00\n        /* \"ReputationControlV2.sol\":2594:2640  infoCompanies[_company]._address == address(0) */\n      0xffffffffffffffffffffffffffffffffffffffff\n      and\n        /* \"ReputationControlV2.sol\":2594:2607  infoCompanies */\n      0x01\n        /* \"ReputationControlV2.sol\":2608:2616  _company */\n      dup3\n        /* \"ReputationControlV2.sol\":2594:2617  infoCompanies[_company] */\n      mload(0x40)\n      tag_306\n      swap2\n      swap1\n      tag_103\n      jump\t// in\n    tag_306:\n      swap1\n      dup2\n      mstore\n      0x20\n      add\n      mload(0x40)\n      dup1\n      swap2\n      sub\n      swap1\n      keccak256\n        /* \"ReputationControlV2.sol\":2594:2626  infoCompanies[_company]._address */\n      0x00\n      add\n      0x00\n      swap1\n      sload\n      swap1\n      0x0100\n      exp\n      swap1\n      div\n      0xffffffffffffffffffffffffffffffffffffffff\n      and\n        /* \"ReputationControlV2.sol\":2594:2640  infoCompanies[_company]._address == address(0) */\n      0xffffffffffffffffffffffffffffffffffffffff\n      and\n      eq\n        /* \"ReputationControlV2.sol\":2586:2676  require(infoCompanies[_company]._address == address(0),\"Company is already in the system\") */\n      tag_307\n      jumpi\n      mload(0x40)\n      0x08c379a000000000000000000000000000000000000000000000000000000000\n      dup2\n      mstore\n      0x04\n      add\n      tag_308\n      swap1\n      tag_309\n      jump\t// in\n    tag_308:\n      mload(0x40)\n      dup1\n      swap2\n      sub\n      swap1\n      revert\n    tag_307:\n        /* \"ReputationControlV2.sol\":2687:2698  address add */\n      0x00\n        /* \"ReputationControlV2.sol\":2744:2752  _company */\n      dup2\n        /* \"ReputationControlV2.sol\":2727:2753  abi.encodePacked(_company) */\n      add(0x20, mload(0x40))\n      tag_310\n      swap2\n      swap1\n      tag_103\n      jump\t// in\n    tag_310:\n      mload(0x40)\n      0x20\n      dup2\n      dup4\n      sub\n      sub\n      dup2\n      mstore\n      swap1\n      0x40\n      mstore\n        /* \"ReputationControlV2.sol\":2717:2754  keccak256(abi.encodePacked(_company)) */\n      dup1\n      mload\n      swap1\n      0x20\n      add\n      keccak256\n        /* \"ReputationControlV2.sol\":2701:2756  address(bytes20(keccak256(abi.encodePacked(_company)))) */\n      0x60\n      shr\n        /* \"ReputationControlV2.sol\":2687:2756  address add = address(bytes20(keccak256(abi.encodePacked(_company)))) */\n      swap1\n      pop\n        /* \"ReputationControlV2.sol\":2802:2805  add */\n      dup1\n        /* \"ReputationControlV2.sol\":2767:2780  infoCompanies */\n      0x01\n        /* \"ReputationControlV2.sol\":2781:2789  _company */\n      dup4\n        /* \"ReputationControlV2.sol\":2767:2790  infoCompanies[_company] */\n      mload(0x40)\n      tag_311\n      swap2\n      swap1\n      tag_103\n      jump\t// in\n    tag_311:\n      swap1\n      dup2\n      mstore\n      0x20\n      add\n      mload(0x40)\n      dup1\n      swap2\n      sub\n      swap1\n      keccak256\n        /* \"ReputationControlV2.sol\":2767:2799  infoCompanies[_company]._address */\n      0x00\n      add\n      0x00\n        /* \"ReputationControlV2.sol\":2767:2805  infoCompanies[_company]._address = add */\n      0x0100\n      exp\n      dup2\n      sload\n      dup2\n      0xffffffffffffffffffffffffffffffffffffffff\n      mul\n      not\n      and\n      swap1\n      dup4\n      0xffffffffffffffffffffffffffffffffffffffff\n      and\n      mul\n      or\n      swap1\n      sstore\n      pop\n        /* \"ReputationControlV2.sol\":2846:2855  companies */\n      0x02\n        /* \"ReputationControlV2.sol\":2846:2862  companies.length */\n      dup1\n      sload\n      swap1\n      pop\n        /* \"ReputationControlV2.sol\":2816:2829  infoCompanies */\n      0x01\n        /* \"ReputationControlV2.sol\":2830:2838  _company */\n      dup4\n        /* \"ReputationControlV2.sol\":2816:2839  infoCompanies[_company] */\n      mload(0x40)\n      tag_312\n      swap2\n      swap1\n      tag_103\n      jump\t// in\n    tag_312:\n      swap1\n      dup2\n      mstore\n      0x20\n      add\n      mload(0x40)\n      dup1\n      swap2\n      sub\n      swap1\n      keccak256\n        /* \"ReputationControlV2.sol\":2816:2843  infoCompanies[_company].pos */\n      0x01\n      add\n        /* \"ReputationControlV2.sol\":2816:2862  infoCompanies[_company].pos = companies.length */\n      dup2\n      swap1\n      sstore\n      pop\n        /* \"ReputationControlV2.sol\":2873:2882  companies */\n      0x02\n        /* \"ReputationControlV2.sol\":2888:2896  _company */\n      dup3\n        /* \"ReputationControlV2.sol\":2873:2897  companies.push(_company) */\n      swap1\n      dup1\n      0x01\n      dup2\n      sload\n      add\n      dup1\n      dup3\n      sstore\n      dup1\n      swap2\n      pop\n      pop\n      0x01\n      swap1\n      sub\n      swap1\n      0x00\n      mstore\n      keccak256(0x00, 0x20)\n      add\n      0x00\n      swap1\n      swap2\n      swap1\n      swap2\n      swap1\n      swap2\n      pop\n      swap1\n      dup1\n      mload\n      swap1\n      0x20\n      add\n      swap1\n      tag_314\n      swap3\n      swap2\n      swap1\n      tag_118\n      jump\t// in\n    tag_314:\n      pop\n        /* \"ReputationControlV2.sol\":2575:2905  {... */\n      pop\n        /* \"ReputationControlV2.sol\":2513:2905  function newCompany(string memory _company) external onlyOwner{... */\n      pop\n      jump\t// out\n    tag_118:\n      dup3\n      dup1\n      sload\n      tag_315\n      swap1\n      tag_125\n      jump\t// in\n    tag_315:\n      swap1\n      0x00\n      mstore\n      keccak256(0x00, 0x20)\n      swap1\n      0x1f\n      add\n      0x20\n      swap1\n      div\n      dup2\n      add\n      swap3\n      dup3\n      tag_317\n      jumpi\n      0x00\n      dup6\n      sstore\n      jump(tag_316)\n    tag_317:\n      dup3\n      0x1f\n      lt\n      tag_318\n      jumpi\n      dup1\n      mload\n      not(0xff)\n      and\n      dup4\n      dup1\n      add\n      or\n      dup6\n      sstore\n      jump(tag_316)\n    tag_318:\n      dup3\n      dup1\n      add\n      0x01\n      add\n      dup6\n      sstore\n      dup3\n      iszero\n      tag_316\n      jumpi\n      swap2\n      dup3\n      add\n    tag_319:\n      dup3\n      dup2\n      gt\n      iszero\n      tag_320\n      jumpi\n      dup3\n      mload\n      dup3\n      sstore\n      swap2\n      0x20\n      add\n      swap2\n      swap1\n      0x01\n      add\n      swap1\n      jump(tag_319)\n    tag_320:\n    tag_316:\n      pop\n      swap1\n      pop\n      tag_321\n      swap2\n      swap1\n      tag_322\n      jump\t// in\n    tag_321:\n      pop\n      swap1\n      jump\t// out\n    tag_171:\n      pop\n      dup1\n      sload\n      tag_323\n      swap1\n      tag_125\n      jump\t// in\n    tag_323:\n      0x00\n      dup3\n      sstore\n      dup1\n      0x1f\n      lt\n      tag_325\n      jumpi\n      pop\n      jump(tag_324)\n    tag_325:\n      0x1f\n      add\n      0x20\n      swap1\n      div\n      swap1\n      0x00\n      mstore\n      keccak256(0x00, 0x20)\n      swap1\n      dup2\n      add\n      swap1\n      tag_326\n      swap2\n      swap1\n      tag_322\n      jump\t// in\n    tag_326:\n    tag_324:\n      pop\n      jump\t// out\n    tag_174:\n      pop\n      dup1\n      sload\n      0x00\n      dup3\n      sstore\n      swap1\n      0x00\n      mstore\n      keccak256(0x00, 0x20)\n      swap1\n      dup2\n      add\n      swap1\n      tag_328\n      swap2\n      swap1\n      tag_329\n      jump\t// in\n    tag_328:\n      pop\n      jump\t// out\n    tag_322:\n    tag_330:\n      dup1\n      dup3\n      gt\n      iszero\n      tag_331\n      jumpi\n      0x00\n      dup2\n      0x00\n      swap1\n      sstore\n      pop\n      0x01\n      add\n      jump(tag_330)\n    tag_331:\n      pop\n      swap1\n      jump\t// out\n    tag_329:\n    tag_332:\n      dup1\n      dup3\n      gt\n      iszero\n      tag_333\n      jumpi\n      0x00\n      dup2\n      dup2\n      tag_334\n      swap2\n      swap1\n      tag_171\n      jump\t// in\n    tag_334:\n      pop\n      0x01\n      add\n      jump(tag_332)\n    tag_333:\n      pop\n      swap1\n      jump\t// out\n        /* \"#utility.yul\":7:121   */\n    tag_335:\n        /* \"#utility.yul\":74:80   */\n      0x00\n        /* \"#utility.yul\":108:113   */\n      dup2\n        /* \"#utility.yul\":102:114   */\n      mload\n        /* \"#utility.yul\":92:114   */\n      swap1\n      pop\n        /* \"#utility.yul\":7:121   */\n      swap2\n      swap1\n      pop\n      jump\t// out\n        /* \"#utility.yul\":127:311   */\n    tag_336:\n        /* \"#utility.yul\":226:237   */\n      0x00\n        /* \"#utility.yul\":260:266   */\n      dup3\n        /* \"#utility.yul\":255:258   */\n      dup3\n        /* \"#utility.yul\":248:267   */\n      mstore\n        /* \"#utility.yul\":300:304   */\n      0x20\n        /* \"#utility.yul\":295:298   */\n      dup3\n        /* \"#utility.yul\":291:305   */\n      add\n        /* \"#utility.yul\":276:305   */\n      swap1\n      pop\n        /* \"#utility.yul\":127:311   */\n      swap3\n      swap2\n      pop\n      pop\n      jump\t// out\n        /* \"#utility.yul\":317:449   */\n    tag_337:\n        /* \"#utility.yul\":384:388   */\n      0x00\n        /* \"#utility.yul\":407:410   */\n      dup2\n        /* \"#utility.yul\":399:410   */\n      swap1\n      pop\n        /* \"#utility.yul\":437:441   */\n      0x20\n        /* \"#utility.yul\":432:435   */\n      dup3\n        /* \"#utility.yul\":428:442   */\n      add\n        /* \"#utility.yul\":420:442   */\n      swap1\n      pop\n        /* \"#utility.yul\":317:449   */\n      swap2\n      swap1\n      pop\n      jump\t// out\n        /* \"#utility.yul\":455:581   */\n    tag_338:\n        /* \"#utility.yul\":492:499   */\n      0x00\n        /* \"#utility.yul\":532:574   */\n      0xffffffffffffffffffffffffffffffffffffffff\n        /* \"#utility.yul\":525:530   */\n      dup3\n        /* \"#utility.yul\":521:575   */\n      and\n        /* \"#utility.yul\":510:575   */\n      swap1\n      pop\n        /* \"#utility.yul\":455:581   */\n      swap2\n      swap1\n      pop\n      jump\t// out\n        /* \"#utility.yul\":587:683   */\n    tag_339:\n        /* \"#utility.yul\":624:631   */\n      0x00\n        /* \"#utility.yul\":653:677   */\n      tag_408\n        /* \"#utility.yul\":671:676   */\n      dup3\n        /* \"#utility.yul\":653:677   */\n      tag_338\n      jump\t// in\n    tag_408:\n        /* \"#utility.yul\":642:677   */\n      swap1\n      pop\n        /* \"#utility.yul\":587:683   */\n      swap2\n      swap1\n      pop\n      jump\t// out\n        /* \"#utility.yul\":689:797   */\n    tag_340:\n        /* \"#utility.yul\":766:790   */\n      tag_410\n        /* \"#utility.yul\":784:789   */\n      dup2\n        /* \"#utility.yul\":766:790   */\n      tag_339\n      jump\t// in\n    tag_410:\n        /* \"#utility.yul\":761:764   */\n      dup3\n        /* \"#utility.yul\":754:791   */\n      mstore\n        /* \"#utility.yul\":689:797   */\n      pop\n      pop\n      jump\t// out\n        /* \"#utility.yul\":803:982   */\n    tag_341:\n        /* \"#utility.yul\":872:882   */\n      0x00\n        /* \"#utility.yul\":893:939   */\n      tag_412\n        /* \"#utility.yul\":935:938   */\n      dup4\n        /* \"#utility.yul\":927:933   */\n      dup4\n        /* \"#utility.yul\":893:939   */\n      tag_340\n      jump\t// in\n    tag_412:\n        /* \"#utility.yul\":971:975   */\n      0x20\n        /* \"#utility.yul\":966:969   */\n      dup4\n        /* \"#utility.yul\":962:976   */\n      add\n        /* \"#utility.yul\":948:976   */\n      swap1\n      pop\n        /* \"#utility.yul\":803:982   */\n      swap3\n      swap2\n      pop\n      pop\n      jump\t// out\n        /* \"#utility.yul\":988:1101   */\n    tag_342:\n        /* \"#utility.yul\":1058:1062   */\n      0x00\n        /* \"#utility.yul\":1090:1094   */\n      0x20\n        /* \"#utility.yul\":1085:1088   */\n      dup3\n        /* \"#utility.yul\":1081:1095   */\n      add\n        /* \"#utility.yul\":1073:1095   */\n      swap1\n      pop\n        /* \"#utility.yul\":988:1101   */\n      swap2\n      swap1\n      pop\n      jump\t// out\n        /* \"#utility.yul\":1137:1869   */\n    tag_343:\n        /* \"#utility.yul\":1256:1259   */\n      0x00\n        /* \"#utility.yul\":1285:1339   */\n      tag_415\n        /* \"#utility.yul\":1333:1338   */\n      dup3\n        /* \"#utility.yul\":1285:1339   */\n      tag_335\n      jump\t// in\n    tag_415:\n        /* \"#utility.yul\":1355:1441   */\n      tag_416\n        /* \"#utility.yul\":1434:1440   */\n      dup2\n        /* \"#utility.yul\":1429:1432   */\n      dup6\n        /* \"#utility.yul\":1355:1441   */\n      tag_336\n      jump\t// in\n    tag_416:\n        /* \"#utility.yul\":1348:1441   */\n      swap4\n      pop\n        /* \"#utility.yul\":1465:1521   */\n      tag_417\n        /* \"#utility.yul\":1515:1520   */\n      dup4\n        /* \"#utility.yul\":1465:1521   */\n      tag_337\n      jump\t// in\n    tag_417:\n        /* \"#utility.yul\":1544:1551   */\n      dup1\n        /* \"#utility.yul\":1575:1576   */\n      0x00\n        /* \"#utility.yul\":1560:1844   */\n    tag_418:\n        /* \"#utility.yul\":1585:1591   */\n      dup4\n        /* \"#utility.yul\":1582:1583   */\n      dup2\n        /* \"#utility.yul\":1579:1592   */\n      lt\n        /* \"#utility.yul\":1560:1844   */\n      iszero\n      tag_420\n      jumpi\n        /* \"#utility.yul\":1661:1667   */\n      dup2\n        /* \"#utility.yul\":1655:1668   */\n      mload\n        /* \"#utility.yul\":1688:1751   */\n      tag_421\n        /* \"#utility.yul\":1747:1750   */\n      dup9\n        /* \"#utility.yul\":1732:1745   */\n      dup3\n        /* \"#utility.yul\":1688:1751   */\n      tag_341\n      jump\t// in\n    tag_421:\n        /* \"#utility.yul\":1681:1751   */\n      swap8\n      pop\n        /* \"#utility.yul\":1774:1834   */\n      tag_422\n        /* \"#utility.yul\":1827:1833   */\n      dup4\n        /* \"#utility.yul\":1774:1834   */\n      tag_342\n      jump\t// in\n    tag_422:\n        /* \"#utility.yul\":1764:1834   */\n      swap3\n      pop\n        /* \"#utility.yul\":1620:1844   */\n      pop\n        /* \"#utility.yul\":1607:1608   */\n      0x01\n        /* \"#utility.yul\":1604:1605   */\n      dup2\n        /* \"#utility.yul\":1600:1609   */\n      add\n        /* \"#utility.yul\":1595:1609   */\n      swap1\n      pop\n        /* \"#utility.yul\":1560:1844   */\n      jump(tag_418)\n    tag_420:\n        /* \"#utility.yul\":1564:1578   */\n      pop\n        /* \"#utility.yul\":1860:1863   */\n      dup6\n        /* \"#utility.yul\":1853:1863   */\n      swap4\n      pop\n        /* \"#utility.yul\":1261:1869   */\n      pop\n      pop\n      pop\n        /* \"#utility.yul\":1137:1869   */\n      swap3\n      swap2\n      pop\n      pop\n      jump\t// out\n        /* \"#utility.yul\":1875:2248   */\n    tag_23:\n        /* \"#utility.yul\":2018:2022   */\n      0x00\n        /* \"#utility.yul\":2056:2058   */\n      0x20\n        /* \"#utility.yul\":2045:2054   */\n      dup3\n        /* \"#utility.yul\":2041:2059   */\n      add\n        /* \"#utility.yul\":2033:2059   */\n      swap1\n      pop\n        /* \"#utility.yul\":2105:2114   */\n      dup2\n        /* \"#utility.yul\":2099:2103   */\n      dup2\n        /* \"#utility.yul\":2095:2115   */\n      sub\n        /* \"#utility.yul\":2091:2092   */\n      0x00\n        /* \"#utility.yul\":2080:2089   */\n      dup4\n        /* \"#utility.yul\":2076:2093   */\n      add\n        /* \"#utility.yul\":2069:2116   */\n      mstore\n        /* \"#utility.yul\":2133:2241   */\n      tag_424\n        /* \"#utility.yul\":2236:2240   */\n      dup2\n        /* \"#utility.yul\":2227:2233   */\n      dup5\n        /* \"#utility.yul\":2133:2241   */\n      tag_343\n      jump\t// in\n    tag_424:\n        /* \"#utility.yul\":2125:2241   */\n      swap1\n      pop\n        /* \"#utility.yul\":1875:2248   */\n      swap3\n      swap2\n      pop\n      pop\n      jump\t// out\n        /* \"#utility.yul\":2254:2329   */\n    tag_344:\n        /* \"#utility.yul\":2287:2293   */\n      0x00\n        /* \"#utility.yul\":2320:2322   */\n      0x40\n        /* \"#utility.yul\":2314:2323   */\n      mload\n        /* \"#utility.yul\":2304:2323   */\n      swap1\n      pop\n        /* \"#utility.yul\":2254:2329   */\n      swap1\n      jump\t// out\n        /* \"#utility.yul\":2335:2452   */\n    tag_345:\n        /* \"#utility.yul\":2444:2445   */\n      0x00\n        /* \"#utility.yul\":2441:2442   */\n      dup1\n        /* \"#utility.yul\":2434:2446   */\n      revert\n        /* \"#utility.yul\":2458:2575   */\n    tag_346:\n        /* \"#utility.yul\":2567:2568   */\n      0x00\n        /* \"#utility.yul\":2564:2565   */\n      dup1\n        /* \"#utility.yul\":2557:2569   */\n      revert\n        /* \"#utility.yul\":2581:2698   */\n    tag_347:\n        /* \"#utility.yul\":2690:2691   */\n      0x00\n        /* \"#utility.yul\":2687:2688   */\n      dup1\n        /* \"#utility.yul\":2680:2692   */\n      revert\n        /* \"#utility.yul\":2704:2806   */\n    tag_348:\n        /* \"#utility.yul\":2745:2751   */\n      0x00\n        /* \"#utility.yul\":2796:2798   */\n      0x1f\n        /* \"#utility.yul\":2792:2799   */\n      not\n        /* \"#utility.yul\":2787:2789   */\n      0x1f\n        /* \"#utility.yul\":2780:2785   */\n      dup4\n        /* \"#utility.yul\":2776:2790   */\n      add\n        /* \"#utility.yul\":2772:2800   */\n      and\n        /* \"#utility.yul\":2762:2800   */\n      swap1\n      pop\n        /* \"#utility.yul\":2704:2806   */\n      swap2\n      swap1\n      pop\n      jump\t// out\n        /* \"#utility.yul\":2812:2992   */\n    tag_77:\n        /* \"#utility.yul\":2860:2937   */\n      0x4e487b7100000000000000000000000000000000000000000000000000000000\n        /* \"#utility.yul\":2857:2858   */\n      0x00\n        /* \"#utility.yul\":2850:2938   */\n      mstore\n        /* \"#utility.yul\":2957:2961   */\n      0x41\n        /* \"#utility.yul\":2954:2955   */\n      0x04\n        /* \"#utility.yul\":2947:2962   */\n      mstore\n        /* \"#utility.yul\":2981:2985   */\n      0x24\n        /* \"#utility.yul\":2978:2979   */\n      0x00\n        /* \"#utility.yul\":2971:2986   */\n      revert\n        /* \"#utility.yul\":2998:3279   */\n    tag_349:\n        /* \"#utility.yul\":3081:3108   */\n      tag_432\n        /* \"#utility.yul\":3103:3107   */\n      dup3\n        /* \"#utility.yul\":3081:3108   */\n      tag_348\n      jump\t// in\n    tag_432:\n        /* \"#utility.yul\":3073:3079   */\n      dup2\n        /* \"#utility.yul\":3069:3109   */\n      add\n        /* \"#utility.yul\":3211:3217   */\n      dup2\n        /* \"#utility.yul\":3199:3209   */\n      dup2\n        /* \"#utility.yul\":3196:3218   */\n      lt\n        /* \"#utility.yul\":3175:3193   */\n      0xffffffffffffffff\n        /* \"#utility.yul\":3163:3173   */\n      dup3\n        /* \"#utility.yul\":3160:3194   */\n      gt\n        /* \"#utility.yul\":3157:3219   */\n      or\n        /* \"#utility.yul\":3154:3242   */\n      iszero\n      tag_433\n      jumpi\n        /* \"#utility.yul\":3222:3240   */\n      tag_434\n      tag_77\n      jump\t// in\n    tag_434:\n        /* \"#utility.yul\":3154:3242   */\n    tag_433:\n        /* \"#utility.yul\":3262:3272   */\n      dup1\n        /* \"#utility.yul\":3258:3260   */\n      0x40\n        /* \"#utility.yul\":3251:3273   */\n      mstore\n        /* \"#utility.yul\":3041:3279   */\n      pop\n        /* \"#utility.yul\":2998:3279   */\n      pop\n      pop\n      jump\t// out\n        /* \"#utility.yul\":3285:3414   */\n    tag_350:\n        /* \"#utility.yul\":3319:3325   */\n      0x00\n        /* \"#utility.yul\":3346:3366   */\n      tag_436\n      tag_344\n      jump\t// in\n    tag_436:\n        /* \"#utility.yul\":3336:3366   */\n      swap1\n      pop\n        /* \"#utility.yul\":3375:3408   */\n      tag_437\n        /* \"#utility.yul\":3403:3407   */\n      dup3\n        /* \"#utility.yul\":3395:3401   */\n      dup3\n        /* \"#utility.yul\":3375:3408   */\n      tag_349\n      jump\t// in\n    tag_437:\n        /* \"#utility.yul\":3285:3414   */\n      swap2\n      swap1\n      pop\n      jump\t// out\n        /* \"#utility.yul\":3420:3741   */\n    tag_351:\n        /* \"#utility.yul\":3507:3511   */\n      0x00\n        /* \"#utility.yul\":3597:3615   */\n      0xffffffffffffffff\n        /* \"#utility.yul\":3589:3595   */\n      dup3\n        /* \"#utility.yul\":3586:3616   */\n      gt\n        /* \"#utility.yul\":3583:3639   */\n      iszero\n      tag_439\n      jumpi\n        /* \"#utility.yul\":3619:3637   */\n      tag_440\n      tag_77\n      jump\t// in\n    tag_440:\n        /* \"#utility.yul\":3583:3639   */\n    tag_439:\n        /* \"#utility.yul\":3669:3673   */\n      0x20\n        /* \"#utility.yul\":3661:3667   */\n      dup3\n        /* \"#utility.yul\":3657:3674   */\n      mul\n        /* \"#utility.yul\":3649:3674   */\n      swap1\n      pop\n        /* \"#utility.yul\":3729:3733   */\n      0x20\n        /* \"#utility.yul\":3723:3727   */\n      dup2\n        /* \"#utility.yul\":3719:3734   */\n      add\n        /* \"#utility.yul\":3711:3734   */\n      swap1\n      pop\n        /* \"#utility.yul\":3420:3741   */\n      swap2\n      swap1\n      pop\n      jump\t// out\n        /* \"#utility.yul\":3747:3864   */\n    tag_352:\n        /* \"#utility.yul\":3856:3857   */\n      0x00\n        /* \"#utility.yul\":3853:3854   */\n      dup1\n        /* \"#utility.yul\":3846:3858   */\n      revert\n        /* \"#utility.yul\":3870:3987   */\n    tag_353:\n        /* \"#utility.yul\":3979:3980   */\n      0x00\n        /* \"#utility.yul\":3976:3977   */\n      dup1\n        /* \"#utility.yul\":3969:3981   */\n      revert\n        /* \"#utility.yul\":3993:4301   */\n    tag_354:\n        /* \"#utility.yul\":4055:4059   */\n      0x00\n        /* \"#utility.yul\":4145:4163   */\n      0xffffffffffffffff\n        /* \"#utility.yul\":4137:4143   */\n      dup3\n        /* \"#utility.yul\":4134:4164   */\n      gt\n        /* \"#utility.yul\":4131:4187   */\n      iszero\n      tag_444\n      jumpi\n        /* \"#utility.yul\":4167:4185   */\n      tag_445\n      tag_77\n      jump\t// in\n    tag_445:\n        /* \"#utility.yul\":4131:4187   */\n    tag_444:\n        /* \"#utility.yul\":4205:4234   */\n      tag_446\n        /* \"#utility.yul\":4227:4233   */\n      dup3\n        /* \"#utility.yul\":4205:4234   */\n      tag_348\n      jump\t// in\n    tag_446:\n        /* \"#utility.yul\":4197:4234   */\n      swap1\n      pop\n        /* \"#utility.yul\":4289:4293   */\n      0x20\n        /* \"#utility.yul\":4283:4287   */\n      dup2\n        /* \"#utility.yul\":4279:4294   */\n      add\n        /* \"#utility.yul\":4271:4294   */\n      swap1\n      pop\n        /* \"#utility.yul\":3993:4301   */\n      swap2\n      swap1\n      pop\n      jump\t// out\n        /* \"#utility.yul\":4307:4461   */\n    tag_355:\n        /* \"#utility.yul\":4391:4397   */\n      dup3\n        /* \"#utility.yul\":4386:4389   */\n      dup2\n        /* \"#utility.yul\":4381:4384   */\n      dup4\n        /* \"#utility.yul\":4368:4398   */\n      calldatacopy\n        /* \"#utility.yul\":4453:4454   */\n      0x00\n        /* \"#utility.yul\":4444:4450   */\n      dup4\n        /* \"#utility.yul\":4439:4442   */\n      dup4\n        /* \"#utility.yul\":4435:4451   */\n      add\n        /* \"#utility.yul\":4428:4455   */\n      mstore\n        /* \"#utility.yul\":4307:4461   */\n      pop\n      pop\n      pop\n      jump\t// out\n        /* \"#utility.yul\":4467:4879   */\n    tag_356:\n        /* \"#utility.yul\":4545:4550   */\n      0x00\n        /* \"#utility.yul\":4570:4636   */\n      tag_449\n        /* \"#utility.yul\":4586:4635   */\n      tag_450\n        /* \"#utility.yul\":4628:4634   */\n      dup5\n        /* \"#utility.yul\":4586:4635   */\n      tag_354\n      jump\t// in\n    tag_450:\n        /* \"#utility.yul\":4570:4636   */\n      tag_350\n      jump\t// in\n    tag_449:\n        /* \"#utility.yul\":4561:4636   */\n      swap1\n      pop\n        /* \"#utility.yul\":4659:4665   */\n      dup3\n        /* \"#utility.yul\":4652:4657   */\n      dup2\n        /* \"#utility.yul\":4645:4666   */\n      mstore\n        /* \"#utility.yul\":4697:4701   */\n      0x20\n        /* \"#utility.yul\":4690:4695   */\n      dup2\n        /* \"#utility.yul\":4686:4702   */\n      add\n        /* \"#utility.yul\":4735:4738   */\n      dup5\n        /* \"#utility.yul\":4726:4732   */\n      dup5\n        /* \"#utility.yul\":4721:4724   */\n      dup5\n        /* \"#utility.yul\":4717:4733   */\n      add\n        /* \"#utility.yul\":4714:4739   */\n      gt\n        /* \"#utility.yul\":4711:4823   */\n      iszero\n      tag_451\n      jumpi\n        /* \"#utility.yul\":4742:4821   */\n      tag_452\n      tag_353\n      jump\t// in\n    tag_452:\n        /* \"#utility.yul\":4711:4823   */\n    tag_451:\n        /* \"#utility.yul\":4832:4873   */\n      tag_453\n        /* \"#utility.yul\":4866:4872   */\n      dup5\n        /* \"#utility.yul\":4861:4864   */\n      dup3\n        /* \"#utility.yul\":4856:4859   */\n      dup6\n        /* \"#utility.yul\":4832:4873   */\n      tag_355\n      jump\t// in\n    tag_453:\n        /* \"#utility.yul\":4551:4879   */\n      pop\n        /* \"#utility.yul\":4467:4879   */\n      swap4\n      swap3\n      pop\n      pop\n      pop\n      jump\t// out\n        /* \"#utility.yul\":4899:5239   */\n    tag_357:\n        /* \"#utility.yul\":4955:4960   */\n      0x00\n        /* \"#utility.yul\":5004:5007   */\n      dup3\n        /* \"#utility.yul\":4997:5001   */\n      0x1f\n        /* \"#utility.yul\":4989:4995   */\n      dup4\n        /* \"#utility.yul\":4985:5002   */\n      add\n        /* \"#utility.yul\":4981:5008   */\n      slt\n        /* \"#utility.yul\":4971:5093   */\n      tag_455\n      jumpi\n        /* \"#utility.yul\":5012:5091   */\n      tag_456\n      tag_347\n      jump\t// in\n    tag_456:\n        /* \"#utility.yul\":4971:5093   */\n    tag_455:\n        /* \"#utility.yul\":5129:5135   */\n      dup2\n        /* \"#utility.yul\":5116:5136   */\n      calldataload\n        /* \"#utility.yul\":5154:5233   */\n      tag_457\n        /* \"#utility.yul\":5229:5232   */\n      dup5\n        /* \"#utility.yul\":5221:5227   */\n      dup3\n        /* \"#utility.yul\":5214:5218   */\n      0x20\n        /* \"#utility.yul\":5206:5212   */\n      dup7\n        /* \"#utility.yul\":5202:5219   */\n      add\n        /* \"#utility.yul\":5154:5233   */\n      tag_356\n      jump\t// in\n    tag_457:\n        /* \"#utility.yul\":5145:5233   */\n      swap2\n      pop\n        /* \"#utility.yul\":4961:5239   */\n      pop\n        /* \"#utility.yul\":4899:5239   */\n      swap3\n      swap2\n      pop\n      pop\n      jump\t// out\n        /* \"#utility.yul\":5261:6206   */\n    tag_358:\n        /* \"#utility.yul\":5367:5372   */\n      0x00\n        /* \"#utility.yul\":5392:5483   */\n      tag_459\n        /* \"#utility.yul\":5408:5482   */\n      tag_460\n        /* \"#utility.yul\":5475:5481   */\n      dup5\n        /* \"#utility.yul\":5408:5482   */\n      tag_351\n      jump\t// in\n    tag_460:\n        /* \"#utility.yul\":5392:5483   */\n      tag_350\n      jump\t// in\n    tag_459:\n        /* \"#utility.yul\":5383:5483   */\n      swap1\n      pop\n        /* \"#utility.yul\":5503:5508   */\n      dup1\n        /* \"#utility.yul\":5532:5538   */\n      dup4\n        /* \"#utility.yul\":5525:5530   */\n      dup3\n        /* \"#utility.yul\":5518:5539   */\n      mstore\n        /* \"#utility.yul\":5566:5570   */\n      0x20\n        /* \"#utility.yul\":5559:5564   */\n      dup3\n        /* \"#utility.yul\":5555:5571   */\n      add\n        /* \"#utility.yul\":5548:5571   */\n      swap1\n      pop\n        /* \"#utility.yul\":5619:5623   */\n      0x20\n        /* \"#utility.yul\":5611:5617   */\n      dup5\n        /* \"#utility.yul\":5607:5624   */\n      mul\n        /* \"#utility.yul\":5599:5605   */\n      dup4\n        /* \"#utility.yul\":5595:5625   */\n      add\n        /* \"#utility.yul\":5648:5651   */\n      dup6\n        /* \"#utility.yul\":5640:5646   */\n      dup2\n        /* \"#utility.yul\":5637:5652   */\n      gt\n        /* \"#utility.yul\":5634:5756   */\n      iszero\n      tag_461\n      jumpi\n        /* \"#utility.yul\":5667:5746   */\n      tag_462\n      tag_352\n      jump\t// in\n    tag_462:\n        /* \"#utility.yul\":5634:5756   */\n    tag_461:\n        /* \"#utility.yul\":5782:5788   */\n      dup4\n        /* \"#utility.yul\":5765:6200   */\n    tag_463:\n        /* \"#utility.yul\":5799:5805   */\n      dup2\n        /* \"#utility.yul\":5794:5797   */\n      dup2\n        /* \"#utility.yul\":5791:5806   */\n      lt\n        /* \"#utility.yul\":5765:6200   */\n      iszero\n      tag_465\n      jumpi\n        /* \"#utility.yul\":5888:5891   */\n      dup1\n        /* \"#utility.yul\":5875:5892   */\n      calldataload\n        /* \"#utility.yul\":5924:5942   */\n      0xffffffffffffffff\n        /* \"#utility.yul\":5911:5922   */\n      dup2\n        /* \"#utility.yul\":5908:5943   */\n      gt\n        /* \"#utility.yul\":5905:6027   */\n      iszero\n      tag_466\n      jumpi\n        /* \"#utility.yul\":5946:6025   */\n      tag_467\n      tag_347\n      jump\t// in\n    tag_467:\n        /* \"#utility.yul\":5905:6027   */\n    tag_466:\n        /* \"#utility.yul\":6070:6081   */\n      dup1\n        /* \"#utility.yul\":6062:6068   */\n      dup7\n        /* \"#utility.yul\":6058:6082   */\n      add\n        /* \"#utility.yul\":6108:6155   */\n      tag_468\n        /* \"#utility.yul\":6151:6154   */\n      dup10\n        /* \"#utility.yul\":6139:6149   */\n      dup3\n        /* \"#utility.yul\":6108:6155   */\n      tag_357\n      jump\t// in\n    tag_468:\n        /* \"#utility.yul\":6103:6106   */\n      dup6\n        /* \"#utility.yul\":6096:6156   */\n      mstore\n        /* \"#utility.yul\":6185:6189   */\n      0x20\n        /* \"#utility.yul\":6180:6183   */\n      dup6\n        /* \"#utility.yul\":6176:6190   */\n      add\n        /* \"#utility.yul\":6169:6190   */\n      swap5\n      pop\n        /* \"#utility.yul\":5841:6200   */\n      pop\n      pop\n        /* \"#utility.yul\":5825:5829   */\n      0x20\n        /* \"#utility.yul\":5820:5823   */\n      dup2\n        /* \"#utility.yul\":5816:5830   */\n      add\n        /* \"#utility.yul\":5809:5830   */\n      swap1\n      pop\n        /* \"#utility.yul\":5765:6200   */\n      jump(tag_463)\n    tag_465:\n        /* \"#utility.yul\":5769:5790   */\n      pop\n        /* \"#utility.yul\":5373:6206   */\n      pop\n      pop\n        /* \"#utility.yul\":5261:6206   */\n      swap4\n      swap3\n      pop\n      pop\n      pop\n      jump\t// out\n        /* \"#utility.yul\":6228:6618   */\n    tag_359:\n        /* \"#utility.yul\":6309:6314   */\n      0x00\n        /* \"#utility.yul\":6358:6361   */\n      dup3\n        /* \"#utility.yul\":6351:6355   */\n      0x1f\n        /* \"#utility.yul\":6343:6349   */\n      dup4\n        /* \"#utility.yul\":6339:6356   */\n      add\n        /* \"#utility.yul\":6335:6362   */\n      slt\n        /* \"#utility.yul\":6325:6447   */\n      tag_470\n      jumpi\n        /* \"#utility.yul\":6366:6445   */\n      tag_471\n      tag_347\n      jump\t// in\n    tag_471:\n        /* \"#utility.yul\":6325:6447   */\n    tag_470:\n        /* \"#utility.yul\":6483:6489   */\n      dup2\n        /* \"#utility.yul\":6470:6490   */\n      calldataload\n        /* \"#utility.yul\":6508:6612   */\n      tag_472\n        /* \"#utility.yul\":6608:6611   */\n      dup5\n        /* \"#utility.yul\":6600:6606   */\n      dup3\n        /* \"#utility.yul\":6593:6597   */\n      0x20\n        /* \"#utility.yul\":6585:6591   */\n      dup7\n        /* \"#utility.yul\":6581:6598   */\n      add\n        /* \"#utility.yul\":6508:6612   */\n      tag_358\n      jump\t// in\n    tag_472:\n        /* \"#utility.yul\":6499:6612   */\n      swap2\n      pop\n        /* \"#utility.yul\":6315:6618   */\n      pop\n        /* \"#utility.yul\":6228:6618   */\n      swap3\n      swap2\n      pop\n      pop\n      jump\t// out\n        /* \"#utility.yul\":6624:7183   */\n    tag_26:\n        /* \"#utility.yul\":6718:6724   */\n      0x00\n        /* \"#utility.yul\":6767:6769   */\n      0x20\n        /* \"#utility.yul\":6755:6764   */\n      dup3\n        /* \"#utility.yul\":6746:6753   */\n      dup5\n        /* \"#utility.yul\":6742:6765   */\n      sub\n        /* \"#utility.yul\":6738:6770   */\n      slt\n        /* \"#utility.yul\":6735:6854   */\n      iszero\n      tag_474\n      jumpi\n        /* \"#utility.yul\":6773:6852   */\n      tag_475\n      tag_345\n      jump\t// in\n    tag_475:\n        /* \"#utility.yul\":6735:6854   */\n    tag_474:\n        /* \"#utility.yul\":6921:6922   */\n      0x00\n        /* \"#utility.yul\":6910:6919   */\n      dup3\n        /* \"#utility.yul\":6906:6923   */\n      add\n        /* \"#utility.yul\":6893:6924   */\n      calldataload\n        /* \"#utility.yul\":6951:6969   */\n      0xffffffffffffffff\n        /* \"#utility.yul\":6943:6949   */\n      dup2\n        /* \"#utility.yul\":6940:6970   */\n      gt\n        /* \"#utility.yul\":6937:7054   */\n      iszero\n      tag_476\n      jumpi\n        /* \"#utility.yul\":6973:7052   */\n      tag_477\n      tag_346\n      jump\t// in\n    tag_477:\n        /* \"#utility.yul\":6937:7054   */\n    tag_476:\n        /* \"#utility.yul\":7078:7166   */\n      tag_478\n        /* \"#utility.yul\":7158:7165   */\n      dup5\n        /* \"#utility.yul\":7149:7155   */\n      dup3\n        /* \"#utility.yul\":7138:7147   */\n      dup6\n        /* \"#utility.yul\":7134:7156   */\n      add\n        /* \"#utility.yul\":7078:7166   */\n      tag_359\n      jump\t// in\n    tag_478:\n        /* \"#utility.yul\":7068:7166   */\n      swap2\n      pop\n        /* \"#utility.yul\":6864:7176   */\n      pop\n        /* \"#utility.yul\":6624:7183   */\n      swap3\n      swap2\n      pop\n      pop\n      jump\t// out\n        /* \"#utility.yul\":7189:7313   */\n    tag_360:\n        /* \"#utility.yul\":7266:7272   */\n      0x00\n        /* \"#utility.yul\":7300:7305   */\n      dup2\n        /* \"#utility.yul\":7294:7306   */\n      mload\n        /* \"#utility.yul\":7284:7306   */\n      swap1\n      pop\n        /* \"#utility.yul\":7189:7313   */\n      swap2\n      swap1\n      pop\n      jump\t// out\n        /* \"#utility.yul\":7319:7513   */\n    tag_361:\n        /* \"#utility.yul\":7428:7439   */\n      0x00\n        /* \"#utility.yul\":7462:7468   */\n      dup3\n        /* \"#utility.yul\":7457:7460   */\n      dup3\n        /* \"#utility.yul\":7450:7469   */\n      mstore\n        /* \"#utility.yul\":7502:7506   */\n      0x20\n        /* \"#utility.yul\":7497:7500   */\n      dup3\n        /* \"#utility.yul\":7493:7507   */\n      add\n        /* \"#utility.yul\":7478:7507   */\n      swap1\n      pop\n        /* \"#utility.yul\":7319:7513   */\n      swap3\n      swap2\n      pop\n      pop\n      jump\t// out\n        /* \"#utility.yul\":7519:7661   */\n    tag_362:\n        /* \"#utility.yul\":7596:7600   */\n      0x00\n        /* \"#utility.yul\":7619:7622   */\n      dup2\n        /* \"#utility.yul\":7611:7622   */\n      swap1\n      pop\n        /* \"#utility.yul\":7649:7653   */\n      0x20\n        /* \"#utility.yul\":7644:7647   */\n      dup3\n        /* \"#utility.yul\":7640:7654   */\n      add\n        /* \"#utility.yul\":7632:7654   */\n      swap1\n      pop\n        /* \"#utility.yul\":7519:7661   */\n      swap2\n      swap1\n      pop\n      jump\t// out\n        /* \"#utility.yul\":7667:7766   */\n    tag_363:\n        /* \"#utility.yul\":7719:7725   */\n      0x00\n        /* \"#utility.yul\":7753:7758   */\n      dup2\n        /* \"#utility.yul\":7747:7759   */\n      mload\n        /* \"#utility.yul\":7737:7759   */\n      swap1\n      pop\n        /* \"#utility.yul\":7667:7766   */\n      swap2\n      swap1\n      pop\n      jump\t// out\n        /* \"#utility.yul\":7772:7931   */\n    tag_364:\n        /* \"#utility.yul\":7846:7857   */\n      0x00\n        /* \"#utility.yul\":7880:7886   */\n      dup3\n        /* \"#utility.yul\":7875:7878   */\n      dup3\n        /* \"#utility.yul\":7868:7887   */\n      mstore\n        /* \"#utility.yul\":7920:7924   */\n      0x20\n        /* \"#utility.yul\":7915:7918   */\n      dup3\n        /* \"#utility.yul\":7911:7925   */\n      add\n        /* \"#utility.yul\":7896:7925   */\n      swap1\n      pop\n        /* \"#utility.yul\":7772:7931   */\n      swap3\n      swap2\n      pop\n      pop\n      jump\t// out\n        /* \"#utility.yul\":7937:8244   */\n    tag_365:\n        /* \"#utility.yul\":8005:8006   */\n      0x00\n        /* \"#utility.yul\":8015:8128   */\n    tag_485:\n        /* \"#utility.yul\":8029:8035   */\n      dup4\n        /* \"#utility.yul\":8026:8027   */\n      dup2\n        /* \"#utility.yul\":8023:8036   */\n      lt\n        /* \"#utility.yul\":8015:8128   */\n      iszero\n      tag_487\n      jumpi\n        /* \"#utility.yul\":8114:8115   */\n      dup1\n        /* \"#utility.yul\":8109:8112   */\n      dup3\n        /* \"#utility.yul\":8105:8116   */\n      add\n        /* \"#utility.yul\":8099:8117   */\n      mload\n        /* \"#utility.yul\":8095:8096   */\n      dup2\n        /* \"#utility.yul\":8090:8093   */\n      dup5\n        /* \"#utility.yul\":8086:8097   */\n      add\n        /* \"#utility.yul\":8079:8118   */\n      mstore\n        /* \"#utility.yul\":8051:8053   */\n      0x20\n        /* \"#utility.yul\":8048:8049   */\n      dup2\n        /* \"#utility.yul\":8044:8054   */\n      add\n        /* \"#utility.yul\":8039:8054   */\n      swap1\n      pop\n        /* \"#utility.yul\":8015:8128   */\n      jump(tag_485)\n    tag_487:\n        /* \"#utility.yul\":8146:8152   */\n      dup4\n        /* \"#utility.yul\":8143:8144   */\n      dup2\n        /* \"#utility.yul\":8140:8153   */\n      gt\n        /* \"#utility.yul\":8137:8238   */\n      iszero\n      tag_488\n      jumpi\n        /* \"#utility.yul\":8226:8227   */\n      0x00\n        /* \"#utility.yul\":8217:8223   */\n      dup5\n        /* \"#utility.yul\":8212:8215   */\n      dup5\n        /* \"#utility.yul\":8208:8224   */\n      add\n        /* \"#utility.yul\":8201:8228   */\n      mstore\n        /* \"#utility.yul\":8137:8238   */\n    tag_488:\n        /* \"#utility.yul\":7986:8244   */\n      pop\n        /* \"#utility.yul\":7937:8244   */\n      pop\n      pop\n      pop\n      jump\t// out\n        /* \"#utility.yul\":8250:8594   */\n    tag_366:\n        /* \"#utility.yul\":8328:8331   */\n      0x00\n        /* \"#utility.yul\":8356:8395   */\n      tag_490\n        /* \"#utility.yul\":8389:8394   */\n      dup3\n        /* \"#utility.yul\":8356:8395   */\n      tag_363\n      jump\t// in\n    tag_490:\n        /* \"#utility.yul\":8411:8472   */\n      tag_491\n        /* \"#utility.yul\":8465:8471   */\n      dup2\n        /* \"#utility.yul\":8460:8463   */\n      dup6\n        /* \"#utility.yul\":8411:8472   */\n      tag_364\n      jump\t// in\n    tag_491:\n        /* \"#utility.yul\":8404:8472   */\n      swap4\n      pop\n        /* \"#utility.yul\":8481:8533   */\n      tag_492\n        /* \"#utility.yul\":8526:8532   */\n      dup2\n        /* \"#utility.yul\":8521:8524   */\n      dup6\n        /* \"#utility.yul\":8514:8518   */\n      0x20\n        /* \"#utility.yul\":8507:8512   */\n      dup7\n        /* \"#utility.yul\":8503:8519   */\n      add\n        /* \"#utility.yul\":8481:8533   */\n      tag_365\n      jump\t// in\n    tag_492:\n        /* \"#utility.yul\":8558:8587   */\n      tag_493\n        /* \"#utility.yul\":8580:8586   */\n      dup2\n        /* \"#utility.yul\":8558:8587   */\n      tag_348\n      jump\t// in\n    tag_493:\n        /* \"#utility.yul\":8553:8556   */\n      dup5\n        /* \"#utility.yul\":8549:8588   */\n      add\n        /* \"#utility.yul\":8542:8588   */\n      swap2\n      pop\n        /* \"#utility.yul\":8332:8594   */\n      pop\n        /* \"#utility.yul\":8250:8594   */\n      swap3\n      swap2\n      pop\n      pop\n      jump\t// out\n        /* \"#utility.yul\":8600:8796   */\n    tag_367:\n        /* \"#utility.yul\":8689:8699   */\n      0x00\n        /* \"#utility.yul\":8724:8790   */\n      tag_495\n        /* \"#utility.yul\":8786:8789   */\n      dup4\n        /* \"#utility.yul\":8778:8784   */\n      dup4\n        /* \"#utility.yul\":8724:8790   */\n      tag_366\n      jump\t// in\n    tag_495:\n        /* \"#utility.yul\":8710:8790   */\n      swap1\n      pop\n        /* \"#utility.yul\":8600:8796   */\n      swap3\n      swap2\n      pop\n      pop\n      jump\t// out\n        /* \"#utility.yul\":8802:8925   */\n    tag_368:\n        /* \"#utility.yul\":8882:8886   */\n      0x00\n        /* \"#utility.yul\":8914:8918   */\n      0x20\n        /* \"#utility.yul\":8909:8912   */\n      dup3\n        /* \"#utility.yul\":8905:8919   */\n      add\n        /* \"#utility.yul\":8897:8919   */\n      swap1\n      pop\n        /* \"#utility.yul\":8802:8925   */\n      swap2\n      swap1\n      pop\n      jump\t// out\n        /* \"#utility.yul\":8959:9950   */\n    tag_369:\n        /* \"#utility.yul\":9098:9101   */\n      0x00\n        /* \"#utility.yul\":9127:9191   */\n      tag_498\n        /* \"#utility.yul\":9185:9190   */\n      dup3\n        /* \"#utility.yul\":9127:9191   */\n      tag_360\n      jump\t// in\n    tag_498:\n        /* \"#utility.yul\":9207:9303   */\n      tag_499\n        /* \"#utility.yul\":9296:9302   */\n      dup2\n        /* \"#utility.yul\":9291:9294   */\n      dup6\n        /* \"#utility.yul\":9207:9303   */\n      tag_361\n      jump\t// in\n    tag_499:\n        /* \"#utility.yul\":9200:9303   */\n      swap4\n      pop\n        /* \"#utility.yul\":9329:9332   */\n      dup4\n        /* \"#utility.yul\":9374:9378   */\n      0x20\n        /* \"#utility.yul\":9366:9372   */\n      dup3\n        /* \"#utility.yul\":9362:9379   */\n      mul\n        /* \"#utility.yul\":9357:9360   */\n      dup6\n        /* \"#utility.yul\":9353:9380   */\n      add\n        /* \"#utility.yul\":9404:9470   */\n      tag_500\n        /* \"#utility.yul\":9464:9469   */\n      dup6\n        /* \"#utility.yul\":9404:9470   */\n      tag_362\n      jump\t// in\n    tag_500:\n        /* \"#utility.yul\":9493:9500   */\n      dup1\n        /* \"#utility.yul\":9524:9525   */\n      0x00\n        /* \"#utility.yul\":9509:9905   */\n    tag_501:\n        /* \"#utility.yul\":9534:9540   */\n      dup6\n        /* \"#utility.yul\":9531:9532   */\n      dup2\n        /* \"#utility.yul\":9528:9541   */\n      lt\n        /* \"#utility.yul\":9509:9905   */\n      iszero\n      tag_503\n      jumpi\n        /* \"#utility.yul\":9605:9614   */\n      dup5\n        /* \"#utility.yul\":9599:9603   */\n      dup5\n        /* \"#utility.yul\":9595:9615   */\n      sub\n        /* \"#utility.yul\":9590:9593   */\n      dup10\n        /* \"#utility.yul\":9583:9616   */\n      mstore\n        /* \"#utility.yul\":9656:9662   */\n      dup2\n        /* \"#utility.yul\":9650:9663   */\n      mload\n        /* \"#utility.yul\":9684:9768   */\n      tag_504\n        /* \"#utility.yul\":9763:9767   */\n      dup6\n        /* \"#utility.yul\":9748:9761   */\n      dup3\n        /* \"#utility.yul\":9684:9768   */\n      tag_367\n      jump\t// in\n    tag_504:\n        /* \"#utility.yul\":9676:9768   */\n      swap5\n      pop\n        /* \"#utility.yul\":9791:9861   */\n      tag_505\n        /* \"#utility.yul\":9854:9860   */\n      dup4\n        /* \"#utility.yul\":9791:9861   */\n      tag_368\n      jump\t// in\n    tag_505:\n        /* \"#utility.yul\":9781:9861   */\n      swap3\n      pop\n        /* \"#utility.yul\":9890:9894   */\n      0x20\n        /* \"#utility.yul\":9885:9888   */\n      dup11\n        /* \"#utility.yul\":9881:9895   */\n      add\n        /* \"#utility.yul\":9874:9895   */\n      swap10\n      pop\n        /* \"#utility.yul\":9569:9905   */\n      pop\n        /* \"#utility.yul\":9556:9557   */\n      0x01\n        /* \"#utility.yul\":9553:9554   */\n      dup2\n        /* \"#utility.yul\":9549:9558   */\n      add\n        /* \"#utility.yul\":9544:9558   */\n      swap1\n      pop\n        /* \"#utility.yul\":9509:9905   */\n      jump(tag_501)\n    tag_503:\n        /* \"#utility.yul\":9513:9527   */\n      pop\n        /* \"#utility.yul\":9921:9925   */\n      dup3\n        /* \"#utility.yul\":9914:9925   */\n      swap8\n      pop\n        /* \"#utility.yul\":9941:9944   */\n      dup8\n        /* \"#utility.yul\":9934:9944   */\n      swap6\n      pop\n        /* \"#utility.yul\":9103:9950   */\n      pop\n      pop\n      pop\n      pop\n      pop\n        /* \"#utility.yul\":8959:9950   */\n      swap3\n      swap2\n      pop\n      pop\n      jump\t// out\n        /* \"#utility.yul\":9956:10369   */\n    tag_31:\n        /* \"#utility.yul\":10119:10123   */\n      0x00\n        /* \"#utility.yul\":10157:10159   */\n      0x20\n        /* \"#utility.yul\":10146:10155   */\n      dup3\n        /* \"#utility.yul\":10142:10160   */\n      add\n        /* \"#utility.yul\":10134:10160   */\n      swap1\n      pop\n        /* \"#utility.yul\":10206:10215   */\n      dup2\n        /* \"#utility.yul\":10200:10204   */\n      dup2\n        /* \"#utility.yul\":10196:10216   */\n      sub\n        /* \"#utility.yul\":10192:10193   */\n      0x00\n        /* \"#utility.yul\":10181:10190   */\n      dup4\n        /* \"#utility.yul\":10177:10194   */\n      add\n        /* \"#utility.yul\":10170:10217   */\n      mstore\n        /* \"#utility.yul\":10234:10362   */\n      tag_507\n        /* \"#utility.yul\":10357:10361   */\n      dup2\n        /* \"#utility.yul\":10348:10354   */\n      dup5\n        /* \"#utility.yul\":10234:10362   */\n      tag_369\n      jump\t// in\n    tag_507:\n        /* \"#utility.yul\":10226:10362   */\n      swap1\n      pop\n        /* \"#utility.yul\":9956:10369   */\n      swap3\n      swap2\n      pop\n      pop\n      jump\t// out\n        /* \"#utility.yul\":10375:10884   */\n    tag_34:\n        /* \"#utility.yul\":10444:10450   */\n      0x00\n        /* \"#utility.yul\":10493:10495   */\n      0x20\n        /* \"#utility.yul\":10481:10490   */\n      dup3\n        /* \"#utility.yul\":10472:10479   */\n      dup5\n        /* \"#utility.yul\":10468:10491   */\n      sub\n        /* \"#utility.yul\":10464:10496   */\n      slt\n        /* \"#utility.yul\":10461:10580   */\n      iszero\n      tag_509\n      jumpi\n        /* \"#utility.yul\":10499:10578   */\n      tag_510\n      tag_345\n      jump\t// in\n    tag_510:\n        /* \"#utility.yul\":10461:10580   */\n    tag_509:\n        /* \"#utility.yul\":10647:10648   */\n      0x00\n        /* \"#utility.yul\":10636:10645   */\n      dup3\n        /* \"#utility.yul\":10632:10649   */\n      add\n        /* \"#utility.yul\":10619:10650   */\n      calldataload\n        /* \"#utility.yul\":10677:10695   */\n      0xffffffffffffffff\n        /* \"#utility.yul\":10669:10675   */\n      dup2\n        /* \"#utility.yul\":10666:10696   */\n      gt\n        /* \"#utility.yul\":10663:10780   */\n      iszero\n      tag_511\n      jumpi\n        /* \"#utility.yul\":10699:10778   */\n      tag_512\n      tag_346\n      jump\t// in\n    tag_512:\n        /* \"#utility.yul\":10663:10780   */\n    tag_511:\n        /* \"#utility.yul\":10804:10867   */\n      tag_513\n        /* \"#utility.yul\":10859:10866   */\n      dup5\n        /* \"#utility.yul\":10850:10856   */\n      dup3\n        /* \"#utility.yul\":10839:10848   */\n      dup6\n        /* \"#utility.yul\":10835:10857   */\n      add\n        /* \"#utility.yul\":10804:10867   */\n      tag_357\n      jump\t// in\n    tag_513:\n        /* \"#utility.yul\":10794:10867   */\n      swap2\n      pop\n        /* \"#utility.yul\":10590:10877   */\n      pop\n        /* \"#utility.yul\":10375:10884   */\n      swap3\n      swap2\n      pop\n      pop\n      jump\t// out\n        /* \"#utility.yul\":10890:11059   */\n    tag_370:\n        /* \"#utility.yul\":10974:10985   */\n      0x00\n        /* \"#utility.yul\":11008:11014   */\n      dup3\n        /* \"#utility.yul\":11003:11006   */\n      dup3\n        /* \"#utility.yul\":10996:11015   */\n      mstore\n        /* \"#utility.yul\":11048:11052   */\n      0x20\n        /* \"#utility.yul\":11043:11046   */\n      dup3\n        /* \"#utility.yul\":11039:11053   */\n      add\n        /* \"#utility.yul\":11024:11053   */\n      swap1\n      pop\n        /* \"#utility.yul\":10890:11059   */\n      swap3\n      swap2\n      pop\n      pop\n      jump\t// out\n        /* \"#utility.yul\":11065:11429   */\n    tag_371:\n        /* \"#utility.yul\":11153:11156   */\n      0x00\n        /* \"#utility.yul\":11181:11220   */\n      tag_516\n        /* \"#utility.yul\":11214:11219   */\n      dup3\n        /* \"#utility.yul\":11181:11220   */\n      tag_363\n      jump\t// in\n    tag_516:\n        /* \"#utility.yul\":11236:11307   */\n      tag_517\n        /* \"#utility.yul\":11300:11306   */\n      dup2\n        /* \"#utility.yul\":11295:11298   */\n      dup6\n        /* \"#utility.yul\":11236:11307   */\n      tag_370\n      jump\t// in\n    tag_517:\n        /* \"#utility.yul\":11229:11307   */\n      swap4\n      pop\n        /* \"#utility.yul\":11316:11368   */\n      tag_518\n        /* \"#utility.yul\":11361:11367   */\n      dup2\n        /* \"#utility.yul\":11356:11359   */\n      dup6\n        /* \"#utility.yul\":11349:11353   */\n      0x20\n        /* \"#utility.yul\":11342:11347   */\n      dup7\n        /* \"#utility.yul\":11338:11354   */\n      add\n        /* \"#utility.yul\":11316:11368   */\n      tag_365\n      jump\t// in\n    tag_518:\n        /* \"#utility.yul\":11393:11422   */\n      tag_519\n        /* \"#utility.yul\":11415:11421   */\n      dup2\n        /* \"#utility.yul\":11393:11422   */\n      tag_348\n      jump\t// in\n    tag_519:\n        /* \"#utility.yul\":11388:11391   */\n      dup5\n        /* \"#utility.yul\":11384:11423   */\n      add\n        /* \"#utility.yul\":11377:11423   */\n      swap2\n      pop\n        /* \"#utility.yul\":11157:11429   */\n      pop\n        /* \"#utility.yul\":11065:11429   */\n      swap3\n      swap2\n      pop\n      pop\n      jump\t// out\n        /* \"#utility.yul\":11435:11748   */\n    tag_39:\n        /* \"#utility.yul\":11548:11552   */\n      0x00\n        /* \"#utility.yul\":11586:11588   */\n      0x20\n        /* \"#utility.yul\":11575:11584   */\n      dup3\n        /* \"#utility.yul\":11571:11589   */\n      add\n        /* \"#utility.yul\":11563:11589   */\n      swap1\n      pop\n        /* \"#utility.yul\":11635:11644   */\n      dup2\n        /* \"#utility.yul\":11629:11633   */\n      dup2\n        /* \"#utility.yul\":11625:11645   */\n      sub\n        /* \"#utility.yul\":11621:11622   */\n      0x00\n        /* \"#utility.yul\":11610:11619   */\n      dup4\n        /* \"#utility.yul\":11606:11623   */\n      add\n        /* \"#utility.yul\":11599:11646   */\n      mstore\n        /* \"#utility.yul\":11663:11741   */\n      tag_521\n        /* \"#utility.yul\":11736:11740   */\n      dup2\n        /* \"#utility.yul\":11727:11733   */\n      dup5\n        /* \"#utility.yul\":11663:11741   */\n      tag_371\n      jump\t// in\n    tag_521:\n        /* \"#utility.yul\":11655:11741   */\n      swap1\n      pop\n        /* \"#utility.yul\":11435:11748   */\n      swap3\n      swap2\n      pop\n      pop\n      jump\t// out\n        /* \"#utility.yul\":11754:11868   */\n    tag_372:\n        /* \"#utility.yul\":11821:11827   */\n      0x00\n        /* \"#utility.yul\":11855:11860   */\n      dup2\n        /* \"#utility.yul\":11849:11861   */\n      mload\n        /* \"#utility.yul\":11839:11861   */\n      swap1\n      pop\n        /* \"#utility.yul\":11754:11868   */\n      swap2\n      swap1\n      pop\n      jump\t// out\n        /* \"#utility.yul\":11874:12058   */\n    tag_373:\n        /* \"#utility.yul\":11973:11984   */\n      0x00\n        /* \"#utility.yul\":12007:12013   */\n      dup3\n        /* \"#utility.yul\":12002:12005   */\n      dup3\n        /* \"#utility.yul\":11995:12014   */\n      mstore\n        /* \"#utility.yul\":12047:12051   */\n      0x20\n        /* \"#utility.yul\":12042:12045   */\n      dup3\n        /* \"#utility.yul\":12038:12052   */\n      add\n        /* \"#utility.yul\":12023:12052   */\n      swap1\n      pop\n        /* \"#utility.yul\":11874:12058   */\n      swap3\n      swap2\n      pop\n      pop\n      jump\t// out\n        /* \"#utility.yul\":12064:12196   */\n    tag_374:\n        /* \"#utility.yul\":12131:12135   */\n      0x00\n        /* \"#utility.yul\":12154:12157   */\n      dup2\n        /* \"#utility.yul\":12146:12157   */\n      swap1\n      pop\n        /* \"#utility.yul\":12184:12188   */\n      0x20\n        /* \"#utility.yul\":12179:12182   */\n      dup3\n        /* \"#utility.yul\":12175:12189   */\n      add\n        /* \"#utility.yul\":12167:12189   */\n      swap1\n      pop\n        /* \"#utility.yul\":12064:12196   */\n      swap2\n      swap1\n      pop\n      jump\t// out\n        /* \"#utility.yul\":12202:12279   */\n    tag_375:\n        /* \"#utility.yul\":12239:12246   */\n      0x00\n        /* \"#utility.yul\":12268:12273   */\n      dup2\n        /* \"#utility.yul\":12257:12273   */\n      swap1\n      pop\n        /* \"#utility.yul\":12202:12279   */\n      swap2\n      swap1\n      pop\n      jump\t// out\n        /* \"#utility.yul\":12285:12393   */\n    tag_376:\n        /* \"#utility.yul\":12362:12386   */\n      tag_527\n        /* \"#utility.yul\":12380:12385   */\n      dup2\n        /* \"#utility.yul\":12362:12386   */\n      tag_375\n      jump\t// in\n    tag_527:\n        /* \"#utility.yul\":12357:12360   */\n      dup3\n        /* \"#utility.yul\":12350:12387   */\n      mstore\n        /* \"#utility.yul\":12285:12393   */\n      pop\n      pop\n      jump\t// out\n        /* \"#utility.yul\":12399:12578   */\n    tag_377:\n        /* \"#utility.yul\":12468:12478   */\n      0x00\n        /* \"#utility.yul\":12489:12535   */\n      tag_529\n        /* \"#utility.yul\":12531:12534   */\n      dup4\n        /* \"#utility.yul\":12523:12529   */\n      dup4\n        /* \"#utility.yul\":12489:12535   */\n      tag_376\n      jump\t// in\n    tag_529:\n        /* \"#utility.yul\":12567:12571   */\n      0x20\n        /* \"#utility.yul\":12562:12565   */\n      dup4\n        /* \"#utility.yul\":12558:12572   */\n      add\n        /* \"#utility.yul\":12544:12572   */\n      swap1\n      pop\n        /* \"#utility.yul\":12399:12578   */\n      swap3\n      swap2\n      pop\n      pop\n      jump\t// out\n        /* \"#utility.yul\":12584:12697   */\n    tag_378:\n        /* \"#utility.yul\":12654:12658   */\n      0x00\n        /* \"#utility.yul\":12686:12690   */\n      0x20\n        /* \"#utility.yul\":12681:12684   */\n      dup3\n        /* \"#utility.yul\":12677:12691   */\n      add\n        /* \"#utility.yul\":12669:12691   */\n      swap1\n      pop\n        /* \"#utility.yul\":12584:12697   */\n      swap2\n      swap1\n      pop\n      jump\t// out\n        /* \"#utility.yul\":12733:13465   */\n    tag_379:\n        /* \"#utility.yul\":12852:12855   */\n      0x00\n        /* \"#utility.yul\":12881:12935   */\n      tag_532\n        /* \"#utility.yul\":12929:12934   */\n      dup3\n        /* \"#utility.yul\":12881:12935   */\n      tag_372\n      jump\t// in\n    tag_532:\n        /* \"#utility.yul\":12951:13037   */\n      tag_533\n        /* \"#utility.yul\":13030:13036   */\n      dup2\n        /* \"#utility.yul\":13025:13028   */\n      dup6\n        /* \"#utility.yul\":12951:13037   */\n      tag_373\n      jump\t// in\n    tag_533:\n        /* \"#utility.yul\":12944:13037   */\n      swap4\n      pop\n        /* \"#utility.yul\":13061:13117   */\n      tag_534\n        /* \"#utility.yul\":13111:13116   */\n      dup4\n        /* \"#utility.yul\":13061:13117   */\n      tag_374\n      jump\t// in\n    tag_534:\n        /* \"#utility.yul\":13140:13147   */\n      dup1\n        /* \"#utility.yul\":13171:13172   */\n      0x00\n        /* \"#utility.yul\":13156:13440   */\n    tag_535:\n        /* \"#utility.yul\":13181:13187   */\n      dup4\n        /* \"#utility.yul\":13178:13179   */\n      dup2\n        /* \"#utility.yul\":13175:13188   */\n      lt\n        /* \"#utility.yul\":13156:13440   */\n      iszero\n      tag_537\n      jumpi\n        /* \"#utility.yul\":13257:13263   */\n      dup2\n        /* \"#utility.yul\":13251:13264   */\n      mload\n        /* \"#utility.yul\":13284:13347   */\n      tag_538\n        /* \"#utility.yul\":13343:13346   */\n      dup9\n        /* \"#utility.yul\":13328:13341   */\n      dup3\n        /* \"#utility.yul\":13284:13347   */\n      tag_377\n      jump\t// in\n    tag_538:\n        /* \"#utility.yul\":13277:13347   */\n      swap8\n      pop\n        /* \"#utility.yul\":13370:13430   */\n      tag_539\n        /* \"#utility.yul\":13423:13429   */\n      dup4\n        /* \"#utility.yul\":13370:13430   */\n      tag_378\n      jump\t// in\n    tag_539:\n        /* \"#utility.yul\":13360:13430   */\n      swap3\n      pop\n        /* \"#utility.yul\":13216:13440   */\n      pop\n        /* \"#utility.yul\":13203:13204   */\n      0x01\n        /* \"#utility.yul\":13200:13201   */\n      dup2\n        /* \"#utility.yul\":13196:13205   */\n      add\n        /* \"#utility.yul\":13191:13205   */\n      swap1\n      pop\n        /* \"#utility.yul\":13156:13440   */\n      jump(tag_535)\n    tag_537:\n        /* \"#utility.yul\":13160:13174   */\n      pop\n        /* \"#utility.yul\":13456:13459   */\n      dup6\n        /* \"#utility.yul\":13449:13459   */\n      swap4\n      pop\n        /* \"#utility.yul\":12857:13465   */\n      pop\n      pop\n      pop\n        /* \"#utility.yul\":12733:13465   */\n      swap3\n      swap2\n      pop\n      pop\n      jump\t// out\n        /* \"#utility.yul\":13471:13844   */\n    tag_43:\n        /* \"#utility.yul\":13614:13618   */\n      0x00\n        /* \"#utility.yul\":13652:13654   */\n      0x20\n        /* \"#utility.yul\":13641:13650   */\n      dup3\n        /* \"#utility.yul\":13637:13655   */\n      add\n        /* \"#utility.yul\":13629:13655   */\n      swap1\n      pop\n        /* \"#utility.yul\":13701:13710   */\n      dup2\n        /* \"#utility.yul\":13695:13699   */\n      dup2\n        /* \"#utility.yul\":13691:13711   */\n      sub\n        /* \"#utility.yul\":13687:13688   */\n      0x00\n        /* \"#utility.yul\":13676:13685   */\n      dup4\n        /* \"#utility.yul\":13672:13689   */\n      add\n        /* \"#utility.yul\":13665:13712   */\n      mstore\n        /* \"#utility.yul\":13729:13837   */\n      tag_541\n        /* \"#utility.yul\":13832:13836   */\n      dup2\n        /* \"#utility.yul\":13823:13829   */\n      dup5\n        /* \"#utility.yul\":13729:13837   */\n      tag_379\n      jump\t// in\n    tag_541:\n        /* \"#utility.yul\":13721:13837   */\n      swap1\n      pop\n        /* \"#utility.yul\":13471:13844   */\n      swap3\n      swap2\n      pop\n      pop\n      jump\t// out\n        /* \"#utility.yul\":13850:13968   */\n    tag_380:\n        /* \"#utility.yul\":13937:13961   */\n      tag_543\n        /* \"#utility.yul\":13955:13960   */\n      dup2\n        /* \"#utility.yul\":13937:13961   */\n      tag_375\n      jump\t// in\n    tag_543:\n        /* \"#utility.yul\":13932:13935   */\n      dup3\n        /* \"#utility.yul\":13925:13962   */\n      mstore\n        /* \"#utility.yul\":13850:13968   */\n      pop\n      pop\n      jump\t// out\n        /* \"#utility.yul\":13974:14196   */\n    tag_48:\n        /* \"#utility.yul\":14067:14071   */\n      0x00\n        /* \"#utility.yul\":14105:14107   */\n      0x20\n        /* \"#utility.yul\":14094:14103   */\n      dup3\n        /* \"#utility.yul\":14090:14108   */\n      add\n        /* \"#utility.yul\":14082:14108   */\n      swap1\n      pop\n        /* \"#utility.yul\":14118:14189   */\n      tag_545\n        /* \"#utility.yul\":14186:14187   */\n      0x00\n        /* \"#utility.yul\":14175:14184   */\n      dup4\n        /* \"#utility.yul\":14171:14188   */\n      add\n        /* \"#utility.yul\":14162:14168   */\n      dup5\n        /* \"#utility.yul\":14118:14189   */\n      tag_380\n      jump\t// in\n    tag_545:\n        /* \"#utility.yul\":13974:14196   */\n      swap3\n      swap2\n      pop\n      pop\n      jump\t// out\n        /* \"#utility.yul\":14202:15036   */\n    tag_61:\n        /* \"#utility.yul\":14290:14296   */\n      0x00\n        /* \"#utility.yul\":14298:14304   */\n      dup1\n        /* \"#utility.yul\":14347:14349   */\n      0x40\n        /* \"#utility.yul\":14335:14344   */\n      dup4\n        /* \"#utility.yul\":14326:14333   */\n      dup6\n        /* \"#utility.yul\":14322:14345   */\n      sub\n        /* \"#utility.yul\":14318:14350   */\n      slt\n        /* \"#utility.yul\":14315:14434   */\n      iszero\n      tag_547\n      jumpi\n        /* \"#utility.yul\":14353:14432   */\n      tag_548\n      tag_345\n      jump\t// in\n    tag_548:\n        /* \"#utility.yul\":14315:14434   */\n    tag_547:\n        /* \"#utility.yul\":14501:14502   */\n      0x00\n        /* \"#utility.yul\":14490:14499   */\n      dup4\n        /* \"#utility.yul\":14486:14503   */\n      add\n        /* \"#utility.yul\":14473:14504   */\n      calldataload\n        /* \"#utility.yul\":14531:14549   */\n      0xffffffffffffffff\n        /* \"#utility.yul\":14523:14529   */\n      dup2\n        /* \"#utility.yul\":14520:14550   */\n      gt\n        /* \"#utility.yul\":14517:14634   */\n      iszero\n      tag_549\n      jumpi\n        /* \"#utility.yul\":14553:14632   */\n      tag_550\n      tag_346\n      jump\t// in\n    tag_550:\n        /* \"#utility.yul\":14517:14634   */\n    tag_549:\n        /* \"#utility.yul\":14658:14721   */\n      tag_551\n        /* \"#utility.yul\":14713:14720   */\n      dup6\n        /* \"#utility.yul\":14704:14710   */\n      dup3\n        /* \"#utility.yul\":14693:14702   */\n      dup7\n        /* \"#utility.yul\":14689:14711   */\n      add\n        /* \"#utility.yul\":14658:14721   */\n      tag_357\n      jump\t// in\n    tag_551:\n        /* \"#utility.yul\":14648:14721   */\n      swap3\n      pop\n        /* \"#utility.yul\":14444:14731   */\n      pop\n        /* \"#utility.yul\":14798:14800   */\n      0x20\n        /* \"#utility.yul\":14787:14796   */\n      dup4\n        /* \"#utility.yul\":14783:14801   */\n      add\n        /* \"#utility.yul\":14770:14802   */\n      calldataload\n        /* \"#utility.yul\":14829:14847   */\n      0xffffffffffffffff\n        /* \"#utility.yul\":14821:14827   */\n      dup2\n        /* \"#utility.yul\":14818:14848   */\n      gt\n        /* \"#utility.yul\":14815:14932   */\n      iszero\n      tag_552\n      jumpi\n        /* \"#utility.yul\":14851:14930   */\n      tag_553\n      tag_346\n      jump\t// in\n    tag_553:\n        /* \"#utility.yul\":14815:14932   */\n    tag_552:\n        /* \"#utility.yul\":14956:15019   */\n      tag_554\n        /* \"#utility.yul\":15011:15018   */\n      dup6\n        /* \"#utility.yul\":15002:15008   */\n      dup3\n        /* \"#utility.yul\":14991:15000   */\n      dup7\n        /* \"#utility.yul\":14987:15009   */\n      add\n        /* \"#utility.yul\":14956:15019   */\n      tag_357\n      jump\t// in\n    tag_554:\n        /* \"#utility.yul\":14946:15019   */\n      swap2\n      pop\n        /* \"#utility.yul\":14741:15029   */\n      pop\n        /* \"#utility.yul\":14202:15036   */\n      swap3\n      pop\n      swap3\n      swap1\n      pop\n      jump\t// out\n        /* \"#utility.yul\":15042:15160   */\n    tag_381:\n        /* \"#utility.yul\":15129:15153   */\n      tag_556\n        /* \"#utility.yul\":15147:15152   */\n      dup2\n        /* \"#utility.yul\":15129:15153   */\n      tag_339\n      jump\t// in\n    tag_556:\n        /* \"#utility.yul\":15124:15127   */\n      dup3\n        /* \"#utility.yul\":15117:15154   */\n      mstore\n        /* \"#utility.yul\":15042:15160   */\n      pop\n      pop\n      jump\t// out\n        /* \"#utility.yul\":15166:15388   */\n    tag_70:\n        /* \"#utility.yul\":15259:15263   */\n      0x00\n        /* \"#utility.yul\":15297:15299   */\n      0x20\n        /* \"#utility.yul\":15286:15295   */\n      dup3\n        /* \"#utility.yul\":15282:15300   */\n      add\n        /* \"#utility.yul\":15274:15300   */\n      swap1\n      pop\n        /* \"#utility.yul\":15310:15381   */\n      tag_558\n        /* \"#utility.yul\":15378:15379   */\n      0x00\n        /* \"#utility.yul\":15367:15376   */\n      dup4\n        /* \"#utility.yul\":15363:15380   */\n      add\n        /* \"#utility.yul\":15354:15360   */\n      dup5\n        /* \"#utility.yul\":15310:15381   */\n      tag_381\n      jump\t// in\n    tag_558:\n        /* \"#utility.yul\":15166:15388   */\n      swap3\n      swap2\n      pop\n      pop\n      jump\t// out\n        /* \"#utility.yul\":15394:15574   */\n    tag_84:\n        /* \"#utility.yul\":15442:15519   */\n      0x4e487b7100000000000000000000000000000000000000000000000000000000\n        /* \"#utility.yul\":15439:15440   */\n      0x00\n        /* \"#utility.yul\":15432:15520   */\n      mstore\n        /* \"#utility.yul\":15539:15543   */\n      0x32\n        /* \"#utility.yul\":15536:15537   */\n      0x04\n        /* \"#utility.yul\":15529:15544   */\n      mstore\n        /* \"#utility.yul\":15563:15567   */\n      0x24\n        /* \"#utility.yul\":15560:15561   */\n      0x00\n        /* \"#utility.yul\":15553:15568   */\n      revert\n        /* \"#utility.yul\":15580:15760   */\n    tag_382:\n        /* \"#utility.yul\":15628:15705   */\n      0x4e487b7100000000000000000000000000000000000000000000000000000000\n        /* \"#utility.yul\":15625:15626   */\n      0x00\n        /* \"#utility.yul\":15618:15706   */\n      mstore\n        /* \"#utility.yul\":15725:15729   */\n      0x22\n        /* \"#utility.yul\":15722:15723   */\n      0x04\n        /* \"#utility.yul\":15715:15730   */\n      mstore\n        /* \"#utility.yul\":15749:15753   */\n      0x24\n        /* \"#utility.yul\":15746:15747   */\n      0x00\n        /* \"#utility.yul\":15739:15754   */\n      revert\n        /* \"#utility.yul\":15766:16086   */\n    tag_125:\n        /* \"#utility.yul\":15810:15816   */\n      0x00\n        /* \"#utility.yul\":15847:15848   */\n      0x02\n        /* \"#utility.yul\":15841:15845   */\n      dup3\n        /* \"#utility.yul\":15837:15849   */\n      div\n        /* \"#utility.yul\":15827:15849   */\n      swap1\n      pop\n        /* \"#utility.yul\":15894:15895   */\n      0x01\n        /* \"#utility.yul\":15888:15892   */\n      dup3\n        /* \"#utility.yul\":15884:15896   */\n      and\n        /* \"#utility.yul\":15915:15933   */\n      dup1\n        /* \"#utility.yul\":15905:15986   */\n      tag_562\n      jumpi\n        /* \"#utility.yul\":15971:15975   */\n      0x7f\n        /* \"#utility.yul\":15963:15969   */\n      dup3\n        /* \"#utility.yul\":15959:15976   */\n      and\n        /* \"#utility.yul\":15949:15976   */\n      swap2\n      pop\n        /* \"#utility.yul\":15905:15986   */\n    tag_562:\n        /* \"#utility.yul\":16033:16035   */\n      0x20\n        /* \"#utility.yul\":16025:16031   */\n      dup3\n        /* \"#utility.yul\":16022:16036   */\n      lt\n        /* \"#utility.yul\":16002:16020   */\n      dup2\n        /* \"#utility.yul\":15999:16037   */\n      eq\n        /* \"#utility.yul\":15996:16080   */\n      iszero\n      tag_563\n      jumpi\n        /* \"#utility.yul\":16052:16070   */\n      tag_564\n      tag_382\n      jump\t// in\n    tag_564:\n        /* \"#utility.yul\":15996:16080   */\n    tag_563:\n        /* \"#utility.yul\":15817:16086   */\n      pop\n        /* \"#utility.yul\":15766:16086   */\n      swap2\n      swap1\n      pop\n      jump\t// out\n        /* \"#utility.yul\":16092:16240   */\n    tag_383:\n        /* \"#utility.yul\":16194:16205   */\n      0x00\n        /* \"#utility.yul\":16231:16234   */\n      dup2\n        /* \"#utility.yul\":16216:16234   */\n      swap1\n      pop\n        /* \"#utility.yul\":16092:16240   */\n      swap3\n      swap2\n      pop\n      pop\n      jump\t// out\n        /* \"#utility.yul\":16246:16387   */\n    tag_384:\n        /* \"#utility.yul\":16295:16299   */\n      0x00\n        /* \"#utility.yul\":16318:16321   */\n      dup2\n        /* \"#utility.yul\":16310:16321   */\n      swap1\n      pop\n        /* \"#utility.yul\":16341:16344   */\n      dup2\n        /* \"#utility.yul\":16338:16339   */\n      0x00\n        /* \"#utility.yul\":16331:16345   */\n      mstore\n        /* \"#utility.yul\":16375:16379   */\n      0x20\n        /* \"#utility.yul\":16372:16373   */\n      0x00\n        /* \"#utility.yul\":16362:16380   */\n      keccak256\n        /* \"#utility.yul\":16354:16380   */\n      swap1\n      pop\n        /* \"#utility.yul\":16246:16387   */\n      swap2\n      swap1\n      pop\n      jump\t// out\n        /* \"#utility.yul\":16417:17262   */\n    tag_385:\n        /* \"#utility.yul\":16520:16523   */\n      0x00\n        /* \"#utility.yul\":16557:16562   */\n      dup2\n        /* \"#utility.yul\":16551:16563   */\n      sload\n        /* \"#utility.yul\":16586:16622   */\n      tag_568\n        /* \"#utility.yul\":16612:16621   */\n      dup2\n        /* \"#utility.yul\":16586:16622   */\n      tag_125\n      jump\t// in\n    tag_568:\n        /* \"#utility.yul\":16638:16727   */\n      tag_569\n        /* \"#utility.yul\":16720:16726   */\n      dup2\n        /* \"#utility.yul\":16715:16718   */\n      dup7\n        /* \"#utility.yul\":16638:16727   */\n      tag_383\n      jump\t// in\n    tag_569:\n        /* \"#utility.yul\":16631:16727   */\n      swap5\n      pop\n        /* \"#utility.yul\":16758:16759   */\n      0x01\n        /* \"#utility.yul\":16747:16756   */\n      dup3\n        /* \"#utility.yul\":16743:16760   */\n      and\n        /* \"#utility.yul\":16774:16775   */\n      0x00\n        /* \"#utility.yul\":16769:16906   */\n      dup2\n      eq\n      tag_571\n      jumpi\n        /* \"#utility.yul\":16920:16921   */\n      0x01\n        /* \"#utility.yul\":16915:17256   */\n      dup2\n      eq\n      tag_572\n      jumpi\n        /* \"#utility.yul\":16736:17256   */\n      jump(tag_570)\n        /* \"#utility.yul\":16769:16906   */\n    tag_571:\n        /* \"#utility.yul\":16853:16857   */\n      0xff\n        /* \"#utility.yul\":16849:16858   */\n      not\n        /* \"#utility.yul\":16838:16847   */\n      dup4\n        /* \"#utility.yul\":16834:16859   */\n      and\n        /* \"#utility.yul\":16829:16832   */\n      dup7\n        /* \"#utility.yul\":16822:16860   */\n      mstore\n        /* \"#utility.yul\":16889:16895   */\n      dup2\n        /* \"#utility.yul\":16884:16887   */\n      dup7\n        /* \"#utility.yul\":16880:16896   */\n      add\n        /* \"#utility.yul\":16873:16896   */\n      swap4\n      pop\n        /* \"#utility.yul\":16769:16906   */\n      jump(tag_570)\n        /* \"#utility.yul\":16915:17256   */\n    tag_572:\n        /* \"#utility.yul\":16982:17020   */\n      tag_573\n        /* \"#utility.yul\":17014:17019   */\n      dup6\n        /* \"#utility.yul\":16982:17020   */\n      tag_384\n      jump\t// in\n    tag_573:\n        /* \"#utility.yul\":17042:17043   */\n      0x00\n        /* \"#utility.yul\":17056:17210   */\n    tag_574:\n        /* \"#utility.yul\":17070:17076   */\n      dup4\n        /* \"#utility.yul\":17067:17068   */\n      dup2\n        /* \"#utility.yul\":17064:17077   */\n      lt\n        /* \"#utility.yul\":17056:17210   */\n      iszero\n      tag_576\n      jumpi\n        /* \"#utility.yul\":17144:17151   */\n      dup2\n        /* \"#utility.yul\":17138:17152   */\n      sload\n        /* \"#utility.yul\":17134:17135   */\n      dup2\n        /* \"#utility.yul\":17129:17132   */\n      dup10\n        /* \"#utility.yul\":17125:17136   */\n      add\n        /* \"#utility.yul\":17118:17153   */\n      mstore\n        /* \"#utility.yul\":17194:17195   */\n      0x01\n        /* \"#utility.yul\":17185:17192   */\n      dup3\n        /* \"#utility.yul\":17181:17196   */\n      add\n        /* \"#utility.yul\":17170:17196   */\n      swap2\n      pop\n        /* \"#utility.yul\":17092:17096   */\n      0x20\n        /* \"#utility.yul\":17089:17090   */\n      dup2\n        /* \"#utility.yul\":17085:17097   */\n      add\n        /* \"#utility.yul\":17080:17097   */\n      swap1\n      pop\n        /* \"#utility.yul\":17056:17210   */\n      jump(tag_574)\n    tag_576:\n        /* \"#utility.yul\":17239:17245   */\n      dup4\n        /* \"#utility.yul\":17234:17237   */\n      dup9\n        /* \"#utility.yul\":17230:17246   */\n      add\n        /* \"#utility.yul\":17223:17246   */\n      swap6\n      pop\n        /* \"#utility.yul\":16922:17256   */\n      pop\n      pop\n        /* \"#utility.yul\":16736:17256   */\n    tag_570:\n      pop\n        /* \"#utility.yul\":16524:17262   */\n      pop\n      pop\n        /* \"#utility.yul\":16417:17262   */\n      swap3\n      swap2\n      pop\n      pop\n      jump\t// out\n        /* \"#utility.yul\":17268:17537   */\n    tag_87:\n        /* \"#utility.yul\":17397:17400   */\n      0x00\n        /* \"#utility.yul\":17419:17511   */\n      tag_578\n        /* \"#utility.yul\":17507:17510   */\n      dup3\n        /* \"#utility.yul\":17498:17504   */\n      dup5\n        /* \"#utility.yul\":17419:17511   */\n      tag_385\n      jump\t// in\n    tag_578:\n        /* \"#utility.yul\":17412:17511   */\n      swap2\n      pop\n        /* \"#utility.yul\":17528:17531   */\n      dup2\n        /* \"#utility.yul\":17521:17531   */\n      swap1\n      pop\n        /* \"#utility.yul\":17268:17537   */\n      swap3\n      swap2\n      pop\n      pop\n      jump\t// out\n        /* \"#utility.yul\":17543:17723   */\n    tag_386:\n        /* \"#utility.yul\":17591:17668   */\n      0x4e487b7100000000000000000000000000000000000000000000000000000000\n        /* \"#utility.yul\":17588:17589   */\n      0x00\n        /* \"#utility.yul\":17581:17669   */\n      mstore\n        /* \"#utility.yul\":17688:17692   */\n      0x11\n        /* \"#utility.yul\":17685:17686   */\n      0x04\n        /* \"#utility.yul\":17678:17693   */\n      mstore\n        /* \"#utility.yul\":17712:17716   */\n      0x24\n        /* \"#utility.yul\":17709:17710   */\n      0x00\n        /* \"#utility.yul\":17702:17717   */\n      revert\n        /* \"#utility.yul\":17729:17962   */\n    tag_91:\n        /* \"#utility.yul\":17768:17771   */\n      0x00\n        /* \"#utility.yul\":17791:17815   */\n      tag_581\n        /* \"#utility.yul\":17809:17814   */\n      dup3\n        /* \"#utility.yul\":17791:17815   */\n      tag_375\n      jump\t// in\n    tag_581:\n        /* \"#utility.yul\":17782:17815   */\n      swap2\n      pop\n        /* \"#utility.yul\":17837:17903   */\n      0xffffffffffffffffffffffffffffffffffffffffffffffffffffffffffffffff\n        /* \"#utility.yul\":17830:17835   */\n      dup3\n        /* \"#utility.yul\":17827:17904   */\n      eq\n        /* \"#utility.yul\":17824:17927   */\n      iszero\n      tag_582\n      jumpi\n        /* \"#utility.yul\":17907:17925   */\n      tag_583\n      tag_386\n      jump\t// in\n    tag_583:\n        /* \"#utility.yul\":17824:17927   */\n    tag_582:\n        /* \"#utility.yul\":17954:17955   */\n      0x01\n        /* \"#utility.yul\":17947:17952   */\n      dup3\n        /* \"#utility.yul\":17943:17956   */\n      add\n        /* \"#utility.yul\":17936:17956   */\n      swap1\n      pop\n        /* \"#utility.yul\":17729:17962   */\n      swap2\n      swap1\n      pop\n      jump\t// out\n        /* \"#utility.yul\":17968:18131   */\n    tag_387:\n        /* \"#utility.yul\":18108:18123   */\n      0x4e6f20616c6c6f77616e63657300000000000000000000000000000000000000\n        /* \"#utility.yul\":18104:18105   */\n      0x00\n        /* \"#utility.yul\":18096:18102   */\n      dup3\n        /* \"#utility.yul\":18092:18106   */\n      add\n        /* \"#utility.yul\":18085:18124   */\n      mstore\n        /* \"#utility.yul\":17968:18131   */\n      pop\n      jump\t// out\n        /* \"#utility.yul\":18137:18503   */\n    tag_388:\n        /* \"#utility.yul\":18279:18282   */\n      0x00\n        /* \"#utility.yul\":18300:18367   */\n      tag_586\n        /* \"#utility.yul\":18364:18366   */\n      0x0d\n        /* \"#utility.yul\":18359:18362   */\n      dup4\n        /* \"#utility.yul\":18300:18367   */\n      tag_370\n      jump\t// in\n    tag_586:\n        /* \"#utility.yul\":18293:18367   */\n      swap2\n      pop\n        /* \"#utility.yul\":18376:18469   */\n      tag_587\n        /* \"#utility.yul\":18465:18468   */\n      dup3\n        /* \"#utility.yul\":18376:18469   */\n      tag_387\n      jump\t// in\n    tag_587:\n        /* \"#utility.yul\":18494:18496   */\n      0x20\n        /* \"#utility.yul\":18489:18492   */\n      dup3\n        /* \"#utility.yul\":18485:18497   */\n      add\n        /* \"#utility.yul\":18478:18497   */\n      swap1\n      pop\n        /* \"#utility.yul\":18137:18503   */\n      swap2\n      swap1\n      pop\n      jump\t// out\n        /* \"#utility.yul\":18509:18928   */\n    tag_95:\n        /* \"#utility.yul\":18675:18679   */\n      0x00\n        /* \"#utility.yul\":18713:18715   */\n      0x20\n        /* \"#utility.yul\":18702:18711   */\n      dup3\n        /* \"#utility.yul\":18698:18716   */\n      add\n        /* \"#utility.yul\":18690:18716   */\n      swap1\n      pop\n        /* \"#utility.yul\":18762:18771   */\n      dup2\n        /* \"#utility.yul\":18756:18760   */\n      dup2\n        /* \"#utility.yul\":18752:18772   */\n      sub\n        /* \"#utility.yul\":18748:18749   */\n      0x00\n        /* \"#utility.yul\":18737:18746   */\n      dup4\n        /* \"#utility.yul\":18733:18750   */\n      add\n        /* \"#utility.yul\":18726:18773   */\n      mstore\n        /* \"#utility.yul\":18790:18921   */\n      tag_589\n        /* \"#utility.yul\":18916:18920   */\n      dup2\n        /* \"#utility.yul\":18790:18921   */\n      tag_388\n      jump\t// in\n    tag_589:\n        /* \"#utility.yul\":18782:18921   */\n      swap1\n      pop\n        /* \"#utility.yul\":18509:18928   */\n      swap2\n      swap1\n      pop\n      jump\t// out\n        /* \"#utility.yul\":18934:19311   */\n    tag_389:\n        /* \"#utility.yul\":19040:19043   */\n      0x00\n        /* \"#utility.yul\":19068:19107   */\n      tag_591\n        /* \"#utility.yul\":19101:19106   */\n      dup3\n        /* \"#utility.yul\":19068:19107   */\n      tag_363\n      jump\t// in\n    tag_591:\n        /* \"#utility.yul\":19123:19212   */\n      tag_592\n        /* \"#utility.yul\":19205:19211   */\n      dup2\n        /* \"#utility.yul\":19200:19203   */\n      dup6\n        /* \"#utility.yul\":19123:19212   */\n      tag_383\n      jump\t// in\n    tag_592:\n        /* \"#utility.yul\":19116:19212   */\n      swap4\n      pop\n        /* \"#utility.yul\":19221:19273   */\n      tag_593\n        /* \"#utility.yul\":19266:19272   */\n      dup2\n        /* \"#utility.yul\":19261:19264   */\n      dup6\n        /* \"#utility.yul\":19254:19258   */\n      0x20\n        /* \"#utility.yul\":19247:19252   */\n      dup7\n        /* \"#utility.yul\":19243:19259   */\n      add\n        /* \"#utility.yul\":19221:19273   */\n      tag_365\n      jump\t// in\n    tag_593:\n        /* \"#utility.yul\":19298:19304   */\n      dup1\n        /* \"#utility.yul\":19293:19296   */\n      dup5\n        /* \"#utility.yul\":19289:19305   */\n      add\n        /* \"#utility.yul\":19282:19305   */\n      swap2\n      pop\n        /* \"#utility.yul\":19044:19311   */\n      pop\n        /* \"#utility.yul\":18934:19311   */\n      swap3\n      swap2\n      pop\n      pop\n      jump\t// out\n        /* \"#utility.yul\":19317:19592   */\n    tag_103:\n        /* \"#utility.yul\":19449:19452   */\n      0x00\n        /* \"#utility.yul\":19471:19566   */\n      tag_595\n        /* \"#utility.yul\":19562:19565   */\n      dup3\n        /* \"#utility.yul\":19553:19559   */\n      dup5\n        /* \"#utility.yul\":19471:19566   */\n      tag_389\n      jump\t// in\n    tag_595:\n        /* \"#utility.yul\":19464:19566   */\n      swap2\n      pop\n        /* \"#utility.yul\":19583:19586   */\n      dup2\n        /* \"#utility.yul\":19576:19586   */\n      swap1\n      pop\n        /* \"#utility.yul\":19317:19592   */\n      swap3\n      swap2\n      pop\n      pop\n      jump\t// out\n        /* \"#utility.yul\":19598:19828   */\n    tag_390:\n        /* \"#utility.yul\":19738:19772   */\n      0x4e6f742064657465637465642061732061207061727469636970616e7420696e\n        /* \"#utility.yul\":19734:19735   */\n      0x00\n        /* \"#utility.yul\":19726:19732   */\n      dup3\n        /* \"#utility.yul\":19722:19736   */\n      add\n        /* \"#utility.yul\":19715:19773   */\n      mstore\n        /* \"#utility.yul\":19807:19820   */\n      0x206f75722073797374656d000000000000000000000000000000000000000000\n        /* \"#utility.yul\":19802:19804   */\n      0x20\n        /* \"#utility.yul\":19794:19800   */\n      dup3\n        /* \"#utility.yul\":19790:19805   */\n      add\n        /* \"#utility.yul\":19783:19821   */\n      mstore\n        /* \"#utility.yul\":19598:19828   */\n      pop\n      jump\t// out\n        /* \"#utility.yul\":19834:20200   */\n    tag_391:\n        /* \"#utility.yul\":19976:19979   */\n      0x00\n        /* \"#utility.yul\":19997:20064   */\n      tag_598\n        /* \"#utility.yul\":20061:20063   */\n      0x2b\n        /* \"#utility.yul\":20056:20059   */\n      dup4\n        /* \"#utility.yul\":19997:20064   */\n      tag_370\n      jump\t// in\n    tag_598:\n        /* \"#utility.yul\":19990:20064   */\n      swap2\n      pop\n        /* \"#utility.yul\":20073:20166   */\n      tag_599\n        /* \"#utility.yul\":20162:20165   */\n      dup3\n        /* \"#utility.yul\":20073:20166   */\n      tag_390\n      jump\t// in\n    tag_599:\n        /* \"#utility.yul\":20191:20193   */\n      0x40\n        /* \"#utility.yul\":20186:20189   */\n      dup3\n        /* \"#utility.yul\":20182:20194   */\n      add\n        /* \"#utility.yul\":20175:20194   */\n      swap1\n      pop\n        /* \"#utility.yul\":19834:20200   */\n      swap2\n      swap1\n      pop\n      jump\t// out\n        /* \"#utility.yul\":20206:20625   */\n    tag_137:\n        /* \"#utility.yul\":20372:20376   */\n      0x00\n        /* \"#utility.yul\":20410:20412   */\n      0x20\n        /* \"#utility.yul\":20399:20408   */\n      dup3\n        /* \"#utility.yul\":20395:20413   */\n      add\n        /* \"#utility.yul\":20387:20413   */\n      swap1\n      pop\n        /* \"#utility.yul\":20459:20468   */\n      dup2\n        /* \"#utility.yul\":20453:20457   */\n      dup2\n        /* \"#utility.yul\":20449:20469   */\n      sub\n        /* \"#utility.yul\":20445:20446   */\n      0x00\n        /* \"#utility.yul\":20434:20443   */\n      dup4\n        /* \"#utility.yul\":20430:20447   */\n      add\n        /* \"#utility.yul\":20423:20470   */\n      mstore\n        /* \"#utility.yul\":20487:20618   */\n      tag_601\n        /* \"#utility.yul\":20613:20617   */\n      dup2\n        /* \"#utility.yul\":20487:20618   */\n      tag_391\n      jump\t// in\n    tag_601:\n        /* \"#utility.yul\":20479:20618   */\n      swap1\n      pop\n        /* \"#utility.yul\":20206:20625   */\n      swap2\n      swap1\n      pop\n      jump\t// out\n        /* \"#utility.yul\":20631:20753   */\n    tag_392:\n        /* \"#utility.yul\":20704:20728   */\n      tag_603\n        /* \"#utility.yul\":20722:20727   */\n      dup2\n        /* \"#utility.yul\":20704:20728   */\n      tag_375\n      jump\t// in\n    tag_603:\n        /* \"#utility.yul\":20697:20702   */\n      dup2\n        /* \"#utility.yul\":20694:20729   */\n      eq\n        /* \"#utility.yul\":20684:20747   */\n      tag_604\n      jumpi\n        /* \"#utility.yul\":20743:20744   */\n      0x00\n        /* \"#utility.yul\":20740:20741   */\n      dup1\n        /* \"#utility.yul\":20733:20745   */\n      revert\n        /* \"#utility.yul\":20684:20747   */\n    tag_604:\n        /* \"#utility.yul\":20631:20753   */\n      pop\n      jump\t// out\n        /* \"#utility.yul\":20759:20902   */\n    tag_393:\n        /* \"#utility.yul\":20816:20821   */\n      0x00\n        /* \"#utility.yul\":20847:20853   */\n      dup2\n        /* \"#utility.yul\":20841:20854   */\n      mload\n        /* \"#utility.yul\":20832:20854   */\n      swap1\n      pop\n        /* \"#utility.yul\":20863:20896   */\n      tag_606\n        /* \"#utility.yul\":20890:20895   */\n      dup2\n        /* \"#utility.yul\":20863:20896   */\n      tag_392\n      jump\t// in\n    tag_606:\n        /* \"#utility.yul\":20759:20902   */\n      swap3\n      swap2\n      pop\n      pop\n      jump\t// out\n        /* \"#utility.yul\":20908:21259   */\n    tag_144:\n        /* \"#utility.yul\":20978:20984   */\n      0x00\n        /* \"#utility.yul\":21027:21029   */\n      0x20\n        /* \"#utility.yul\":21015:21024   */\n      dup3\n        /* \"#utility.yul\":21006:21013   */\n      dup5\n        /* \"#utility.yul\":21002:21025   */\n      sub\n        /* \"#utility.yul\":20998:21030   */\n      slt\n        /* \"#utility.yul\":20995:21114   */\n      iszero\n      tag_608\n      jumpi\n        /* \"#utility.yul\":21033:21112   */\n      tag_609\n      tag_345\n      jump\t// in\n    tag_609:\n        /* \"#utility.yul\":20995:21114   */\n    tag_608:\n        /* \"#utility.yul\":21153:21154   */\n      0x00\n        /* \"#utility.yul\":21178:21242   */\n      tag_610\n        /* \"#utility.yul\":21234:21241   */\n      dup5\n        /* \"#utility.yul\":21225:21231   */\n      dup3\n        /* \"#utility.yul\":21214:21223   */\n      dup6\n        /* \"#utility.yul\":21210:21232   */\n      add\n        /* \"#utility.yul\":21178:21242   */\n      tag_393\n      jump\t// in\n    tag_610:\n        /* \"#utility.yul\":21168:21242   */\n      swap2\n      pop\n        /* \"#utility.yul\":21124:21252   */\n      pop\n        /* \"#utility.yul\":20908:21259   */\n      swap3\n      swap2\n      pop\n      pop\n      jump\t// out\n        /* \"#utility.yul\":21265:21597   */\n    tag_146:\n        /* \"#utility.yul\":21386:21390   */\n      0x00\n        /* \"#utility.yul\":21424:21426   */\n      0x40\n        /* \"#utility.yul\":21413:21422   */\n      dup3\n        /* \"#utility.yul\":21409:21427   */\n      add\n        /* \"#utility.yul\":21401:21427   */\n      swap1\n      pop\n        /* \"#utility.yul\":21437:21508   */\n      tag_612\n        /* \"#utility.yul\":21505:21506   */\n      0x00\n        /* \"#utility.yul\":21494:21503   */\n      dup4\n        /* \"#utility.yul\":21490:21507   */\n      add\n        /* \"#utility.yul\":21481:21487   */\n      dup6\n        /* \"#utility.yul\":21437:21508   */\n      tag_381\n      jump\t// in\n    tag_612:\n        /* \"#utility.yul\":21518:21590   */\n      tag_613\n        /* \"#utility.yul\":21586:21588   */\n      0x20\n        /* \"#utility.yul\":21575:21584   */\n      dup4\n        /* \"#utility.yul\":21571:21589   */\n      add\n        /* \"#utility.yul\":21562:21568   */\n      dup5\n        /* \"#utility.yul\":21518:21590   */\n      tag_380\n      jump\t// in\n    tag_613:\n        /* \"#utility.yul\":21265:21597   */\n      swap4\n      swap3\n      pop\n      pop\n      pop\n      jump\t// out\n        /* \"#utility.yul\":21603:21794   */\n    tag_152:\n        /* \"#utility.yul\":21643:21647   */\n      0x00\n        /* \"#utility.yul\":21663:21683   */\n      tag_615\n        /* \"#utility.yul\":21681:21682   */\n      dup3\n        /* \"#utility.yul\":21663:21683   */\n      tag_375\n      jump\t// in\n    tag_615:\n        /* \"#utility.yul\":21658:21683   */\n      swap2\n      pop\n        /* \"#utility.yul\":21697:21717   */\n      tag_616\n        /* \"#utility.yul\":21715:21716   */\n      dup4\n        /* \"#utility.yul\":21697:21717   */\n      tag_375\n      jump\t// in\n    tag_616:\n        /* \"#utility.yul\":21692:21717   */\n      swap3\n      pop\n        /* \"#utility.yul\":21736:21737   */\n      dup3\n        /* \"#utility.yul\":21733:21734   */\n      dup3\n        /* \"#utility.yul\":21730:21738   */\n      lt\n        /* \"#utility.yul\":21727:21761   */\n      iszero\n      tag_617\n      jumpi\n        /* \"#utility.yul\":21741:21759   */\n      tag_618\n      tag_386\n      jump\t// in\n    tag_618:\n        /* \"#utility.yul\":21727:21761   */\n    tag_617:\n        /* \"#utility.yul\":21786:21787   */\n      dup3\n        /* \"#utility.yul\":21783:21784   */\n      dup3\n        /* \"#utility.yul\":21779:21788   */\n      sub\n        /* \"#utility.yul\":21771:21788   */\n      swap1\n      pop\n        /* \"#utility.yul\":21603:21794   */\n      swap3\n      swap2\n      pop\n      pop\n      jump\t// out\n        /* \"#utility.yul\":21800:21980   */\n    tag_168:\n        /* \"#utility.yul\":21848:21925   */\n      0x4e487b7100000000000000000000000000000000000000000000000000000000\n        /* \"#utility.yul\":21845:21846   */\n      0x00\n        /* \"#utility.yul\":21838:21926   */\n      mstore\n        /* \"#utility.yul\":21945:21949   */\n      0x31\n        /* \"#utility.yul\":21942:21943   */\n      0x04\n        /* \"#utility.yul\":21935:21950   */\n      mstore\n        /* \"#utility.yul\":21969:21973   */\n      0x24\n        /* \"#utility.yul\":21966:21967   */\n      0x00\n        /* \"#utility.yul\":21959:21974   */\n      revert\n        /* \"#utility.yul\":21986:22167   */\n    tag_394:\n        /* \"#utility.yul\":22126:22159   */\n      0x5468697320636f6d706c61696e742069736e2774207265676973746572656400\n        /* \"#utility.yul\":22122:22123   */\n      0x00\n        /* \"#utility.yul\":22114:22120   */\n      dup3\n        /* \"#utility.yul\":22110:22124   */\n      add\n        /* \"#utility.yul\":22103:22160   */\n      mstore\n        /* \"#utility.yul\":21986:22167   */\n      pop\n      jump\t// out\n        /* \"#utility.yul\":22173:22539   */\n    tag_395:\n        /* \"#utility.yul\":22315:22318   */\n      0x00\n        /* \"#utility.yul\":22336:22403   */\n      tag_622\n        /* \"#utility.yul\":22400:22402   */\n      0x1f\n        /* \"#utility.yul\":22395:22398   */\n      dup4\n        /* \"#utility.yul\":22336:22403   */\n      tag_370\n      jump\t// in\n    tag_622:\n        /* \"#utility.yul\":22329:22403   */\n      swap2\n      pop\n        /* \"#utility.yul\":22412:22505   */\n      tag_623\n        /* \"#utility.yul\":22501:22504   */\n      dup3\n        /* \"#utility.yul\":22412:22505   */\n      tag_394\n      jump\t// in\n    tag_623:\n        /* \"#utility.yul\":22530:22532   */\n      0x20\n        /* \"#utility.yul\":22525:22528   */\n      dup3\n        /* \"#utility.yul\":22521:22533   */\n      add\n        /* \"#utility.yul\":22514:22533   */\n      swap1\n      pop\n        /* \"#utility.yul\":22173:22539   */\n      swap2\n      swap1\n      pop\n      jump\t// out\n        /* \"#utility.yul\":22545:22964   */\n    tag_244:\n        /* \"#utility.yul\":22711:22715   */\n      0x00\n        /* \"#utility.yul\":22749:22751   */\n      0x20\n        /* \"#utility.yul\":22738:22747   */\n      dup3\n        /* \"#utility.yul\":22734:22752   */\n      add\n        /* \"#utility.yul\":22726:22752   */\n      swap1\n      pop\n        /* \"#utility.yul\":22798:22807   */\n      dup2\n        /* \"#utility.yul\":22792:22796   */\n      dup2\n        /* \"#utility.yul\":22788:22808   */\n      sub\n        /* \"#utility.yul\":22784:22785   */\n      0x00\n        /* \"#utility.yul\":22773:22782   */\n      dup4\n        /* \"#utility.yul\":22769:22786   */\n      add\n        /* \"#utility.yul\":22762:22809   */\n      mstore\n        /* \"#utility.yul\":22826:22957   */\n      tag_625\n        /* \"#utility.yul\":22952:22956   */\n      dup2\n        /* \"#utility.yul\":22826:22957   */\n      tag_395\n      jump\t// in\n    tag_625:\n        /* \"#utility.yul\":22818:22957   */\n      swap1\n      pop\n        /* \"#utility.yul\":22545:22964   */\n      swap2\n      swap1\n      pop\n      jump\t// out\n        /* \"#utility.yul\":22970:23055   */\n    tag_396:\n        /* \"#utility.yul\":23015:23022   */\n      0x00\n        /* \"#utility.yul\":23044:23049   */\n      dup2\n        /* \"#utility.yul\":23033:23049   */\n      swap1\n      pop\n        /* \"#utility.yul\":22970:23055   */\n      swap2\n      swap1\n      pop\n      jump\t// out\n        /* \"#utility.yul\":23061:23121   */\n    tag_397:\n        /* \"#utility.yul\":23089:23092   */\n      0x00\n        /* \"#utility.yul\":23110:23115   */\n      dup2\n        /* \"#utility.yul\":23103:23115   */\n      swap1\n      pop\n        /* \"#utility.yul\":23061:23121   */\n      swap2\n      swap1\n      pop\n      jump\t// out\n        /* \"#utility.yul\":23127:23285   */\n    tag_398:\n        /* \"#utility.yul\":23185:23194   */\n      0x00\n        /* \"#utility.yul\":23218:23279   */\n      tag_629\n        /* \"#utility.yul\":23236:23278   */\n      tag_630\n        /* \"#utility.yul\":23245:23277   */\n      tag_631\n        /* \"#utility.yul\":23271:23276   */\n      dup5\n        /* \"#utility.yul\":23245:23277   */\n      tag_396\n      jump\t// in\n    tag_631:\n        /* \"#utility.yul\":23236:23278   */\n      tag_397\n      jump\t// in\n    tag_630:\n        /* \"#utility.yul\":23218:23279   */\n      tag_375\n      jump\t// in\n    tag_629:\n        /* \"#utility.yul\":23205:23279   */\n      swap1\n      pop\n        /* \"#utility.yul\":23127:23285   */\n      swap2\n      swap1\n      pop\n      jump\t// out\n        /* \"#utility.yul\":23291:23438   */\n    tag_399:\n        /* \"#utility.yul\":23386:23431   */\n      tag_633\n        /* \"#utility.yul\":23425:23430   */\n      dup2\n        /* \"#utility.yul\":23386:23431   */\n      tag_398\n      jump\t// in\n    tag_633:\n        /* \"#utility.yul\":23381:23384   */\n      dup3\n        /* \"#utility.yul\":23374:23432   */\n      mstore\n        /* \"#utility.yul\":23291:23438   */\n      pop\n      pop\n      jump\t// out\n        /* \"#utility.yul\":23444:23792   */\n    tag_273:\n        /* \"#utility.yul\":23573:23577   */\n      0x00\n        /* \"#utility.yul\":23611:23613   */\n      0x40\n        /* \"#utility.yul\":23600:23609   */\n      dup3\n        /* \"#utility.yul\":23596:23614   */\n      add\n        /* \"#utility.yul\":23588:23614   */\n      swap1\n      pop\n        /* \"#utility.yul\":23624:23695   */\n      tag_635\n        /* \"#utility.yul\":23692:23693   */\n      0x00\n        /* \"#utility.yul\":23681:23690   */\n      dup4\n        /* \"#utility.yul\":23677:23694   */\n      add\n        /* \"#utility.yul\":23668:23674   */\n      dup6\n        /* \"#utility.yul\":23624:23695   */\n      tag_381\n      jump\t// in\n    tag_635:\n        /* \"#utility.yul\":23705:23785   */\n      tag_636\n        /* \"#utility.yul\":23781:23783   */\n      0x20\n        /* \"#utility.yul\":23770:23779   */\n      dup4\n        /* \"#utility.yul\":23766:23784   */\n      add\n        /* \"#utility.yul\":23757:23763   */\n      dup5\n        /* \"#utility.yul\":23705:23785   */\n      tag_399\n      jump\t// in\n    tag_636:\n        /* \"#utility.yul\":23444:23792   */\n      swap4\n      swap3\n      pop\n      pop\n      pop\n      jump\t// out\n        /* \"#utility.yul\":23798:23980   */\n    tag_400:\n        /* \"#utility.yul\":23938:23972   */\n      0x436f6d70616e7920697320616c726561647920696e207468652073797374656d\n        /* \"#utility.yul\":23934:23935   */\n      0x00\n        /* \"#utility.yul\":23926:23932   */\n      dup3\n        /* \"#utility.yul\":23922:23936   */\n      add\n        /* \"#utility.yul\":23915:23973   */\n      mstore\n        /* \"#utility.yul\":23798:23980   */\n      pop\n      jump\t// out\n        /* \"#utility.yul\":23986:24352   */\n    tag_401:\n        /* \"#utility.yul\":24128:24131   */\n      0x00\n        /* \"#utility.yul\":24149:24216   */\n      tag_639\n        /* \"#utility.yul\":24213:24215   */\n      0x20\n        /* \"#utility.yul\":24208:24211   */\n      dup4\n        /* \"#utility.yul\":24149:24216   */\n      tag_370\n      jump\t// in\n    tag_639:\n        /* \"#utility.yul\":24142:24216   */\n      swap2\n      pop\n        /* \"#utility.yul\":24225:24318   */\n      tag_640\n        /* \"#utility.yul\":24314:24317   */\n      dup3\n        /* \"#utility.yul\":24225:24318   */\n      tag_400\n      jump\t// in\n    tag_640:\n        /* \"#utility.yul\":24343:24345   */\n      0x20\n        /* \"#utility.yul\":24338:24341   */\n      dup3\n        /* \"#utility.yul\":24334:24346   */\n      add\n        /* \"#utility.yul\":24327:24346   */\n      swap1\n      pop\n        /* \"#utility.yul\":23986:24352   */\n      swap2\n      swap1\n      pop\n      jump\t// out\n        /* \"#utility.yul\":24358:24777   */\n    tag_309:\n        /* \"#utility.yul\":24524:24528   */\n      0x00\n        /* \"#utility.yul\":24562:24564   */\n      0x20\n        /* \"#utility.yul\":24551:24560   */\n      dup3\n        /* \"#utility.yul\":24547:24565   */\n      add\n        /* \"#utility.yul\":24539:24565   */\n      swap1\n      pop\n        /* \"#utility.yul\":24611:24620   */\n      dup2\n        /* \"#utility.yul\":24605:24609   */\n      dup2\n        /* \"#utility.yul\":24601:24621   */\n      sub\n        /* \"#utility.yul\":24597:24598   */\n      0x00\n        /* \"#utility.yul\":24586:24595   */\n      dup4\n        /* \"#utility.yul\":24582:24599   */\n      add\n        /* \"#utility.yul\":24575:24622   */\n      mstore\n        /* \"#utility.yul\":24639:24770   */\n      tag_642\n        /* \"#utility.yul\":24765:24769   */\n      dup2\n        /* \"#utility.yul\":24639:24770   */\n      tag_401\n      jump\t// in\n    tag_642:\n        /* \"#utility.yul\":24631:24770   */\n      swap1\n      pop\n        /* \"#utility.yul\":24358:24777   */\n      swap2\n      swap1\n      pop\n      jump\t// out\n\n    auxdata: 0xa26469706673582212204248efd0ed30e541a2aa8047602d9cd03c724adf59de0205535d443c3c2a24a464736f6c634300080a0033\n}\n\nsub_1: assembly {\n        /* \"ReputationControlV2.sol\":119:1119  contract ReksTokens is ERC20{... */\n      mstore(0x40, 0xa0)\n        /* \"ReputationControlV2.sol\":288:402  constructor(string memory _name, string memory _symbol) ERC20(_name, _symbol){... */\n      callvalue\n      dup1\n      iszero\n      tag_1\n      jumpi\n      0x00\n      dup1\n      revert\n    tag_1:\n      pop\n      mload(0x40)\n      sub(codesize, bytecodeSize)\n      dup1\n      bytecodeSize\n      dup4\n      codecopy\n      dup2\n      dup2\n      add\n      0x40\n      mstore\n      dup2\n      add\n      swap1\n      tag_2\n      swap2\n      swap1\n      tag_3\n      jump\t// in\n    tag_2:\n        /* \"ReputationControlV2.sol\":350:355  _name */\n      dup2\n        /* \"ReputationControlV2.sol\":357:364  _symbol */\n      dup2\n        /* \"@openzeppelin/contracts/token/ERC20/ERC20.sol\":2052:2057   */\n      dup2\n        /* \"@openzeppelin/contracts/token/ERC20/ERC20.sol\":2044:2049   */\n      0x03\n        /* \"@openzeppelin/contracts/token/ERC20/ERC20.sol\":2044:2057   */\n      swap1\n      dup1\n      mload\n      swap1\n      0x20\n      add\n      swap1\n      tag_7\n      swap3\n      swap2\n      swap1\n      tag_8\n      jump\t// in\n    tag_7:\n      pop\n        /* \"@openzeppelin/contracts/token/ERC20/ERC20.sol\":2077:2084   */\n      dup1\n        /* \"@openzeppelin/contracts/token/ERC20/ERC20.sol\":2067:2074   */\n      0x04\n        /* \"@openzeppelin/contracts/token/ERC20/ERC20.sol\":2067:2084   */\n      swap1\n      dup1\n      mload\n      swap1\n      0x20\n      add\n      swap1\n      tag_9\n      swap3\n      swap2\n      swap1\n      tag_8\n      jump\t// in\n    tag_9:\n      pop\n        /* \"@openzeppelin/contracts/token/ERC20/ERC20.sol\":1978:2091   */\n      pop\n      pop\n        /* \"ReputationControlV2.sol\":384:394  msg.sender */\n      caller\n        /* \"ReputationControlV2.sol\":376:394  owner = msg.sender */\n      0xffffffffffffffffffffffffffffffffffffffff\n      and\n      0x80\n      dup2\n      0xffffffffffffffffffffffffffffffffffffffff\n      and\n      dup2\n      mstore\n      pop\n      pop\n        /* \"ReputationControlV2.sol\":288:402  constructor(string memory _name, string memory _symbol) ERC20(_name, _symbol){... */\n      pop\n      pop\n        /* \"ReputationControlV2.sol\":119:1119  contract ReksTokens is ERC20{... */\n      jump(tag_11)\n    tag_8:\n      dup3\n      dup1\n      sload\n      tag_12\n      swap1\n      tag_13\n      jump\t// in\n    tag_12:\n      swap1\n      0x00\n      mstore\n      keccak256(0x00, 0x20)\n      swap1\n      0x1f\n      add\n      0x20\n      swap1\n      div\n      dup2\n      add\n      swap3\n      dup3\n      tag_15\n      jumpi\n      0x00\n      dup6\n      sstore\n      jump(tag_14)\n    tag_15:\n      dup3\n      0x1f\n      lt\n      tag_16\n      jumpi\n      dup1\n      mload\n      not(0xff)\n      and\n      dup4\n      dup1\n      add\n      or\n      dup6\n      sstore\n      jump(tag_14)\n    tag_16:\n      dup3\n      dup1\n      add\n      0x01\n      add\n      dup6\n      sstore\n      dup3\n      iszero\n      tag_14\n      jumpi\n      swap2\n      dup3\n      add\n    tag_17:\n      dup3\n      dup2\n      gt\n      iszero\n      tag_18\n      jumpi\n      dup3\n      mload\n      dup3\n      sstore\n      swap2\n      0x20\n      add\n      swap2\n      swap1\n      0x01\n      add\n      swap1\n      jump(tag_17)\n    tag_18:\n    tag_14:\n      pop\n      swap1\n      pop\n      tag_19\n      swap2\n      swap1\n      tag_20\n      jump\t// in\n    tag_19:\n      pop\n      swap1\n      jump\t// out\n    tag_20:\n    tag_21:\n      dup1\n      dup3\n      gt\n      iszero\n      tag_22\n      jumpi\n      0x00\n      dup2\n      0x00\n      swap1\n      sstore\n      pop\n      0x01\n      add\n      jump(tag_21)\n    tag_22:\n      pop\n      swap1\n      jump\t// out\n        /* \"#utility.yul\":7:82   */\n    tag_23:\n        /* \"#utility.yul\":40:46   */\n      0x00\n        /* \"#utility.yul\":73:75   */\n      0x40\n        /* \"#utility.yul\":67:76   */\n      mload\n        /* \"#utility.yul\":57:76   */\n      swap1\n      pop\n        /* \"#utility.yul\":7:82   */\n      swap1\n      jump\t// out\n        /* \"#utility.yul\":88:205   */\n    tag_24:\n        /* \"#utility.yul\":197:198   */\n      0x00\n        /* \"#utility.yul\":194:195   */\n      dup1\n        /* \"#utility.yul\":187:199   */\n      revert\n        /* \"#utility.yul\":211:328   */\n    tag_25:\n        /* \"#utility.yul\":320:321   */\n      0x00\n        /* \"#utility.yul\":317:318   */\n      dup1\n        /* \"#utility.yul\":310:322   */\n      revert\n        /* \"#utility.yul\":334:451   */\n    tag_26:\n        /* \"#utility.yul\":443:444   */\n      0x00\n        /* \"#utility.yul\":440:441   */\n      dup1\n        /* \"#utility.yul\":433:445   */\n      revert\n        /* \"#utility.yul\":457:574   */\n    tag_27:\n        /* \"#utility.yul\":566:567   */\n      0x00\n        /* \"#utility.yul\":563:564   */\n      dup1\n        /* \"#utility.yul\":556:568   */\n      revert\n        /* \"#utility.yul\":580:682   */\n    tag_28:\n        /* \"#utility.yul\":621:627   */\n      0x00\n        /* \"#utility.yul\":672:674   */\n      0x1f\n        /* \"#utility.yul\":668:675   */\n      not\n        /* \"#utility.yul\":663:665   */\n      0x1f\n        /* \"#utility.yul\":656:661   */\n      dup4\n        /* \"#utility.yul\":652:666   */\n      add\n        /* \"#utility.yul\":648:676   */\n      and\n        /* \"#utility.yul\":638:676   */\n      swap1\n      pop\n        /* \"#utility.yul\":580:682   */\n      swap2\n      swap1\n      pop\n      jump\t// out\n        /* \"#utility.yul\":688:868   */\n    tag_29:\n        /* \"#utility.yul\":736:813   */\n      0x4e487b7100000000000000000000000000000000000000000000000000000000\n        /* \"#utility.yul\":733:734   */\n      0x00\n        /* \"#utility.yul\":726:814   */\n      mstore\n        /* \"#utility.yul\":833:837   */\n      0x41\n        /* \"#utility.yul\":830:831   */\n      0x04\n        /* \"#utility.yul\":823:838   */\n      mstore\n        /* \"#utility.yul\":857:861   */\n      0x24\n        /* \"#utility.yul\":854:855   */\n      0x00\n        /* \"#utility.yul\":847:862   */\n      revert\n        /* \"#utility.yul\":874:1155   */\n    tag_30:\n        /* \"#utility.yul\":957:984   */\n      tag_46\n        /* \"#utility.yul\":979:983   */\n      dup3\n        /* \"#utility.yul\":957:984   */\n      tag_28\n      jump\t// in\n    tag_46:\n        /* \"#utility.yul\":949:955   */\n      dup2\n        /* \"#utility.yul\":945:985   */\n      add\n        /* \"#utility.yul\":1087:1093   */\n      dup2\n        /* \"#utility.yul\":1075:1085   */\n      dup2\n        /* \"#utility.yul\":1072:1094   */\n      lt\n        /* \"#utility.yul\":1051:1069   */\n      0xffffffffffffffff\n        /* \"#utility.yul\":1039:1049   */\n      dup3\n        /* \"#utility.yul\":1036:1070   */\n      gt\n        /* \"#utility.yul\":1033:1095   */\n      or\n        /* \"#utility.yul\":1030:1118   */\n      iszero\n      tag_47\n      jumpi\n        /* \"#utility.yul\":1098:1116   */\n      tag_48\n      tag_29\n      jump\t// in\n    tag_48:\n        /* \"#utility.yul\":1030:1118   */\n    tag_47:\n        /* \"#utility.yul\":1138:1148   */\n      dup1\n        /* \"#utility.yul\":1134:1136   */\n      0x40\n        /* \"#utility.yul\":1127:1149   */\n      mstore\n        /* \"#utility.yul\":917:1155   */\n      pop\n        /* \"#utility.yul\":874:1155   */\n      pop\n      pop\n      jump\t// out\n        /* \"#utility.yul\":1161:1290   */\n    tag_31:\n        /* \"#utility.yul\":1195:1201   */\n      0x00\n        /* \"#utility.yul\":1222:1242   */\n      tag_50\n      tag_23\n      jump\t// in\n    tag_50:\n        /* \"#utility.yul\":1212:1242   */\n      swap1\n      pop\n        /* \"#utility.yul\":1251:1284   */\n      tag_51\n        /* \"#utility.yul\":1279:1283   */\n      dup3\n        /* \"#utility.yul\":1271:1277   */\n      dup3\n        /* \"#utility.yul\":1251:1284   */\n      tag_30\n      jump\t// in\n    tag_51:\n        /* \"#utility.yul\":1161:1290   */\n      swap2\n      swap1\n      pop\n      jump\t// out\n        /* \"#utility.yul\":1296:1604   */\n    tag_32:\n        /* \"#utility.yul\":1358:1362   */\n      0x00\n        /* \"#utility.yul\":1448:1466   */\n      0xffffffffffffffff\n        /* \"#utility.yul\":1440:1446   */\n      dup3\n        /* \"#utility.yul\":1437:1467   */\n      gt\n        /* \"#utility.yul\":1434:1490   */\n      iszero\n      tag_53\n      jumpi\n        /* \"#utility.yul\":1470:1488   */\n      tag_54\n      tag_29\n      jump\t// in\n    tag_54:\n        /* \"#utility.yul\":1434:1490   */\n    tag_53:\n        /* \"#utility.yul\":1508:1537   */\n      tag_55\n        /* \"#utility.yul\":1530:1536   */\n      dup3\n        /* \"#utility.yul\":1508:1537   */\n      tag_28\n      jump\t// in\n    tag_55:\n        /* \"#utility.yul\":1500:1537   */\n      swap1\n      pop\n        /* \"#utility.yul\":1592:1596   */\n      0x20\n        /* \"#utility.yul\":1586:1590   */\n      dup2\n        /* \"#utility.yul\":1582:1597   */\n      add\n        /* \"#utility.yul\":1574:1597   */\n      swap1\n      pop\n        /* \"#utility.yul\":1296:1604   */\n      swap2\n      swap1\n      pop\n      jump\t// out\n        /* \"#utility.yul\":1610:1917   */\n    tag_33:\n        /* \"#utility.yul\":1678:1679   */\n      0x00\n        /* \"#utility.yul\":1688:1801   */\n    tag_57:\n        /* \"#utility.yul\":1702:1708   */\n      dup4\n        /* \"#utility.yul\":1699:1700   */\n      dup2\n        /* \"#utility.yul\":1696:1709   */\n      lt\n        /* \"#utility.yul\":1688:1801   */\n      iszero\n      tag_59\n      jumpi\n        /* \"#utility.yul\":1787:1788   */\n      dup1\n        /* \"#utility.yul\":1782:1785   */\n      dup3\n        /* \"#utility.yul\":1778:1789   */\n      add\n        /* \"#utility.yul\":1772:1790   */\n      mload\n        /* \"#utility.yul\":1768:1769   */\n      dup2\n        /* \"#utility.yul\":1763:1766   */\n      dup5\n        /* \"#utility.yul\":1759:1770   */\n      add\n        /* \"#utility.yul\":1752:1791   */\n      mstore\n        /* \"#utility.yul\":1724:1726   */\n      0x20\n        /* \"#utility.yul\":1721:1722   */\n      dup2\n        /* \"#utility.yul\":1717:1727   */\n      add\n        /* \"#utility.yul\":1712:1727   */\n      swap1\n      pop\n        /* \"#utility.yul\":1688:1801   */\n      jump(tag_57)\n    tag_59:\n        /* \"#utility.yul\":1819:1825   */\n      dup4\n        /* \"#utility.yul\":1816:1817   */\n      dup2\n        /* \"#utility.yul\":1813:1826   */\n      gt\n        /* \"#utility.yul\":1810:1911   */\n      iszero\n      tag_60\n      jumpi\n        /* \"#utility.yul\":1899:1900   */\n      0x00\n        /* \"#utility.yul\":1890:1896   */\n      dup5\n        /* \"#utility.yul\":1885:1888   */\n      dup5\n        /* \"#utility.yul\":1881:1897   */\n      add\n        /* \"#utility.yul\":1874:1901   */\n      mstore\n        /* \"#utility.yul\":1810:1911   */\n    tag_60:\n        /* \"#utility.yul\":1659:1917   */\n      pop\n        /* \"#utility.yul\":1610:1917   */\n      pop\n      pop\n      pop\n      jump\t// out\n        /* \"#utility.yul\":1923:2344   */\n    tag_34:\n        /* \"#utility.yul\":2012:2017   */\n      0x00\n        /* \"#utility.yul\":2037:2103   */\n      tag_62\n        /* \"#utility.yul\":2053:2102   */\n      tag_63\n        /* \"#utility.yul\":2095:2101   */\n      dup5\n        /* \"#utility.yul\":2053:2102   */\n      tag_32\n      jump\t// in\n    tag_63:\n        /* \"#utility.yul\":2037:2103   */\n      tag_31\n      jump\t// in\n    tag_62:\n        /* \"#utility.yul\":2028:2103   */\n      swap1\n      pop\n        /* \"#utility.yul\":2126:2132   */\n      dup3\n        /* \"#utility.yul\":2119:2124   */\n      dup2\n        /* \"#utility.yul\":2112:2133   */\n      mstore\n        /* \"#utility.yul\":2164:2168   */\n      0x20\n        /* \"#utility.yul\":2157:2162   */\n      dup2\n        /* \"#utility.yul\":2153:2169   */\n      add\n        /* \"#utility.yul\":2202:2205   */\n      dup5\n        /* \"#utility.yul\":2193:2199   */\n      dup5\n        /* \"#utility.yul\":2188:2191   */\n      dup5\n        /* \"#utility.yul\":2184:2200   */\n      add\n        /* \"#utility.yul\":2181:2206   */\n      gt\n        /* \"#utility.yul\":2178:2290   */\n      iszero\n      tag_64\n      jumpi\n        /* \"#utility.yul\":2209:2288   */\n      tag_65\n      tag_27\n      jump\t// in\n    tag_65:\n        /* \"#utility.yul\":2178:2290   */\n    tag_64:\n        /* \"#utility.yul\":2299:2338   */\n      tag_66\n        /* \"#utility.yul\":2331:2337   */\n      dup5\n        /* \"#utility.yul\":2326:2329   */\n      dup3\n        /* \"#utility.yul\":2321:2324   */\n      dup6\n        /* \"#utility.yul\":2299:2338   */\n      tag_33\n      jump\t// in\n    tag_66:\n        /* \"#utility.yul\":2018:2344   */\n      pop\n        /* \"#utility.yul\":1923:2344   */\n      swap4\n      swap3\n      pop\n      pop\n      pop\n      jump\t// out\n        /* \"#utility.yul\":2364:2719   */\n    tag_35:\n        /* \"#utility.yul\":2431:2436   */\n      0x00\n        /* \"#utility.yul\":2480:2483   */\n      dup3\n        /* \"#utility.yul\":2473:2477   */\n      0x1f\n        /* \"#utility.yul\":2465:2471   */\n      dup4\n        /* \"#utility.yul\":2461:2478   */\n      add\n        /* \"#utility.yul\":2457:2484   */\n      slt\n        /* \"#utility.yul\":2447:2569   */\n      tag_68\n      jumpi\n        /* \"#utility.yul\":2488:2567   */\n      tag_69\n      tag_26\n      jump\t// in\n    tag_69:\n        /* \"#utility.yul\":2447:2569   */\n    tag_68:\n        /* \"#utility.yul\":2598:2604   */\n      dup2\n        /* \"#utility.yul\":2592:2605   */\n      mload\n        /* \"#utility.yul\":2623:2713   */\n      tag_70\n        /* \"#utility.yul\":2709:2712   */\n      dup5\n        /* \"#utility.yul\":2701:2707   */\n      dup3\n        /* \"#utility.yul\":2694:2698   */\n      0x20\n        /* \"#utility.yul\":2686:2692   */\n      dup7\n        /* \"#utility.yul\":2682:2699   */\n      add\n        /* \"#utility.yul\":2623:2713   */\n      tag_34\n      jump\t// in\n    tag_70:\n        /* \"#utility.yul\":2614:2713   */\n      swap2\n      pop\n        /* \"#utility.yul\":2437:2719   */\n      pop\n        /* \"#utility.yul\":2364:2719   */\n      swap3\n      swap2\n      pop\n      pop\n      jump\t// out\n        /* \"#utility.yul\":2725:3578   */\n    tag_3:\n        /* \"#utility.yul\":2824:2830   */\n      0x00\n        /* \"#utility.yul\":2832:2838   */\n      dup1\n        /* \"#utility.yul\":2881:2883   */\n      0x40\n        /* \"#utility.yul\":2869:2878   */\n      dup4\n        /* \"#utility.yul\":2860:2867   */\n      dup6\n        /* \"#utility.yul\":2856:2879   */\n      sub\n        /* \"#utility.yul\":2852:2884   */\n      slt\n        /* \"#utility.yul\":2849:2968   */\n      iszero\n      tag_72\n      jumpi\n        /* \"#utility.yul\":2887:2966   */\n      tag_73\n      tag_24\n      jump\t// in\n    tag_73:\n        /* \"#utility.yul\":2849:2968   */\n    tag_72:\n        /* \"#utility.yul\":3028:3029   */\n      0x00\n        /* \"#utility.yul\":3017:3026   */\n      dup4\n        /* \"#utility.yul\":3013:3030   */\n      add\n        /* \"#utility.yul\":3007:3031   */\n      mload\n        /* \"#utility.yul\":3058:3076   */\n      0xffffffffffffffff\n        /* \"#utility.yul\":3050:3056   */\n      dup2\n        /* \"#utility.yul\":3047:3077   */\n      gt\n        /* \"#utility.yul\":3044:3161   */\n      iszero\n      tag_74\n      jumpi\n        /* \"#utility.yul\":3080:3159   */\n      tag_75\n      tag_25\n      jump\t// in\n    tag_75:\n        /* \"#utility.yul\":3044:3161   */\n    tag_74:\n        /* \"#utility.yul\":3185:3259   */\n      tag_76\n        /* \"#utility.yul\":3251:3258   */\n      dup6\n        /* \"#utility.yul\":3242:3248   */\n      dup3\n        /* \"#utility.yul\":3231:3240   */\n      dup7\n        /* \"#utility.yul\":3227:3249   */\n      add\n        /* \"#utility.yul\":3185:3259   */\n      tag_35\n      jump\t// in\n    tag_76:\n        /* \"#utility.yul\":3175:3259   */\n      swap3\n      pop\n        /* \"#utility.yul\":2978:3269   */\n      pop\n        /* \"#utility.yul\":3329:3331   */\n      0x20\n        /* \"#utility.yul\":3318:3327   */\n      dup4\n        /* \"#utility.yul\":3314:3332   */\n      add\n        /* \"#utility.yul\":3308:3333   */\n      mload\n        /* \"#utility.yul\":3360:3378   */\n      0xffffffffffffffff\n        /* \"#utility.yul\":3352:3358   */\n      dup2\n        /* \"#utility.yul\":3349:3379   */\n      gt\n        /* \"#utility.yul\":3346:3463   */\n      iszero\n      tag_77\n      jumpi\n        /* \"#utility.yul\":3382:3461   */\n      tag_78\n      tag_25\n      jump\t// in\n    tag_78:\n        /* \"#utility.yul\":3346:3463   */\n    tag_77:\n        /* \"#utility.yul\":3487:3561   */\n      tag_79\n        /* \"#utility.yul\":3553:3560   */\n      dup6\n        /* \"#utility.yul\":3544:3550   */\n      dup3\n        /* \"#utility.yul\":3533:3542   */\n      dup7\n        /* \"#utility.yul\":3529:3551   */\n      add\n        /* \"#utility.yul\":3487:3561   */\n      tag_35\n      jump\t// in\n    tag_79:\n        /* \"#utility.yul\":3477:3561   */\n      swap2\n      pop\n        /* \"#utility.yul\":3279:3571   */\n      pop\n        /* \"#utility.yul\":2725:3578   */\n      swap3\n      pop\n      swap3\n      swap1\n      pop\n      jump\t// out\n        /* \"#utility.yul\":3584:3764   */\n    tag_36:\n        /* \"#utility.yul\":3632:3709   */\n      0x4e487b7100000000000000000000000000000000000000000000000000000000\n        /* \"#utility.yul\":3629:3630   */\n      0x00\n        /* \"#utility.yul\":3622:3710   */\n      mstore\n        /* \"#utility.yul\":3729:3733   */\n      0x22\n        /* \"#utility.yul\":3726:3727   */\n      0x04\n        /* \"#utility.yul\":3719:3734   */\n      mstore\n        /* \"#utility.yul\":3753:3757   */\n      0x24\n        /* \"#utility.yul\":3750:3751   */\n      0x00\n        /* \"#utility.yul\":3743:3758   */\n      revert\n        /* \"#utility.yul\":3770:4090   */\n    tag_13:\n        /* \"#utility.yul\":3814:3820   */\n      0x00\n        /* \"#utility.yul\":3851:3852   */\n      0x02\n        /* \"#utility.yul\":3845:3849   */\n      dup3\n        /* \"#utility.yul\":3841:3853   */\n      div\n        /* \"#utility.yul\":3831:3853   */\n      swap1\n      pop\n        /* \"#utility.yul\":3898:3899   */\n      0x01\n        /* \"#utility.yul\":3892:3896   */\n      dup3\n        /* \"#utility.yul\":3888:3900   */\n      and\n        /* \"#utility.yul\":3919:3937   */\n      dup1\n        /* \"#utility.yul\":3909:3990   */\n      tag_82\n      jumpi\n        /* \"#utility.yul\":3975:3979   */\n      0x7f\n        /* \"#utility.yul\":3967:3973   */\n      dup3\n        /* \"#utility.yul\":3963:3980   */\n      and\n        /* \"#utility.yul\":3953:3980   */\n      swap2\n      pop\n        /* \"#utility.yul\":3909:3990   */\n    tag_82:\n        /* \"#utility.yul\":4037:4039   */\n      0x20\n        /* \"#utility.yul\":4029:4035   */\n      dup3\n        /* \"#utility.yul\":4026:4040   */\n      lt\n        /* \"#utility.yul\":4006:4024   */\n      dup2\n        /* \"#utility.yul\":4003:4041   */\n      eq\n        /* \"#utility.yul\":4000:4084   */\n      iszero\n      tag_83\n      jumpi\n        /* \"#utility.yul\":4056:4074   */\n      tag_84\n      tag_36\n      jump\t// in\n    tag_84:\n        /* \"#utility.yul\":4000:4084   */\n    tag_83:\n        /* \"#utility.yul\":3821:4090   */\n      pop\n        /* \"#utility.yul\":3770:4090   */\n      swap2\n      swap1\n      pop\n      jump\t// out\n        /* \"ReputationControlV2.sol\":119:1119  contract ReksTokens is ERC20{... */\n    tag_11:\n      mload(0x80)\n      codecopy(0x00, dataOffset(sub_0), dataSize(sub_0))\n      0x00\n      assignImmutable(\"0xe455bf8ea6e7463a1046a0b52804526e119b4bf5136279614e0b1e8e296a4e2d\")\n      return(0x00, dataSize(sub_0))\n    stop\n\n    sub_0: assembly {\n            /* \"ReputationControlV2.sol\":119:1119  contract ReksTokens is ERC20{... */\n          mstore(0x40, 0x80)\n          callvalue\n          dup1\n          iszero\n          tag_1\n          jumpi\n          0x00\n          dup1\n          revert\n        tag_1:\n          pop\n          jumpi(tag_2, lt(calldatasize, 0x04))\n          shr(0xe0, calldataload(0x00))\n          dup1\n          0x40c10f19\n          gt\n          tag_16\n          jumpi\n          dup1\n          0x9dc29fac\n          gt\n          tag_17\n          jumpi\n          dup1\n          0x9dc29fac\n          eq\n          tag_12\n          jumpi\n          dup1\n          0xa457c2d7\n          eq\n          tag_13\n          jumpi\n          dup1\n          0xa9059cbb\n          eq\n          tag_14\n          jumpi\n          dup1\n          0xdd62ed3e\n          eq\n          tag_15\n          jumpi\n          jump(tag_2)\n        tag_17:\n          dup1\n          0x40c10f19\n          eq\n          tag_9\n          jumpi\n          dup1\n          0x70a08231\n          eq\n          tag_10\n          jumpi\n          dup1\n          0x95d89b41\n          eq\n          tag_11\n          jumpi\n          jump(tag_2)\n        tag_16:\n          dup1\n          0x06fdde03\n          eq\n          tag_3\n          jumpi\n          dup1\n          0x095ea7b3\n          eq\n          tag_4\n          jumpi\n          dup1\n          0x18160ddd\n          eq\n          tag_5\n          jumpi\n          dup1\n          0x23b872dd\n          eq\n          tag_6\n          jumpi\n          dup1\n          0x313ce567\n          eq\n          tag_7\n          jumpi\n          dup1\n          0x39509351\n          eq\n          tag_8\n          jumpi\n        tag_2:\n          0x00\n          dup1\n          revert\n            /* \"@openzeppelin/contracts/token/ERC20/ERC20.sol\":2156:2254   */\n        tag_3:\n          tag_18\n          tag_19\n          jump\t// in\n        tag_18:\n          mload(0x40)\n          tag_20\n          swap2\n          swap1\n          tag_21\n          jump\t// in\n        tag_20:\n          mload(0x40)\n          dup1\n          swap2\n          sub\n          swap1\n          return\n            /* \"@openzeppelin/contracts/token/ERC20/ERC20.sol\":4433:4630   */\n        tag_4:\n          tag_22\n          0x04\n          dup1\n          calldatasize\n          sub\n          dup2\n          add\n          swap1\n          tag_23\n          swap2\n          swap1\n          tag_24\n          jump\t// in\n        tag_23:\n          tag_25\n          jump\t// in\n        tag_22:\n          mload(0x40)\n          tag_26\n          swap2\n          swap1\n          tag_27\n          jump\t// in\n        tag_26:\n          mload(0x40)\n          dup1\n          swap2\n          sub\n          swap1\n          return\n            /* \"@openzeppelin/contracts/token/ERC20/ERC20.sol\":3244:3350   */\n        tag_5:\n          tag_28\n          tag_29\n          jump\t// in\n        tag_28:\n          mload(0x40)\n          tag_30\n          swap2\n          swap1\n          tag_31\n          jump\t// in\n        tag_30:\n          mload(0x40)\n          dup1\n          swap2\n          sub\n          swap1\n          return\n            /* \"ReputationControlV2.sol\":817:1114  function transferFrom(... */\n        tag_6:\n          tag_32\n          0x04\n          dup1\n          calldatasize\n          sub\n          dup2\n          add\n          swap1\n          tag_33\n          swap2\n          swap1\n          tag_34\n          jump\t// in\n        tag_33:\n          tag_35\n          jump\t// in\n        tag_32:\n          mload(0x40)\n          tag_36\n          swap2\n          swap1\n          tag_27\n          jump\t// in\n        tag_36:\n          mload(0x40)\n          dup1\n          swap2\n          sub\n          swap1\n          return\n            /* \"@openzeppelin/contracts/token/ERC20/ERC20.sol\":3093:3184   */\n        tag_7:\n          tag_37\n          tag_38\n          jump\t// in\n        tag_37:\n          mload(0x40)\n          tag_39\n          swap2\n          swap1\n          tag_40\n          jump\t// in\n        tag_39:\n          mload(0x40)\n          dup1\n          swap2\n          sub\n          swap1\n          return\n            /* \"@openzeppelin/contracts/token/ERC20/ERC20.sol\":5873:6107   */\n        tag_8:\n          tag_41\n          0x04\n          dup1\n          calldatasize\n          sub\n          dup2\n          add\n          swap1\n          tag_42\n          swap2\n          swap1\n          tag_24\n          jump\t// in\n        tag_42:\n          tag_43\n          jump\t// in\n        tag_41:\n          mload(0x40)\n          tag_44\n          swap2\n          swap1\n          tag_27\n          jump\t// in\n        tag_44:\n          mload(0x40)\n          dup1\n          swap2\n          sub\n          swap1\n          return\n            /* \"ReputationControlV2.sol\":410:503  function mint(address to, uint256 amount) public onlyOwner{... */\n        tag_9:\n          tag_45\n          0x04\n          dup1\n          calldatasize\n          sub\n          dup2\n          add\n          swap1\n          tag_46\n          swap2\n          swap1\n          tag_24\n          jump\t// in\n        tag_46:\n          tag_47\n          jump\t// in\n        tag_45:\n          stop\n            /* \"@openzeppelin/contracts/token/ERC20/ERC20.sol\":3408:3533   */\n        tag_10:\n          tag_48\n          0x04\n          dup1\n          calldatasize\n          sub\n          dup2\n          add\n          swap1\n          tag_49\n          swap2\n          swap1\n          tag_50\n          jump\t// in\n        tag_49:\n          tag_51\n          jump\t// in\n        tag_48:\n          mload(0x40)\n          tag_52\n          swap2\n          swap1\n          tag_31\n          jump\t// in\n        tag_52:\n          mload(0x40)\n          dup1\n          swap2\n          sub\n          swap1\n          return\n            /* \"@openzeppelin/contracts/token/ERC20/ERC20.sol\":2367:2469   */\n        tag_11:\n          tag_53\n          tag_54\n          jump\t// in\n        tag_53:\n          mload(0x40)\n          tag_55\n          swap2\n          swap1\n          tag_21\n          jump\t// in\n        tag_55:\n          mload(0x40)\n          dup1\n          swap2\n          sub\n          swap1\n          return\n            /* \"ReputationControlV2.sol\":511:604  function burn(address to, uint256 amount) public onlyOwner{... */\n        tag_12:\n          tag_56\n          0x04\n          dup1\n          calldatasize\n          sub\n          dup2\n          add\n          swap1\n          tag_57\n          swap2\n          swap1\n          tag_24\n          jump\t// in\n        tag_57:\n          tag_58\n          jump\t// in\n        tag_56:\n          stop\n            /* \"@openzeppelin/contracts/token/ERC20/ERC20.sol\":6594:7021   */\n        tag_13:\n          tag_59\n          0x04\n          dup1\n          calldatasize\n          sub\n          dup2\n          add\n          swap1\n          tag_60\n          swap2\n          swap1\n          tag_24\n          jump\t// in\n        tag_60:\n          tag_61\n          jump\t// in\n        tag_59:\n          mload(0x40)\n          tag_62\n          swap2\n          swap1\n          tag_27\n          jump\t// in\n        tag_62:\n          mload(0x40)\n          dup1\n          swap2\n          sub\n          swap1\n          return\n            /* \"ReputationControlV2.sol\":612:809  function transfer(address to, uint256 amount) public override onlyOwner returns (bool) {... */\n        tag_14:\n          tag_63\n          0x04\n          dup1\n          calldatasize\n          sub\n          dup2\n          add\n          swap1\n          tag_64\n          swap2\n          swap1\n          tag_24\n          jump\t// in\n        tag_64:\n          tag_65\n          jump\t// in\n        tag_63:\n          mload(0x40)\n          tag_66\n          swap2\n          swap1\n          tag_27\n          jump\t// in\n        tag_66:\n          mload(0x40)\n          dup1\n          swap2\n          sub\n          swap1\n          return\n            /* \"@openzeppelin/contracts/token/ERC20/ERC20.sol\":3976:4125   */\n        tag_15:\n          tag_67\n          0x04\n          dup1\n          calldatasize\n          sub\n          dup2\n          add\n          swap1\n          tag_68\n          swap2\n          swap1\n          tag_69\n          jump\t// in\n        tag_68:\n          tag_70\n          jump\t// in\n        tag_67:\n          mload(0x40)\n          tag_71\n          swap2\n          swap1\n          tag_31\n          jump\t// in\n        tag_71:\n          mload(0x40)\n          dup1\n          swap2\n          sub\n          swap1\n          return\n            /* \"@openzeppelin/contracts/token/ERC20/ERC20.sol\":2156:2254   */\n        tag_19:\n            /* \"@openzeppelin/contracts/token/ERC20/ERC20.sol\":2210:2223   */\n          0x60\n            /* \"@openzeppelin/contracts/token/ERC20/ERC20.sol\":2242:2247   */\n          0x03\n            /* \"@openzeppelin/contracts/token/ERC20/ERC20.sol\":2235:2247   */\n          dup1\n          sload\n          tag_73\n          swap1\n          tag_74\n          jump\t// in\n        tag_73:\n          dup1\n          0x1f\n          add\n          0x20\n          dup1\n          swap2\n          div\n          mul\n          0x20\n          add\n          mload(0x40)\n          swap1\n          dup2\n          add\n          0x40\n          mstore\n          dup1\n          swap3\n          swap2\n          swap1\n          dup2\n          dup2\n          mstore\n          0x20\n          add\n          dup3\n          dup1\n          sload\n          tag_75\n          swap1\n          tag_74\n          jump\t// in\n        tag_75:\n          dup1\n          iszero\n          tag_76\n          jumpi\n          dup1\n          0x1f\n          lt\n          tag_77\n          jumpi\n          0x0100\n          dup1\n          dup4\n          sload\n          div\n          mul\n          dup4\n          mstore\n          swap2\n          0x20\n          add\n          swap2\n          jump(tag_76)\n        tag_77:\n          dup3\n          add\n          swap2\n          swap1\n          0x00\n          mstore\n          keccak256(0x00, 0x20)\n          swap1\n        tag_78:\n          dup2\n          sload\n          dup2\n          mstore\n          swap1\n          0x01\n          add\n          swap1\n          0x20\n          add\n          dup1\n          dup4\n          gt\n          tag_78\n          jumpi\n          dup3\n          swap1\n          sub\n          0x1f\n          and\n          dup3\n          add\n          swap2\n        tag_76:\n          pop\n          pop\n          pop\n          pop\n          pop\n          swap1\n          pop\n            /* \"@openzeppelin/contracts/token/ERC20/ERC20.sol\":2156:2254   */\n          swap1\n          jump\t// out\n            /* \"@openzeppelin/contracts/token/ERC20/ERC20.sol\":4433:4630   */\n        tag_25:\n            /* \"@openzeppelin/contracts/token/ERC20/ERC20.sol\":4516:4520   */\n          0x00\n            /* \"@openzeppelin/contracts/token/ERC20/ERC20.sol\":4532:4545   */\n          dup1\n            /* \"@openzeppelin/contracts/token/ERC20/ERC20.sol\":4548:4560   */\n          tag_80\n            /* \"@openzeppelin/contracts/token/ERC20/ERC20.sol\":4548:4558   */\n          tag_81\n            /* \"@openzeppelin/contracts/token/ERC20/ERC20.sol\":4548:4560   */\n          jump\t// in\n        tag_80:\n            /* \"@openzeppelin/contracts/token/ERC20/ERC20.sol\":4532:4560   */\n          swap1\n          pop\n            /* \"@openzeppelin/contracts/token/ERC20/ERC20.sol\":4570:4602   */\n          tag_82\n            /* \"@openzeppelin/contracts/token/ERC20/ERC20.sol\":4579:4584   */\n          dup2\n            /* \"@openzeppelin/contracts/token/ERC20/ERC20.sol\":4586:4593   */\n          dup6\n            /* \"@openzeppelin/contracts/token/ERC20/ERC20.sol\":4595:4601   */\n          dup6\n            /* \"@openzeppelin/contracts/token/ERC20/ERC20.sol\":4570:4578   */\n          tag_83\n            /* \"@openzeppelin/contracts/token/ERC20/ERC20.sol\":4570:4602   */\n          jump\t// in\n        tag_82:\n            /* \"@openzeppelin/contracts/token/ERC20/ERC20.sol\":4619:4623   */\n          0x01\n            /* \"@openzeppelin/contracts/token/ERC20/ERC20.sol\":4612:4623   */\n          swap2\n          pop\n          pop\n            /* \"@openzeppelin/contracts/token/ERC20/ERC20.sol\":4433:4630   */\n          swap3\n          swap2\n          pop\n          pop\n          jump\t// out\n            /* \"@openzeppelin/contracts/token/ERC20/ERC20.sol\":3244:3350   */\n        tag_29:\n            /* \"@openzeppelin/contracts/token/ERC20/ERC20.sol\":3305:3312   */\n          0x00\n            /* \"@openzeppelin/contracts/token/ERC20/ERC20.sol\":3331:3343   */\n          sload(0x02)\n            /* \"@openzeppelin/contracts/token/ERC20/ERC20.sol\":3324:3343   */\n          swap1\n          pop\n            /* \"@openzeppelin/contracts/token/ERC20/ERC20.sol\":3244:3350   */\n          swap1\n          jump\t// out\n            /* \"ReputationControlV2.sol\":817:1114  function transferFrom(... */\n        tag_35:\n            /* \"ReputationControlV2.sol\":950:954  bool */\n          0x00\n            /* \"ReputationControlV2.sol\":237:242  owner */\n          immutable(\"0xe455bf8ea6e7463a1046a0b52804526e119b4bf5136279614e0b1e8e296a4e2d\")\n            /* \"ReputationControlV2.sol\":223:242  msg.sender == owner */\n          0xffffffffffffffffffffffffffffffffffffffff\n          and\n            /* \"ReputationControlV2.sol\":223:233  msg.sender */\n          caller\n            /* \"ReputationControlV2.sol\":223:242  msg.sender == owner */\n          0xffffffffffffffffffffffffffffffffffffffff\n          and\n          eq\n            /* \"ReputationControlV2.sol\":215:260  require(msg.sender == owner, \"No permission\") */\n          tag_86\n          jumpi\n          mload(0x40)\n          0x08c379a000000000000000000000000000000000000000000000000000000000\n          dup2\n          mstore\n          0x04\n          add\n          tag_87\n          swap1\n          tag_88\n          jump\t// in\n        tag_87:\n          mload(0x40)\n          dup1\n          swap2\n          sub\n          swap1\n          revert\n        tag_86:\n            /* \"ReputationControlV2.sol\":967:982  address spender */\n          0x00\n            /* \"ReputationControlV2.sol\":985:997  _msgSender() */\n          tag_90\n            /* \"ReputationControlV2.sol\":985:995  _msgSender */\n          tag_81\n            /* \"ReputationControlV2.sol\":985:997  _msgSender() */\n          jump\t// in\n        tag_90:\n            /* \"ReputationControlV2.sol\":967:997  address spender = _msgSender() */\n          swap1\n          pop\n            /* \"ReputationControlV2.sol\":1008:1046  _spendAllowance(from, spender, amount) */\n          tag_91\n            /* \"ReputationControlV2.sol\":1024:1028  from */\n          dup6\n            /* \"ReputationControlV2.sol\":1030:1037  spender */\n          dup3\n            /* \"ReputationControlV2.sol\":1039:1045  amount */\n          dup6\n            /* \"ReputationControlV2.sol\":1008:1023  _spendAllowance */\n          tag_92\n            /* \"ReputationControlV2.sol\":1008:1046  _spendAllowance(from, spender, amount) */\n          jump\t// in\n        tag_91:\n            /* \"ReputationControlV2.sol\":1057:1084  _transfer(from, to, amount) */\n          tag_93\n            /* \"ReputationControlV2.sol\":1067:1071  from */\n          dup6\n            /* \"ReputationControlV2.sol\":1073:1075  to */\n          dup6\n            /* \"ReputationControlV2.sol\":1077:1083  amount */\n          dup6\n            /* \"ReputationControlV2.sol\":1057:1066  _transfer */\n          tag_94\n            /* \"ReputationControlV2.sol\":1057:1084  _transfer(from, to, amount) */\n          jump\t// in\n        tag_93:\n            /* \"ReputationControlV2.sol\":1102:1106  true */\n          0x01\n            /* \"ReputationControlV2.sol\":1095:1106  return true */\n          swap2\n          pop\n          pop\n            /* \"ReputationControlV2.sol\":817:1114  function transferFrom(... */\n          swap4\n          swap3\n          pop\n          pop\n          pop\n          jump\t// out\n            /* \"@openzeppelin/contracts/token/ERC20/ERC20.sol\":3093:3184   */\n        tag_38:\n            /* \"@openzeppelin/contracts/token/ERC20/ERC20.sol\":3151:3156   */\n          0x00\n            /* \"@openzeppelin/contracts/token/ERC20/ERC20.sol\":3175:3177   */\n          0x12\n            /* \"@openzeppelin/contracts/token/ERC20/ERC20.sol\":3168:3177   */\n          swap1\n          pop\n            /* \"@openzeppelin/contracts/token/ERC20/ERC20.sol\":3093:3184   */\n          swap1\n          jump\t// out\n            /* \"@openzeppelin/contracts/token/ERC20/ERC20.sol\":5873:6107   */\n        tag_43:\n            /* \"@openzeppelin/contracts/token/ERC20/ERC20.sol\":5961:5965   */\n          0x00\n            /* \"@openzeppelin/contracts/token/ERC20/ERC20.sol\":5977:5990   */\n          dup1\n            /* \"@openzeppelin/contracts/token/ERC20/ERC20.sol\":5993:6005   */\n          tag_97\n            /* \"@openzeppelin/contracts/token/ERC20/ERC20.sol\":5993:6003   */\n          tag_81\n            /* \"@openzeppelin/contracts/token/ERC20/ERC20.sol\":5993:6005   */\n          jump\t// in\n        tag_97:\n            /* \"@openzeppelin/contracts/token/ERC20/ERC20.sol\":5977:6005   */\n          swap1\n          pop\n            /* \"@openzeppelin/contracts/token/ERC20/ERC20.sol\":6015:6079   */\n          tag_98\n            /* \"@openzeppelin/contracts/token/ERC20/ERC20.sol\":6024:6029   */\n          dup2\n            /* \"@openzeppelin/contracts/token/ERC20/ERC20.sol\":6031:6038   */\n          dup6\n            /* \"@openzeppelin/contracts/token/ERC20/ERC20.sol\":6068:6078   */\n          dup6\n            /* \"@openzeppelin/contracts/token/ERC20/ERC20.sol\":6040:6065   */\n          tag_99\n            /* \"@openzeppelin/contracts/token/ERC20/ERC20.sol\":6050:6055   */\n          dup6\n            /* \"@openzeppelin/contracts/token/ERC20/ERC20.sol\":6057:6064   */\n          dup10\n            /* \"@openzeppelin/contracts/token/ERC20/ERC20.sol\":6040:6049   */\n          tag_70\n            /* \"@openzeppelin/contracts/token/ERC20/ERC20.sol\":6040:6065   */\n          jump\t// in\n        tag_99:\n            /* \"@openzeppelin/contracts/token/ERC20/ERC20.sol\":6040:6078   */\n          tag_100\n          swap2\n          swap1\n          tag_101\n          jump\t// in\n        tag_100:\n            /* \"@openzeppelin/contracts/token/ERC20/ERC20.sol\":6015:6023   */\n          tag_83\n            /* \"@openzeppelin/contracts/token/ERC20/ERC20.sol\":6015:6079   */\n          jump\t// in\n        tag_98:\n            /* \"@openzeppelin/contracts/token/ERC20/ERC20.sol\":6096:6100   */\n          0x01\n            /* \"@openzeppelin/contracts/token/ERC20/ERC20.sol\":6089:6100   */\n          swap2\n          pop\n          pop\n            /* \"@openzeppelin/contracts/token/ERC20/ERC20.sol\":5873:6107   */\n          swap3\n          swap2\n          pop\n          pop\n          jump\t// out\n            /* \"ReputationControlV2.sol\":410:503  function mint(address to, uint256 amount) public onlyOwner{... */\n        tag_47:\n            /* \"ReputationControlV2.sol\":237:242  owner */\n          immutable(\"0xe455bf8ea6e7463a1046a0b52804526e119b4bf5136279614e0b1e8e296a4e2d\")\n            /* \"ReputationControlV2.sol\":223:242  msg.sender == owner */\n          0xffffffffffffffffffffffffffffffffffffffff\n          and\n            /* \"ReputationControlV2.sol\":223:233  msg.sender */\n          caller\n            /* \"ReputationControlV2.sol\":223:242  msg.sender == owner */\n          0xffffffffffffffffffffffffffffffffffffffff\n          and\n          eq\n            /* \"ReputationControlV2.sol\":215:260  require(msg.sender == owner, \"No permission\") */\n          tag_103\n          jumpi\n          mload(0x40)\n          0x08c379a000000000000000000000000000000000000000000000000000000000\n          dup2\n          mstore\n          0x04\n          add\n          tag_104\n          swap1\n          tag_88\n          jump\t// in\n        tag_104:\n          mload(0x40)\n          dup1\n          swap2\n          sub\n          swap1\n          revert\n        tag_103:\n            /* \"ReputationControlV2.sol\":479:495  _mint(to,amount) */\n          tag_106\n            /* \"ReputationControlV2.sol\":485:487  to */\n          dup3\n            /* \"ReputationControlV2.sol\":488:494  amount */\n          dup3\n            /* \"ReputationControlV2.sol\":479:484  _mint */\n          tag_107\n            /* \"ReputationControlV2.sol\":479:495  _mint(to,amount) */\n          jump\t// in\n        tag_106:\n            /* \"ReputationControlV2.sol\":410:503  function mint(address to, uint256 amount) public onlyOwner{... */\n          pop\n          pop\n          jump\t// out\n            /* \"@openzeppelin/contracts/token/ERC20/ERC20.sol\":3408:3533   */\n        tag_51:\n            /* \"@openzeppelin/contracts/token/ERC20/ERC20.sol\":3482:3489   */\n          0x00\n            /* \"@openzeppelin/contracts/token/ERC20/ERC20.sol\":3508:3517   */\n          dup1\n            /* \"@openzeppelin/contracts/token/ERC20/ERC20.sol\":3508:3526   */\n          0x00\n            /* \"@openzeppelin/contracts/token/ERC20/ERC20.sol\":3518:3525   */\n          dup4\n            /* \"@openzeppelin/contracts/token/ERC20/ERC20.sol\":3508:3526   */\n          0xffffffffffffffffffffffffffffffffffffffff\n          and\n          0xffffffffffffffffffffffffffffffffffffffff\n          and\n          dup2\n          mstore\n          0x20\n          add\n          swap1\n          dup2\n          mstore\n          0x20\n          add\n          0x00\n          keccak256\n          sload\n            /* \"@openzeppelin/contracts/token/ERC20/ERC20.sol\":3501:3526   */\n          swap1\n          pop\n            /* \"@openzeppelin/contracts/token/ERC20/ERC20.sol\":3408:3533   */\n          swap2\n          swap1\n          pop\n          jump\t// out\n            /* \"@openzeppelin/contracts/token/ERC20/ERC20.sol\":2367:2469   */\n        tag_54:\n            /* \"@openzeppelin/contracts/token/ERC20/ERC20.sol\":2423:2436   */\n          0x60\n            /* \"@openzeppelin/contracts/token/ERC20/ERC20.sol\":2455:2462   */\n          0x04\n            /* \"@openzeppelin/contracts/token/ERC20/ERC20.sol\":2448:2462   */\n          dup1\n          sload\n          tag_110\n          swap1\n          tag_74\n          jump\t// in\n        tag_110:\n          dup1\n          0x1f\n          add\n          0x20\n          dup1\n          swap2\n          div\n          mul\n          0x20\n          add\n          mload(0x40)\n          swap1\n          dup2\n          add\n          0x40\n          mstore\n          dup1\n          swap3\n          swap2\n          swap1\n          dup2\n          dup2\n          mstore\n          0x20\n          add\n          dup3\n          dup1\n          sload\n          tag_111\n          swap1\n          tag_74\n          jump\t// in\n        tag_111:\n          dup1\n          iszero\n          tag_112\n          jumpi\n          dup1\n          0x1f\n          lt\n          tag_113\n          jumpi\n          0x0100\n          dup1\n          dup4\n          sload\n          div\n          mul\n          dup4\n          mstore\n          swap2\n          0x20\n          add\n          swap2\n          jump(tag_112)\n        tag_113:\n          dup3\n          add\n          swap2\n          swap1\n          0x00\n          mstore\n          keccak256(0x00, 0x20)\n          swap1\n        tag_114:\n          dup2\n          sload\n          dup2\n          mstore\n          swap1\n          0x01\n          add\n          swap1\n          0x20\n          add\n          dup1\n          dup4\n          gt\n          tag_114\n          jumpi\n          dup3\n          swap1\n          sub\n          0x1f\n          and\n          dup3\n          add\n          swap2\n        tag_112:\n          pop\n          pop\n          pop\n          pop\n          pop\n          swap1\n          pop\n            /* \"@openzeppelin/contracts/token/ERC20/ERC20.sol\":2367:2469   */\n          swap1\n          jump\t// out\n            /* \"ReputationControlV2.sol\":511:604  function burn(address to, uint256 amount) public onlyOwner{... */\n        tag_58:\n            /* \"ReputationControlV2.sol\":237:242  owner */\n          immutable(\"0xe455bf8ea6e7463a1046a0b52804526e119b4bf5136279614e0b1e8e296a4e2d\")\n            /* \"ReputationControlV2.sol\":223:242  msg.sender == owner */\n          0xffffffffffffffffffffffffffffffffffffffff\n          and\n            /* \"ReputationControlV2.sol\":223:233  msg.sender */\n          caller\n            /* \"ReputationControlV2.sol\":223:242  msg.sender == owner */\n          0xffffffffffffffffffffffffffffffffffffffff\n          and\n          eq\n            /* \"ReputationControlV2.sol\":215:260  require(msg.sender == owner, \"No permission\") */\n          tag_116\n          jumpi\n          mload(0x40)\n          0x08c379a000000000000000000000000000000000000000000000000000000000\n          dup2\n          mstore\n          0x04\n          add\n          tag_117\n          swap1\n          tag_88\n          jump\t// in\n        tag_117:\n          mload(0x40)\n          dup1\n          swap2\n          sub\n          swap1\n          revert\n        tag_116:\n            /* \"ReputationControlV2.sol\":580:596  _burn(to,amount) */\n          tag_119\n            /* \"ReputationControlV2.sol\":586:588  to */\n          dup3\n            /* \"ReputationControlV2.sol\":589:595  amount */\n          dup3\n            /* \"ReputationControlV2.sol\":580:585  _burn */\n          tag_120\n            /* \"ReputationControlV2.sol\":580:596  _burn(to,amount) */\n          jump\t// in\n        tag_119:\n            /* \"ReputationControlV2.sol\":511:604  function burn(address to, uint256 amount) public onlyOwner{... */\n          pop\n          pop\n          jump\t// out\n            /* \"@openzeppelin/contracts/token/ERC20/ERC20.sol\":6594:7021   */\n        tag_61:\n            /* \"@openzeppelin/contracts/token/ERC20/ERC20.sol\":6687:6691   */\n          0x00\n            /* \"@openzeppelin/contracts/token/ERC20/ERC20.sol\":6703:6716   */\n          dup1\n            /* \"@openzeppelin/contracts/token/ERC20/ERC20.sol\":6719:6731   */\n          tag_122\n            /* \"@openzeppelin/contracts/token/ERC20/ERC20.sol\":6719:6729   */\n          tag_81\n            /* \"@openzeppelin/contracts/token/ERC20/ERC20.sol\":6719:6731   */\n          jump\t// in\n        tag_122:\n            /* \"@openzeppelin/contracts/token/ERC20/ERC20.sol\":6703:6731   */\n          swap1\n          pop\n            /* \"@openzeppelin/contracts/token/ERC20/ERC20.sol\":6741:6765   */\n          0x00\n            /* \"@openzeppelin/contracts/token/ERC20/ERC20.sol\":6768:6793   */\n          tag_123\n            /* \"@openzeppelin/contracts/token/ERC20/ERC20.sol\":6778:6783   */\n          dup3\n            /* \"@openzeppelin/contracts/token/ERC20/ERC20.sol\":6785:6792   */\n          dup7\n            /* \"@openzeppelin/contracts/token/ERC20/ERC20.sol\":6768:6777   */\n          tag_70\n            /* \"@openzeppelin/contracts/token/ERC20/ERC20.sol\":6768:6793   */\n          jump\t// in\n        tag_123:\n            /* \"@openzeppelin/contracts/token/ERC20/ERC20.sol\":6741:6793   */\n          swap1\n          pop\n            /* \"@openzeppelin/contracts/token/ERC20/ERC20.sol\":6831:6846   */\n          dup4\n            /* \"@openzeppelin/contracts/token/ERC20/ERC20.sol\":6811:6827   */\n          dup2\n            /* \"@openzeppelin/contracts/token/ERC20/ERC20.sol\":6811:6846   */\n          lt\n          iszero\n            /* \"@openzeppelin/contracts/token/ERC20/ERC20.sol\":6803:6888   */\n          tag_124\n          jumpi\n          mload(0x40)\n          0x08c379a000000000000000000000000000000000000000000000000000000000\n          dup2\n          mstore\n          0x04\n          add\n          tag_125\n          swap1\n          tag_126\n          jump\t// in\n        tag_125:\n          mload(0x40)\n          dup1\n          swap2\n          sub\n          swap1\n          revert\n        tag_124:\n            /* \"@openzeppelin/contracts/token/ERC20/ERC20.sol\":6922:6982   */\n          tag_127\n            /* \"@openzeppelin/contracts/token/ERC20/ERC20.sol\":6931:6936   */\n          dup3\n            /* \"@openzeppelin/contracts/token/ERC20/ERC20.sol\":6938:6945   */\n          dup7\n            /* \"@openzeppelin/contracts/token/ERC20/ERC20.sol\":6966:6981   */\n          dup7\n            /* \"@openzeppelin/contracts/token/ERC20/ERC20.sol\":6947:6963   */\n          dup5\n            /* \"@openzeppelin/contracts/token/ERC20/ERC20.sol\":6947:6981   */\n          sub\n            /* \"@openzeppelin/contracts/token/ERC20/ERC20.sol\":6922:6930   */\n          tag_83\n            /* \"@openzeppelin/contracts/token/ERC20/ERC20.sol\":6922:6982   */\n          jump\t// in\n        tag_127:\n            /* \"@openzeppelin/contracts/token/ERC20/ERC20.sol\":7010:7014   */\n          0x01\n            /* \"@openzeppelin/contracts/token/ERC20/ERC20.sol\":7003:7014   */\n          swap3\n          pop\n          pop\n          pop\n            /* \"@openzeppelin/contracts/token/ERC20/ERC20.sol\":6594:7021   */\n          swap3\n          swap2\n          pop\n          pop\n          jump\t// out\n            /* \"ReputationControlV2.sol\":612:809  function transfer(address to, uint256 amount) public override onlyOwner returns (bool) {... */\n        tag_65:\n            /* \"ReputationControlV2.sol\":693:697  bool */\n          0x00\n            /* \"ReputationControlV2.sol\":237:242  owner */\n          immutable(\"0xe455bf8ea6e7463a1046a0b52804526e119b4bf5136279614e0b1e8e296a4e2d\")\n            /* \"ReputationControlV2.sol\":223:242  msg.sender == owner */\n          0xffffffffffffffffffffffffffffffffffffffff\n          and\n            /* \"ReputationControlV2.sol\":223:233  msg.sender */\n          caller\n            /* \"ReputationControlV2.sol\":223:242  msg.sender == owner */\n          0xffffffffffffffffffffffffffffffffffffffff\n          and\n          eq\n            /* \"ReputationControlV2.sol\":215:260  require(msg.sender == owner, \"No permission\") */\n          tag_129\n          jumpi\n          mload(0x40)\n          0x08c379a000000000000000000000000000000000000000000000000000000000\n          dup2\n          mstore\n          0x04\n          add\n          tag_130\n          swap1\n          tag_88\n          jump\t// in\n        tag_130:\n          mload(0x40)\n          dup1\n          swap2\n          sub\n          swap1\n          revert\n        tag_129:\n            /* \"ReputationControlV2.sol\":710:724  address _owner */\n          0x00\n            /* \"ReputationControlV2.sol\":727:739  _msgSender() */\n          tag_132\n            /* \"ReputationControlV2.sol\":727:737  _msgSender */\n          tag_81\n            /* \"ReputationControlV2.sol\":727:739  _msgSender() */\n          jump\t// in\n        tag_132:\n            /* \"ReputationControlV2.sol\":710:739  address _owner = _msgSender() */\n          swap1\n          pop\n            /* \"ReputationControlV2.sol\":750:779  _transfer(_owner, to, amount) */\n          tag_133\n            /* \"ReputationControlV2.sol\":760:766  _owner */\n          dup2\n            /* \"ReputationControlV2.sol\":768:770  to */\n          dup6\n            /* \"ReputationControlV2.sol\":772:778  amount */\n          dup6\n            /* \"ReputationControlV2.sol\":750:759  _transfer */\n          tag_94\n            /* \"ReputationControlV2.sol\":750:779  _transfer(_owner, to, amount) */\n          jump\t// in\n        tag_133:\n            /* \"ReputationControlV2.sol\":797:801  true */\n          0x01\n            /* \"ReputationControlV2.sol\":790:801  return true */\n          swap2\n          pop\n          pop\n            /* \"ReputationControlV2.sol\":612:809  function transfer(address to, uint256 amount) public override onlyOwner returns (bool) {... */\n          swap3\n          swap2\n          pop\n          pop\n          jump\t// out\n            /* \"@openzeppelin/contracts/token/ERC20/ERC20.sol\":3976:4125   */\n        tag_70:\n            /* \"@openzeppelin/contracts/token/ERC20/ERC20.sol\":4065:4072   */\n          0x00\n            /* \"@openzeppelin/contracts/token/ERC20/ERC20.sol\":4091:4102   */\n          0x01\n            /* \"@openzeppelin/contracts/token/ERC20/ERC20.sol\":4091:4109   */\n          0x00\n            /* \"@openzeppelin/contracts/token/ERC20/ERC20.sol\":4103:4108   */\n          dup5\n            /* \"@openzeppelin/contracts/token/ERC20/ERC20.sol\":4091:4109   */\n          0xffffffffffffffffffffffffffffffffffffffff\n          and\n          0xffffffffffffffffffffffffffffffffffffffff\n          and\n          dup2\n          mstore\n          0x20\n          add\n          swap1\n          dup2\n          mstore\n          0x20\n          add\n          0x00\n          keccak256\n            /* \"@openzeppelin/contracts/token/ERC20/ERC20.sol\":4091:4118   */\n          0x00\n            /* \"@openzeppelin/contracts/token/ERC20/ERC20.sol\":4110:4117   */\n          dup4\n            /* \"@openzeppelin/contracts/token/ERC20/ERC20.sol\":4091:4118   */\n          0xffffffffffffffffffffffffffffffffffffffff\n          and\n          0xffffffffffffffffffffffffffffffffffffffff\n          and\n          dup2\n          mstore\n          0x20\n          add\n          swap1\n          dup2\n          mstore\n          0x20\n          add\n          0x00\n          keccak256\n          sload\n            /* \"@openzeppelin/contracts/token/ERC20/ERC20.sol\":4084:4118   */\n          swap1\n          pop\n            /* \"@openzeppelin/contracts/token/ERC20/ERC20.sol\":3976:4125   */\n          swap3\n          swap2\n          pop\n          pop\n          jump\t// out\n            /* \"@openzeppelin/contracts/utils/Context.sol\":640:736   */\n        tag_81:\n            /* \"@openzeppelin/contracts/utils/Context.sol\":693:700   */\n          0x00\n            /* \"@openzeppelin/contracts/utils/Context.sol\":719:729   */\n          caller\n            /* \"@openzeppelin/contracts/utils/Context.sol\":712:729   */\n          swap1\n          pop\n            /* \"@openzeppelin/contracts/utils/Context.sol\":640:736   */\n          swap1\n          jump\t// out\n            /* \"@openzeppelin/contracts/token/ERC20/ERC20.sol\":10119:10489   */\n        tag_83:\n            /* \"@openzeppelin/contracts/token/ERC20/ERC20.sol\":10267:10268   */\n          0x00\n            /* \"@openzeppelin/contracts/token/ERC20/ERC20.sol\":10250:10269   */\n          0xffffffffffffffffffffffffffffffffffffffff\n          and\n            /* \"@openzeppelin/contracts/token/ERC20/ERC20.sol\":10250:10255   */\n          dup4\n            /* \"@openzeppelin/contracts/token/ERC20/ERC20.sol\":10250:10269   */\n          0xffffffffffffffffffffffffffffffffffffffff\n          and\n          eq\n          iszero\n            /* \"@openzeppelin/contracts/token/ERC20/ERC20.sol\":10242:10310   */\n          tag_137\n          jumpi\n          mload(0x40)\n          0x08c379a000000000000000000000000000000000000000000000000000000000\n          dup2\n          mstore\n          0x04\n          add\n          tag_138\n          swap1\n          tag_139\n          jump\t// in\n        tag_138:\n          mload(0x40)\n          dup1\n          swap2\n          sub\n          swap1\n          revert\n        tag_137:\n            /* \"@openzeppelin/contracts/token/ERC20/ERC20.sol\":10347:10348   */\n          0x00\n            /* \"@openzeppelin/contracts/token/ERC20/ERC20.sol\":10328:10349   */\n          0xffffffffffffffffffffffffffffffffffffffff\n          and\n            /* \"@openzeppelin/contracts/token/ERC20/ERC20.sol\":10328:10335   */\n          dup3\n            /* \"@openzeppelin/contracts/token/ERC20/ERC20.sol\":10328:10349   */\n          0xffffffffffffffffffffffffffffffffffffffff\n          and\n          eq\n          iszero\n            /* \"@openzeppelin/contracts/token/ERC20/ERC20.sol\":10320:10388   */\n          tag_140\n          jumpi\n          mload(0x40)\n          0x08c379a000000000000000000000000000000000000000000000000000000000\n          dup2\n          mstore\n          0x04\n          add\n          tag_141\n          swap1\n          tag_142\n          jump\t// in\n        tag_141:\n          mload(0x40)\n          dup1\n          swap2\n          sub\n          swap1\n          revert\n        tag_140:\n            /* \"@openzeppelin/contracts/token/ERC20/ERC20.sol\":10429:10435   */\n          dup1\n            /* \"@openzeppelin/contracts/token/ERC20/ERC20.sol\":10399:10410   */\n          0x01\n            /* \"@openzeppelin/contracts/token/ERC20/ERC20.sol\":10399:10417   */\n          0x00\n            /* \"@openzeppelin/contracts/token/ERC20/ERC20.sol\":10411:10416   */\n          dup6\n            /* \"@openzeppelin/contracts/token/ERC20/ERC20.sol\":10399:10417   */\n          0xffffffffffffffffffffffffffffffffffffffff\n          and\n          0xffffffffffffffffffffffffffffffffffffffff\n          and\n          dup2\n          mstore\n          0x20\n          add\n          swap1\n          dup2\n          mstore\n          0x20\n          add\n          0x00\n          keccak256\n            /* \"@openzeppelin/contracts/token/ERC20/ERC20.sol\":10399:10426   */\n          0x00\n            /* \"@openzeppelin/contracts/token/ERC20/ERC20.sol\":10418:10425   */\n          dup5\n            /* \"@openzeppelin/contracts/token/ERC20/ERC20.sol\":10399:10426   */\n          0xffffffffffffffffffffffffffffffffffffffff\n          and\n          0xffffffffffffffffffffffffffffffffffffffff\n          and\n          dup2\n          mstore\n          0x20\n          add\n          swap1\n          dup2\n          mstore\n          0x20\n          add\n          0x00\n          keccak256\n            /* \"@openzeppelin/contracts/token/ERC20/ERC20.sol\":10399:10435   */\n          dup2\n          swap1\n          sstore\n          pop\n            /* \"@openzeppelin/contracts/token/ERC20/ERC20.sol\":10466:10473   */\n          dup2\n            /* \"@openzeppelin/contracts/token/ERC20/ERC20.sol\":10450:10482   */\n          0xffffffffffffffffffffffffffffffffffffffff\n          and\n            /* \"@openzeppelin/contracts/token/ERC20/ERC20.sol\":10459:10464   */\n          dup4\n            /* \"@openzeppelin/contracts/token/ERC20/ERC20.sol\":10450:10482   */\n          0xffffffffffffffffffffffffffffffffffffffff\n          and\n          0x8c5be1e5ebec7d5bd14f71427d1e84f3dd0314c0f7b2291e5b200ac8c7c3b925\n            /* \"@openzeppelin/contracts/token/ERC20/ERC20.sol\":10475:10481   */\n          dup4\n            /* \"@openzeppelin/contracts/token/ERC20/ERC20.sol\":10450:10482   */\n          mload(0x40)\n          tag_143\n          swap2\n          swap1\n          tag_31\n          jump\t// in\n        tag_143:\n          mload(0x40)\n          dup1\n          swap2\n          sub\n          swap1\n          log3\n            /* \"@openzeppelin/contracts/token/ERC20/ERC20.sol\":10119:10489   */\n          pop\n          pop\n          pop\n          jump\t// out\n            /* \"@openzeppelin/contracts/token/ERC20/ERC20.sol\":10770:11211   */\n        tag_92:\n            /* \"@openzeppelin/contracts/token/ERC20/ERC20.sol\":10900:10924   */\n          0x00\n            /* \"@openzeppelin/contracts/token/ERC20/ERC20.sol\":10927:10952   */\n          tag_145\n            /* \"@openzeppelin/contracts/token/ERC20/ERC20.sol\":10937:10942   */\n          dup5\n            /* \"@openzeppelin/contracts/token/ERC20/ERC20.sol\":10944:10951   */\n          dup5\n            /* \"@openzeppelin/contracts/token/ERC20/ERC20.sol\":10927:10936   */\n          tag_70\n            /* \"@openzeppelin/contracts/token/ERC20/ERC20.sol\":10927:10952   */\n          jump\t// in\n        tag_145:\n            /* \"@openzeppelin/contracts/token/ERC20/ERC20.sol\":10900:10952   */\n          swap1\n          pop\n            /* \"@openzeppelin/contracts/token/ERC20/ERC20.sol\":10986:11003   */\n          0xffffffffffffffffffffffffffffffffffffffffffffffffffffffffffffffff\n            /* \"@openzeppelin/contracts/token/ERC20/ERC20.sol\":10966:10982   */\n          dup2\n            /* \"@openzeppelin/contracts/token/ERC20/ERC20.sol\":10966:11003   */\n          eq\n            /* \"@openzeppelin/contracts/token/ERC20/ERC20.sol\":10962:11205   */\n          tag_146\n          jumpi\n            /* \"@openzeppelin/contracts/token/ERC20/ERC20.sol\":11047:11053   */\n          dup2\n            /* \"@openzeppelin/contracts/token/ERC20/ERC20.sol\":11027:11043   */\n          dup2\n            /* \"@openzeppelin/contracts/token/ERC20/ERC20.sol\":11027:11053   */\n          lt\n          iszero\n            /* \"@openzeppelin/contracts/token/ERC20/ERC20.sol\":11019:11087   */\n          tag_147\n          jumpi\n          mload(0x40)\n          0x08c379a000000000000000000000000000000000000000000000000000000000\n          dup2\n          mstore\n          0x04\n          add\n          tag_148\n          swap1\n          tag_149\n          jump\t// in\n        tag_148:\n          mload(0x40)\n          dup1\n          swap2\n          sub\n          swap1\n          revert\n        tag_147:\n            /* \"@openzeppelin/contracts/token/ERC20/ERC20.sol\":11129:11180   */\n          tag_150\n            /* \"@openzeppelin/contracts/token/ERC20/ERC20.sol\":11138:11143   */\n          dup5\n            /* \"@openzeppelin/contracts/token/ERC20/ERC20.sol\":11145:11152   */\n          dup5\n            /* \"@openzeppelin/contracts/token/ERC20/ERC20.sol\":11173:11179   */\n          dup5\n            /* \"@openzeppelin/contracts/token/ERC20/ERC20.sol\":11154:11170   */\n          dup5\n            /* \"@openzeppelin/contracts/token/ERC20/ERC20.sol\":11154:11179   */\n          sub\n            /* \"@openzeppelin/contracts/token/ERC20/ERC20.sol\":11129:11137   */\n          tag_83\n            /* \"@openzeppelin/contracts/token/ERC20/ERC20.sol\":11129:11180   */\n          jump\t// in\n        tag_150:\n            /* \"@openzeppelin/contracts/token/ERC20/ERC20.sol\":10962:11205   */\n        tag_146:\n            /* \"@openzeppelin/contracts/token/ERC20/ERC20.sol\":10890:11211   */\n          pop\n            /* \"@openzeppelin/contracts/token/ERC20/ERC20.sol\":10770:11211   */\n          pop\n          pop\n          pop\n          jump\t// out\n            /* \"@openzeppelin/contracts/token/ERC20/ERC20.sol\":7484:8135   */\n        tag_94:\n            /* \"@openzeppelin/contracts/token/ERC20/ERC20.sol\":7626:7627   */\n          0x00\n            /* \"@openzeppelin/contracts/token/ERC20/ERC20.sol\":7610:7628   */\n          0xffffffffffffffffffffffffffffffffffffffff\n          and\n            /* \"@openzeppelin/contracts/token/ERC20/ERC20.sol\":7610:7614   */\n          dup4\n            /* \"@openzeppelin/contracts/token/ERC20/ERC20.sol\":7610:7628   */\n          0xffffffffffffffffffffffffffffffffffffffff\n          and\n          eq\n          iszero\n            /* \"@openzeppelin/contracts/token/ERC20/ERC20.sol\":7602:7670   */\n          tag_152\n          jumpi\n          mload(0x40)\n          0x08c379a000000000000000000000000000000000000000000000000000000000\n          dup2\n          mstore\n          0x04\n          add\n          tag_153\n          swap1\n          tag_154\n          jump\t// in\n        tag_153:\n          mload(0x40)\n          dup1\n          swap2\n          sub\n          swap1\n          revert\n        tag_152:\n            /* \"@openzeppelin/contracts/token/ERC20/ERC20.sol\":7702:7703   */\n          0x00\n            /* \"@openzeppelin/contracts/token/ERC20/ERC20.sol\":7688:7704   */\n          0xffffffffffffffffffffffffffffffffffffffff\n          and\n            /* \"@openzeppelin/contracts/token/ERC20/ERC20.sol\":7688:7690   */\n          dup3\n            /* \"@openzeppelin/contracts/token/ERC20/ERC20.sol\":7688:7704   */\n          0xffffffffffffffffffffffffffffffffffffffff\n          and\n          eq\n          iszero\n            /* \"@openzeppelin/contracts/token/ERC20/ERC20.sol\":7680:7744   */\n          tag_155\n          jumpi\n          mload(0x40)\n          0x08c379a000000000000000000000000000000000000000000000000000000000\n          dup2\n          mstore\n          0x04\n          add\n          tag_156\n          swap1\n          tag_157\n          jump\t// in\n        tag_156:\n          mload(0x40)\n          dup1\n          swap2\n          sub\n          swap1\n          revert\n        tag_155:\n            /* \"@openzeppelin/contracts/token/ERC20/ERC20.sol\":7755:7793   */\n          tag_158\n            /* \"@openzeppelin/contracts/token/ERC20/ERC20.sol\":7776:7780   */\n          dup4\n            /* \"@openzeppelin/contracts/token/ERC20/ERC20.sol\":7782:7784   */\n          dup4\n            /* \"@openzeppelin/contracts/token/ERC20/ERC20.sol\":7786:7792   */\n          dup4\n            /* \"@openzeppelin/contracts/token/ERC20/ERC20.sol\":7755:7775   */\n          tag_159\n            /* \"@openzeppelin/contracts/token/ERC20/ERC20.sol\":7755:7793   */\n          jump\t// in\n        tag_158:\n            /* \"@openzeppelin/contracts/token/ERC20/ERC20.sol\":7804:7823   */\n          0x00\n            /* \"@openzeppelin/contracts/token/ERC20/ERC20.sol\":7826:7835   */\n          dup1\n            /* \"@openzeppelin/contracts/token/ERC20/ERC20.sol\":7826:7841   */\n          0x00\n            /* \"@openzeppelin/contracts/token/ERC20/ERC20.sol\":7836:7840   */\n          dup6\n            /* \"@openzeppelin/contracts/token/ERC20/ERC20.sol\":7826:7841   */\n          0xffffffffffffffffffffffffffffffffffffffff\n          and\n          0xffffffffffffffffffffffffffffffffffffffff\n          and\n          dup2\n          mstore\n          0x20\n          add\n          swap1\n          dup2\n          mstore\n          0x20\n          add\n          0x00\n          keccak256\n          sload\n            /* \"@openzeppelin/contracts/token/ERC20/ERC20.sol\":7804:7841   */\n          swap1\n          pop\n            /* \"@openzeppelin/contracts/token/ERC20/ERC20.sol\":7874:7880   */\n          dup2\n            /* \"@openzeppelin/contracts/token/ERC20/ERC20.sol\":7859:7870   */\n          dup2\n            /* \"@openzeppelin/contracts/token/ERC20/ERC20.sol\":7859:7880   */\n          lt\n          iszero\n            /* \"@openzeppelin/contracts/token/ERC20/ERC20.sol\":7851:7923   */\n          tag_160\n          jumpi\n          mload(0x40)\n          0x08c379a000000000000000000000000000000000000000000000000000000000\n          dup2\n          mstore\n          0x04\n          add\n          tag_161\n          swap1\n          tag_162\n          jump\t// in\n        tag_161:\n          mload(0x40)\n          dup1\n          swap2\n          sub\n          swap1\n          revert\n        tag_160:\n            /* \"@openzeppelin/contracts/token/ERC20/ERC20.sol\":7989:7995   */\n          dup2\n            /* \"@openzeppelin/contracts/token/ERC20/ERC20.sol\":7975:7986   */\n          dup2\n            /* \"@openzeppelin/contracts/token/ERC20/ERC20.sol\":7975:7995   */\n          sub\n            /* \"@openzeppelin/contracts/token/ERC20/ERC20.sol\":7957:7966   */\n          0x00\n            /* \"@openzeppelin/contracts/token/ERC20/ERC20.sol\":7957:7972   */\n          dup1\n            /* \"@openzeppelin/contracts/token/ERC20/ERC20.sol\":7967:7971   */\n          dup7\n            /* \"@openzeppelin/contracts/token/ERC20/ERC20.sol\":7957:7972   */\n          0xffffffffffffffffffffffffffffffffffffffff\n          and\n          0xffffffffffffffffffffffffffffffffffffffff\n          and\n          dup2\n          mstore\n          0x20\n          add\n          swap1\n          dup2\n          mstore\n          0x20\n          add\n          0x00\n          keccak256\n            /* \"@openzeppelin/contracts/token/ERC20/ERC20.sol\":7957:7995   */\n          dup2\n          swap1\n          sstore\n          pop\n            /* \"@openzeppelin/contracts/token/ERC20/ERC20.sol\":8032:8038   */\n          dup2\n            /* \"@openzeppelin/contracts/token/ERC20/ERC20.sol\":8015:8024   */\n          0x00\n            /* \"@openzeppelin/contracts/token/ERC20/ERC20.sol\":8015:8028   */\n          dup1\n            /* \"@openzeppelin/contracts/token/ERC20/ERC20.sol\":8025:8027   */\n          dup6\n            /* \"@openzeppelin/contracts/token/ERC20/ERC20.sol\":8015:8028   */\n          0xffffffffffffffffffffffffffffffffffffffff\n          and\n          0xffffffffffffffffffffffffffffffffffffffff\n          and\n          dup2\n          mstore\n          0x20\n          add\n          swap1\n          dup2\n          mstore\n          0x20\n          add\n          0x00\n          keccak256\n          0x00\n            /* \"@openzeppelin/contracts/token/ERC20/ERC20.sol\":8015:8038   */\n          dup3\n          dup3\n          sload\n          tag_163\n          swap2\n          swap1\n          tag_101\n          jump\t// in\n        tag_163:\n          swap3\n          pop\n          pop\n          dup2\n          swap1\n          sstore\n          pop\n            /* \"@openzeppelin/contracts/token/ERC20/ERC20.sol\":8069:8071   */\n          dup3\n            /* \"@openzeppelin/contracts/token/ERC20/ERC20.sol\":8054:8080   */\n          0xffffffffffffffffffffffffffffffffffffffff\n          and\n            /* \"@openzeppelin/contracts/token/ERC20/ERC20.sol\":8063:8067   */\n          dup5\n            /* \"@openzeppelin/contracts/token/ERC20/ERC20.sol\":8054:8080   */\n          0xffffffffffffffffffffffffffffffffffffffff\n          and\n          0xddf252ad1be2c89b69c2b068fc378daa952ba7f163c4a11628f55a4df523b3ef\n            /* \"@openzeppelin/contracts/token/ERC20/ERC20.sol\":8073:8079   */\n          dup5\n            /* \"@openzeppelin/contracts/token/ERC20/ERC20.sol\":8054:8080   */\n          mload(0x40)\n          tag_164\n          swap2\n          swap1\n          tag_31\n          jump\t// in\n        tag_164:\n          mload(0x40)\n          dup1\n          swap2\n          sub\n          swap1\n          log3\n            /* \"@openzeppelin/contracts/token/ERC20/ERC20.sol\":8091:8128   */\n          tag_165\n            /* \"@openzeppelin/contracts/token/ERC20/ERC20.sol\":8111:8115   */\n          dup5\n            /* \"@openzeppelin/contracts/token/ERC20/ERC20.sol\":8117:8119   */\n          dup5\n            /* \"@openzeppelin/contracts/token/ERC20/ERC20.sol\":8121:8127   */\n          dup5\n            /* \"@openzeppelin/contracts/token/ERC20/ERC20.sol\":8091:8110   */\n          tag_166\n            /* \"@openzeppelin/contracts/token/ERC20/ERC20.sol\":8091:8128   */\n          jump\t// in\n        tag_165:\n            /* \"@openzeppelin/contracts/token/ERC20/ERC20.sol\":7592:8135   */\n          pop\n            /* \"@openzeppelin/contracts/token/ERC20/ERC20.sol\":7484:8135   */\n          pop\n          pop\n          pop\n          jump\t// out\n            /* \"@openzeppelin/contracts/token/ERC20/ERC20.sol\":8411:8800   */\n        tag_107:\n            /* \"@openzeppelin/contracts/token/ERC20/ERC20.sol\":8513:8514   */\n          0x00\n            /* \"@openzeppelin/contracts/token/ERC20/ERC20.sol\":8494:8515   */\n          0xffffffffffffffffffffffffffffffffffffffff\n          and\n            /* \"@openzeppelin/contracts/token/ERC20/ERC20.sol\":8494:8501   */\n          dup3\n            /* \"@openzeppelin/contracts/token/ERC20/ERC20.sol\":8494:8515   */\n          0xffffffffffffffffffffffffffffffffffffffff\n          and\n          eq\n          iszero\n            /* \"@openzeppelin/contracts/token/ERC20/ERC20.sol\":8486:8551   */\n          tag_168\n          jumpi\n          mload(0x40)\n          0x08c379a000000000000000000000000000000000000000000000000000000000\n          dup2\n          mstore\n          0x04\n          add\n          tag_169\n          swap1\n          tag_170\n          jump\t// in\n        tag_169:\n          mload(0x40)\n          dup1\n          swap2\n          sub\n          swap1\n          revert\n        tag_168:\n            /* \"@openzeppelin/contracts/token/ERC20/ERC20.sol\":8562:8611   */\n          tag_171\n            /* \"@openzeppelin/contracts/token/ERC20/ERC20.sol\":8591:8592   */\n          0x00\n            /* \"@openzeppelin/contracts/token/ERC20/ERC20.sol\":8595:8602   */\n          dup4\n            /* \"@openzeppelin/contracts/token/ERC20/ERC20.sol\":8604:8610   */\n          dup4\n            /* \"@openzeppelin/contracts/token/ERC20/ERC20.sol\":8562:8582   */\n          tag_159\n            /* \"@openzeppelin/contracts/token/ERC20/ERC20.sol\":8562:8611   */\n          jump\t// in\n        tag_171:\n            /* \"@openzeppelin/contracts/token/ERC20/ERC20.sol\":8638:8644   */\n          dup1\n            /* \"@openzeppelin/contracts/token/ERC20/ERC20.sol\":8622:8634   */\n          0x02\n          0x00\n            /* \"@openzeppelin/contracts/token/ERC20/ERC20.sol\":8622:8644   */\n          dup3\n          dup3\n          sload\n          tag_172\n          swap2\n          swap1\n          tag_101\n          jump\t// in\n        tag_172:\n          swap3\n          pop\n          pop\n          dup2\n          swap1\n          sstore\n          pop\n            /* \"@openzeppelin/contracts/token/ERC20/ERC20.sol\":8676:8682   */\n          dup1\n            /* \"@openzeppelin/contracts/token/ERC20/ERC20.sol\":8654:8663   */\n          0x00\n            /* \"@openzeppelin/contracts/token/ERC20/ERC20.sol\":8654:8672   */\n          dup1\n            /* \"@openzeppelin/contracts/token/ERC20/ERC20.sol\":8664:8671   */\n          dup5\n            /* \"@openzeppelin/contracts/token/ERC20/ERC20.sol\":8654:8672   */\n          0xffffffffffffffffffffffffffffffffffffffff\n          and\n          0xffffffffffffffffffffffffffffffffffffffff\n          and\n          dup2\n          mstore\n          0x20\n          add\n          swap1\n          dup2\n          mstore\n          0x20\n          add\n          0x00\n          keccak256\n          0x00\n            /* \"@openzeppelin/contracts/token/ERC20/ERC20.sol\":8654:8682   */\n          dup3\n          dup3\n          sload\n          tag_173\n          swap2\n          swap1\n          tag_101\n          jump\t// in\n        tag_173:\n          swap3\n          pop\n          pop\n          dup2\n          swap1\n          sstore\n          pop\n            /* \"@openzeppelin/contracts/token/ERC20/ERC20.sol\":8718:8725   */\n          dup2\n            /* \"@openzeppelin/contracts/token/ERC20/ERC20.sol\":8697:8734   */\n          0xffffffffffffffffffffffffffffffffffffffff\n          and\n            /* \"@openzeppelin/contracts/token/ERC20/ERC20.sol\":8714:8715   */\n          0x00\n            /* \"@openzeppelin/contracts/token/ERC20/ERC20.sol\":8697:8734   */\n          0xffffffffffffffffffffffffffffffffffffffff\n          and\n          0xddf252ad1be2c89b69c2b068fc378daa952ba7f163c4a11628f55a4df523b3ef\n            /* \"@openzeppelin/contracts/token/ERC20/ERC20.sol\":8727:8733   */\n          dup4\n            /* \"@openzeppelin/contracts/token/ERC20/ERC20.sol\":8697:8734   */\n          mload(0x40)\n          tag_174\n          swap2\n          swap1\n          tag_31\n          jump\t// in\n        tag_174:\n          mload(0x40)\n          dup1\n          swap2\n          sub\n          swap1\n          log3\n            /* \"@openzeppelin/contracts/token/ERC20/ERC20.sol\":8745:8793   */\n          tag_175\n            /* \"@openzeppelin/contracts/token/ERC20/ERC20.sol\":8773:8774   */\n          0x00\n            /* \"@openzeppelin/contracts/token/ERC20/ERC20.sol\":8777:8784   */\n          dup4\n            /* \"@openzeppelin/contracts/token/ERC20/ERC20.sol\":8786:8792   */\n          dup4\n            /* \"@openzeppelin/contracts/token/ERC20/ERC20.sol\":8745:8764   */\n          tag_166\n            /* \"@openzeppelin/contracts/token/ERC20/ERC20.sol\":8745:8793   */\n          jump\t// in\n        tag_175:\n            /* \"@openzeppelin/contracts/token/ERC20/ERC20.sol\":8411:8800   */\n          pop\n          pop\n          jump\t// out\n            /* \"@openzeppelin/contracts/token/ERC20/ERC20.sol\":9120:9696   */\n        tag_120:\n            /* \"@openzeppelin/contracts/token/ERC20/ERC20.sol\":9222:9223   */\n          0x00\n            /* \"@openzeppelin/contracts/token/ERC20/ERC20.sol\":9203:9224   */\n          0xffffffffffffffffffffffffffffffffffffffff\n          and\n            /* \"@openzeppelin/contracts/token/ERC20/ERC20.sol\":9203:9210   */\n          dup3\n            /* \"@openzeppelin/contracts/token/ERC20/ERC20.sol\":9203:9224   */\n          0xffffffffffffffffffffffffffffffffffffffff\n          and\n          eq\n          iszero\n            /* \"@openzeppelin/contracts/token/ERC20/ERC20.sol\":9195:9262   */\n          tag_177\n          jumpi\n          mload(0x40)\n          0x08c379a000000000000000000000000000000000000000000000000000000000\n          dup2\n          mstore\n          0x04\n          add\n          tag_178\n          swap1\n          tag_179\n          jump\t// in\n        tag_178:\n          mload(0x40)\n          dup1\n          swap2\n          sub\n          swap1\n          revert\n        tag_177:\n            /* \"@openzeppelin/contracts/token/ERC20/ERC20.sol\":9273:9322   */\n          tag_180\n            /* \"@openzeppelin/contracts/token/ERC20/ERC20.sol\":9294:9301   */\n          dup3\n            /* \"@openzeppelin/contracts/token/ERC20/ERC20.sol\":9311:9312   */\n          0x00\n            /* \"@openzeppelin/contracts/token/ERC20/ERC20.sol\":9315:9321   */\n          dup4\n            /* \"@openzeppelin/contracts/token/ERC20/ERC20.sol\":9273:9293   */\n          tag_159\n            /* \"@openzeppelin/contracts/token/ERC20/ERC20.sol\":9273:9322   */\n          jump\t// in\n        tag_180:\n            /* \"@openzeppelin/contracts/token/ERC20/ERC20.sol\":9333:9355   */\n          0x00\n            /* \"@openzeppelin/contracts/token/ERC20/ERC20.sol\":9358:9367   */\n          dup1\n            /* \"@openzeppelin/contracts/token/ERC20/ERC20.sol\":9358:9376   */\n          0x00\n            /* \"@openzeppelin/contracts/token/ERC20/ERC20.sol\":9368:9375   */\n          dup5\n            /* \"@openzeppelin/contracts/token/ERC20/ERC20.sol\":9358:9376   */\n          0xffffffffffffffffffffffffffffffffffffffff\n          and\n          0xffffffffffffffffffffffffffffffffffffffff\n          and\n          dup2\n          mstore\n          0x20\n          add\n          swap1\n          dup2\n          mstore\n          0x20\n          add\n          0x00\n          keccak256\n          sload\n            /* \"@openzeppelin/contracts/token/ERC20/ERC20.sol\":9333:9376   */\n          swap1\n          pop\n            /* \"@openzeppelin/contracts/token/ERC20/ERC20.sol\":9412:9418   */\n          dup2\n            /* \"@openzeppelin/contracts/token/ERC20/ERC20.sol\":9394:9408   */\n          dup2\n            /* \"@openzeppelin/contracts/token/ERC20/ERC20.sol\":9394:9418   */\n          lt\n          iszero\n            /* \"@openzeppelin/contracts/token/ERC20/ERC20.sol\":9386:9457   */\n          tag_181\n          jumpi\n          mload(0x40)\n          0x08c379a000000000000000000000000000000000000000000000000000000000\n          dup2\n          mstore\n          0x04\n          add\n          tag_182\n          swap1\n          tag_183\n          jump\t// in\n        tag_182:\n          mload(0x40)\n          dup1\n          swap2\n          sub\n          swap1\n          revert\n        tag_181:\n            /* \"@openzeppelin/contracts/token/ERC20/ERC20.sol\":9529:9535   */\n          dup2\n            /* \"@openzeppelin/contracts/token/ERC20/ERC20.sol\":9512:9526   */\n          dup2\n            /* \"@openzeppelin/contracts/token/ERC20/ERC20.sol\":9512:9535   */\n          sub\n            /* \"@openzeppelin/contracts/token/ERC20/ERC20.sol\":9491:9500   */\n          0x00\n            /* \"@openzeppelin/contracts/token/ERC20/ERC20.sol\":9491:9509   */\n          dup1\n            /* \"@openzeppelin/contracts/token/ERC20/ERC20.sol\":9501:9508   */\n          dup6\n            /* \"@openzeppelin/contracts/token/ERC20/ERC20.sol\":9491:9509   */\n          0xffffffffffffffffffffffffffffffffffffffff\n          and\n          0xffffffffffffffffffffffffffffffffffffffff\n          and\n          dup2\n          mstore\n          0x20\n          add\n          swap1\n          dup2\n          mstore\n          0x20\n          add\n          0x00\n          keccak256\n            /* \"@openzeppelin/contracts/token/ERC20/ERC20.sol\":9491:9535   */\n          dup2\n          swap1\n          sstore\n          pop\n            /* \"@openzeppelin/contracts/token/ERC20/ERC20.sol\":9571:9577   */\n          dup2\n            /* \"@openzeppelin/contracts/token/ERC20/ERC20.sol\":9555:9567   */\n          0x02\n          0x00\n            /* \"@openzeppelin/contracts/token/ERC20/ERC20.sol\":9555:9577   */\n          dup3\n          dup3\n          sload\n          tag_184\n          swap2\n          swap1\n          tag_185\n          jump\t// in\n        tag_184:\n          swap3\n          pop\n          pop\n          dup2\n          swap1\n          sstore\n          pop\n            /* \"@openzeppelin/contracts/token/ERC20/ERC20.sol\":9619:9620   */\n          0x00\n            /* \"@openzeppelin/contracts/token/ERC20/ERC20.sol\":9593:9630   */\n          0xffffffffffffffffffffffffffffffffffffffff\n          and\n            /* \"@openzeppelin/contracts/token/ERC20/ERC20.sol\":9602:9609   */\n          dup4\n            /* \"@openzeppelin/contracts/token/ERC20/ERC20.sol\":9593:9630   */\n          0xffffffffffffffffffffffffffffffffffffffff\n          and\n          0xddf252ad1be2c89b69c2b068fc378daa952ba7f163c4a11628f55a4df523b3ef\n            /* \"@openzeppelin/contracts/token/ERC20/ERC20.sol\":9623:9629   */\n          dup5\n            /* \"@openzeppelin/contracts/token/ERC20/ERC20.sol\":9593:9630   */\n          mload(0x40)\n          tag_186\n          swap2\n          swap1\n          tag_31\n          jump\t// in\n        tag_186:\n          mload(0x40)\n          dup1\n          swap2\n          sub\n          swap1\n          log3\n            /* \"@openzeppelin/contracts/token/ERC20/ERC20.sol\":9641:9689   */\n          tag_187\n            /* \"@openzeppelin/contracts/token/ERC20/ERC20.sol\":9661:9668   */\n          dup4\n            /* \"@openzeppelin/contracts/token/ERC20/ERC20.sol\":9678:9679   */\n          0x00\n            /* \"@openzeppelin/contracts/token/ERC20/ERC20.sol\":9682:9688   */\n          dup5\n            /* \"@openzeppelin/contracts/token/ERC20/ERC20.sol\":9641:9660   */\n          tag_166\n            /* \"@openzeppelin/contracts/token/ERC20/ERC20.sol\":9641:9689   */\n          jump\t// in\n        tag_187:\n            /* \"@openzeppelin/contracts/token/ERC20/ERC20.sol\":9185:9696   */\n          pop\n            /* \"@openzeppelin/contracts/token/ERC20/ERC20.sol\":9120:9696   */\n          pop\n          pop\n          jump\t// out\n            /* \"@openzeppelin/contracts/token/ERC20/ERC20.sol\":11795:11916   */\n        tag_159:\n          pop\n          pop\n          pop\n          jump\t// out\n            /* \"@openzeppelin/contracts/token/ERC20/ERC20.sol\":12504:12624   */\n        tag_166:\n          pop\n          pop\n          pop\n          jump\t// out\n            /* \"#utility.yul\":7:106   */\n        tag_190:\n            /* \"#utility.yul\":59:65   */\n          0x00\n            /* \"#utility.yul\":93:98   */\n          dup2\n            /* \"#utility.yul\":87:99   */\n          mload\n            /* \"#utility.yul\":77:99   */\n          swap1\n          pop\n            /* \"#utility.yul\":7:106   */\n          swap2\n          swap1\n          pop\n          jump\t// out\n            /* \"#utility.yul\":112:281   */\n        tag_191:\n            /* \"#utility.yul\":196:207   */\n          0x00\n            /* \"#utility.yul\":230:236   */\n          dup3\n            /* \"#utility.yul\":225:228   */\n          dup3\n            /* \"#utility.yul\":218:237   */\n          mstore\n            /* \"#utility.yul\":270:274   */\n          0x20\n            /* \"#utility.yul\":265:268   */\n          dup3\n            /* \"#utility.yul\":261:275   */\n          add\n            /* \"#utility.yul\":246:275   */\n          swap1\n          pop\n            /* \"#utility.yul\":112:281   */\n          swap3\n          swap2\n          pop\n          pop\n          jump\t// out\n            /* \"#utility.yul\":287:594   */\n        tag_192:\n            /* \"#utility.yul\":355:356   */\n          0x00\n            /* \"#utility.yul\":365:478   */\n        tag_238:\n            /* \"#utility.yul\":379:385   */\n          dup4\n            /* \"#utility.yul\":376:377   */\n          dup2\n            /* \"#utility.yul\":373:386   */\n          lt\n            /* \"#utility.yul\":365:478   */\n          iszero\n          tag_240\n          jumpi\n            /* \"#utility.yul\":464:465   */\n          dup1\n            /* \"#utility.yul\":459:462   */\n          dup3\n            /* \"#utility.yul\":455:466   */\n          add\n            /* \"#utility.yul\":449:467   */\n          mload\n            /* \"#utility.yul\":445:446   */\n          dup2\n            /* \"#utility.yul\":440:443   */\n          dup5\n            /* \"#utility.yul\":436:447   */\n          add\n            /* \"#utility.yul\":429:468   */\n          mstore\n            /* \"#utility.yul\":401:403   */\n          0x20\n            /* \"#utility.yul\":398:399   */\n          dup2\n            /* \"#utility.yul\":394:404   */\n          add\n            /* \"#utility.yul\":389:404   */\n          swap1\n          pop\n            /* \"#utility.yul\":365:478   */\n          jump(tag_238)\n        tag_240:\n            /* \"#utility.yul\":496:502   */\n          dup4\n            /* \"#utility.yul\":493:494   */\n          dup2\n            /* \"#utility.yul\":490:503   */\n          gt\n            /* \"#utility.yul\":487:588   */\n          iszero\n          tag_241\n          jumpi\n            /* \"#utility.yul\":576:577   */\n          0x00\n            /* \"#utility.yul\":567:573   */\n          dup5\n            /* \"#utility.yul\":562:565   */\n          dup5\n            /* \"#utility.yul\":558:574   */\n          add\n            /* \"#utility.yul\":551:578   */\n          mstore\n            /* \"#utility.yul\":487:588   */\n        tag_241:\n            /* \"#utility.yul\":336:594   */\n          pop\n            /* \"#utility.yul\":287:594   */\n          pop\n          pop\n          pop\n          jump\t// out\n            /* \"#utility.yul\":600:702   */\n        tag_193:\n            /* \"#utility.yul\":641:647   */\n          0x00\n            /* \"#utility.yul\":692:694   */\n          0x1f\n            /* \"#utility.yul\":688:695   */\n          not\n            /* \"#utility.yul\":683:685   */\n          0x1f\n            /* \"#utility.yul\":676:681   */\n          dup4\n            /* \"#utility.yul\":672:686   */\n          add\n            /* \"#utility.yul\":668:696   */\n          and\n            /* \"#utility.yul\":658:696   */\n          swap1\n          pop\n            /* \"#utility.yul\":600:702   */\n          swap2\n          swap1\n          pop\n          jump\t// out\n            /* \"#utility.yul\":708:1072   */\n        tag_194:\n            /* \"#utility.yul\":796:799   */\n          0x00\n            /* \"#utility.yul\":824:863   */\n          tag_244\n            /* \"#utility.yul\":857:862   */\n          dup3\n            /* \"#utility.yul\":824:863   */\n          tag_190\n          jump\t// in\n        tag_244:\n            /* \"#utility.yul\":879:950   */\n          tag_245\n            /* \"#utility.yul\":943:949   */\n          dup2\n            /* \"#utility.yul\":938:941   */\n          dup6\n            /* \"#utility.yul\":879:950   */\n          tag_191\n          jump\t// in\n        tag_245:\n            /* \"#utility.yul\":872:950   */\n          swap4\n          pop\n            /* \"#utility.yul\":959:1011   */\n          tag_246\n            /* \"#utility.yul\":1004:1010   */\n          dup2\n            /* \"#utility.yul\":999:1002   */\n          dup6\n            /* \"#utility.yul\":992:996   */\n          0x20\n            /* \"#utility.yul\":985:990   */\n          dup7\n            /* \"#utility.yul\":981:997   */\n          add\n            /* \"#utility.yul\":959:1011   */\n          tag_192\n          jump\t// in\n        tag_246:\n            /* \"#utility.yul\":1036:1065   */\n          tag_247\n            /* \"#utility.yul\":1058:1064   */\n          dup2\n            /* \"#utility.yul\":1036:1065   */\n          tag_193\n          jump\t// in\n        tag_247:\n            /* \"#utility.yul\":1031:1034   */\n          dup5\n            /* \"#utility.yul\":1027:1066   */\n          add\n            /* \"#utility.yul\":1020:1066   */\n          swap2\n          pop\n            /* \"#utility.yul\":800:1072   */\n          pop\n            /* \"#utility.yul\":708:1072   */\n          swap3\n          swap2\n          pop\n          pop\n          jump\t// out\n            /* \"#utility.yul\":1078:1391   */\n        tag_21:\n            /* \"#utility.yul\":1191:1195   */\n          0x00\n            /* \"#utility.yul\":1229:1231   */\n          0x20\n            /* \"#utility.yul\":1218:1227   */\n          dup3\n            /* \"#utility.yul\":1214:1232   */\n          add\n            /* \"#utility.yul\":1206:1232   */\n          swap1\n          pop\n            /* \"#utility.yul\":1278:1287   */\n          dup2\n            /* \"#utility.yul\":1272:1276   */\n          dup2\n            /* \"#utility.yul\":1268:1288   */\n          sub\n            /* \"#utility.yul\":1264:1265   */\n          0x00\n            /* \"#utility.yul\":1253:1262   */\n          dup4\n            /* \"#utility.yul\":1249:1266   */\n          add\n            /* \"#utility.yul\":1242:1289   */\n          mstore\n            /* \"#utility.yul\":1306:1384   */\n          tag_249\n            /* \"#utility.yul\":1379:1383   */\n          dup2\n            /* \"#utility.yul\":1370:1376   */\n          dup5\n            /* \"#utility.yul\":1306:1384   */\n          tag_194\n          jump\t// in\n        tag_249:\n            /* \"#utility.yul\":1298:1384   */\n          swap1\n          pop\n            /* \"#utility.yul\":1078:1391   */\n          swap3\n          swap2\n          pop\n          pop\n          jump\t// out\n            /* \"#utility.yul\":1478:1595   */\n        tag_196:\n            /* \"#utility.yul\":1587:1588   */\n          0x00\n            /* \"#utility.yul\":1584:1585   */\n          dup1\n            /* \"#utility.yul\":1577:1589   */\n          revert\n            /* \"#utility.yul\":1724:1850   */\n        tag_198:\n            /* \"#utility.yul\":1761:1768   */\n          0x00\n            /* \"#utility.yul\":1801:1843   */\n          0xffffffffffffffffffffffffffffffffffffffff\n            /* \"#utility.yul\":1794:1799   */\n          dup3\n            /* \"#utility.yul\":1790:1844   */\n          and\n            /* \"#utility.yul\":1779:1844   */\n          swap1\n          pop\n            /* \"#utility.yul\":1724:1850   */\n          swap2\n          swap1\n          pop\n          jump\t// out\n            /* \"#utility.yul\":1856:1952   */\n        tag_199:\n            /* \"#utility.yul\":1893:1900   */\n          0x00\n            /* \"#utility.yul\":1922:1946   */\n          tag_255\n            /* \"#utility.yul\":1940:1945   */\n          dup3\n            /* \"#utility.yul\":1922:1946   */\n          tag_198\n          jump\t// in\n        tag_255:\n            /* \"#utility.yul\":1911:1946   */\n          swap1\n          pop\n            /* \"#utility.yul\":1856:1952   */\n          swap2\n          swap1\n          pop\n          jump\t// out\n            /* \"#utility.yul\":1958:2080   */\n        tag_200:\n            /* \"#utility.yul\":2031:2055   */\n          tag_257\n            /* \"#utility.yul\":2049:2054   */\n          dup2\n            /* \"#utility.yul\":2031:2055   */\n          tag_199\n          jump\t// in\n        tag_257:\n            /* \"#utility.yul\":2024:2029   */\n          dup2\n            /* \"#utility.yul\":2021:2056   */\n          eq\n            /* \"#utility.yul\":2011:2074   */\n          tag_258\n          jumpi\n            /* \"#utility.yul\":2070:2071   */\n          0x00\n            /* \"#utility.yul\":2067:2068   */\n          dup1\n            /* \"#utility.yul\":2060:2072   */\n          revert\n            /* \"#utility.yul\":2011:2074   */\n        tag_258:\n            /* \"#utility.yul\":1958:2080   */\n          pop\n          jump\t// out\n            /* \"#utility.yul\":2086:2225   */\n        tag_201:\n            /* \"#utility.yul\":2132:2137   */\n          0x00\n            /* \"#utility.yul\":2170:2176   */\n          dup2\n            /* \"#utility.yul\":2157:2177   */\n          calldataload\n            /* \"#utility.yul\":2148:2177   */\n          swap1\n          pop\n            /* \"#utility.yul\":2186:2219   */\n          tag_260\n            /* \"#utility.yul\":2213:2218   */\n          dup2\n            /* \"#utility.yul\":2186:2219   */\n          tag_200\n          jump\t// in\n        tag_260:\n            /* \"#utility.yul\":2086:2225   */\n          swap3\n          swap2\n          pop\n          pop\n          jump\t// out\n            /* \"#utility.yul\":2231:2308   */\n        tag_202:\n            /* \"#utility.yul\":2268:2275   */\n          0x00\n            /* \"#utility.yul\":2297:2302   */\n          dup2\n            /* \"#utility.yul\":2286:2302   */\n          swap1\n          pop\n            /* \"#utility.yul\":2231:2308   */\n          swap2\n          swap1\n          pop\n          jump\t// out\n            /* \"#utility.yul\":2314:2436   */\n        tag_203:\n            /* \"#utility.yul\":2387:2411   */\n          tag_263\n            /* \"#utility.yul\":2405:2410   */\n          dup2\n            /* \"#utility.yul\":2387:2411   */\n          tag_202\n          jump\t// in\n        tag_263:\n            /* \"#utility.yul\":2380:2385   */\n          dup2\n            /* \"#utility.yul\":2377:2412   */\n          eq\n            /* \"#utility.yul\":2367:2430   */\n          tag_264\n          jumpi\n            /* \"#utility.yul\":2426:2427   */\n          0x00\n            /* \"#utility.yul\":2423:2424   */\n          dup1\n            /* \"#utility.yul\":2416:2428   */\n          revert\n            /* \"#utility.yul\":2367:2430   */\n        tag_264:\n            /* \"#utility.yul\":2314:2436   */\n          pop\n          jump\t// out\n            /* \"#utility.yul\":2442:2581   */\n        tag_204:\n            /* \"#utility.yul\":2488:2493   */\n          0x00\n            /* \"#utility.yul\":2526:2532   */\n          dup2\n            /* \"#utility.yul\":2513:2533   */\n          calldataload\n            /* \"#utility.yul\":2504:2533   */\n          swap1\n          pop\n            /* \"#utility.yul\":2542:2575   */\n          tag_266\n            /* \"#utility.yul\":2569:2574   */\n          dup2\n            /* \"#utility.yul\":2542:2575   */\n          tag_203\n          jump\t// in\n        tag_266:\n            /* \"#utility.yul\":2442:2581   */\n          swap3\n          swap2\n          pop\n          pop\n          jump\t// out\n            /* \"#utility.yul\":2587:3061   */\n        tag_24:\n            /* \"#utility.yul\":2655:2661   */\n          0x00\n            /* \"#utility.yul\":2663:2669   */\n          dup1\n            /* \"#utility.yul\":2712:2714   */\n          0x40\n            /* \"#utility.yul\":2700:2709   */\n          dup4\n            /* \"#utility.yul\":2691:2698   */\n          dup6\n            /* \"#utility.yul\":2687:2710   */\n          sub\n            /* \"#utility.yul\":2683:2715   */\n          slt\n            /* \"#utility.yul\":2680:2799   */\n          iszero\n          tag_268\n          jumpi\n            /* \"#utility.yul\":2718:2797   */\n          tag_269\n          tag_196\n          jump\t// in\n        tag_269:\n            /* \"#utility.yul\":2680:2799   */\n        tag_268:\n            /* \"#utility.yul\":2838:2839   */\n          0x00\n            /* \"#utility.yul\":2863:2916   */\n          tag_270\n            /* \"#utility.yul\":2908:2915   */\n          dup6\n            /* \"#utility.yul\":2899:2905   */\n          dup3\n            /* \"#utility.yul\":2888:2897   */\n          dup7\n            /* \"#utility.yul\":2884:2906   */\n          add\n            /* \"#utility.yul\":2863:2916   */\n          tag_201\n          jump\t// in\n        tag_270:\n            /* \"#utility.yul\":2853:2916   */\n          swap3\n          pop\n            /* \"#utility.yul\":2809:2926   */\n          pop\n            /* \"#utility.yul\":2965:2967   */\n          0x20\n            /* \"#utility.yul\":2991:3044   */\n          tag_271\n            /* \"#utility.yul\":3036:3043   */\n          dup6\n            /* \"#utility.yul\":3027:3033   */\n          dup3\n            /* \"#utility.yul\":3016:3025   */\n          dup7\n            /* \"#utility.yul\":3012:3034   */\n          add\n            /* \"#utility.yul\":2991:3044   */\n          tag_204\n          jump\t// in\n        tag_271:\n            /* \"#utility.yul\":2981:3044   */\n          swap2\n          pop\n            /* \"#utility.yul\":2936:3054   */\n          pop\n            /* \"#utility.yul\":2587:3061   */\n          swap3\n          pop\n          swap3\n          swap1\n          pop\n          jump\t// out\n            /* \"#utility.yul\":3067:3157   */\n        tag_205:\n            /* \"#utility.yul\":3101:3108   */\n          0x00\n            /* \"#utility.yul\":3144:3149   */\n          dup2\n            /* \"#utility.yul\":3137:3150   */\n          iszero\n            /* \"#utility.yul\":3130:3151   */\n          iszero\n            /* \"#utility.yul\":3119:3151   */\n          swap1\n          pop\n            /* \"#utility.yul\":3067:3157   */\n          swap2\n          swap1\n          pop\n          jump\t// out\n            /* \"#utility.yul\":3163:3272   */\n        tag_206:\n            /* \"#utility.yul\":3244:3265   */\n          tag_274\n            /* \"#utility.yul\":3259:3264   */\n          dup2\n            /* \"#utility.yul\":3244:3265   */\n          tag_205\n          jump\t// in\n        tag_274:\n            /* \"#utility.yul\":3239:3242   */\n          dup3\n            /* \"#utility.yul\":3232:3266   */\n          mstore\n            /* \"#utility.yul\":3163:3272   */\n          pop\n          pop\n          jump\t// out\n            /* \"#utility.yul\":3278:3488   */\n        tag_27:\n            /* \"#utility.yul\":3365:3369   */\n          0x00\n            /* \"#utility.yul\":3403:3405   */\n          0x20\n            /* \"#utility.yul\":3392:3401   */\n          dup3\n            /* \"#utility.yul\":3388:3406   */\n          add\n            /* \"#utility.yul\":3380:3406   */\n          swap1\n          pop\n            /* \"#utility.yul\":3416:3481   */\n          tag_276\n            /* \"#utility.yul\":3478:3479   */\n          0x00\n            /* \"#utility.yul\":3467:3476   */\n          dup4\n            /* \"#utility.yul\":3463:3480   */\n          add\n            /* \"#utility.yul\":3454:3460   */\n          dup5\n            /* \"#utility.yul\":3416:3481   */\n          tag_206\n          jump\t// in\n        tag_276:\n            /* \"#utility.yul\":3278:3488   */\n          swap3\n          swap2\n          pop\n          pop\n          jump\t// out\n            /* \"#utility.yul\":3494:3612   */\n        tag_207:\n            /* \"#utility.yul\":3581:3605   */\n          tag_278\n            /* \"#utility.yul\":3599:3604   */\n          dup2\n            /* \"#utility.yul\":3581:3605   */\n          tag_202\n          jump\t// in\n        tag_278:\n            /* \"#utility.yul\":3576:3579   */\n          dup3\n            /* \"#utility.yul\":3569:3606   */\n          mstore\n            /* \"#utility.yul\":3494:3612   */\n          pop\n          pop\n          jump\t// out\n            /* \"#utility.yul\":3618:3840   */\n        tag_31:\n            /* \"#utility.yul\":3711:3715   */\n          0x00\n            /* \"#utility.yul\":3749:3751   */\n          0x20\n            /* \"#utility.yul\":3738:3747   */\n          dup3\n            /* \"#utility.yul\":3734:3752   */\n          add\n            /* \"#utility.yul\":3726:3752   */\n          swap1\n          pop\n            /* \"#utility.yul\":3762:3833   */\n          tag_280\n            /* \"#utility.yul\":3830:3831   */\n          0x00\n            /* \"#utility.yul\":3819:3828   */\n          dup4\n            /* \"#utility.yul\":3815:3832   */\n          add\n            /* \"#utility.yul\":3806:3812   */\n          dup5\n            /* \"#utility.yul\":3762:3833   */\n          tag_207\n          jump\t// in\n        tag_280:\n            /* \"#utility.yul\":3618:3840   */\n          swap3\n          swap2\n          pop\n          pop\n          jump\t// out\n            /* \"#utility.yul\":3846:4465   */\n        tag_34:\n            /* \"#utility.yul\":3923:3929   */\n          0x00\n            /* \"#utility.yul\":3931:3937   */\n          dup1\n            /* \"#utility.yul\":3939:3945   */\n          0x00\n            /* \"#utility.yul\":3988:3990   */\n          0x60\n            /* \"#utility.yul\":3976:3985   */\n          dup5\n            /* \"#utility.yul\":3967:3974   */\n          dup7\n            /* \"#utility.yul\":3963:3986   */\n          sub\n            /* \"#utility.yul\":3959:3991   */\n          slt\n            /* \"#utility.yul\":3956:4075   */\n          iszero\n          tag_282\n          jumpi\n            /* \"#utility.yul\":3994:4073   */\n          tag_283\n          tag_196\n          jump\t// in\n        tag_283:\n            /* \"#utility.yul\":3956:4075   */\n        tag_282:\n            /* \"#utility.yul\":4114:4115   */\n          0x00\n            /* \"#utility.yul\":4139:4192   */\n          tag_284\n            /* \"#utility.yul\":4184:4191   */\n          dup7\n            /* \"#utility.yul\":4175:4181   */\n          dup3\n            /* \"#utility.yul\":4164:4173   */\n          dup8\n            /* \"#utility.yul\":4160:4182   */\n          add\n            /* \"#utility.yul\":4139:4192   */\n          tag_201\n          jump\t// in\n        tag_284:\n            /* \"#utility.yul\":4129:4192   */\n          swap4\n          pop\n            /* \"#utility.yul\":4085:4202   */\n          pop\n            /* \"#utility.yul\":4241:4243   */\n          0x20\n            /* \"#utility.yul\":4267:4320   */\n          tag_285\n            /* \"#utility.yul\":4312:4319   */\n          dup7\n            /* \"#utility.yul\":4303:4309   */\n          dup3\n            /* \"#utility.yul\":4292:4301   */\n          dup8\n            /* \"#utility.yul\":4288:4310   */\n          add\n            /* \"#utility.yul\":4267:4320   */\n          tag_201\n          jump\t// in\n        tag_285:\n            /* \"#utility.yul\":4257:4320   */\n          swap3\n          pop\n            /* \"#utility.yul\":4212:4330   */\n          pop\n            /* \"#utility.yul\":4369:4371   */\n          0x40\n            /* \"#utility.yul\":4395:4448   */\n          tag_286\n            /* \"#utility.yul\":4440:4447   */\n          dup7\n            /* \"#utility.yul\":4431:4437   */\n          dup3\n            /* \"#utility.yul\":4420:4429   */\n          dup8\n            /* \"#utility.yul\":4416:4438   */\n          add\n            /* \"#utility.yul\":4395:4448   */\n          tag_204\n          jump\t// in\n        tag_286:\n            /* \"#utility.yul\":4385:4448   */\n          swap2\n          pop\n            /* \"#utility.yul\":4340:4458   */\n          pop\n            /* \"#utility.yul\":3846:4465   */\n          swap3\n          pop\n          swap3\n          pop\n          swap3\n          jump\t// out\n            /* \"#utility.yul\":4471:4557   */\n        tag_208:\n            /* \"#utility.yul\":4506:4513   */\n          0x00\n            /* \"#utility.yul\":4546:4550   */\n          0xff\n            /* \"#utility.yul\":4539:4544   */\n          dup3\n            /* \"#utility.yul\":4535:4551   */\n          and\n            /* \"#utility.yul\":4524:4551   */\n          swap1\n          pop\n            /* \"#utility.yul\":4471:4557   */\n          swap2\n          swap1\n          pop\n          jump\t// out\n            /* \"#utility.yul\":4563:4675   */\n        tag_209:\n            /* \"#utility.yul\":4646:4668   */\n          tag_289\n            /* \"#utility.yul\":4662:4667   */\n          dup2\n            /* \"#utility.yul\":4646:4668   */\n          tag_208\n          jump\t// in\n        tag_289:\n            /* \"#utility.yul\":4641:4644   */\n          dup3\n            /* \"#utility.yul\":4634:4669   */\n          mstore\n            /* \"#utility.yul\":4563:4675   */\n          pop\n          pop\n          jump\t// out\n            /* \"#utility.yul\":4681:4895   */\n        tag_40:\n            /* \"#utility.yul\":4770:4774   */\n          0x00\n            /* \"#utility.yul\":4808:4810   */\n          0x20\n            /* \"#utility.yul\":4797:4806   */\n          dup3\n            /* \"#utility.yul\":4793:4811   */\n          add\n            /* \"#utility.yul\":4785:4811   */\n          swap1\n          pop\n            /* \"#utility.yul\":4821:4888   */\n          tag_291\n            /* \"#utility.yul\":4885:4886   */\n          0x00\n            /* \"#utility.yul\":4874:4883   */\n          dup4\n            /* \"#utility.yul\":4870:4887   */\n          add\n            /* \"#utility.yul\":4861:4867   */\n          dup5\n            /* \"#utility.yul\":4821:4888   */\n          tag_209\n          jump\t// in\n        tag_291:\n            /* \"#utility.yul\":4681:4895   */\n          swap3\n          swap2\n          pop\n          pop\n          jump\t// out\n            /* \"#utility.yul\":4901:5230   */\n        tag_50:\n            /* \"#utility.yul\":4960:4966   */\n          0x00\n            /* \"#utility.yul\":5009:5011   */\n          0x20\n            /* \"#utility.yul\":4997:5006   */\n          dup3\n            /* \"#utility.yul\":4988:4995   */\n          dup5\n            /* \"#utility.yul\":4984:5007   */\n          sub\n            /* \"#utility.yul\":4980:5012   */\n          slt\n            /* \"#utility.yul\":4977:5096   */\n          iszero\n          tag_293\n          jumpi\n            /* \"#utility.yul\":5015:5094   */\n          tag_294\n          tag_196\n          jump\t// in\n        tag_294:\n            /* \"#utility.yul\":4977:5096   */\n        tag_293:\n            /* \"#utility.yul\":5135:5136   */\n          0x00\n            /* \"#utility.yul\":5160:5213   */\n          tag_295\n            /* \"#utility.yul\":5205:5212   */\n          dup5\n            /* \"#utility.yul\":5196:5202   */\n          dup3\n            /* \"#utility.yul\":5185:5194   */\n          dup6\n            /* \"#utility.yul\":5181:5203   */\n          add\n            /* \"#utility.yul\":5160:5213   */\n          tag_201\n          jump\t// in\n        tag_295:\n            /* \"#utility.yul\":5150:5213   */\n          swap2\n          pop\n            /* \"#utility.yul\":5106:5223   */\n          pop\n            /* \"#utility.yul\":4901:5230   */\n          swap3\n          swap2\n          pop\n          pop\n          jump\t// out\n            /* \"#utility.yul\":5236:5710   */\n        tag_69:\n            /* \"#utility.yul\":5304:5310   */\n          0x00\n            /* \"#utility.yul\":5312:5318   */\n          dup1\n            /* \"#utility.yul\":5361:5363   */\n          0x40\n            /* \"#utility.yul\":5349:5358   */\n          dup4\n            /* \"#utility.yul\":5340:5347   */\n          dup6\n            /* \"#utility.yul\":5336:5359   */\n          sub\n            /* \"#utility.yul\":5332:5364   */\n          slt\n            /* \"#utility.yul\":5329:5448   */\n          iszero\n          tag_297\n          jumpi\n            /* \"#utility.yul\":5367:5446   */\n          tag_298\n          tag_196\n          jump\t// in\n        tag_298:\n            /* \"#utility.yul\":5329:5448   */\n        tag_297:\n            /* \"#utility.yul\":5487:5488   */\n          0x00\n            /* \"#utility.yul\":5512:5565   */\n          tag_299\n            /* \"#utility.yul\":5557:5564   */\n          dup6\n            /* \"#utility.yul\":5548:5554   */\n          dup3\n            /* \"#utility.yul\":5537:5546   */\n          dup7\n            /* \"#utility.yul\":5533:5555   */\n          add\n            /* \"#utility.yul\":5512:5565   */\n          tag_201\n          jump\t// in\n        tag_299:\n            /* \"#utility.yul\":5502:5565   */\n          swap3\n          pop\n            /* \"#utility.yul\":5458:5575   */\n          pop\n            /* \"#utility.yul\":5614:5616   */\n          0x20\n            /* \"#utility.yul\":5640:5693   */\n          tag_300\n            /* \"#utility.yul\":5685:5692   */\n          dup6\n            /* \"#utility.yul\":5676:5682   */\n          dup3\n            /* \"#utility.yul\":5665:5674   */\n          dup7\n            /* \"#utility.yul\":5661:5683   */\n          add\n            /* \"#utility.yul\":5640:5693   */\n          tag_201\n          jump\t// in\n        tag_300:\n            /* \"#utility.yul\":5630:5693   */\n          swap2\n          pop\n            /* \"#utility.yul\":5585:5703   */\n          pop\n            /* \"#utility.yul\":5236:5710   */\n          swap3\n          pop\n          swap3\n          swap1\n          pop\n          jump\t// out\n            /* \"#utility.yul\":5716:5896   */\n        tag_210:\n            /* \"#utility.yul\":5764:5841   */\n          0x4e487b7100000000000000000000000000000000000000000000000000000000\n            /* \"#utility.yul\":5761:5762   */\n          0x00\n            /* \"#utility.yul\":5754:5842   */\n          mstore\n            /* \"#utility.yul\":5861:5865   */\n          0x22\n            /* \"#utility.yul\":5858:5859   */\n          0x04\n            /* \"#utility.yul\":5851:5866   */\n          mstore\n            /* \"#utility.yul\":5885:5889   */\n          0x24\n            /* \"#utility.yul\":5882:5883   */\n          0x00\n            /* \"#utility.yul\":5875:5890   */\n          revert\n            /* \"#utility.yul\":5902:6222   */\n        tag_74:\n            /* \"#utility.yul\":5946:5952   */\n          0x00\n            /* \"#utility.yul\":5983:5984   */\n          0x02\n            /* \"#utility.yul\":5977:5981   */\n          dup3\n            /* \"#utility.yul\":5973:5985   */\n          div\n            /* \"#utility.yul\":5963:5985   */\n          swap1\n          pop\n            /* \"#utility.yul\":6030:6031   */\n          0x01\n            /* \"#utility.yul\":6024:6028   */\n          dup3\n            /* \"#utility.yul\":6020:6032   */\n          and\n            /* \"#utility.yul\":6051:6069   */\n          dup1\n            /* \"#utility.yul\":6041:6122   */\n          tag_303\n          jumpi\n            /* \"#utility.yul\":6107:6111   */\n          0x7f\n            /* \"#utility.yul\":6099:6105   */\n          dup3\n            /* \"#utility.yul\":6095:6112   */\n          and\n            /* \"#utility.yul\":6085:6112   */\n          swap2\n          pop\n            /* \"#utility.yul\":6041:6122   */\n        tag_303:\n            /* \"#utility.yul\":6169:6171   */\n          0x20\n            /* \"#utility.yul\":6161:6167   */\n          dup3\n            /* \"#utility.yul\":6158:6172   */\n          lt\n            /* \"#utility.yul\":6138:6156   */\n          dup2\n            /* \"#utility.yul\":6135:6173   */\n          eq\n            /* \"#utility.yul\":6132:6216   */\n          iszero\n          tag_304\n          jumpi\n            /* \"#utility.yul\":6188:6206   */\n          tag_305\n          tag_210\n          jump\t// in\n        tag_305:\n            /* \"#utility.yul\":6132:6216   */\n        tag_304:\n            /* \"#utility.yul\":5953:6222   */\n          pop\n            /* \"#utility.yul\":5902:6222   */\n          swap2\n          swap1\n          pop\n          jump\t// out\n            /* \"#utility.yul\":6228:6391   */\n        tag_211:\n            /* \"#utility.yul\":6368:6383   */\n          0x4e6f207065726d697373696f6e00000000000000000000000000000000000000\n            /* \"#utility.yul\":6364:6365   */\n          0x00\n            /* \"#utility.yul\":6356:6362   */\n          dup3\n            /* \"#utility.yul\":6352:6366   */\n          add\n            /* \"#utility.yul\":6345:6384   */\n          mstore\n            /* \"#utility.yul\":6228:6391   */\n          pop\n          jump\t// out\n            /* \"#utility.yul\":6397:6763   */\n        tag_212:\n            /* \"#utility.yul\":6539:6542   */\n          0x00\n            /* \"#utility.yul\":6560:6627   */\n          tag_308\n            /* \"#utility.yul\":6624:6626   */\n          0x0d\n            /* \"#utility.yul\":6619:6622   */\n          dup4\n            /* \"#utility.yul\":6560:6627   */\n          tag_191\n          jump\t// in\n        tag_308:\n            /* \"#utility.yul\":6553:6627   */\n          swap2\n          pop\n            /* \"#utility.yul\":6636:6729   */\n          tag_309\n            /* \"#utility.yul\":6725:6728   */\n          dup3\n            /* \"#utility.yul\":6636:6729   */\n          tag_211\n          jump\t// in\n        tag_309:\n            /* \"#utility.yul\":6754:6756   */\n          0x20\n            /* \"#utility.yul\":6749:6752   */\n          dup3\n            /* \"#utility.yul\":6745:6757   */\n          add\n            /* \"#utility.yul\":6738:6757   */\n          swap1\n          pop\n            /* \"#utility.yul\":6397:6763   */\n          swap2\n          swap1\n          pop\n          jump\t// out\n            /* \"#utility.yul\":6769:7188   */\n        tag_88:\n            /* \"#utility.yul\":6935:6939   */\n          0x00\n            /* \"#utility.yul\":6973:6975   */\n          0x20\n            /* \"#utility.yul\":6962:6971   */\n          dup3\n            /* \"#utility.yul\":6958:6976   */\n          add\n            /* \"#utility.yul\":6950:6976   */\n          swap1\n          pop\n            /* \"#utility.yul\":7022:7031   */\n          dup2\n            /* \"#utility.yul\":7016:7020   */\n          dup2\n            /* \"#utility.yul\":7012:7032   */\n          sub\n            /* \"#utility.yul\":7008:7009   */\n          0x00\n            /* \"#utility.yul\":6997:7006   */\n          dup4\n            /* \"#utility.yul\":6993:7010   */\n          add\n            /* \"#utility.yul\":6986:7033   */\n          mstore\n            /* \"#utility.yul\":7050:7181   */\n          tag_311\n            /* \"#utility.yul\":7176:7180   */\n          dup2\n            /* \"#utility.yul\":7050:7181   */\n          tag_212\n          jump\t// in\n        tag_311:\n            /* \"#utility.yul\":7042:7181   */\n          swap1\n          pop\n            /* \"#utility.yul\":6769:7188   */\n          swap2\n          swap1\n          pop\n          jump\t// out\n            /* \"#utility.yul\":7194:7374   */\n        tag_213:\n            /* \"#utility.yul\":7242:7319   */\n          0x4e487b7100000000000000000000000000000000000000000000000000000000\n            /* \"#utility.yul\":7239:7240   */\n          0x00\n            /* \"#utility.yul\":7232:7320   */\n          mstore\n            /* \"#utility.yul\":7339:7343   */\n          0x11\n            /* \"#utility.yul\":7336:7337   */\n          0x04\n            /* \"#utility.yul\":7329:7344   */\n          mstore\n            /* \"#utility.yul\":7363:7367   */\n          0x24\n            /* \"#utility.yul\":7360:7361   */\n          0x00\n            /* \"#utility.yul\":7353:7368   */\n          revert\n            /* \"#utility.yul\":7380:7685   */\n        tag_101:\n            /* \"#utility.yul\":7420:7423   */\n          0x00\n            /* \"#utility.yul\":7439:7459   */\n          tag_314\n            /* \"#utility.yul\":7457:7458   */\n          dup3\n            /* \"#utility.yul\":7439:7459   */\n          tag_202\n          jump\t// in\n        tag_314:\n            /* \"#utility.yul\":7434:7459   */\n          swap2\n          pop\n            /* \"#utility.yul\":7473:7493   */\n          tag_315\n            /* \"#utility.yul\":7491:7492   */\n          dup4\n            /* \"#utility.yul\":7473:7493   */\n          tag_202\n          jump\t// in\n        tag_315:\n            /* \"#utility.yul\":7468:7493   */\n          swap3\n          pop\n            /* \"#utility.yul\":7627:7628   */\n          dup3\n            /* \"#utility.yul\":7559:7625   */\n          0xffffffffffffffffffffffffffffffffffffffffffffffffffffffffffffffff\n            /* \"#utility.yul\":7555:7629   */\n          sub\n            /* \"#utility.yul\":7552:7553   */\n          dup3\n            /* \"#utility.yul\":7549:7630   */\n          gt\n            /* \"#utility.yul\":7546:7653   */\n          iszero\n          tag_316\n          jumpi\n            /* \"#utility.yul\":7633:7651   */\n          tag_317\n          tag_213\n          jump\t// in\n        tag_317:\n            /* \"#utility.yul\":7546:7653   */\n        tag_316:\n            /* \"#utility.yul\":7677:7678   */\n          dup3\n            /* \"#utility.yul\":7674:7675   */\n          dup3\n            /* \"#utility.yul\":7670:7679   */\n          add\n            /* \"#utility.yul\":7663:7679   */\n          swap1\n          pop\n            /* \"#utility.yul\":7380:7685   */\n          swap3\n          swap2\n          pop\n          pop\n          jump\t// out\n            /* \"#utility.yul\":7691:7915   */\n        tag_214:\n            /* \"#utility.yul\":7831:7865   */\n          0x45524332303a2064656372656173656420616c6c6f77616e63652062656c6f77\n            /* \"#utility.yul\":7827:7828   */\n          0x00\n            /* \"#utility.yul\":7819:7825   */\n          dup3\n            /* \"#utility.yul\":7815:7829   */\n          add\n            /* \"#utility.yul\":7808:7866   */\n          mstore\n            /* \"#utility.yul\":7900:7907   */\n          0x207a65726f000000000000000000000000000000000000000000000000000000\n            /* \"#utility.yul\":7895:7897   */\n          0x20\n            /* \"#utility.yul\":7887:7893   */\n          dup3\n            /* \"#utility.yul\":7883:7898   */\n          add\n            /* \"#utility.yul\":7876:7908   */\n          mstore\n            /* \"#utility.yul\":7691:7915   */\n          pop\n          jump\t// out\n            /* \"#utility.yul\":7921:8287   */\n        tag_215:\n            /* \"#utility.yul\":8063:8066   */\n          0x00\n            /* \"#utility.yul\":8084:8151   */\n          tag_320\n            /* \"#utility.yul\":8148:8150   */\n          0x25\n            /* \"#utility.yul\":8143:8146   */\n          dup4\n            /* \"#utility.yul\":8084:8151   */\n          tag_191\n          jump\t// in\n        tag_320:\n            /* \"#utility.yul\":8077:8151   */\n          swap2\n          pop\n            /* \"#utility.yul\":8160:8253   */\n          tag_321\n            /* \"#utility.yul\":8249:8252   */\n          dup3\n            /* \"#utility.yul\":8160:8253   */\n          tag_214\n          jump\t// in\n        tag_321:\n            /* \"#utility.yul\":8278:8280   */\n          0x40\n            /* \"#utility.yul\":8273:8276   */\n          dup3\n            /* \"#utility.yul\":8269:8281   */\n          add\n            /* \"#utility.yul\":8262:8281   */\n          swap1\n          pop\n            /* \"#utility.yul\":7921:8287   */\n          swap2\n          swap1\n          pop\n          jump\t// out\n            /* \"#utility.yul\":8293:8712   */\n        tag_126:\n            /* \"#utility.yul\":8459:8463   */\n          0x00\n            /* \"#utility.yul\":8497:8499   */\n          0x20\n            /* \"#utility.yul\":8486:8495   */\n          dup3\n            /* \"#utility.yul\":8482:8500   */\n          add\n            /* \"#utility.yul\":8474:8500   */\n          swap1\n          pop\n            /* \"#utility.yul\":8546:8555   */\n          dup2\n            /* \"#utility.yul\":8540:8544   */\n          dup2\n            /* \"#utility.yul\":8536:8556   */\n          sub\n            /* \"#utility.yul\":8532:8533   */\n          0x00\n            /* \"#utility.yul\":8521:8530   */\n          dup4\n            /* \"#utility.yul\":8517:8534   */\n          add\n            /* \"#utility.yul\":8510:8557   */\n          mstore\n            /* \"#utility.yul\":8574:8705   */\n          tag_323\n            /* \"#utility.yul\":8700:8704   */\n          dup2\n            /* \"#utility.yul\":8574:8705   */\n          tag_215\n          jump\t// in\n        tag_323:\n            /* \"#utility.yul\":8566:8705   */\n          swap1\n          pop\n            /* \"#utility.yul\":8293:8712   */\n          swap2\n          swap1\n          pop\n          jump\t// out\n            /* \"#utility.yul\":8718:8941   */\n        tag_216:\n            /* \"#utility.yul\":8858:8892   */\n          0x45524332303a20617070726f76652066726f6d20746865207a65726f20616464\n            /* \"#utility.yul\":8854:8855   */\n          0x00\n            /* \"#utility.yul\":8846:8852   */\n          dup3\n            /* \"#utility.yul\":8842:8856   */\n          add\n            /* \"#utility.yul\":8835:8893   */\n          mstore\n            /* \"#utility.yul\":8927:8933   */\n          0x7265737300000000000000000000000000000000000000000000000000000000\n            /* \"#utility.yul\":8922:8924   */\n          0x20\n            /* \"#utility.yul\":8914:8920   */\n          dup3\n            /* \"#utility.yul\":8910:8925   */\n          add\n            /* \"#utility.yul\":8903:8934   */\n          mstore\n            /* \"#utility.yul\":8718:8941   */\n          pop\n          jump\t// out\n            /* \"#utility.yul\":8947:9313   */\n        tag_217:\n            /* \"#utility.yul\":9089:9092   */\n          0x00\n            /* \"#utility.yul\":9110:9177   */\n          tag_326\n            /* \"#utility.yul\":9174:9176   */\n          0x24\n            /* \"#utility.yul\":9169:9172   */\n          dup4\n            /* \"#utility.yul\":9110:9177   */\n          tag_191\n          jump\t// in\n        tag_326:\n            /* \"#utility.yul\":9103:9177   */\n          swap2\n          pop\n            /* \"#utility.yul\":9186:9279   */\n          tag_327\n            /* \"#utility.yul\":9275:9278   */\n          dup3\n            /* \"#utility.yul\":9186:9279   */\n          tag_216\n          jump\t// in\n        tag_327:\n            /* \"#utility.yul\":9304:9306   */\n          0x40\n            /* \"#utility.yul\":9299:9302   */\n          dup3\n            /* \"#utility.yul\":9295:9307   */\n          add\n            /* \"#utility.yul\":9288:9307   */\n          swap1\n          pop\n            /* \"#utility.yul\":8947:9313   */\n          swap2\n          swap1\n          pop\n          jump\t// out\n            /* \"#utility.yul\":9319:9738   */\n        tag_139:\n            /* \"#utility.yul\":9485:9489   */\n          0x00\n            /* \"#utility.yul\":9523:9525   */\n          0x20\n            /* \"#utility.yul\":9512:9521   */\n          dup3\n            /* \"#utility.yul\":9508:9526   */\n          add\n            /* \"#utility.yul\":9500:9526   */\n          swap1\n          pop\n            /* \"#utility.yul\":9572:9581   */\n          dup2\n            /* \"#utility.yul\":9566:9570   */\n          dup2\n            /* \"#utility.yul\":9562:9582   */\n          sub\n            /* \"#utility.yul\":9558:9559   */\n          0x00\n            /* \"#utility.yul\":9547:9556   */\n          dup4\n            /* \"#utility.yul\":9543:9560   */\n          add\n            /* \"#utility.yul\":9536:9583   */\n          mstore\n            /* \"#utility.yul\":9600:9731   */\n          tag_329\n            /* \"#utility.yul\":9726:9730   */\n          dup2\n            /* \"#utility.yul\":9600:9731   */\n          tag_217\n          jump\t// in\n        tag_329:\n            /* \"#utility.yul\":9592:9731   */\n          swap1\n          pop\n            /* \"#utility.yul\":9319:9738   */\n          swap2\n          swap1\n          pop\n          jump\t// out\n            /* \"#utility.yul\":9744:9965   */\n        tag_218:\n            /* \"#utility.yul\":9884:9918   */\n          0x45524332303a20617070726f766520746f20746865207a65726f206164647265\n            /* \"#utility.yul\":9880:9881   */\n          0x00\n            /* \"#utility.yul\":9872:9878   */\n          dup3\n            /* \"#utility.yul\":9868:9882   */\n          add\n            /* \"#utility.yul\":9861:9919   */\n          mstore\n            /* \"#utility.yul\":9953:9957   */\n          0x7373000000000000000000000000000000000000000000000000000000000000\n            /* \"#utility.yul\":9948:9950   */\n          0x20\n            /* \"#utility.yul\":9940:9946   */\n          dup3\n            /* \"#utility.yul\":9936:9951   */\n          add\n            /* \"#utility.yul\":9929:9958   */\n          mstore\n            /* \"#utility.yul\":9744:9965   */\n          pop\n          jump\t// out\n            /* \"#utility.yul\":9971:10337   */\n        tag_219:\n            /* \"#utility.yul\":10113:10116   */\n          0x00\n            /* \"#utility.yul\":10134:10201   */\n          tag_332\n            /* \"#utility.yul\":10198:10200   */\n          0x22\n            /* \"#utility.yul\":10193:10196   */\n          dup4\n            /* \"#utility.yul\":10134:10201   */\n          tag_191\n          jump\t// in\n        tag_332:\n            /* \"#utility.yul\":10127:10201   */\n          swap2\n          pop\n            /* \"#utility.yul\":10210:10303   */\n          tag_333\n            /* \"#utility.yul\":10299:10302   */\n          dup3\n            /* \"#utility.yul\":10210:10303   */\n          tag_218\n          jump\t// in\n        tag_333:\n            /* \"#utility.yul\":10328:10330   */\n          0x40\n            /* \"#utility.yul\":10323:10326   */\n          dup3\n            /* \"#utility.yul\":10319:10331   */\n          add\n            /* \"#utility.yul\":10312:10331   */\n          swap1\n          pop\n            /* \"#utility.yul\":9971:10337   */\n          swap2\n          swap1\n          pop\n          jump\t// out\n            /* \"#utility.yul\":10343:10762   */\n        tag_142:\n            /* \"#utility.yul\":10509:10513   */\n          0x00\n            /* \"#utility.yul\":10547:10549   */\n          0x20\n            /* \"#utility.yul\":10536:10545   */\n          dup3\n            /* \"#utility.yul\":10532:10550   */\n          add\n            /* \"#utility.yul\":10524:10550   */\n          swap1\n          pop\n            /* \"#utility.yul\":10596:10605   */\n          dup2\n            /* \"#utility.yul\":10590:10594   */\n          dup2\n            /* \"#utility.yul\":10586:10606   */\n          sub\n            /* \"#utility.yul\":10582:10583   */\n          0x00\n            /* \"#utility.yul\":10571:10580   */\n          dup4\n            /* \"#utility.yul\":10567:10584   */\n          add\n            /* \"#utility.yul\":10560:10607   */\n          mstore\n            /* \"#utility.yul\":10624:10755   */\n          tag_335\n            /* \"#utility.yul\":10750:10754   */\n          dup2\n            /* \"#utility.yul\":10624:10755   */\n          tag_219\n          jump\t// in\n        tag_335:\n            /* \"#utility.yul\":10616:10755   */\n          swap1\n          pop\n            /* \"#utility.yul\":10343:10762   */\n          swap2\n          swap1\n          pop\n          jump\t// out\n            /* \"#utility.yul\":10768:10947   */\n        tag_220:\n            /* \"#utility.yul\":10908:10939   */\n          0x45524332303a20696e73756666696369656e7420616c6c6f77616e6365000000\n            /* \"#utility.yul\":10904:10905   */\n          0x00\n            /* \"#utility.yul\":10896:10902   */\n          dup3\n            /* \"#utility.yul\":10892:10906   */\n          add\n            /* \"#utility.yul\":10885:10940   */\n          mstore\n            /* \"#utility.yul\":10768:10947   */\n          pop\n          jump\t// out\n            /* \"#utility.yul\":10953:11319   */\n        tag_221:\n            /* \"#utility.yul\":11095:11098   */\n          0x00\n            /* \"#utility.yul\":11116:11183   */\n          tag_338\n            /* \"#utility.yul\":11180:11182   */\n          0x1d\n            /* \"#utility.yul\":11175:11178   */\n          dup4\n            /* \"#utility.yul\":11116:11183   */\n          tag_191\n          jump\t// in\n        tag_338:\n            /* \"#utility.yul\":11109:11183   */\n          swap2\n          pop\n            /* \"#utility.yul\":11192:11285   */\n          tag_339\n            /* \"#utility.yul\":11281:11284   */\n          dup3\n            /* \"#utility.yul\":11192:11285   */\n          tag_220\n          jump\t// in\n        tag_339:\n            /* \"#utility.yul\":11310:11312   */\n          0x20\n            /* \"#utility.yul\":11305:11308   */\n          dup3\n            /* \"#utility.yul\":11301:11313   */\n          add\n            /* \"#utility.yul\":11294:11313   */\n          swap1\n          pop\n            /* \"#utility.yul\":10953:11319   */\n          swap2\n          swap1\n          pop\n          jump\t// out\n            /* \"#utility.yul\":11325:11744   */\n        tag_149:\n            /* \"#utility.yul\":11491:11495   */\n          0x00\n            /* \"#utility.yul\":11529:11531   */\n          0x20\n            /* \"#utility.yul\":11518:11527   */\n          dup3\n            /* \"#utility.yul\":11514:11532   */\n          add\n            /* \"#utility.yul\":11506:11532   */\n          swap1\n          pop\n            /* \"#utility.yul\":11578:11587   */\n          dup2\n            /* \"#utility.yul\":11572:11576   */\n          dup2\n            /* \"#utility.yul\":11568:11588   */\n          sub\n            /* \"#utility.yul\":11564:11565   */\n          0x00\n            /* \"#utility.yul\":11553:11562   */\n          dup4\n            /* \"#utility.yul\":11549:11566   */\n          add\n            /* \"#utility.yul\":11542:11589   */\n          mstore\n            /* \"#utility.yul\":11606:11737   */\n          tag_341\n            /* \"#utility.yul\":11732:11736   */\n          dup2\n            /* \"#utility.yul\":11606:11737   */\n          tag_221\n          jump\t// in\n        tag_341:\n            /* \"#utility.yul\":11598:11737   */\n          swap1\n          pop\n            /* \"#utility.yul\":11325:11744   */\n          swap2\n          swap1\n          pop\n          jump\t// out\n            /* \"#utility.yul\":11750:11974   */\n        tag_222:\n            /* \"#utility.yul\":11890:11924   */\n          0x45524332303a207472616e736665722066726f6d20746865207a65726f206164\n            /* \"#utility.yul\":11886:11887   */\n          0x00\n            /* \"#utility.yul\":11878:11884   */\n          dup3\n            /* \"#utility.yul\":11874:11888   */\n          add\n            /* \"#utility.yul\":11867:11925   */\n          mstore\n            /* \"#utility.yul\":11959:11966   */\n          0x6472657373000000000000000000000000000000000000000000000000000000\n            /* \"#utility.yul\":11954:11956   */\n          0x20\n            /* \"#utility.yul\":11946:11952   */\n          dup3\n            /* \"#utility.yul\":11942:11957   */\n          add\n            /* \"#utility.yul\":11935:11967   */\n          mstore\n            /* \"#utility.yul\":11750:11974   */\n          pop\n          jump\t// out\n            /* \"#utility.yul\":11980:12346   */\n        tag_223:\n            /* \"#utility.yul\":12122:12125   */\n          0x00\n            /* \"#utility.yul\":12143:12210   */\n          tag_344\n            /* \"#utility.yul\":12207:12209   */\n          0x25\n            /* \"#utility.yul\":12202:12205   */\n          dup4\n            /* \"#utility.yul\":12143:12210   */\n          tag_191\n          jump\t// in\n        tag_344:\n            /* \"#utility.yul\":12136:12210   */\n          swap2\n          pop\n            /* \"#utility.yul\":12219:12312   */\n          tag_345\n            /* \"#utility.yul\":12308:12311   */\n          dup3\n            /* \"#utility.yul\":12219:12312   */\n          tag_222\n          jump\t// in\n        tag_345:\n            /* \"#utility.yul\":12337:12339   */\n          0x40\n            /* \"#utility.yul\":12332:12335   */\n          dup3\n            /* \"#utility.yul\":12328:12340   */\n          add\n            /* \"#utility.yul\":12321:12340   */\n          swap1\n          pop\n            /* \"#utility.yul\":11980:12346   */\n          swap2\n          swap1\n          pop\n          jump\t// out\n            /* \"#utility.yul\":12352:12771   */\n        tag_154:\n            /* \"#utility.yul\":12518:12522   */\n          0x00\n            /* \"#utility.yul\":12556:12558   */\n          0x20\n            /* \"#utility.yul\":12545:12554   */\n          dup3\n            /* \"#utility.yul\":12541:12559   */\n          add\n            /* \"#utility.yul\":12533:12559   */\n          swap1\n          pop\n            /* \"#utility.yul\":12605:12614   */\n          dup2\n            /* \"#utility.yul\":12599:12603   */\n          dup2\n            /* \"#utility.yul\":12595:12615   */\n          sub\n            /* \"#utility.yul\":12591:12592   */\n          0x00\n            /* \"#utility.yul\":12580:12589   */\n          dup4\n            /* \"#utility.yul\":12576:12593   */\n          add\n            /* \"#utility.yul\":12569:12616   */\n          mstore\n            /* \"#utility.yul\":12633:12764   */\n          tag_347\n            /* \"#utility.yul\":12759:12763   */\n          dup2\n            /* \"#utility.yul\":12633:12764   */\n          tag_223\n          jump\t// in\n        tag_347:\n            /* \"#utility.yul\":12625:12764   */\n          swap1\n          pop\n            /* \"#utility.yul\":12352:12771   */\n          swap2\n          swap1\n          pop\n          jump\t// out\n            /* \"#utility.yul\":12777:12999   */\n        tag_224:\n            /* \"#utility.yul\":12917:12951   */\n          0x45524332303a207472616e7366657220746f20746865207a65726f2061646472\n            /* \"#utility.yul\":12913:12914   */\n          0x00\n            /* \"#utility.yul\":12905:12911   */\n          dup3\n            /* \"#utility.yul\":12901:12915   */\n          add\n            /* \"#utility.yul\":12894:12952   */\n          mstore\n            /* \"#utility.yul\":12986:12991   */\n          0x6573730000000000000000000000000000000000000000000000000000000000\n            /* \"#utility.yul\":12981:12983   */\n          0x20\n            /* \"#utility.yul\":12973:12979   */\n          dup3\n            /* \"#utility.yul\":12969:12984   */\n          add\n            /* \"#utility.yul\":12962:12992   */\n          mstore\n            /* \"#utility.yul\":12777:12999   */\n          pop\n          jump\t// out\n            /* \"#utility.yul\":13005:13371   */\n        tag_225:\n            /* \"#utility.yul\":13147:13150   */\n          0x00\n            /* \"#utility.yul\":13168:13235   */\n          tag_350\n            /* \"#utility.yul\":13232:13234   */\n          0x23\n            /* \"#utility.yul\":13227:13230   */\n          dup4\n            /* \"#utility.yul\":13168:13235   */\n          tag_191\n          jump\t// in\n        tag_350:\n            /* \"#utility.yul\":13161:13235   */\n          swap2\n          pop\n            /* \"#utility.yul\":13244:13337   */\n          tag_351\n            /* \"#utility.yul\":13333:13336   */\n          dup3\n            /* \"#utility.yul\":13244:13337   */\n          tag_224\n          jump\t// in\n        tag_351:\n            /* \"#utility.yul\":13362:13364   */\n          0x40\n            /* \"#utility.yul\":13357:13360   */\n          dup3\n            /* \"#utility.yul\":13353:13365   */\n          add\n            /* \"#utility.yul\":13346:13365   */\n          swap1\n          pop\n            /* \"#utility.yul\":13005:13371   */\n          swap2\n          swap1\n          pop\n          jump\t// out\n            /* \"#utility.yul\":13377:13796   */\n        tag_157:\n            /* \"#utility.yul\":13543:13547   */\n          0x00\n            /* \"#utility.yul\":13581:13583   */\n          0x20\n            /* \"#utility.yul\":13570:13579   */\n          dup3\n            /* \"#utility.yul\":13566:13584   */\n          add\n            /* \"#utility.yul\":13558:13584   */\n          swap1\n          pop\n            /* \"#utility.yul\":13630:13639   */\n          dup2\n            /* \"#utility.yul\":13624:13628   */\n          dup2\n            /* \"#utility.yul\":13620:13640   */\n          sub\n            /* \"#utility.yul\":13616:13617   */\n          0x00\n            /* \"#utility.yul\":13605:13614   */\n          dup4\n            /* \"#utility.yul\":13601:13618   */\n          add\n            /* \"#utility.yul\":13594:13641   */\n          mstore\n            /* \"#utility.yul\":13658:13789   */\n          tag_353\n            /* \"#utility.yul\":13784:13788   */\n          dup2\n            /* \"#utility.yul\":13658:13789   */\n          tag_225\n          jump\t// in\n        tag_353:\n            /* \"#utility.yul\":13650:13789   */\n          swap1\n          pop\n            /* \"#utility.yul\":13377:13796   */\n          swap2\n          swap1\n          pop\n          jump\t// out\n            /* \"#utility.yul\":13802:14027   */\n        tag_226:\n            /* \"#utility.yul\":13942:13976   */\n          0x45524332303a207472616e7366657220616d6f756e7420657863656564732062\n            /* \"#utility.yul\":13938:13939   */\n          0x00\n            /* \"#utility.yul\":13930:13936   */\n          dup3\n            /* \"#utility.yul\":13926:13940   */\n          add\n            /* \"#utility.yul\":13919:13977   */\n          mstore\n            /* \"#utility.yul\":14011:14019   */\n          0x616c616e63650000000000000000000000000000000000000000000000000000\n            /* \"#utility.yul\":14006:14008   */\n          0x20\n            /* \"#utility.yul\":13998:14004   */\n          dup3\n            /* \"#utility.yul\":13994:14009   */\n          add\n            /* \"#utility.yul\":13987:14020   */\n          mstore\n            /* \"#utility.yul\":13802:14027   */\n          pop\n          jump\t// out\n            /* \"#utility.yul\":14033:14399   */\n        tag_227:\n            /* \"#utility.yul\":14175:14178   */\n          0x00\n            /* \"#utility.yul\":14196:14263   */\n          tag_356\n            /* \"#utility.yul\":14260:14262   */\n          0x26\n            /* \"#utility.yul\":14255:14258   */\n          dup4\n            /* \"#utility.yul\":14196:14263   */\n          tag_191\n          jump\t// in\n        tag_356:\n            /* \"#utility.yul\":14189:14263   */\n          swap2\n          pop\n            /* \"#utility.yul\":14272:14365   */\n          tag_357\n            /* \"#utility.yul\":14361:14364   */\n          dup3\n            /* \"#utility.yul\":14272:14365   */\n          tag_226\n          jump\t// in\n        tag_357:\n            /* \"#utility.yul\":14390:14392   */\n          0x40\n            /* \"#utility.yul\":14385:14388   */\n          dup3\n            /* \"#utility.yul\":14381:14393   */\n          add\n            /* \"#utility.yul\":14374:14393   */\n          swap1\n          pop\n            /* \"#utility.yul\":14033:14399   */\n          swap2\n          swap1\n          pop\n          jump\t// out\n            /* \"#utility.yul\":14405:14824   */\n        tag_162:\n            /* \"#utility.yul\":14571:14575   */\n          0x00\n            /* \"#utility.yul\":14609:14611   */\n          0x20\n            /* \"#utility.yul\":14598:14607   */\n          dup3\n            /* \"#utility.yul\":14594:14612   */\n          add\n            /* \"#utility.yul\":14586:14612   */\n          swap1\n          pop\n            /* \"#utility.yul\":14658:14667   */\n          dup2\n            /* \"#utility.yul\":14652:14656   */\n          dup2\n            /* \"#utility.yul\":14648:14668   */\n          sub\n            /* \"#utility.yul\":14644:14645   */\n          0x00\n            /* \"#utility.yul\":14633:14642   */\n          dup4\n            /* \"#utility.yul\":14629:14646   */\n          add\n            /* \"#utility.yul\":14622:14669   */\n          mstore\n            /* \"#utility.yul\":14686:14817   */\n          tag_359\n            /* \"#utility.yul\":14812:14816   */\n          dup2\n            /* \"#utility.yul\":14686:14817   */\n          tag_227\n          jump\t// in\n        tag_359:\n            /* \"#utility.yul\":14678:14817   */\n          swap1\n          pop\n            /* \"#utility.yul\":14405:14824   */\n          swap2\n          swap1\n          pop\n          jump\t// out\n            /* \"#utility.yul\":14830:15011   */\n        tag_228:\n            /* \"#utility.yul\":14970:15003   */\n          0x45524332303a206d696e7420746f20746865207a65726f206164647265737300\n            /* \"#utility.yul\":14966:14967   */\n          0x00\n            /* \"#utility.yul\":14958:14964   */\n          dup3\n            /* \"#utility.yul\":14954:14968   */\n          add\n            /* \"#utility.yul\":14947:15004   */\n          mstore\n            /* \"#utility.yul\":14830:15011   */\n          pop\n          jump\t// out\n            /* \"#utility.yul\":15017:15383   */\n        tag_229:\n            /* \"#utility.yul\":15159:15162   */\n          0x00\n            /* \"#utility.yul\":15180:15247   */\n          tag_362\n            /* \"#utility.yul\":15244:15246   */\n          0x1f\n            /* \"#utility.yul\":15239:15242   */\n          dup4\n            /* \"#utility.yul\":15180:15247   */\n          tag_191\n          jump\t// in\n        tag_362:\n            /* \"#utility.yul\":15173:15247   */\n          swap2\n          pop\n            /* \"#utility.yul\":15256:15349   */\n          tag_363\n            /* \"#utility.yul\":15345:15348   */\n          dup3\n            /* \"#utility.yul\":15256:15349   */\n          tag_228\n          jump\t// in\n        tag_363:\n            /* \"#utility.yul\":15374:15376   */\n          0x20\n            /* \"#utility.yul\":15369:15372   */\n          dup3\n            /* \"#utility.yul\":15365:15377   */\n          add\n            /* \"#utility.yul\":15358:15377   */\n          swap1\n          pop\n            /* \"#utility.yul\":15017:15383   */\n          swap2\n          swap1\n          pop\n          jump\t// out\n            /* \"#utility.yul\":15389:15808   */\n        tag_170:\n            /* \"#utility.yul\":15555:15559   */\n          0x00\n            /* \"#utility.yul\":15593:15595   */\n          0x20\n            /* \"#utility.yul\":15582:15591   */\n          dup3\n            /* \"#utility.yul\":15578:15596   */\n          add\n            /* \"#utility.yul\":15570:15596   */\n          swap1\n          pop\n            /* \"#utility.yul\":15642:15651   */\n          dup2\n            /* \"#utility.yul\":15636:15640   */\n          dup2\n            /* \"#utility.yul\":15632:15652   */\n          sub\n            /* \"#utility.yul\":15628:15629   */\n          0x00\n            /* \"#utility.yul\":15617:15626   */\n          dup4\n            /* \"#utility.yul\":15613:15630   */\n          add\n            /* \"#utility.yul\":15606:15653   */\n          mstore\n            /* \"#utility.yul\":15670:15801   */\n          tag_365\n            /* \"#utility.yul\":15796:15800   */\n          dup2\n            /* \"#utility.yul\":15670:15801   */\n          tag_229\n          jump\t// in\n        tag_365:\n            /* \"#utility.yul\":15662:15801   */\n          swap1\n          pop\n            /* \"#utility.yul\":15389:15808   */\n          swap2\n          swap1\n          pop\n          jump\t// out\n            /* \"#utility.yul\":15814:16034   */\n        tag_230:\n            /* \"#utility.yul\":15954:15988   */\n          0x45524332303a206275726e2066726f6d20746865207a65726f20616464726573\n            /* \"#utility.yul\":15950:15951   */\n          0x00\n            /* \"#utility.yul\":15942:15948   */\n          dup3\n            /* \"#utility.yul\":15938:15952   */\n          add\n            /* \"#utility.yul\":15931:15989   */\n          mstore\n            /* \"#utility.yul\":16023:16026   */\n          0x7300000000000000000000000000000000000000000000000000000000000000\n            /* \"#utility.yul\":16018:16020   */\n          0x20\n            /* \"#utility.yul\":16010:16016   */\n          dup3\n            /* \"#utility.yul\":16006:16021   */\n          add\n            /* \"#utility.yul\":15999:16027   */\n          mstore\n            /* \"#utility.yul\":15814:16034   */\n          pop\n          jump\t// out\n            /* \"#utility.yul\":16040:16406   */\n        tag_231:\n            /* \"#utility.yul\":16182:16185   */\n          0x00\n            /* \"#utility.yul\":16203:16270   */\n          tag_368\n            /* \"#utility.yul\":16267:16269   */\n          0x21\n            /* \"#utility.yul\":16262:16265   */\n          dup4\n            /* \"#utility.yul\":16203:16270   */\n          tag_191\n          jump\t// in\n        tag_368:\n            /* \"#utility.yul\":16196:16270   */\n          swap2\n          pop\n            /* \"#utility.yul\":16279:16372   */\n          tag_369\n            /* \"#utility.yul\":16368:16371   */\n          dup3\n            /* \"#utility.yul\":16279:16372   */\n          tag_230\n          jump\t// in\n        tag_369:\n            /* \"#utility.yul\":16397:16399   */\n          0x40\n            /* \"#utility.yul\":16392:16395   */\n          dup3\n            /* \"#utility.yul\":16388:16400   */\n          add\n            /* \"#utility.yul\":16381:16400   */\n          swap1\n          pop\n            /* \"#utility.yul\":16040:16406   */\n          swap2\n          swap1\n          pop\n          jump\t// out\n            /* \"#utility.yul\":16412:16831   */\n        tag_179:\n            /* \"#utility.yul\":16578:16582   */\n          0x00\n            /* \"#utility.yul\":16616:16618   */\n          0x20\n            /* \"#utility.yul\":16605:16614   */\n          dup3\n            /* \"#utility.yul\":16601:16619   */\n          add\n            /* \"#utility.yul\":16593:16619   */\n          swap1\n          pop\n            /* \"#utility.yul\":16665:16674   */\n          dup2\n            /* \"#utility.yul\":16659:16663   */\n          dup2\n            /* \"#utility.yul\":16655:16675   */\n          sub\n            /* \"#utility.yul\":16651:16652   */\n          0x00\n            /* \"#utility.yul\":16640:16649   */\n          dup4\n            /* \"#utility.yul\":16636:16653   */\n          add\n            /* \"#utility.yul\":16629:16676   */\n          mstore\n            /* \"#utility.yul\":16693:16824   */\n          tag_371\n            /* \"#utility.yul\":16819:16823   */\n          dup2\n            /* \"#utility.yul\":16693:16824   */\n          tag_231\n          jump\t// in\n        tag_371:\n            /* \"#utility.yul\":16685:16824   */\n          swap1\n          pop\n            /* \"#utility.yul\":16412:16831   */\n          swap2\n          swap1\n          pop\n          jump\t// out\n            /* \"#utility.yul\":16837:17058   */\n        tag_232:\n            /* \"#utility.yul\":16977:17011   */\n          0x45524332303a206275726e20616d6f756e7420657863656564732062616c616e\n            /* \"#utility.yul\":16973:16974   */\n          0x00\n            /* \"#utility.yul\":16965:16971   */\n          dup3\n            /* \"#utility.yul\":16961:16975   */\n          add\n            /* \"#utility.yul\":16954:17012   */\n          mstore\n            /* \"#utility.yul\":17046:17050   */\n          0x6365000000000000000000000000000000000000000000000000000000000000\n            /* \"#utility.yul\":17041:17043   */\n          0x20\n            /* \"#utility.yul\":17033:17039   */\n          dup3\n            /* \"#utility.yul\":17029:17044   */\n          add\n            /* \"#utility.yul\":17022:17051   */\n          mstore\n            /* \"#utility.yul\":16837:17058   */\n          pop\n          jump\t// out\n            /* \"#utility.yul\":17064:17430   */\n        tag_233:\n            /* \"#utility.yul\":17206:17209   */\n          0x00\n            /* \"#utility.yul\":17227:17294   */\n          tag_374\n            /* \"#utility.yul\":17291:17293   */\n          0x22\n            /* \"#utility.yul\":17286:17289   */\n          dup4\n            /* \"#utility.yul\":17227:17294   */\n          tag_191\n          jump\t// in\n        tag_374:\n            /* \"#utility.yul\":17220:17294   */\n          swap2\n          pop\n            /* \"#utility.yul\":17303:17396   */\n          tag_375\n            /* \"#utility.yul\":17392:17395   */\n          dup3\n            /* \"#utility.yul\":17303:17396   */\n          tag_232\n          jump\t// in\n        tag_375:\n            /* \"#utility.yul\":17421:17423   */\n          0x40\n            /* \"#utility.yul\":17416:17419   */\n          dup3\n            /* \"#utility.yul\":17412:17424   */\n          add\n            /* \"#utility.yul\":17405:17424   */\n          swap1\n          pop\n            /* \"#utility.yul\":17064:17430   */\n          swap2\n          swap1\n          pop\n          jump\t// out\n            /* \"#utility.yul\":17436:17855   */\n        tag_183:\n            /* \"#utility.yul\":17602:17606   */\n          0x00\n            /* \"#utility.yul\":17640:17642   */\n          0x20\n            /* \"#utility.yul\":17629:17638   */\n          dup3\n            /* \"#utility.yul\":17625:17643   */\n          add\n            /* \"#utility.yul\":17617:17643   */\n          swap1\n          pop\n            /* \"#utility.yul\":17689:17698   */\n          dup2\n            /* \"#utility.yul\":17683:17687   */\n          dup2\n            /* \"#utility.yul\":17679:17699   */\n          sub\n            /* \"#utility.yul\":17675:17676   */\n          0x00\n            /* \"#utility.yul\":17664:17673   */\n          dup4\n            /* \"#utility.yul\":17660:17677   */\n          add\n            /* \"#utility.yul\":17653:17700   */\n          mstore\n            /* \"#utility.yul\":17717:17848   */\n          tag_377\n            /* \"#utility.yul\":17843:17847   */\n          dup2\n            /* \"#utility.yul\":17717:17848   */\n          tag_233\n          jump\t// in\n        tag_377:\n            /* \"#utility.yul\":17709:17848   */\n          swap1\n          pop\n            /* \"#utility.yul\":17436:17855   */\n          swap2\n          swap1\n          pop\n          jump\t// out\n            /* \"#utility.yul\":17861:18052   */\n        tag_185:\n            /* \"#utility.yul\":17901:17905   */\n          0x00\n            /* \"#utility.yul\":17921:17941   */\n          tag_379\n            /* \"#utility.yul\":17939:17940   */\n          dup3\n            /* \"#utility.yul\":17921:17941   */\n          tag_202\n          jump\t// in\n        tag_379:\n            /* \"#utility.yul\":17916:17941   */\n          swap2\n          pop\n            /* \"#utility.yul\":17955:17975   */\n          tag_380\n            /* \"#utility.yul\":17973:17974   */\n          dup4\n            /* \"#utility.yul\":17955:17975   */\n          tag_202\n          jump\t// in\n        tag_380:\n            /* \"#utility.yul\":17950:17975   */\n          swap3\n          pop\n            /* \"#utility.yul\":17994:17995   */\n          dup3\n            /* \"#utility.yul\":17991:17992   */\n          dup3\n            /* \"#utility.yul\":17988:17996   */\n          lt\n            /* \"#utility.yul\":17985:18019   */\n          iszero\n          tag_381\n          jumpi\n            /* \"#utility.yul\":17999:18017   */\n          tag_382\n          tag_213\n          jump\t// in\n        tag_382:\n            /* \"#utility.yul\":17985:18019   */\n        tag_381:\n            /* \"#utility.yul\":18044:18045   */\n          dup3\n            /* \"#utility.yul\":18041:18042   */\n          dup3\n            /* \"#utility.yul\":18037:18046   */\n          sub\n            /* \"#utility.yul\":18029:18046   */\n          swap1\n          pop\n            /* \"#utility.yul\":17861:18052   */\n          swap3\n          swap2\n          pop\n          pop\n          jump\t// out\n\n        auxdata: 0xa264697066735822122034484d5b3685a88b0590eea9c19c3e829b0bab4fd362d630320115b4b9db67cd64736f6c634300080a0033\n    }\n}\n",
    "bytecode": {
      "linkReferences": {},
      "object": "60a06040523480156200001157600080fd5b503373ffffffffffffffffffffffffffffffffffffffff1660808173ffffffffffffffffffffffffffffffffffffffff1681525050604051620000549062000110565b6200005f906200027f565b604051809103906000f0801580156200007c573d6000803e3d6000fd5b506000806101000a81548173ffffffffffffffffffffffffffffffffffffffff021916908373ffffffffffffffffffffffffffffffffffffffff1602179055506040518060400160405280600181526020017f300000000000000000000000000000000000000000000000000000000000000081525060039080519060200190620001099291906200011e565b506200031b565b611e948062002eb483390190565b8280546200012c90620002e5565b90600052602060002090601f0160209004810192826200015057600085556200019c565b82601f106200016b57805160ff19168380011785556200019c565b828001600101855582156200019c579182015b828111156200019b5782518255916020019190600101906200017e565b5b509050620001ab9190620001af565b5090565b5b80821115620001ca576000816000905550600101620001b0565b5090565b600082825260208201905092915050565b7f52656b7300000000000000000000000000000000000000000000000000000000600082015250565b600062000217600483620001ce565b91506200022482620001df565b602082019050919050565b7f5200000000000000000000000000000000000000000000000000000000000000600082015250565b600062000267600183620001ce565b915062000274826200022f565b602082019050919050565b600060408201905081810360008301526200029a8162000208565b90508181036020830152620002af8162000258565b9050919050565b7f4e487b7100000000000000000000000000000000000000000000000000000000600052602260045260246000fd5b60006002820490506001821680620002fe57607f821691505b60208210811415620003155762000314620002b6565b5b50919050565b608051612b5a6200035a600039600081816103e9015281816107600152818161103201528181611339015281816118050152611b260152612b5a6000f3fe608060405234801561001057600080fd5b50600436106100ea5760003560e01c806359f978011161008c578063bfef185111610066578063bfef185114610239578063d09cdac114610255578063d6a16afa14610271578063f1e6fe87146102a1576100ea565b806359f97801146101cf578063639147af146101ed5780636b5f35c214610209576100ea565b8063112e4143116100c8578063112e4143146101475780631c17dee8146101635780632f435b3f146101815780633d1103f41461019f576100ea565b806305e5e5a3146100ef578063084598501461010d57806309a7a00614610129575b600080fd5b6100f76102bd565b6040516101049190611f73565b60405180910390f35b610127600480360381019061012291906121d5565b6103e7565b005b610131610685565b60405161013e9190612368565b60405180910390f35b610161600480360381019061015c919061238a565b61075e565b005b61016b610bdc565b604051610178919061241d565b60405180910390f35b610189610c6e565b6040516101969190612507565b60405180910390f35b6101b960048036038101906101b4919061238a565b610e02565b6040516101c69190612538565b60405180910390f35b6101d7610f99565b6040516101e49190612538565b60405180910390f35b6102076004803603810190610202919061238a565b611030565b005b610223600480360381019061021e919061238a565b6110d8565b6040516102309190612368565b60405180910390f35b610253600480360381019061024e9190612553565b611285565b005b61026f600480360381019061026a9190612553565b611751565b005b61028b6004803603810190610286919061238a565b611a26565b60405161029891906125da565b60405180910390f35b6102bb60048036038101906102b6919061238a565b611b24565b005b60606000600280549050905060008167ffffffffffffffff8111156102e5576102e4611fbf565b5b6040519080825280602002602001820160405280156103135781602001602082028036833780820191505090505b50905060005b828110156103de57600160028281548110610337576103366125f5565b5b9060005260206000200160405161034e9190612724565b908152602001604051809103902060000160009054906101000a900473ffffffffffffffffffffffffffffffffffffffff16828281518110610393576103926125f5565b5b602002602001019073ffffffffffffffffffffffffffffffffffffffff16908173ffffffffffffffffffffffffffffffffffffffff1681525050806103d79061276a565b9050610319565b50809250505090565b7f000000000000000000000000000000000000000000000000000000000000000073ffffffffffffffffffffffffffffffffffffffff163373ffffffffffffffffffffffffffffffffffffffff1614610475576040517f08c379a000000000000000000000000000000000000000000000000000000000815260040161046c906127ff565b60405180910390fd5b60005b815181101561068157600073ffffffffffffffffffffffffffffffffffffffff1660018383815181106104ae576104ad6125f5565b5b60200260200101516040516104c39190612850565b908152602001604051809103902060000160009054906101000a900473ffffffffffffffffffffffffffffffffffffffff1673ffffffffffffffffffffffffffffffffffffffff161415610670576000828281518110610526576105256125f5565b5b602002602001015160405160200161053e9190612850565b6040516020818303038152906040528051906020012060601c905080600184848151811061056f5761056e6125f5565b5b60200260200101516040516105849190612850565b908152602001604051809103902060000160006101000a81548173ffffffffffffffffffffffffffffffffffffffff021916908373ffffffffffffffffffffffffffffffffffffffff16021790555060028054905060018484815181106105ee576105ed6125f5565b5b60200260200101516040516106039190612850565b908152602001604051809103902060010181905550600283838151811061062d5761062c6125f5565b5b602002602001015190806001815401808255809150506001900390600052602060002001600090919091909150908051906020019061066d929190611d5b565b50505b8061067a9061276a565b9050610478565b5050565b60606002805480602002602001604051908101604052809291908181526020016000905b828210156107555783829060005260206000200180546106c890612653565b80601f01602080910402602001604051908101604052809291908181526020018280546106f490612653565b80156107415780601f1061071657610100808354040283529160200191610741565b820191906000526020600020905b81548152906001019060200180831161072457829003601f168201915b5050505050815260200190600101906106a9565b50505050905090565b7f000000000000000000000000000000000000000000000000000000000000000073ffffffffffffffffffffffffffffffffffffffff163373ffffffffffffffffffffffffffffffffffffffff16146107ec576040517f08c379a00000000000000000000000000000000000000000000000000000000081526004016107e3906127ff565b60405180910390fd5b80600073ffffffffffffffffffffffffffffffffffffffff166001826040516108159190612850565b908152602001604051809103902060000160009054906101000a900473ffffffffffffffffffffffffffffffffffffffff1673ffffffffffffffffffffffffffffffffffffffff16141561089e576040517f08c379a0000000000000000000000000000000000000000000000000000000008152600401610895906128d9565b60405180910390fd5b60006001836040516108b09190612850565b908152602001604051809103902060000160009054906101000a900473ffffffffffffffffffffffffffffffffffffffff16905060008054906101000a900473ffffffffffffffffffffffffffffffffffffffff1673ffffffffffffffffffffffffffffffffffffffff16639dc29fac8260008054906101000a900473ffffffffffffffffffffffffffffffffffffffff1673ffffffffffffffffffffffffffffffffffffffff166370a08231856040518263ffffffff1660e01b815260040161097a91906125da565b602060405180830381865afa158015610997573d6000803e3d6000fd5b505050506040513d601f19601f820116820180604052508101906109bb9190612925565b6040518363ffffffff1660e01b81526004016109d8929190612952565b600060405180830381600087803b1580156109f257600080fd5b505af1158015610a06573d6000803e3d6000fd5b505050506000600184604051610a1c9190612850565b9081526020016040518091039020600101549050600060026001600280549050610a46919061297b565b81548110610a5757610a566125f5565b5b906000526020600020018054610a6c90612653565b80601f0160208091040260200160405190810160405280929190818152602001828054610a9890612653565b8015610ae55780601f10610aba57610100808354040283529160200191610ae5565b820191906000526020600020905b815481529060010190602001808311610ac857829003601f168201915b505050505090508060028381548110610b0157610b006125f5565b5b906000526020600020019080519060200190610b1e929190611d5b565b5081600182604051610b309190612850565b9081526020016040518091039020600101819055506002805480610b5757610b566129af565b5b600190038181906000526020600020016000610b739190611de1565b9055600185604051610b859190612850565b9081526020016040518091039020600080820160006101000a81549073ffffffffffffffffffffffffffffffffffffffff02191690556001820160009055600382016000610bd39190611e21565b50505050505050565b606060038054610beb90612653565b80601f0160208091040260200160405190810160405280929190818152602001828054610c1790612653565b8015610c645780601f10610c3957610100808354040283529160200191610c64565b820191906000526020600020905b815481529060010190602001808311610c4757829003601f168201915b5050505050905090565b6060600060028054905067ffffffffffffffff811115610c9157610c90611fbf565b5b604051908082528060200260200182016040528015610cbf5781602001602082028036833780820191505090505b50905060005b600280549050811015610dfa5760008054906101000a900473ffffffffffffffffffffffffffffffffffffffff1673ffffffffffffffffffffffffffffffffffffffff166370a08231600160028481548110610d2457610d236125f5565b5b90600052602060002001604051610d3b9190612724565b908152602001604051809103902060000160009054906101000a900473ffffffffffffffffffffffffffffffffffffffff166040518263ffffffff1660e01b8152600401610d8991906125da565b602060405180830381865afa158015610da6573d6000803e3d6000fd5b505050506040513d601f19601f82011682018060405250810190610dca9190612925565b828281518110610ddd57610ddc6125f5565b5b60200260200101818152505080610df39061276a565b9050610cc5565b508091505090565b600081600073ffffffffffffffffffffffffffffffffffffffff16600182604051610e2d9190612850565b908152602001604051809103902060000160009054906101000a900473ffffffffffffffffffffffffffffffffffffffff1673ffffffffffffffffffffffffffffffffffffffff161415610eb6576040517f08c379a0000000000000000000000000000000000000000000000000000000008152600401610ead906128d9565b60405180910390fd5b60008054906101000a900473ffffffffffffffffffffffffffffffffffffffff1673ffffffffffffffffffffffffffffffffffffffff166370a08231600185604051610f029190612850565b908152602001604051809103902060000160009054906101000a900473ffffffffffffffffffffffffffffffffffffffff166040518263ffffffff1660e01b8152600401610f5091906125da565b602060405180830381865afa158015610f6d573d6000803e3d6000fd5b505050506040513d601f19601f82011682018060405250810190610f919190612925565b915050919050565b60008060009054906101000a900473ffffffffffffffffffffffffffffffffffffffff1673ffffffffffffffffffffffffffffffffffffffff166318160ddd6040518163ffffffff1660e01b8152600401602060405180830381865afa158015611007573d6000803e3d6000fd5b505050506040513d601f19601f8201168201806040525081019061102b9190612925565b905090565b7f000000000000000000000000000000000000000000000000000000000000000073ffffffffffffffffffffffffffffffffffffffff163373ffffffffffffffffffffffffffffffffffffffff16146110be576040517f08c379a00000000000000000000000000000000000000000000000000000000081526004016110b5906127ff565b60405180910390fd5b80600390805190602001906110d4929190611d5b565b5050565b606081600073ffffffffffffffffffffffffffffffffffffffff166001826040516111039190612850565b908152602001604051809103902060000160009054906101000a900473ffffffffffffffffffffffffffffffffffffffff1673ffffffffffffffffffffffffffffffffffffffff16141561118c576040517f08c379a0000000000000000000000000000000000000000000000000000000008152600401611183906128d9565b60405180910390fd5b60018360405161119c9190612850565b9081526020016040518091039020600301805480602002602001604051908101604052809291908181526020016000905b828210156112795783829060005260206000200180546111ec90612653565b80601f016020809104026020016040519081016040528092919081815260200182805461121890612653565b80156112655780601f1061123a57610100808354040283529160200191611265565b820191906000526020600020905b81548152906001019060200180831161124857829003601f168201915b5050505050815260200190600101906111cd565b50505050915050919050565b81600073ffffffffffffffffffffffffffffffffffffffff166001826040516112ae9190612850565b908152602001604051809103902060000160009054906101000a900473ffffffffffffffffffffffffffffffffffffffff1673ffffffffffffffffffffffffffffffffffffffff161415611337576040517f08c379a000000000000000000000000000000000000000000000000000000000815260040161132e906128d9565b60405180910390fd5b7f000000000000000000000000000000000000000000000000000000000000000073ffffffffffffffffffffffffffffffffffffffff163373ffffffffffffffffffffffffffffffffffffffff16146113c5576040517f08c379a00000000000000000000000000000000000000000000000000000000081526004016113bc906127ff565b60405180910390fd5b60006001846040516113d79190612850565b9081526020016040518091039020600201836040516113f69190612850565b90815260200160405180910390205490506000811161144a576040517f08c379a000000000000000000000000000000000000000000000000000000000815260040161144190612a2a565b60405180910390fd5b60006001808660405161145d9190612850565b90815260200160405180910390206003018054905061147c919061297b565b905060006001866040516114909190612850565b908152602001604051809103902060030182815481106114b3576114b26125f5565b5b9060005260206000200180546114c890612653565b80601f01602080910402602001604051908101604052809291908181526020018280546114f490612653565b80156115415780601f1061151657610100808354040283529160200191611541565b820191906000526020600020905b81548152906001019060200180831161152457829003601f168201915b50505050509050826001876040516115599190612850565b9081526020016040518091039020600201826040516115789190612850565b908152602001604051809103902081905550600060018760405161159c9190612850565b9081526020016040518091039020600201866040516115bb9190612850565b908152602001604051809103902081905550806001876040516115de9190612850565b90815260200160405180910390206003016001856115fc919061297b565b8154811061160d5761160c6125f5565b5b90600052602060002001908051906020019061162a929190611d5b565b5060018660405161163b9190612850565b908152602001604051809103902060030180548061165c5761165b6129af565b5b6001900381819060005260206000200160006116789190611de1565b905560008054906101000a900473ffffffffffffffffffffffffffffffffffffffff1673ffffffffffffffffffffffffffffffffffffffff16639dc29fac6001886040516116c69190612850565b908152602001604051809103902060000160009054906101000a900473ffffffffffffffffffffffffffffffffffffffff1660016040518363ffffffff1660e01b8152600401611717929190612a8f565b600060405180830381600087803b15801561173157600080fd5b505af1158015611745573d6000803e3d6000fd5b50505050505050505050565b81600073ffffffffffffffffffffffffffffffffffffffff1660018260405161177a9190612850565b908152602001604051809103902060000160009054906101000a900473ffffffffffffffffffffffffffffffffffffffff1673ffffffffffffffffffffffffffffffffffffffff161415611803576040517f08c379a00000000000000000000000000000000000000000000000000000000081526004016117fa906128d9565b60405180910390fd5b7f000000000000000000000000000000000000000000000000000000000000000073ffffffffffffffffffffffffffffffffffffffff163373ffffffffffffffffffffffffffffffffffffffff1614611891576040517f08c379a0000000000000000000000000000000000000000000000000000000008152600401611888906127ff565b60405180910390fd5b6001836040516118a19190612850565b9081526020016040518091039020600301829080600181540180825580915050600190039060005260206000200160009091909190915090805190602001906118eb929190611d5b565b506001836040516118fc9190612850565b9081526020016040518091039020600301805490506001846040516119219190612850565b9081526020016040518091039020600201836040516119409190612850565b90815260200160405180910390208190555060008054906101000a900473ffffffffffffffffffffffffffffffffffffffff1673ffffffffffffffffffffffffffffffffffffffff166340c10f1960018560405161199e9190612850565b908152602001604051809103902060000160009054906101000a900473ffffffffffffffffffffffffffffffffffffffff1660016040518363ffffffff1660e01b81526004016119ef929190612a8f565b600060405180830381600087803b158015611a0957600080fd5b505af1158015611a1d573d6000803e3d6000fd5b50505050505050565b600081600073ffffffffffffffffffffffffffffffffffffffff16600182604051611a519190612850565b908152602001604051809103902060000160009054906101000a900473ffffffffffffffffffffffffffffffffffffffff1673ffffffffffffffffffffffffffffffffffffffff161415611ada576040517f08c379a0000000000000000000000000000000000000000000000000000000008152600401611ad1906128d9565b60405180910390fd5b600183604051611aea9190612850565b908152602001604051809103902060000160009054906101000a900473ffffffffffffffffffffffffffffffffffffffff16915050919050565b7f000000000000000000000000000000000000000000000000000000000000000073ffffffffffffffffffffffffffffffffffffffff163373ffffffffffffffffffffffffffffffffffffffff1614611bb2576040517f08c379a0000000000000000000000000000000000000000000000000000000008152600401611ba9906127ff565b60405180910390fd5b600073ffffffffffffffffffffffffffffffffffffffff16600182604051611bda9190612850565b908152602001604051809103902060000160009054906101000a900473ffffffffffffffffffffffffffffffffffffffff1673ffffffffffffffffffffffffffffffffffffffff1614611c62576040517f08c379a0000000000000000000000000000000000000000000000000000000008152600401611c5990612b04565b60405180910390fd5b600081604051602001611c759190612850565b6040516020818303038152906040528051906020012060601c905080600183604051611ca19190612850565b908152602001604051809103902060000160006101000a81548173ffffffffffffffffffffffffffffffffffffffff021916908373ffffffffffffffffffffffffffffffffffffffff160217905550600280549050600183604051611d069190612850565b908152602001604051809103902060010181905550600282908060018154018082558091505060019003906000526020600020016000909190919091509080519060200190611d56929190611d5b565b505050565b828054611d6790612653565b90600052602060002090601f016020900481019282611d895760008555611dd0565b82601f10611da257805160ff1916838001178555611dd0565b82800160010185558215611dd0579182015b82811115611dcf578251825591602001919060010190611db4565b5b509050611ddd9190611e42565b5090565b508054611ded90612653565b6000825580601f10611dff5750611e1e565b601f016020900490600052602060002090810190611e1d9190611e42565b5b50565b5080546000825590600052602060002090810190611e3f9190611e5f565b50565b5b80821115611e5b576000816000905550600101611e43565b5090565b5b80821115611e7f5760008181611e769190611de1565b50600101611e60565b5090565b600081519050919050565b600082825260208201905092915050565b6000819050602082019050919050565b600073ffffffffffffffffffffffffffffffffffffffff82169050919050565b6000611eda82611eaf565b9050919050565b611eea81611ecf565b82525050565b6000611efc8383611ee1565b60208301905092915050565b6000602082019050919050565b6000611f2082611e83565b611f2a8185611e8e565b9350611f3583611e9f565b8060005b83811015611f66578151611f4d8882611ef0565b9750611f5883611f08565b925050600181019050611f39565b5085935050505092915050565b60006020820190508181036000830152611f8d8184611f15565b905092915050565b6000604051905090565b600080fd5b600080fd5b600080fd5b6000601f19601f8301169050919050565b7f4e487b7100000000000000000000000000000000000000000000000000000000600052604160045260246000fd5b611ff782611fae565b810181811067ffffffffffffffff8211171561201657612015611fbf565b5b80604052505050565b6000612029611f95565b90506120358282611fee565b919050565b600067ffffffffffffffff82111561205557612054611fbf565b5b602082029050602081019050919050565b600080fd5b600080fd5b600067ffffffffffffffff82111561208b5761208a611fbf565b5b61209482611fae565b9050602081019050919050565b82818337600083830152505050565b60006120c36120be84612070565b61201f565b9050828152602081018484840111156120df576120de61206b565b5b6120ea8482856120a1565b509392505050565b600082601f83011261210757612106611fa9565b5b81356121178482602086016120b0565b91505092915050565b600061213361212e8461203a565b61201f565b9050808382526020820190506020840283018581111561215657612155612066565b5b835b8181101561219d57803567ffffffffffffffff81111561217b5761217a611fa9565b5b80860161218889826120f2565b85526020850194505050602081019050612158565b5050509392505050565b600082601f8301126121bc576121bb611fa9565b5b81356121cc848260208601612120565b91505092915050565b6000602082840312156121eb576121ea611f9f565b5b600082013567ffffffffffffffff81111561220957612208611fa4565b5b612215848285016121a7565b91505092915050565b600081519050919050565b600082825260208201905092915050565b6000819050602082019050919050565b600081519050919050565b600082825260208201905092915050565b60005b83811015612284578082015181840152602081019050612269565b83811115612293576000848401525b50505050565b60006122a48261224a565b6122ae8185612255565b93506122be818560208601612266565b6122c781611fae565b840191505092915050565b60006122de8383612299565b905092915050565b6000602082019050919050565b60006122fe8261221e565b6123088185612229565b93508360208202850161231a8561223a565b8060005b85811015612356578484038952815161233785826122d2565b9450612342836122e6565b925060208a0199505060018101905061231e565b50829750879550505050505092915050565b6000602082019050818103600083015261238281846122f3565b905092915050565b6000602082840312156123a05761239f611f9f565b5b600082013567ffffffffffffffff8111156123be576123bd611fa4565b5b6123ca848285016120f2565b91505092915050565b600082825260208201905092915050565b60006123ef8261224a565b6123f981856123d3565b9350612409818560208601612266565b61241281611fae565b840191505092915050565b6000602082019050818103600083015261243781846123e4565b905092915050565b600081519050919050565b600082825260208201905092915050565b6000819050602082019050919050565b6000819050919050565b61247e8161246b565b82525050565b60006124908383612475565b60208301905092915050565b6000602082019050919050565b60006124b48261243f565b6124be818561244a565b93506124c98361245b565b8060005b838110156124fa5781516124e18882612484565b97506124ec8361249c565b9250506001810190506124cd565b5085935050505092915050565b6000602082019050818103600083015261252181846124a9565b905092915050565b6125328161246b565b82525050565b600060208201905061254d6000830184612529565b92915050565b6000806040838503121561256a57612569611f9f565b5b600083013567ffffffffffffffff81111561258857612587611fa4565b5b612594858286016120f2565b925050602083013567ffffffffffffffff8111156125b5576125b4611fa4565b5b6125c1858286016120f2565b9150509250929050565b6125d481611ecf565b82525050565b60006020820190506125ef60008301846125cb565b92915050565b7f4e487b7100000000000000000000000000000000000000000000000000000000600052603260045260246000fd5b7f4e487b7100000000000000000000000000000000000000000000000000000000600052602260045260246000fd5b6000600282049050600182168061266b57607f821691505b6020821081141561267f5761267e612624565b5b50919050565b600081905092915050565b60008190508160005260206000209050919050565b600081546126b281612653565b6126bc8186612685565b945060018216600081146126d757600181146126e85761271b565b60ff1983168652818601935061271b565b6126f185612690565b60005b83811015612713578154818901526001820191506020810190506126f4565b838801955050505b50505092915050565b600061273082846126a5565b915081905092915050565b7f4e487b7100000000000000000000000000000000000000000000000000000000600052601160045260246000fd5b60006127758261246b565b91507fffffffffffffffffffffffffffffffffffffffffffffffffffffffffffffffff8214156127a8576127a761273b565b5b600182019050919050565b7f4e6f20616c6c6f77616e63657300000000000000000000000000000000000000600082015250565b60006127e9600d836123d3565b91506127f4826127b3565b602082019050919050565b60006020820190508181036000830152612818816127dc565b9050919050565b600061282a8261224a565b6128348185612685565b9350612844818560208601612266565b80840191505092915050565b600061285c828461281f565b915081905092915050565b7f4e6f742064657465637465642061732061207061727469636970616e7420696e60008201527f206f75722073797374656d000000000000000000000000000000000000000000602082015250565b60006128c3602b836123d3565b91506128ce82612867565b604082019050919050565b600060208201905081810360008301526128f2816128b6565b9050919050565b6129028161246b565b811461290d57600080fd5b50565b60008151905061291f816128f9565b92915050565b60006020828403121561293b5761293a611f9f565b5b600061294984828501612910565b91505092915050565b600060408201905061296760008301856125cb565b6129746020830184612529565b9392505050565b60006129868261246b565b91506129918361246b565b9250828210156129a4576129a361273b565b5b828203905092915050565b7f4e487b7100000000000000000000000000000000000000000000000000000000600052603160045260246000fd5b7f5468697320636f6d706c61696e742069736e2774207265676973746572656400600082015250565b6000612a14601f836123d3565b9150612a1f826129de565b602082019050919050565b60006020820190508181036000830152612a4381612a07565b9050919050565b6000819050919050565b6000819050919050565b6000612a79612a74612a6f84612a4a565b612a54565b61246b565b9050919050565b612a8981612a5e565b82525050565b6000604082019050612aa460008301856125cb565b612ab16020830184612a80565b9392505050565b7f436f6d70616e7920697320616c726561647920696e207468652073797374656d600082015250565b6000612aee6020836123d3565b9150612af982612ab8565b602082019050919050565b60006020820190508181036000830152612b1d81612ae1565b905091905056fea26469706673582212204248efd0ed30e541a2aa8047602d9cd03c724adf59de0205535d443c3c2a24a464736f6c634300080a003360a06040523480156200001157600080fd5b5060405162001e9438038062001e948339818101604052810190620000379190620002f6565b8181816003908051906020019062000051929190620000a9565b5080600490805190602001906200006a929190620000a9565b5050503373ffffffffffffffffffffffffffffffffffffffff1660808173ffffffffffffffffffffffffffffffffffffffff16815250505050620003e0565b828054620000b790620003aa565b90600052602060002090601f016020900481019282620000db576000855562000127565b82601f10620000f657805160ff191683800117855562000127565b8280016001018555821562000127579182015b828111156200012657825182559160200191906001019062000109565b5b5090506200013691906200013a565b5090565b5b80821115620001555760008160009055506001016200013b565b5090565b6000604051905090565b600080fd5b600080fd5b600080fd5b600080fd5b6000601f19601f8301169050919050565b7f4e487b7100000000000000000000000000000000000000000000000000000000600052604160045260246000fd5b620001c28262000177565b810181811067ffffffffffffffff82111715620001e457620001e362000188565b5b80604052505050565b6000620001f962000159565b9050620002078282620001b7565b919050565b600067ffffffffffffffff8211156200022a576200022962000188565b5b620002358262000177565b9050602081019050919050565b60005b838110156200026257808201518184015260208101905062000245565b8381111562000272576000848401525b50505050565b60006200028f62000289846200020c565b620001ed565b905082815260208101848484011115620002ae57620002ad62000172565b5b620002bb84828562000242565b509392505050565b600082601f830112620002db57620002da6200016d565b5b8151620002ed84826020860162000278565b91505092915050565b6000806040838503121562000310576200030f62000163565b5b600083015167ffffffffffffffff81111562000331576200033062000168565b5b6200033f85828601620002c3565b925050602083015167ffffffffffffffff81111562000363576200036262000168565b5b6200037185828601620002c3565b9150509250929050565b7f4e487b7100000000000000000000000000000000000000000000000000000000600052602260045260246000fd5b60006002820490506001821680620003c357607f821691505b60208210811415620003da57620003d96200037b565b5b50919050565b608051611a8362000411600039600081816103970152818161049301528181610609015261071e0152611a836000f3fe608060405234801561001057600080fd5b50600436106100cf5760003560e01c806340c10f191161008c5780639dc29fac116100665780639dc29fac14610228578063a457c2d714610244578063a9059cbb14610274578063dd62ed3e146102a4576100cf565b806340c10f19146101be57806370a08231146101da57806395d89b411461020a576100cf565b806306fdde03146100d4578063095ea7b3146100f257806318160ddd1461012257806323b872dd14610140578063313ce56714610170578063395093511461018e575b600080fd5b6100dc6102d4565b6040516100e9919061110d565b60405180910390f35b61010c600480360381019061010791906111c8565b610366565b6040516101199190611223565b60405180910390f35b61012a610389565b604051610137919061124d565b60405180910390f35b61015a60048036038101906101559190611268565b610393565b6040516101679190611223565b60405180910390f35b610178610451565b60405161018591906112d7565b60405180910390f35b6101a860048036038101906101a391906111c8565b61045a565b6040516101b59190611223565b60405180910390f35b6101d860048036038101906101d391906111c8565b610491565b005b6101f460048036038101906101ef91906112f2565b61052d565b604051610201919061124d565b60405180910390f35b610212610575565b60405161021f919061110d565b60405180910390f35b610242600480360381019061023d91906111c8565b610607565b005b61025e600480360381019061025991906111c8565b6106a3565b60405161026b9190611223565b60405180910390f35b61028e600480360381019061028991906111c8565b61071a565b60405161029b9190611223565b60405180910390f35b6102be60048036038101906102b9919061131f565b6107cc565b6040516102cb919061124d565b60405180910390f35b6060600380546102e39061138e565b80601f016020809104026020016040519081016040528092919081815260200182805461030f9061138e565b801561035c5780601f106103315761010080835404028352916020019161035c565b820191906000526020600020905b81548152906001019060200180831161033f57829003601f168201915b5050505050905090565b600080610371610853565b905061037e81858561085b565b600191505092915050565b6000600254905090565b60007f000000000000000000000000000000000000000000000000000000000000000073ffffffffffffffffffffffffffffffffffffffff163373ffffffffffffffffffffffffffffffffffffffff1614610423576040517f08c379a000000000000000000000000000000000000000000000000000000000815260040161041a9061140c565b60405180910390fd5b600061042d610853565b905061043a858285610a26565b610445858585610ab2565b60019150509392505050565b60006012905090565b600080610465610853565b905061048681858561047785896107cc565b610481919061145b565b61085b565b600191505092915050565b7f000000000000000000000000000000000000000000000000000000000000000073ffffffffffffffffffffffffffffffffffffffff163373ffffffffffffffffffffffffffffffffffffffff161461051f576040517f08c379a00000000000000000000000000000000000000000000000000000000081526004016105169061140c565b60405180910390fd5b6105298282610d33565b5050565b60008060008373ffffffffffffffffffffffffffffffffffffffff1673ffffffffffffffffffffffffffffffffffffffff168152602001908152602001600020549050919050565b6060600480546105849061138e565b80601f01602080910402602001604051908101604052809291908181526020018280546105b09061138e565b80156105fd5780601f106105d2576101008083540402835291602001916105fd565b820191906000526020600020905b8154815290600101906020018083116105e057829003601f168201915b5050505050905090565b7f000000000000000000000000000000000000000000000000000000000000000073ffffffffffffffffffffffffffffffffffffffff163373ffffffffffffffffffffffffffffffffffffffff1614610695576040517f08c379a000000000000000000000000000000000000000000000000000000000815260040161068c9061140c565b60405180910390fd5b61069f8282610e93565b5050565b6000806106ae610853565b905060006106bc82866107cc565b905083811015610701576040517f08c379a00000000000000000000000000000000000000000000000000000000081526004016106f890611523565b60405180910390fd5b61070e828686840361085b565b60019250505092915050565b60007f000000000000000000000000000000000000000000000000000000000000000073ffffffffffffffffffffffffffffffffffffffff163373ffffffffffffffffffffffffffffffffffffffff16146107aa576040517f08c379a00000000000000000000000000000000000000000000000000000000081526004016107a19061140c565b60405180910390fd5b60006107b4610853565b90506107c1818585610ab2565b600191505092915050565b6000600160008473ffffffffffffffffffffffffffffffffffffffff1673ffffffffffffffffffffffffffffffffffffffff16815260200190815260200160002060008373ffffffffffffffffffffffffffffffffffffffff1673ffffffffffffffffffffffffffffffffffffffff16815260200190815260200160002054905092915050565b600033905090565b600073ffffffffffffffffffffffffffffffffffffffff168373ffffffffffffffffffffffffffffffffffffffff1614156108cb576040517f08c379a00000000000000000000000000000000000000000000000000000000081526004016108c2906115b5565b60405180910390fd5b600073ffffffffffffffffffffffffffffffffffffffff168273ffffffffffffffffffffffffffffffffffffffff16141561093b576040517f08c379a000000000000000000000000000000000000000000000000000000000815260040161093290611647565b60405180910390fd5b80600160008573ffffffffffffffffffffffffffffffffffffffff1673ffffffffffffffffffffffffffffffffffffffff16815260200190815260200160002060008473ffffffffffffffffffffffffffffffffffffffff1673ffffffffffffffffffffffffffffffffffffffff168152602001908152602001600020819055508173ffffffffffffffffffffffffffffffffffffffff168373ffffffffffffffffffffffffffffffffffffffff167f8c5be1e5ebec7d5bd14f71427d1e84f3dd0314c0f7b2291e5b200ac8c7c3b92583604051610a19919061124d565b60405180910390a3505050565b6000610a3284846107cc565b90507fffffffffffffffffffffffffffffffffffffffffffffffffffffffffffffffff8114610aac5781811015610a9e576040517f08c379a0000000000000000000000000000000000000000000000000000000008152600401610a95906116b3565b60405180910390fd5b610aab848484840361085b565b5b50505050565b600073ffffffffffffffffffffffffffffffffffffffff168373ffffffffffffffffffffffffffffffffffffffff161415610b22576040517f08c379a0000000000000000000000000000000000000000000000000000000008152600401610b1990611745565b60405180910390fd5b600073ffffffffffffffffffffffffffffffffffffffff168273ffffffffffffffffffffffffffffffffffffffff161415610b92576040517f08c379a0000000000000000000000000000000000000000000000000000000008152600401610b89906117d7565b60405180910390fd5b610b9d83838361106a565b60008060008573ffffffffffffffffffffffffffffffffffffffff1673ffffffffffffffffffffffffffffffffffffffff16815260200190815260200160002054905081811015610c23576040517f08c379a0000000000000000000000000000000000000000000000000000000008152600401610c1a90611869565b60405180910390fd5b8181036000808673ffffffffffffffffffffffffffffffffffffffff1673ffffffffffffffffffffffffffffffffffffffff16815260200190815260200160002081905550816000808573ffffffffffffffffffffffffffffffffffffffff1673ffffffffffffffffffffffffffffffffffffffff1681526020019081526020016000206000828254610cb6919061145b565b925050819055508273ffffffffffffffffffffffffffffffffffffffff168473ffffffffffffffffffffffffffffffffffffffff167fddf252ad1be2c89b69c2b068fc378daa952ba7f163c4a11628f55a4df523b3ef84604051610d1a919061124d565b60405180910390a3610d2d84848461106f565b50505050565b600073ffffffffffffffffffffffffffffffffffffffff168273ffffffffffffffffffffffffffffffffffffffff161415610da3576040517f08c379a0000000000000000000000000000000000000000000000000000000008152600401610d9a906118d5565b60405180910390fd5b610daf6000838361106a565b8060026000828254610dc1919061145b565b92505081905550806000808473ffffffffffffffffffffffffffffffffffffffff1673ffffffffffffffffffffffffffffffffffffffff1681526020019081526020016000206000828254610e16919061145b565b925050819055508173ffffffffffffffffffffffffffffffffffffffff16600073ffffffffffffffffffffffffffffffffffffffff167fddf252ad1be2c89b69c2b068fc378daa952ba7f163c4a11628f55a4df523b3ef83604051610e7b919061124d565b60405180910390a3610e8f6000838361106f565b5050565b600073ffffffffffffffffffffffffffffffffffffffff168273ffffffffffffffffffffffffffffffffffffffff161415610f03576040517f08c379a0000000000000000000000000000000000000000000000000000000008152600401610efa90611967565b60405180910390fd5b610f0f8260008361106a565b60008060008473ffffffffffffffffffffffffffffffffffffffff1673ffffffffffffffffffffffffffffffffffffffff16815260200190815260200160002054905081811015610f95576040517f08c379a0000000000000000000000000000000000000000000000000000000008152600401610f8c906119f9565b60405180910390fd5b8181036000808573ffffffffffffffffffffffffffffffffffffffff1673ffffffffffffffffffffffffffffffffffffffff168152602001908152602001600020819055508160026000828254610fec9190611a19565b92505081905550600073ffffffffffffffffffffffffffffffffffffffff168373ffffffffffffffffffffffffffffffffffffffff167fddf252ad1be2c89b69c2b068fc378daa952ba7f163c4a11628f55a4df523b3ef84604051611051919061124d565b60405180910390a36110658360008461106f565b505050565b505050565b505050565b600081519050919050565b600082825260208201905092915050565b60005b838110156110ae578082015181840152602081019050611093565b838111156110bd576000848401525b50505050565b6000601f19601f8301169050919050565b60006110df82611074565b6110e9818561107f565b93506110f9818560208601611090565b611102816110c3565b840191505092915050565b6000602082019050818103600083015261112781846110d4565b905092915050565b600080fd5b600073ffffffffffffffffffffffffffffffffffffffff82169050919050565b600061115f82611134565b9050919050565b61116f81611154565b811461117a57600080fd5b50565b60008135905061118c81611166565b92915050565b6000819050919050565b6111a581611192565b81146111b057600080fd5b50565b6000813590506111c28161119c565b92915050565b600080604083850312156111df576111de61112f565b5b60006111ed8582860161117d565b92505060206111fe858286016111b3565b9150509250929050565b60008115159050919050565b61121d81611208565b82525050565b60006020820190506112386000830184611214565b92915050565b61124781611192565b82525050565b6000602082019050611262600083018461123e565b92915050565b6000806000606084860312156112815761128061112f565b5b600061128f8682870161117d565b93505060206112a08682870161117d565b92505060406112b1868287016111b3565b9150509250925092565b600060ff82169050919050565b6112d1816112bb565b82525050565b60006020820190506112ec60008301846112c8565b92915050565b6000602082840312156113085761130761112f565b5b60006113168482850161117d565b91505092915050565b600080604083850312156113365761133561112f565b5b60006113448582860161117d565b92505060206113558582860161117d565b9150509250929050565b7f4e487b7100000000000000000000000000000000000000000000000000000000600052602260045260246000fd5b600060028204905060018216806113a657607f821691505b602082108114156113ba576113b961135f565b5b50919050565b7f4e6f207065726d697373696f6e00000000000000000000000000000000000000600082015250565b60006113f6600d8361107f565b9150611401826113c0565b602082019050919050565b60006020820190508181036000830152611425816113e9565b9050919050565b7f4e487b7100000000000000000000000000000000000000000000000000000000600052601160045260246000fd5b600061146682611192565b915061147183611192565b9250827fffffffffffffffffffffffffffffffffffffffffffffffffffffffffffffffff038211156114a6576114a561142c565b5b828201905092915050565b7f45524332303a2064656372656173656420616c6c6f77616e63652062656c6f7760008201527f207a65726f000000000000000000000000000000000000000000000000000000602082015250565b600061150d60258361107f565b9150611518826114b1565b604082019050919050565b6000602082019050818103600083015261153c81611500565b9050919050565b7f45524332303a20617070726f76652066726f6d20746865207a65726f2061646460008201527f7265737300000000000000000000000000000000000000000000000000000000602082015250565b600061159f60248361107f565b91506115aa82611543565b604082019050919050565b600060208201905081810360008301526115ce81611592565b9050919050565b7f45524332303a20617070726f766520746f20746865207a65726f20616464726560008201527f7373000000000000000000000000000000000000000000000000000000000000602082015250565b600061163160228361107f565b915061163c826115d5565b604082019050919050565b6000602082019050818103600083015261166081611624565b9050919050565b7f45524332303a20696e73756666696369656e7420616c6c6f77616e6365000000600082015250565b600061169d601d8361107f565b91506116a882611667565b602082019050919050565b600060208201905081810360008301526116cc81611690565b9050919050565b7f45524332303a207472616e736665722066726f6d20746865207a65726f20616460008201527f6472657373000000000000000000000000000000000000000000000000000000602082015250565b600061172f60258361107f565b915061173a826116d3565b604082019050919050565b6000602082019050818103600083015261175e81611722565b9050919050565b7f45524332303a207472616e7366657220746f20746865207a65726f206164647260008201527f6573730000000000000000000000000000000000000000000000000000000000602082015250565b60006117c160238361107f565b91506117cc82611765565b604082019050919050565b600060208201905081810360008301526117f0816117b4565b9050919050565b7f45524332303a207472616e7366657220616d6f756e742065786365656473206260008201527f616c616e63650000000000000000000000000000000000000000000000000000602082015250565b600061185360268361107f565b915061185e826117f7565b604082019050919050565b6000602082019050818103600083015261188281611846565b9050919050565b7f45524332303a206d696e7420746f20746865207a65726f206164647265737300600082015250565b60006118bf601f8361107f565b91506118ca82611889565b602082019050919050565b600060208201905081810360008301526118ee816118b2565b9050919050565b7f45524332303a206275726e2066726f6d20746865207a65726f2061646472657360008201527f7300000000000000000000000000000000000000000000000000000000000000602082015250565b600061195160218361107f565b915061195c826118f5565b604082019050919050565b6000602082019050818103600083015261198081611944565b9050919050565b7f45524332303a206275726e20616d6f756e7420657863656564732062616c616e60008201527f6365000000000000000000000000000000000000000000000000000000000000602082015250565b60006119e360228361107f565b91506119ee82611987565b604082019050919050565b60006020820190508181036000830152611a12816119d6565b9050919050565b6000611a2482611192565b9150611a2f83611192565b925082821015611a4257611a4161142c565b5b82820390509291505056fea264697066735822122034484d5b3685a88b0590eea9c19c3e829b0bab4fd362d630320115b4b9db67cd64736f6c634300080a0033",
      "opcodes": "PUSH1 0xA0 PUSH1 0x40 MSTORE CALLVALUE DUP1 ISZERO PUSH3 0x11 JUMPI PUSH1 0x0 DUP1 REVERT JUMPDEST POP CALLER PUSH20 0xFFFFFFFFFFFFFFFFFFFFFFFFFFFFFFFFFFFFFFFF AND PUSH1 0x80 DUP2 PUSH20 0xFFFFFFFFFFFFFFFFFFFFFFFFFFFFFFFFFFFFFFFF AND DUP2 MSTORE POP POP PUSH1 0x40 MLOAD PUSH3 0x54 SWAP1 PUSH3 0x110 JUMP JUMPDEST PUSH3 0x5F SWAP1 PUSH3 0x27F JUMP JUMPDEST PUSH1 0x40 MLOAD DUP1 SWAP2 SUB SWAP1 PUSH1 0x0 CREATE DUP1 ISZERO DUP1 ISZERO PUSH3 0x7C JUMPI RETURNDATASIZE PUSH1 0x0 DUP1 RETURNDATACOPY RETURNDATASIZE PUSH1 0x0 REVERT JUMPDEST POP PUSH1 0x0 DUP1 PUSH2 0x100 EXP DUP2 SLOAD DUP2 PUSH20 0xFFFFFFFFFFFFFFFFFFFFFFFFFFFFFFFFFFFFFFFF MUL NOT AND SWAP1 DUP4 PUSH20 0xFFFFFFFFFFFFFFFFFFFFFFFFFFFFFFFFFFFFFFFF AND MUL OR SWAP1 SSTORE POP PUSH1 0x40 MLOAD DUP1 PUSH1 0x40 ADD PUSH1 0x40 MSTORE DUP1 PUSH1 0x1 DUP2 MSTORE PUSH1 0x20 ADD PUSH32 0x3000000000000000000000000000000000000000000000000000000000000000 DUP2 MSTORE POP PUSH1 0x3 SWAP1 DUP1 MLOAD SWAP1 PUSH1 0x20 ADD SWAP1 PUSH3 0x109 SWAP3 SWAP2 SWAP1 PUSH3 0x11E JUMP JUMPDEST POP PUSH3 0x31B JUMP JUMPDEST PUSH2 0x1E94 DUP1 PUSH3 0x2EB4 DUP4 CODECOPY ADD SWAP1 JUMP JUMPDEST DUP3 DUP1 SLOAD PUSH3 0x12C SWAP1 PUSH3 0x2E5 JUMP JUMPDEST SWAP1 PUSH1 0x0 MSTORE PUSH1 0x20 PUSH1 0x0 KECCAK256 SWAP1 PUSH1 0x1F ADD PUSH1 0x20 SWAP1 DIV DUP2 ADD SWAP3 DUP3 PUSH3 0x150 JUMPI PUSH1 0x0 DUP6 SSTORE PUSH3 0x19C JUMP JUMPDEST DUP3 PUSH1 0x1F LT PUSH3 0x16B JUMPI DUP1 MLOAD PUSH1 0xFF NOT AND DUP4 DUP1 ADD OR DUP6 SSTORE PUSH3 0x19C JUMP JUMPDEST DUP3 DUP1 ADD PUSH1 0x1 ADD DUP6 SSTORE DUP3 ISZERO PUSH3 0x19C JUMPI SWAP2 DUP3 ADD JUMPDEST DUP3 DUP2 GT ISZERO PUSH3 0x19B JUMPI DUP3 MLOAD DUP3 SSTORE SWAP2 PUSH1 0x20 ADD SWAP2 SWAP1 PUSH1 0x1 ADD SWAP1 PUSH3 0x17E JUMP JUMPDEST JUMPDEST POP SWAP1 POP PUSH3 0x1AB SWAP2 SWAP1 PUSH3 0x1AF JUMP JUMPDEST POP SWAP1 JUMP JUMPDEST JUMPDEST DUP1 DUP3 GT ISZERO PUSH3 0x1CA JUMPI PUSH1 0x0 DUP2 PUSH1 0x0 SWAP1 SSTORE POP PUSH1 0x1 ADD PUSH3 0x1B0 JUMP JUMPDEST POP SWAP1 JUMP JUMPDEST PUSH1 0x0 DUP3 DUP3 MSTORE PUSH1 0x20 DUP3 ADD SWAP1 POP SWAP3 SWAP2 POP POP JUMP JUMPDEST PUSH32 0x52656B7300000000000000000000000000000000000000000000000000000000 PUSH1 0x0 DUP3 ADD MSTORE POP JUMP JUMPDEST PUSH1 0x0 PUSH3 0x217 PUSH1 0x4 DUP4 PUSH3 0x1CE JUMP JUMPDEST SWAP2 POP PUSH3 0x224 DUP3 PUSH3 0x1DF JUMP JUMPDEST PUSH1 0x20 DUP3 ADD SWAP1 POP SWAP2 SWAP1 POP JUMP JUMPDEST PUSH32 0x5200000000000000000000000000000000000000000000000000000000000000 PUSH1 0x0 DUP3 ADD MSTORE POP JUMP JUMPDEST PUSH1 0x0 PUSH3 0x267 PUSH1 0x1 DUP4 PUSH3 0x1CE JUMP JUMPDEST SWAP2 POP PUSH3 0x274 DUP3 PUSH3 0x22F JUMP JUMPDEST PUSH1 0x20 DUP3 ADD SWAP1 POP SWAP2 SWAP1 POP JUMP JUMPDEST PUSH1 0x0 PUSH1 0x40 DUP3 ADD SWAP1 POP DUP2 DUP2 SUB PUSH1 0x0 DUP4 ADD MSTORE PUSH3 0x29A DUP2 PUSH3 0x208 JUMP JUMPDEST SWAP1 POP DUP2 DUP2 SUB PUSH1 0x20 DUP4 ADD MSTORE PUSH3 0x2AF DUP2 PUSH3 0x258 JUMP JUMPDEST SWAP1 POP SWAP2 SWAP1 POP JUMP JUMPDEST PUSH32 0x4E487B7100000000000000000000000000000000000000000000000000000000 PUSH1 0x0 MSTORE PUSH1 0x22 PUSH1 0x4 MSTORE PUSH1 0x24 PUSH1 0x0 REVERT JUMPDEST PUSH1 0x0 PUSH1 0x2 DUP3 DIV SWAP1 POP PUSH1 0x1 DUP3 AND DUP1 PUSH3 0x2FE JUMPI PUSH1 0x7F DUP3 AND SWAP2 POP JUMPDEST PUSH1 0x20 DUP3 LT DUP2 EQ ISZERO PUSH3 0x315 JUMPI PUSH3 0x314 PUSH3 0x2B6 JUMP JUMPDEST JUMPDEST POP SWAP2 SWAP1 POP JUMP JUMPDEST PUSH1 0x80 MLOAD PUSH2 0x2B5A PUSH3 0x35A PUSH1 0x0 CODECOPY PUSH1 0x0 DUP2 DUP2 PUSH2 0x3E9 ADD MSTORE DUP2 DUP2 PUSH2 0x760 ADD MSTORE DUP2 DUP2 PUSH2 0x1032 ADD MSTORE DUP2 DUP2 PUSH2 0x1339 ADD MSTORE DUP2 DUP2 PUSH2 0x1805 ADD MSTORE PUSH2 0x1B26 ADD MSTORE PUSH2 0x2B5A PUSH1 0x0 RETURN INVALID PUSH1 0x80 PUSH1 0x40 MSTORE CALLVALUE DUP1 ISZERO PUSH2 0x10 JUMPI PUSH1 0x0 DUP1 REVERT JUMPDEST POP PUSH1 0x4 CALLDATASIZE LT PUSH2 0xEA JUMPI PUSH1 0x0 CALLDATALOAD PUSH1 0xE0 SHR DUP1 PUSH4 0x59F97801 GT PUSH2 0x8C JUMPI DUP1 PUSH4 0xBFEF1851 GT PUSH2 0x66 JUMPI DUP1 PUSH4 0xBFEF1851 EQ PUSH2 0x239 JUMPI DUP1 PUSH4 0xD09CDAC1 EQ PUSH2 0x255 JUMPI DUP1 PUSH4 0xD6A16AFA EQ PUSH2 0x271 JUMPI DUP1 PUSH4 0xF1E6FE87 EQ PUSH2 0x2A1 JUMPI PUSH2 0xEA JUMP JUMPDEST DUP1 PUSH4 0x59F97801 EQ PUSH2 0x1CF JUMPI DUP1 PUSH4 0x639147AF EQ PUSH2 0x1ED JUMPI DUP1 PUSH4 0x6B5F35C2 EQ PUSH2 0x209 JUMPI PUSH2 0xEA JUMP JUMPDEST DUP1 PUSH4 0x112E4143 GT PUSH2 0xC8 JUMPI DUP1 PUSH4 0x112E4143 EQ PUSH2 0x147 JUMPI DUP1 PUSH4 0x1C17DEE8 EQ PUSH2 0x163 JUMPI DUP1 PUSH4 0x2F435B3F EQ PUSH2 0x181 JUMPI DUP1 PUSH4 0x3D1103F4 EQ PUSH2 0x19F JUMPI PUSH2 0xEA JUMP JUMPDEST DUP1 PUSH4 0x5E5E5A3 EQ PUSH2 0xEF JUMPI DUP1 PUSH4 0x8459850 EQ PUSH2 0x10D JUMPI DUP1 PUSH4 0x9A7A006 EQ PUSH2 0x129 JUMPI JUMPDEST PUSH1 0x0 DUP1 REVERT JUMPDEST PUSH2 0xF7 PUSH2 0x2BD JUMP JUMPDEST PUSH1 0x40 MLOAD PUSH2 0x104 SWAP2 SWAP1 PUSH2 0x1F73 JUMP JUMPDEST PUSH1 0x40 MLOAD DUP1 SWAP2 SUB SWAP1 RETURN JUMPDEST PUSH2 0x127 PUSH1 0x4 DUP1 CALLDATASIZE SUB DUP2 ADD SWAP1 PUSH2 0x122 SWAP2 SWAP1 PUSH2 0x21D5 JUMP JUMPDEST PUSH2 0x3E7 JUMP JUMPDEST STOP JUMPDEST PUSH2 0x131 PUSH2 0x685 JUMP JUMPDEST PUSH1 0x40 MLOAD PUSH2 0x13E SWAP2 SWAP1 PUSH2 0x2368 JUMP JUMPDEST PUSH1 0x40 MLOAD DUP1 SWAP2 SUB SWAP1 RETURN JUMPDEST PUSH2 0x161 PUSH1 0x4 DUP1 CALLDATASIZE SUB DUP2 ADD SWAP1 PUSH2 0x15C SWAP2 SWAP1 PUSH2 0x238A JUMP JUMPDEST PUSH2 0x75E JUMP JUMPDEST STOP JUMPDEST PUSH2 0x16B PUSH2 0xBDC JUMP JUMPDEST PUSH1 0x40 MLOAD PUSH2 0x178 SWAP2 SWAP1 PUSH2 0x241D JUMP JUMPDEST PUSH1 0x40 MLOAD DUP1 SWAP2 SUB SWAP1 RETURN JUMPDEST PUSH2 0x189 PUSH2 0xC6E JUMP JUMPDEST PUSH1 0x40 MLOAD PUSH2 0x196 SWAP2 SWAP1 PUSH2 0x2507 JUMP JUMPDEST PUSH1 0x40 MLOAD DUP1 SWAP2 SUB SWAP1 RETURN JUMPDEST PUSH2 0x1B9 PUSH1 0x4 DUP1 CALLDATASIZE SUB DUP2 ADD SWAP1 PUSH2 0x1B4 SWAP2 SWAP1 PUSH2 0x238A JUMP JUMPDEST PUSH2 0xE02 JUMP JUMPDEST PUSH1 0x40 MLOAD PUSH2 0x1C6 SWAP2 SWAP1 PUSH2 0x2538 JUMP JUMPDEST PUSH1 0x40 MLOAD DUP1 SWAP2 SUB SWAP1 RETURN JUMPDEST PUSH2 0x1D7 PUSH2 0xF99 JUMP JUMPDEST PUSH1 0x40 MLOAD PUSH2 0x1E4 SWAP2 SWAP1 PUSH2 0x2538 JUMP JUMPDEST PUSH1 0x40 MLOAD DUP1 SWAP2 SUB SWAP1 RETURN JUMPDEST PUSH2 0x207 PUSH1 0x4 DUP1 CALLDATASIZE SUB DUP2 ADD SWAP1 PUSH2 0x202 SWAP2 SWAP1 PUSH2 0x238A JUMP JUMPDEST PUSH2 0x1030 JUMP JUMPDEST STOP JUMPDEST PUSH2 0x223 PUSH1 0x4 DUP1 CALLDATASIZE SUB DUP2 ADD SWAP1 PUSH2 0x21E SWAP2 SWAP1 PUSH2 0x238A JUMP JUMPDEST PUSH2 0x10D8 JUMP JUMPDEST PUSH1 0x40 MLOAD PUSH2 0x230 SWAP2 SWAP1 PUSH2 0x2368 JUMP JUMPDEST PUSH1 0x40 MLOAD DUP1 SWAP2 SUB SWAP1 RETURN JUMPDEST PUSH2 0x253 PUSH1 0x4 DUP1 CALLDATASIZE SUB DUP2 ADD SWAP1 PUSH2 0x24E SWAP2 SWAP1 PUSH2 0x2553 JUMP JUMPDEST PUSH2 0x1285 JUMP JUMPDEST STOP JUMPDEST PUSH2 0x26F PUSH1 0x4 DUP1 CALLDATASIZE SUB DUP2 ADD SWAP1 PUSH2 0x26A SWAP2 SWAP1 PUSH2 0x2553 JUMP JUMPDEST PUSH2 0x1751 JUMP JUMPDEST STOP JUMPDEST PUSH2 0x28B PUSH1 0x4 DUP1 CALLDATASIZE SUB DUP2 ADD SWAP1 PUSH2 0x286 SWAP2 SWAP1 PUSH2 0x238A JUMP JUMPDEST PUSH2 0x1A26 JUMP JUMPDEST PUSH1 0x40 MLOAD PUSH2 0x298 SWAP2 SWAP1 PUSH2 0x25DA JUMP JUMPDEST PUSH1 0x40 MLOAD DUP1 SWAP2 SUB SWAP1 RETURN JUMPDEST PUSH2 0x2BB PUSH1 0x4 DUP1 CALLDATASIZE SUB DUP2 ADD SWAP1 PUSH2 0x2B6 SWAP2 SWAP1 PUSH2 0x238A JUMP JUMPDEST PUSH2 0x1B24 JUMP JUMPDEST STOP JUMPDEST PUSH1 0x60 PUSH1 0x0 PUSH1 0x2 DUP1 SLOAD SWAP1 POP SWAP1 POP PUSH1 0x0 DUP2 PUSH8 0xFFFFFFFFFFFFFFFF DUP2 GT ISZERO PUSH2 0x2E5 JUMPI PUSH2 0x2E4 PUSH2 0x1FBF JUMP JUMPDEST JUMPDEST PUSH1 0x40 MLOAD SWAP1 DUP1 DUP3 MSTORE DUP1 PUSH1 0x20 MUL PUSH1 0x20 ADD DUP3 ADD PUSH1 0x40 MSTORE DUP1 ISZERO PUSH2 0x313 JUMPI DUP2 PUSH1 0x20 ADD PUSH1 0x20 DUP3 MUL DUP1 CALLDATASIZE DUP4 CALLDATACOPY DUP1 DUP3 ADD SWAP2 POP POP SWAP1 POP JUMPDEST POP SWAP1 POP PUSH1 0x0 JUMPDEST DUP3 DUP2 LT ISZERO PUSH2 0x3DE JUMPI PUSH1 0x1 PUSH1 0x2 DUP3 DUP2 SLOAD DUP2 LT PUSH2 0x337 JUMPI PUSH2 0x336 PUSH2 0x25F5 JUMP JUMPDEST JUMPDEST SWAP1 PUSH1 0x0 MSTORE PUSH1 0x20 PUSH1 0x0 KECCAK256 ADD PUSH1 0x40 MLOAD PUSH2 0x34E SWAP2 SWAP1 PUSH2 0x2724 JUMP JUMPDEST SWAP1 DUP2 MSTORE PUSH1 0x20 ADD PUSH1 0x40 MLOAD DUP1 SWAP2 SUB SWAP1 KECCAK256 PUSH1 0x0 ADD PUSH1 0x0 SWAP1 SLOAD SWAP1 PUSH2 0x100 EXP SWAP1 DIV PUSH20 0xFFFFFFFFFFFFFFFFFFFFFFFFFFFFFFFFFFFFFFFF AND DUP3 DUP3 DUP2 MLOAD DUP2 LT PUSH2 0x393 JUMPI PUSH2 0x392 PUSH2 0x25F5 JUMP JUMPDEST JUMPDEST PUSH1 0x20 MUL PUSH1 0x20 ADD ADD SWAP1 PUSH20 0xFFFFFFFFFFFFFFFFFFFFFFFFFFFFFFFFFFFFFFFF AND SWAP1 DUP2 PUSH20 0xFFFFFFFFFFFFFFFFFFFFFFFFFFFFFFFFFFFFFFFF AND DUP2 MSTORE POP POP DUP1 PUSH2 0x3D7 SWAP1 PUSH2 0x276A JUMP JUMPDEST SWAP1 POP PUSH2 0x319 JUMP JUMPDEST POP DUP1 SWAP3 POP POP POP SWAP1 JUMP JUMPDEST PUSH32 0x0 PUSH20 0xFFFFFFFFFFFFFFFFFFFFFFFFFFFFFFFFFFFFFFFF AND CALLER PUSH20 0xFFFFFFFFFFFFFFFFFFFFFFFFFFFFFFFFFFFFFFFF AND EQ PUSH2 0x475 JUMPI PUSH1 0x40 MLOAD PUSH32 0x8C379A000000000000000000000000000000000000000000000000000000000 DUP2 MSTORE PUSH1 0x4 ADD PUSH2 0x46C SWAP1 PUSH2 0x27FF JUMP JUMPDEST PUSH1 0x40 MLOAD DUP1 SWAP2 SUB SWAP1 REVERT JUMPDEST PUSH1 0x0 JUMPDEST DUP2 MLOAD DUP2 LT ISZERO PUSH2 0x681 JUMPI PUSH1 0x0 PUSH20 0xFFFFFFFFFFFFFFFFFFFFFFFFFFFFFFFFFFFFFFFF AND PUSH1 0x1 DUP4 DUP4 DUP2 MLOAD DUP2 LT PUSH2 0x4AE JUMPI PUSH2 0x4AD PUSH2 0x25F5 JUMP JUMPDEST JUMPDEST PUSH1 0x20 MUL PUSH1 0x20 ADD ADD MLOAD PUSH1 0x40 MLOAD PUSH2 0x4C3 SWAP2 SWAP1 PUSH2 0x2850 JUMP JUMPDEST SWAP1 DUP2 MSTORE PUSH1 0x20 ADD PUSH1 0x40 MLOAD DUP1 SWAP2 SUB SWAP1 KECCAK256 PUSH1 0x0 ADD PUSH1 0x0 SWAP1 SLOAD SWAP1 PUSH2 0x100 EXP SWAP1 DIV PUSH20 0xFFFFFFFFFFFFFFFFFFFFFFFFFFFFFFFFFFFFFFFF AND PUSH20 0xFFFFFFFFFFFFFFFFFFFFFFFFFFFFFFFFFFFFFFFF AND EQ ISZERO PUSH2 0x670 JUMPI PUSH1 0x0 DUP3 DUP3 DUP2 MLOAD DUP2 LT PUSH2 0x526 JUMPI PUSH2 0x525 PUSH2 0x25F5 JUMP JUMPDEST JUMPDEST PUSH1 0x20 MUL PUSH1 0x20 ADD ADD MLOAD PUSH1 0x40 MLOAD PUSH1 0x20 ADD PUSH2 0x53E SWAP2 SWAP1 PUSH2 0x2850 JUMP JUMPDEST PUSH1 0x40 MLOAD PUSH1 0x20 DUP2 DUP4 SUB SUB DUP2 MSTORE SWAP1 PUSH1 0x40 MSTORE DUP1 MLOAD SWAP1 PUSH1 0x20 ADD KECCAK256 PUSH1 0x60 SHR SWAP1 POP DUP1 PUSH1 0x1 DUP5 DUP5 DUP2 MLOAD DUP2 LT PUSH2 0x56F JUMPI PUSH2 0x56E PUSH2 0x25F5 JUMP JUMPDEST JUMPDEST PUSH1 0x20 MUL PUSH1 0x20 ADD ADD MLOAD PUSH1 0x40 MLOAD PUSH2 0x584 SWAP2 SWAP1 PUSH2 0x2850 JUMP JUMPDEST SWAP1 DUP2 MSTORE PUSH1 0x20 ADD PUSH1 0x40 MLOAD DUP1 SWAP2 SUB SWAP1 KECCAK256 PUSH1 0x0 ADD PUSH1 0x0 PUSH2 0x100 EXP DUP2 SLOAD DUP2 PUSH20 0xFFFFFFFFFFFFFFFFFFFFFFFFFFFFFFFFFFFFFFFF MUL NOT AND SWAP1 DUP4 PUSH20 0xFFFFFFFFFFFFFFFFFFFFFFFFFFFFFFFFFFFFFFFF AND MUL OR SWAP1 SSTORE POP PUSH1 0x2 DUP1 SLOAD SWAP1 POP PUSH1 0x1 DUP5 DUP5 DUP2 MLOAD DUP2 LT PUSH2 0x5EE JUMPI PUSH2 0x5ED PUSH2 0x25F5 JUMP JUMPDEST JUMPDEST PUSH1 0x20 MUL PUSH1 0x20 ADD ADD MLOAD PUSH1 0x40 MLOAD PUSH2 0x603 SWAP2 SWAP1 PUSH2 0x2850 JUMP JUMPDEST SWAP1 DUP2 MSTORE PUSH1 0x20 ADD PUSH1 0x40 MLOAD DUP1 SWAP2 SUB SWAP1 KECCAK256 PUSH1 0x1 ADD DUP2 SWAP1 SSTORE POP PUSH1 0x2 DUP4 DUP4 DUP2 MLOAD DUP2 LT PUSH2 0x62D JUMPI PUSH2 0x62C PUSH2 0x25F5 JUMP JUMPDEST JUMPDEST PUSH1 0x20 MUL PUSH1 0x20 ADD ADD MLOAD SWAP1 DUP1 PUSH1 0x1 DUP2 SLOAD ADD DUP1 DUP3 SSTORE DUP1 SWAP2 POP POP PUSH1 0x1 SWAP1 SUB SWAP1 PUSH1 0x0 MSTORE PUSH1 0x20 PUSH1 0x0 KECCAK256 ADD PUSH1 0x0 SWAP1 SWAP2 SWAP1 SWAP2 SWAP1 SWAP2 POP SWAP1 DUP1 MLOAD SWAP1 PUSH1 0x20 ADD SWAP1 PUSH2 0x66D SWAP3 SWAP2 SWAP1 PUSH2 0x1D5B JUMP JUMPDEST POP POP JUMPDEST DUP1 PUSH2 0x67A SWAP1 PUSH2 0x276A JUMP JUMPDEST SWAP1 POP PUSH2 0x478 JUMP JUMPDEST POP POP JUMP JUMPDEST PUSH1 0x60 PUSH1 0x2 DUP1 SLOAD DUP1 PUSH1 0x20 MUL PUSH1 0x20 ADD PUSH1 0x40 MLOAD SWAP1 DUP2 ADD PUSH1 0x40 MSTORE DUP1 SWAP3 SWAP2 SWAP1 DUP2 DUP2 MSTORE PUSH1 0x20 ADD PUSH1 0x0 SWAP1 JUMPDEST DUP3 DUP3 LT ISZERO PUSH2 0x755 JUMPI DUP4 DUP3 SWAP1 PUSH1 0x0 MSTORE PUSH1 0x20 PUSH1 0x0 KECCAK256 ADD DUP1 SLOAD PUSH2 0x6C8 SWAP1 PUSH2 0x2653 JUMP JUMPDEST DUP1 PUSH1 0x1F ADD PUSH1 0x20 DUP1 SWAP2 DIV MUL PUSH1 0x20 ADD PUSH1 0x40 MLOAD SWAP1 DUP2 ADD PUSH1 0x40 MSTORE DUP1 SWAP3 SWAP2 SWAP1 DUP2 DUP2 MSTORE PUSH1 0x20 ADD DUP3 DUP1 SLOAD PUSH2 0x6F4 SWAP1 PUSH2 0x2653 JUMP JUMPDEST DUP1 ISZERO PUSH2 0x741 JUMPI DUP1 PUSH1 0x1F LT PUSH2 0x716 JUMPI PUSH2 0x100 DUP1 DUP4 SLOAD DIV MUL DUP4 MSTORE SWAP2 PUSH1 0x20 ADD SWAP2 PUSH2 0x741 JUMP JUMPDEST DUP3 ADD SWAP2 SWAP1 PUSH1 0x0 MSTORE PUSH1 0x20 PUSH1 0x0 KECCAK256 SWAP1 JUMPDEST DUP2 SLOAD DUP2 MSTORE SWAP1 PUSH1 0x1 ADD SWAP1 PUSH1 0x20 ADD DUP1 DUP4 GT PUSH2 0x724 JUMPI DUP3 SWAP1 SUB PUSH1 0x1F AND DUP3 ADD SWAP2 JUMPDEST POP POP POP POP POP DUP2 MSTORE PUSH1 0x20 ADD SWAP1 PUSH1 0x1 ADD SWAP1 PUSH2 0x6A9 JUMP JUMPDEST POP POP POP POP SWAP1 POP SWAP1 JUMP JUMPDEST PUSH32 0x0 PUSH20 0xFFFFFFFFFFFFFFFFFFFFFFFFFFFFFFFFFFFFFFFF AND CALLER PUSH20 0xFFFFFFFFFFFFFFFFFFFFFFFFFFFFFFFFFFFFFFFF AND EQ PUSH2 0x7EC JUMPI PUSH1 0x40 MLOAD PUSH32 0x8C379A000000000000000000000000000000000000000000000000000000000 DUP2 MSTORE PUSH1 0x4 ADD PUSH2 0x7E3 SWAP1 PUSH2 0x27FF JUMP JUMPDEST PUSH1 0x40 MLOAD DUP1 SWAP2 SUB SWAP1 REVERT JUMPDEST DUP1 PUSH1 0x0 PUSH20 0xFFFFFFFFFFFFFFFFFFFFFFFFFFFFFFFFFFFFFFFF AND PUSH1 0x1 DUP3 PUSH1 0x40 MLOAD PUSH2 0x815 SWAP2 SWAP1 PUSH2 0x2850 JUMP JUMPDEST SWAP1 DUP2 MSTORE PUSH1 0x20 ADD PUSH1 0x40 MLOAD DUP1 SWAP2 SUB SWAP1 KECCAK256 PUSH1 0x0 ADD PUSH1 0x0 SWAP1 SLOAD SWAP1 PUSH2 0x100 EXP SWAP1 DIV PUSH20 0xFFFFFFFFFFFFFFFFFFFFFFFFFFFFFFFFFFFFFFFF AND PUSH20 0xFFFFFFFFFFFFFFFFFFFFFFFFFFFFFFFFFFFFFFFF AND EQ ISZERO PUSH2 0x89E JUMPI PUSH1 0x40 MLOAD PUSH32 0x8C379A000000000000000000000000000000000000000000000000000000000 DUP2 MSTORE PUSH1 0x4 ADD PUSH2 0x895 SWAP1 PUSH2 0x28D9 JUMP JUMPDEST PUSH1 0x40 MLOAD DUP1 SWAP2 SUB SWAP1 REVERT JUMPDEST PUSH1 0x0 PUSH1 0x1 DUP4 PUSH1 0x40 MLOAD PUSH2 0x8B0 SWAP2 SWAP1 PUSH2 0x2850 JUMP JUMPDEST SWAP1 DUP2 MSTORE PUSH1 0x20 ADD PUSH1 0x40 MLOAD DUP1 SWAP2 SUB SWAP1 KECCAK256 PUSH1 0x0 ADD PUSH1 0x0 SWAP1 SLOAD SWAP1 PUSH2 0x100 EXP SWAP1 DIV PUSH20 0xFFFFFFFFFFFFFFFFFFFFFFFFFFFFFFFFFFFFFFFF AND SWAP1 POP PUSH1 0x0 DUP1 SLOAD SWAP1 PUSH2 0x100 EXP SWAP1 DIV PUSH20 0xFFFFFFFFFFFFFFFFFFFFFFFFFFFFFFFFFFFFFFFF AND PUSH20 0xFFFFFFFFFFFFFFFFFFFFFFFFFFFFFFFFFFFFFFFF AND PUSH4 0x9DC29FAC DUP3 PUSH1 0x0 DUP1 SLOAD SWAP1 PUSH2 0x100 EXP SWAP1 DIV PUSH20 0xFFFFFFFFFFFFFFFFFFFFFFFFFFFFFFFFFFFFFFFF AND PUSH20 0xFFFFFFFFFFFFFFFFFFFFFFFFFFFFFFFFFFFFFFFF AND PUSH4 0x70A08231 DUP6 PUSH1 0x40 MLOAD DUP3 PUSH4 0xFFFFFFFF AND PUSH1 0xE0 SHL DUP2 MSTORE PUSH1 0x4 ADD PUSH2 0x97A SWAP2 SWAP1 PUSH2 0x25DA JUMP JUMPDEST PUSH1 0x20 PUSH1 0x40 MLOAD DUP1 DUP4 SUB DUP2 DUP7 GAS STATICCALL ISZERO DUP1 ISZERO PUSH2 0x997 JUMPI RETURNDATASIZE PUSH1 0x0 DUP1 RETURNDATACOPY RETURNDATASIZE PUSH1 0x0 REVERT JUMPDEST POP POP POP POP PUSH1 0x40 MLOAD RETURNDATASIZE PUSH1 0x1F NOT PUSH1 0x1F DUP3 ADD AND DUP3 ADD DUP1 PUSH1 0x40 MSTORE POP DUP2 ADD SWAP1 PUSH2 0x9BB SWAP2 SWAP1 PUSH2 0x2925 JUMP JUMPDEST PUSH1 0x40 MLOAD DUP4 PUSH4 0xFFFFFFFF AND PUSH1 0xE0 SHL DUP2 MSTORE PUSH1 0x4 ADD PUSH2 0x9D8 SWAP3 SWAP2 SWAP1 PUSH2 0x2952 JUMP JUMPDEST PUSH1 0x0 PUSH1 0x40 MLOAD DUP1 DUP4 SUB DUP2 PUSH1 0x0 DUP8 DUP1 EXTCODESIZE ISZERO DUP1 ISZERO PUSH2 0x9F2 JUMPI PUSH1 0x0 DUP1 REVERT JUMPDEST POP GAS CALL ISZERO DUP1 ISZERO PUSH2 0xA06 JUMPI RETURNDATASIZE PUSH1 0x0 DUP1 RETURNDATACOPY RETURNDATASIZE PUSH1 0x0 REVERT JUMPDEST POP POP POP POP PUSH1 0x0 PUSH1 0x1 DUP5 PUSH1 0x40 MLOAD PUSH2 0xA1C SWAP2 SWAP1 PUSH2 0x2850 JUMP JUMPDEST SWAP1 DUP2 MSTORE PUSH1 0x20 ADD PUSH1 0x40 MLOAD DUP1 SWAP2 SUB SWAP1 KECCAK256 PUSH1 0x1 ADD SLOAD SWAP1 POP PUSH1 0x0 PUSH1 0x2 PUSH1 0x1 PUSH1 0x2 DUP1 SLOAD SWAP1 POP PUSH2 0xA46 SWAP2 SWAP1 PUSH2 0x297B JUMP JUMPDEST DUP2 SLOAD DUP2 LT PUSH2 0xA57 JUMPI PUSH2 0xA56 PUSH2 0x25F5 JUMP JUMPDEST JUMPDEST SWAP1 PUSH1 0x0 MSTORE PUSH1 0x20 PUSH1 0x0 KECCAK256 ADD DUP1 SLOAD PUSH2 0xA6C SWAP1 PUSH2 0x2653 JUMP JUMPDEST DUP1 PUSH1 0x1F ADD PUSH1 0x20 DUP1 SWAP2 DIV MUL PUSH1 0x20 ADD PUSH1 0x40 MLOAD SWAP1 DUP2 ADD PUSH1 0x40 MSTORE DUP1 SWAP3 SWAP2 SWAP1 DUP2 DUP2 MSTORE PUSH1 0x20 ADD DUP3 DUP1 SLOAD PUSH2 0xA98 SWAP1 PUSH2 0x2653 JUMP JUMPDEST DUP1 ISZERO PUSH2 0xAE5 JUMPI DUP1 PUSH1 0x1F LT PUSH2 0xABA JUMPI PUSH2 0x100 DUP1 DUP4 SLOAD DIV MUL DUP4 MSTORE SWAP2 PUSH1 0x20 ADD SWAP2 PUSH2 0xAE5 JUMP JUMPDEST DUP3 ADD SWAP2 SWAP1 PUSH1 0x0 MSTORE PUSH1 0x20 PUSH1 0x0 KECCAK256 SWAP1 JUMPDEST DUP2 SLOAD DUP2 MSTORE SWAP1 PUSH1 0x1 ADD SWAP1 PUSH1 0x20 ADD DUP1 DUP4 GT PUSH2 0xAC8 JUMPI DUP3 SWAP1 SUB PUSH1 0x1F AND DUP3 ADD SWAP2 JUMPDEST POP POP POP POP POP SWAP1 POP DUP1 PUSH1 0x2 DUP4 DUP2 SLOAD DUP2 LT PUSH2 0xB01 JUMPI PUSH2 0xB00 PUSH2 0x25F5 JUMP JUMPDEST JUMPDEST SWAP1 PUSH1 0x0 MSTORE PUSH1 0x20 PUSH1 0x0 KECCAK256 ADD SWAP1 DUP1 MLOAD SWAP1 PUSH1 0x20 ADD SWAP1 PUSH2 0xB1E SWAP3 SWAP2 SWAP1 PUSH2 0x1D5B JUMP JUMPDEST POP DUP2 PUSH1 0x1 DUP3 PUSH1 0x40 MLOAD PUSH2 0xB30 SWAP2 SWAP1 PUSH2 0x2850 JUMP JUMPDEST SWAP1 DUP2 MSTORE PUSH1 0x20 ADD PUSH1 0x40 MLOAD DUP1 SWAP2 SUB SWAP1 KECCAK256 PUSH1 0x1 ADD DUP2 SWAP1 SSTORE POP PUSH1 0x2 DUP1 SLOAD DUP1 PUSH2 0xB57 JUMPI PUSH2 0xB56 PUSH2 0x29AF JUMP JUMPDEST JUMPDEST PUSH1 0x1 SWAP1 SUB DUP2 DUP2 SWAP1 PUSH1 0x0 MSTORE PUSH1 0x20 PUSH1 0x0 KECCAK256 ADD PUSH1 0x0 PUSH2 0xB73 SWAP2 SWAP1 PUSH2 0x1DE1 JUMP JUMPDEST SWAP1 SSTORE PUSH1 0x1 DUP6 PUSH1 0x40 MLOAD PUSH2 0xB85 SWAP2 SWAP1 PUSH2 0x2850 JUMP JUMPDEST SWAP1 DUP2 MSTORE PUSH1 0x20 ADD PUSH1 0x40 MLOAD DUP1 SWAP2 SUB SWAP1 KECCAK256 PUSH1 0x0 DUP1 DUP3 ADD PUSH1 0x0 PUSH2 0x100 EXP DUP2 SLOAD SWAP1 PUSH20 0xFFFFFFFFFFFFFFFFFFFFFFFFFFFFFFFFFFFFFFFF MUL NOT AND SWAP1 SSTORE PUSH1 0x1 DUP3 ADD PUSH1 0x0 SWAP1 SSTORE PUSH1 0x3 DUP3 ADD PUSH1 0x0 PUSH2 0xBD3 SWAP2 SWAP1 PUSH2 0x1E21 JUMP JUMPDEST POP POP POP POP POP POP POP JUMP JUMPDEST PUSH1 0x60 PUSH1 0x3 DUP1 SLOAD PUSH2 0xBEB SWAP1 PUSH2 0x2653 JUMP JUMPDEST DUP1 PUSH1 0x1F ADD PUSH1 0x20 DUP1 SWAP2 DIV MUL PUSH1 0x20 ADD PUSH1 0x40 MLOAD SWAP1 DUP2 ADD PUSH1 0x40 MSTORE DUP1 SWAP3 SWAP2 SWAP1 DUP2 DUP2 MSTORE PUSH1 0x20 ADD DUP3 DUP1 SLOAD PUSH2 0xC17 SWAP1 PUSH2 0x2653 JUMP JUMPDEST DUP1 ISZERO PUSH2 0xC64 JUMPI DUP1 PUSH1 0x1F LT PUSH2 0xC39 JUMPI PUSH2 0x100 DUP1 DUP4 SLOAD DIV MUL DUP4 MSTORE SWAP2 PUSH1 0x20 ADD SWAP2 PUSH2 0xC64 JUMP JUMPDEST DUP3 ADD SWAP2 SWAP1 PUSH1 0x0 MSTORE PUSH1 0x20 PUSH1 0x0 KECCAK256 SWAP1 JUMPDEST DUP2 SLOAD DUP2 MSTORE SWAP1 PUSH1 0x1 ADD SWAP1 PUSH1 0x20 ADD DUP1 DUP4 GT PUSH2 0xC47 JUMPI DUP3 SWAP1 SUB PUSH1 0x1F AND DUP3 ADD SWAP2 JUMPDEST POP POP POP POP POP SWAP1 POP SWAP1 JUMP JUMPDEST PUSH1 0x60 PUSH1 0x0 PUSH1 0x2 DUP1 SLOAD SWAP1 POP PUSH8 0xFFFFFFFFFFFFFFFF DUP2 GT ISZERO PUSH2 0xC91 JUMPI PUSH2 0xC90 PUSH2 0x1FBF JUMP JUMPDEST JUMPDEST PUSH1 0x40 MLOAD SWAP1 DUP1 DUP3 MSTORE DUP1 PUSH1 0x20 MUL PUSH1 0x20 ADD DUP3 ADD PUSH1 0x40 MSTORE DUP1 ISZERO PUSH2 0xCBF JUMPI DUP2 PUSH1 0x20 ADD PUSH1 0x20 DUP3 MUL DUP1 CALLDATASIZE DUP4 CALLDATACOPY DUP1 DUP3 ADD SWAP2 POP POP SWAP1 POP JUMPDEST POP SWAP1 POP PUSH1 0x0 JUMPDEST PUSH1 0x2 DUP1 SLOAD SWAP1 POP DUP2 LT ISZERO PUSH2 0xDFA JUMPI PUSH1 0x0 DUP1 SLOAD SWAP1 PUSH2 0x100 EXP SWAP1 DIV PUSH20 0xFFFFFFFFFFFFFFFFFFFFFFFFFFFFFFFFFFFFFFFF AND PUSH20 0xFFFFFFFFFFFFFFFFFFFFFFFFFFFFFFFFFFFFFFFF AND PUSH4 0x70A08231 PUSH1 0x1 PUSH1 0x2 DUP5 DUP2 SLOAD DUP2 LT PUSH2 0xD24 JUMPI PUSH2 0xD23 PUSH2 0x25F5 JUMP JUMPDEST JUMPDEST SWAP1 PUSH1 0x0 MSTORE PUSH1 0x20 PUSH1 0x0 KECCAK256 ADD PUSH1 0x40 MLOAD PUSH2 0xD3B SWAP2 SWAP1 PUSH2 0x2724 JUMP JUMPDEST SWAP1 DUP2 MSTORE PUSH1 0x20 ADD PUSH1 0x40 MLOAD DUP1 SWAP2 SUB SWAP1 KECCAK256 PUSH1 0x0 ADD PUSH1 0x0 SWAP1 SLOAD SWAP1 PUSH2 0x100 EXP SWAP1 DIV PUSH20 0xFFFFFFFFFFFFFFFFFFFFFFFFFFFFFFFFFFFFFFFF AND PUSH1 0x40 MLOAD DUP3 PUSH4 0xFFFFFFFF AND PUSH1 0xE0 SHL DUP2 MSTORE PUSH1 0x4 ADD PUSH2 0xD89 SWAP2 SWAP1 PUSH2 0x25DA JUMP JUMPDEST PUSH1 0x20 PUSH1 0x40 MLOAD DUP1 DUP4 SUB DUP2 DUP7 GAS STATICCALL ISZERO DUP1 ISZERO PUSH2 0xDA6 JUMPI RETURNDATASIZE PUSH1 0x0 DUP1 RETURNDATACOPY RETURNDATASIZE PUSH1 0x0 REVERT JUMPDEST POP POP POP POP PUSH1 0x40 MLOAD RETURNDATASIZE PUSH1 0x1F NOT PUSH1 0x1F DUP3 ADD AND DUP3 ADD DUP1 PUSH1 0x40 MSTORE POP DUP2 ADD SWAP1 PUSH2 0xDCA SWAP2 SWAP1 PUSH2 0x2925 JUMP JUMPDEST DUP3 DUP3 DUP2 MLOAD DUP2 LT PUSH2 0xDDD JUMPI PUSH2 0xDDC PUSH2 0x25F5 JUMP JUMPDEST JUMPDEST PUSH1 0x20 MUL PUSH1 0x20 ADD ADD DUP2 DUP2 MSTORE POP POP DUP1 PUSH2 0xDF3 SWAP1 PUSH2 0x276A JUMP JUMPDEST SWAP1 POP PUSH2 0xCC5 JUMP JUMPDEST POP DUP1 SWAP2 POP POP SWAP1 JUMP JUMPDEST PUSH1 0x0 DUP2 PUSH1 0x0 PUSH20 0xFFFFFFFFFFFFFFFFFFFFFFFFFFFFFFFFFFFFFFFF AND PUSH1 0x1 DUP3 PUSH1 0x40 MLOAD PUSH2 0xE2D SWAP2 SWAP1 PUSH2 0x2850 JUMP JUMPDEST SWAP1 DUP2 MSTORE PUSH1 0x20 ADD PUSH1 0x40 MLOAD DUP1 SWAP2 SUB SWAP1 KECCAK256 PUSH1 0x0 ADD PUSH1 0x0 SWAP1 SLOAD SWAP1 PUSH2 0x100 EXP SWAP1 DIV PUSH20 0xFFFFFFFFFFFFFFFFFFFFFFFFFFFFFFFFFFFFFFFF AND PUSH20 0xFFFFFFFFFFFFFFFFFFFFFFFFFFFFFFFFFFFFFFFF AND EQ ISZERO PUSH2 0xEB6 JUMPI PUSH1 0x40 MLOAD PUSH32 0x8C379A000000000000000000000000000000000000000000000000000000000 DUP2 MSTORE PUSH1 0x4 ADD PUSH2 0xEAD SWAP1 PUSH2 0x28D9 JUMP JUMPDEST PUSH1 0x40 MLOAD DUP1 SWAP2 SUB SWAP1 REVERT JUMPDEST PUSH1 0x0 DUP1 SLOAD SWAP1 PUSH2 0x100 EXP SWAP1 DIV PUSH20 0xFFFFFFFFFFFFFFFFFFFFFFFFFFFFFFFFFFFFFFFF AND PUSH20 0xFFFFFFFFFFFFFFFFFFFFFFFFFFFFFFFFFFFFFFFF AND PUSH4 0x70A08231 PUSH1 0x1 DUP6 PUSH1 0x40 MLOAD PUSH2 0xF02 SWAP2 SWAP1 PUSH2 0x2850 JUMP JUMPDEST SWAP1 DUP2 MSTORE PUSH1 0x20 ADD PUSH1 0x40 MLOAD DUP1 SWAP2 SUB SWAP1 KECCAK256 PUSH1 0x0 ADD PUSH1 0x0 SWAP1 SLOAD SWAP1 PUSH2 0x100 EXP SWAP1 DIV PUSH20 0xFFFFFFFFFFFFFFFFFFFFFFFFFFFFFFFFFFFFFFFF AND PUSH1 0x40 MLOAD DUP3 PUSH4 0xFFFFFFFF AND PUSH1 0xE0 SHL DUP2 MSTORE PUSH1 0x4 ADD PUSH2 0xF50 SWAP2 SWAP1 PUSH2 0x25DA JUMP JUMPDEST PUSH1 0x20 PUSH1 0x40 MLOAD DUP1 DUP4 SUB DUP2 DUP7 GAS STATICCALL ISZERO DUP1 ISZERO PUSH2 0xF6D JUMPI RETURNDATASIZE PUSH1 0x0 DUP1 RETURNDATACOPY RETURNDATASIZE PUSH1 0x0 REVERT JUMPDEST POP POP POP POP PUSH1 0x40 MLOAD RETURNDATASIZE PUSH1 0x1F NOT PUSH1 0x1F DUP3 ADD AND DUP3 ADD DUP1 PUSH1 0x40 MSTORE POP DUP2 ADD SWAP1 PUSH2 0xF91 SWAP2 SWAP1 PUSH2 0x2925 JUMP JUMPDEST SWAP2 POP POP SWAP2 SWAP1 POP JUMP JUMPDEST PUSH1 0x0 DUP1 PUSH1 0x0 SWAP1 SLOAD SWAP1 PUSH2 0x100 EXP SWAP1 DIV PUSH20 0xFFFFFFFFFFFFFFFFFFFFFFFFFFFFFFFFFFFFFFFF AND PUSH20 0xFFFFFFFFFFFFFFFFFFFFFFFFFFFFFFFFFFFFFFFF AND PUSH4 0x18160DDD PUSH1 0x40 MLOAD DUP2 PUSH4 0xFFFFFFFF AND PUSH1 0xE0 SHL DUP2 MSTORE PUSH1 0x4 ADD PUSH1 0x20 PUSH1 0x40 MLOAD DUP1 DUP4 SUB DUP2 DUP7 GAS STATICCALL ISZERO DUP1 ISZERO PUSH2 0x1007 JUMPI RETURNDATASIZE PUSH1 0x0 DUP1 RETURNDATACOPY RETURNDATASIZE PUSH1 0x0 REVERT JUMPDEST POP POP POP POP PUSH1 0x40 MLOAD RETURNDATASIZE PUSH1 0x1F NOT PUSH1 0x1F DUP3 ADD AND DUP3 ADD DUP1 PUSH1 0x40 MSTORE POP DUP2 ADD SWAP1 PUSH2 0x102B SWAP2 SWAP1 PUSH2 0x2925 JUMP JUMPDEST SWAP1 POP SWAP1 JUMP JUMPDEST PUSH32 0x0 PUSH20 0xFFFFFFFFFFFFFFFFFFFFFFFFFFFFFFFFFFFFFFFF AND CALLER PUSH20 0xFFFFFFFFFFFFFFFFFFFFFFFFFFFFFFFFFFFFFFFF AND EQ PUSH2 0x10BE JUMPI PUSH1 0x40 MLOAD PUSH32 0x8C379A000000000000000000000000000000000000000000000000000000000 DUP2 MSTORE PUSH1 0x4 ADD PUSH2 0x10B5 SWAP1 PUSH2 0x27FF JUMP JUMPDEST PUSH1 0x40 MLOAD DUP1 SWAP2 SUB SWAP1 REVERT JUMPDEST DUP1 PUSH1 0x3 SWAP1 DUP1 MLOAD SWAP1 PUSH1 0x20 ADD SWAP1 PUSH2 0x10D4 SWAP3 SWAP2 SWAP1 PUSH2 0x1D5B JUMP JUMPDEST POP POP JUMP JUMPDEST PUSH1 0x60 DUP2 PUSH1 0x0 PUSH20 0xFFFFFFFFFFFFFFFFFFFFFFFFFFFFFFFFFFFFFFFF AND PUSH1 0x1 DUP3 PUSH1 0x40 MLOAD PUSH2 0x1103 SWAP2 SWAP1 PUSH2 0x2850 JUMP JUMPDEST SWAP1 DUP2 MSTORE PUSH1 0x20 ADD PUSH1 0x40 MLOAD DUP1 SWAP2 SUB SWAP1 KECCAK256 PUSH1 0x0 ADD PUSH1 0x0 SWAP1 SLOAD SWAP1 PUSH2 0x100 EXP SWAP1 DIV PUSH20 0xFFFFFFFFFFFFFFFFFFFFFFFFFFFFFFFFFFFFFFFF AND PUSH20 0xFFFFFFFFFFFFFFFFFFFFFFFFFFFFFFFFFFFFFFFF AND EQ ISZERO PUSH2 0x118C JUMPI PUSH1 0x40 MLOAD PUSH32 0x8C379A000000000000000000000000000000000000000000000000000000000 DUP2 MSTORE PUSH1 0x4 ADD PUSH2 0x1183 SWAP1 PUSH2 0x28D9 JUMP JUMPDEST PUSH1 0x40 MLOAD DUP1 SWAP2 SUB SWAP1 REVERT JUMPDEST PUSH1 0x1 DUP4 PUSH1 0x40 MLOAD PUSH2 0x119C SWAP2 SWAP1 PUSH2 0x2850 JUMP JUMPDEST SWAP1 DUP2 MSTORE PUSH1 0x20 ADD PUSH1 0x40 MLOAD DUP1 SWAP2 SUB SWAP1 KECCAK256 PUSH1 0x3 ADD DUP1 SLOAD DUP1 PUSH1 0x20 MUL PUSH1 0x20 ADD PUSH1 0x40 MLOAD SWAP1 DUP2 ADD PUSH1 0x40 MSTORE DUP1 SWAP3 SWAP2 SWAP1 DUP2 DUP2 MSTORE PUSH1 0x20 ADD PUSH1 0x0 SWAP1 JUMPDEST DUP3 DUP3 LT ISZERO PUSH2 0x1279 JUMPI DUP4 DUP3 SWAP1 PUSH1 0x0 MSTORE PUSH1 0x20 PUSH1 0x0 KECCAK256 ADD DUP1 SLOAD PUSH2 0x11EC SWAP1 PUSH2 0x2653 JUMP JUMPDEST DUP1 PUSH1 0x1F ADD PUSH1 0x20 DUP1 SWAP2 DIV MUL PUSH1 0x20 ADD PUSH1 0x40 MLOAD SWAP1 DUP2 ADD PUSH1 0x40 MSTORE DUP1 SWAP3 SWAP2 SWAP1 DUP2 DUP2 MSTORE PUSH1 0x20 ADD DUP3 DUP1 SLOAD PUSH2 0x1218 SWAP1 PUSH2 0x2653 JUMP JUMPDEST DUP1 ISZERO PUSH2 0x1265 JUMPI DUP1 PUSH1 0x1F LT PUSH2 0x123A JUMPI PUSH2 0x100 DUP1 DUP4 SLOAD DIV MUL DUP4 MSTORE SWAP2 PUSH1 0x20 ADD SWAP2 PUSH2 0x1265 JUMP JUMPDEST DUP3 ADD SWAP2 SWAP1 PUSH1 0x0 MSTORE PUSH1 0x20 PUSH1 0x0 KECCAK256 SWAP1 JUMPDEST DUP2 SLOAD DUP2 MSTORE SWAP1 PUSH1 0x1 ADD SWAP1 PUSH1 0x20 ADD DUP1 DUP4 GT PUSH2 0x1248 JUMPI DUP3 SWAP1 SUB PUSH1 0x1F AND DUP3 ADD SWAP2 JUMPDEST POP POP POP POP POP DUP2 MSTORE PUSH1 0x20 ADD SWAP1 PUSH1 0x1 ADD SWAP1 PUSH2 0x11CD JUMP JUMPDEST POP POP POP POP SWAP2 POP POP SWAP2 SWAP1 POP JUMP JUMPDEST DUP2 PUSH1 0x0 PUSH20 0xFFFFFFFFFFFFFFFFFFFFFFFFFFFFFFFFFFFFFFFF AND PUSH1 0x1 DUP3 PUSH1 0x40 MLOAD PUSH2 0x12AE SWAP2 SWAP1 PUSH2 0x2850 JUMP JUMPDEST SWAP1 DUP2 MSTORE PUSH1 0x20 ADD PUSH1 0x40 MLOAD DUP1 SWAP2 SUB SWAP1 KECCAK256 PUSH1 0x0 ADD PUSH1 0x0 SWAP1 SLOAD SWAP1 PUSH2 0x100 EXP SWAP1 DIV PUSH20 0xFFFFFFFFFFFFFFFFFFFFFFFFFFFFFFFFFFFFFFFF AND PUSH20 0xFFFFFFFFFFFFFFFFFFFFFFFFFFFFFFFFFFFFFFFF AND EQ ISZERO PUSH2 0x1337 JUMPI PUSH1 0x40 MLOAD PUSH32 0x8C379A000000000000000000000000000000000000000000000000000000000 DUP2 MSTORE PUSH1 0x4 ADD PUSH2 0x132E SWAP1 PUSH2 0x28D9 JUMP JUMPDEST PUSH1 0x40 MLOAD DUP1 SWAP2 SUB SWAP1 REVERT JUMPDEST PUSH32 0x0 PUSH20 0xFFFFFFFFFFFFFFFFFFFFFFFFFFFFFFFFFFFFFFFF AND CALLER PUSH20 0xFFFFFFFFFFFFFFFFFFFFFFFFFFFFFFFFFFFFFFFF AND EQ PUSH2 0x13C5 JUMPI PUSH1 0x40 MLOAD PUSH32 0x8C379A000000000000000000000000000000000000000000000000000000000 DUP2 MSTORE PUSH1 0x4 ADD PUSH2 0x13BC SWAP1 PUSH2 0x27FF JUMP JUMPDEST PUSH1 0x40 MLOAD DUP1 SWAP2 SUB SWAP1 REVERT JUMPDEST PUSH1 0x0 PUSH1 0x1 DUP5 PUSH1 0x40 MLOAD PUSH2 0x13D7 SWAP2 SWAP1 PUSH2 0x2850 JUMP JUMPDEST SWAP1 DUP2 MSTORE PUSH1 0x20 ADD PUSH1 0x40 MLOAD DUP1 SWAP2 SUB SWAP1 KECCAK256 PUSH1 0x2 ADD DUP4 PUSH1 0x40 MLOAD PUSH2 0x13F6 SWAP2 SWAP1 PUSH2 0x2850 JUMP JUMPDEST SWAP1 DUP2 MSTORE PUSH1 0x20 ADD PUSH1 0x40 MLOAD DUP1 SWAP2 SUB SWAP1 KECCAK256 SLOAD SWAP1 POP PUSH1 0x0 DUP2 GT PUSH2 0x144A JUMPI PUSH1 0x40 MLOAD PUSH32 0x8C379A000000000000000000000000000000000000000000000000000000000 DUP2 MSTORE PUSH1 0x4 ADD PUSH2 0x1441 SWAP1 PUSH2 0x2A2A JUMP JUMPDEST PUSH1 0x40 MLOAD DUP1 SWAP2 SUB SWAP1 REVERT JUMPDEST PUSH1 0x0 PUSH1 0x1 DUP1 DUP7 PUSH1 0x40 MLOAD PUSH2 0x145D SWAP2 SWAP1 PUSH2 0x2850 JUMP JUMPDEST SWAP1 DUP2 MSTORE PUSH1 0x20 ADD PUSH1 0x40 MLOAD DUP1 SWAP2 SUB SWAP1 KECCAK256 PUSH1 0x3 ADD DUP1 SLOAD SWAP1 POP PUSH2 0x147C SWAP2 SWAP1 PUSH2 0x297B JUMP JUMPDEST SWAP1 POP PUSH1 0x0 PUSH1 0x1 DUP7 PUSH1 0x40 MLOAD PUSH2 0x1490 SWAP2 SWAP1 PUSH2 0x2850 JUMP JUMPDEST SWAP1 DUP2 MSTORE PUSH1 0x20 ADD PUSH1 0x40 MLOAD DUP1 SWAP2 SUB SWAP1 KECCAK256 PUSH1 0x3 ADD DUP3 DUP2 SLOAD DUP2 LT PUSH2 0x14B3 JUMPI PUSH2 0x14B2 PUSH2 0x25F5 JUMP JUMPDEST JUMPDEST SWAP1 PUSH1 0x0 MSTORE PUSH1 0x20 PUSH1 0x0 KECCAK256 ADD DUP1 SLOAD PUSH2 0x14C8 SWAP1 PUSH2 0x2653 JUMP JUMPDEST DUP1 PUSH1 0x1F ADD PUSH1 0x20 DUP1 SWAP2 DIV MUL PUSH1 0x20 ADD PUSH1 0x40 MLOAD SWAP1 DUP2 ADD PUSH1 0x40 MSTORE DUP1 SWAP3 SWAP2 SWAP1 DUP2 DUP2 MSTORE PUSH1 0x20 ADD DUP3 DUP1 SLOAD PUSH2 0x14F4 SWAP1 PUSH2 0x2653 JUMP JUMPDEST DUP1 ISZERO PUSH2 0x1541 JUMPI DUP1 PUSH1 0x1F LT PUSH2 0x1516 JUMPI PUSH2 0x100 DUP1 DUP4 SLOAD DIV MUL DUP4 MSTORE SWAP2 PUSH1 0x20 ADD SWAP2 PUSH2 0x1541 JUMP JUMPDEST DUP3 ADD SWAP2 SWAP1 PUSH1 0x0 MSTORE PUSH1 0x20 PUSH1 0x0 KECCAK256 SWAP1 JUMPDEST DUP2 SLOAD DUP2 MSTORE SWAP1 PUSH1 0x1 ADD SWAP1 PUSH1 0x20 ADD DUP1 DUP4 GT PUSH2 0x1524 JUMPI DUP3 SWAP1 SUB PUSH1 0x1F AND DUP3 ADD SWAP2 JUMPDEST POP POP POP POP POP SWAP1 POP DUP3 PUSH1 0x1 DUP8 PUSH1 0x40 MLOAD PUSH2 0x1559 SWAP2 SWAP1 PUSH2 0x2850 JUMP JUMPDEST SWAP1 DUP2 MSTORE PUSH1 0x20 ADD PUSH1 0x40 MLOAD DUP1 SWAP2 SUB SWAP1 KECCAK256 PUSH1 0x2 ADD DUP3 PUSH1 0x40 MLOAD PUSH2 0x1578 SWAP2 SWAP1 PUSH2 0x2850 JUMP JUMPDEST SWAP1 DUP2 MSTORE PUSH1 0x20 ADD PUSH1 0x40 MLOAD DUP1 SWAP2 SUB SWAP1 KECCAK256 DUP2 SWAP1 SSTORE POP PUSH1 0x0 PUSH1 0x1 DUP8 PUSH1 0x40 MLOAD PUSH2 0x159C SWAP2 SWAP1 PUSH2 0x2850 JUMP JUMPDEST SWAP1 DUP2 MSTORE PUSH1 0x20 ADD PUSH1 0x40 MLOAD DUP1 SWAP2 SUB SWAP1 KECCAK256 PUSH1 0x2 ADD DUP7 PUSH1 0x40 MLOAD PUSH2 0x15BB SWAP2 SWAP1 PUSH2 0x2850 JUMP JUMPDEST SWAP1 DUP2 MSTORE PUSH1 0x20 ADD PUSH1 0x40 MLOAD DUP1 SWAP2 SUB SWAP1 KECCAK256 DUP2 SWAP1 SSTORE POP DUP1 PUSH1 0x1 DUP8 PUSH1 0x40 MLOAD PUSH2 0x15DE SWAP2 SWAP1 PUSH2 0x2850 JUMP JUMPDEST SWAP1 DUP2 MSTORE PUSH1 0x20 ADD PUSH1 0x40 MLOAD DUP1 SWAP2 SUB SWAP1 KECCAK256 PUSH1 0x3 ADD PUSH1 0x1 DUP6 PUSH2 0x15FC SWAP2 SWAP1 PUSH2 0x297B JUMP JUMPDEST DUP2 SLOAD DUP2 LT PUSH2 0x160D JUMPI PUSH2 0x160C PUSH2 0x25F5 JUMP JUMPDEST JUMPDEST SWAP1 PUSH1 0x0 MSTORE PUSH1 0x20 PUSH1 0x0 KECCAK256 ADD SWAP1 DUP1 MLOAD SWAP1 PUSH1 0x20 ADD SWAP1 PUSH2 0x162A SWAP3 SWAP2 SWAP1 PUSH2 0x1D5B JUMP JUMPDEST POP PUSH1 0x1 DUP7 PUSH1 0x40 MLOAD PUSH2 0x163B SWAP2 SWAP1 PUSH2 0x2850 JUMP JUMPDEST SWAP1 DUP2 MSTORE PUSH1 0x20 ADD PUSH1 0x40 MLOAD DUP1 SWAP2 SUB SWAP1 KECCAK256 PUSH1 0x3 ADD DUP1 SLOAD DUP1 PUSH2 0x165C JUMPI PUSH2 0x165B PUSH2 0x29AF JUMP JUMPDEST JUMPDEST PUSH1 0x1 SWAP1 SUB DUP2 DUP2 SWAP1 PUSH1 0x0 MSTORE PUSH1 0x20 PUSH1 0x0 KECCAK256 ADD PUSH1 0x0 PUSH2 0x1678 SWAP2 SWAP1 PUSH2 0x1DE1 JUMP JUMPDEST SWAP1 SSTORE PUSH1 0x0 DUP1 SLOAD SWAP1 PUSH2 0x100 EXP SWAP1 DIV PUSH20 0xFFFFFFFFFFFFFFFFFFFFFFFFFFFFFFFFFFFFFFFF AND PUSH20 0xFFFFFFFFFFFFFFFFFFFFFFFFFFFFFFFFFFFFFFFF AND PUSH4 0x9DC29FAC PUSH1 0x1 DUP9 PUSH1 0x40 MLOAD PUSH2 0x16C6 SWAP2 SWAP1 PUSH2 0x2850 JUMP JUMPDEST SWAP1 DUP2 MSTORE PUSH1 0x20 ADD PUSH1 0x40 MLOAD DUP1 SWAP2 SUB SWAP1 KECCAK256 PUSH1 0x0 ADD PUSH1 0x0 SWAP1 SLOAD SWAP1 PUSH2 0x100 EXP SWAP1 DIV PUSH20 0xFFFFFFFFFFFFFFFFFFFFFFFFFFFFFFFFFFFFFFFF AND PUSH1 0x1 PUSH1 0x40 MLOAD DUP4 PUSH4 0xFFFFFFFF AND PUSH1 0xE0 SHL DUP2 MSTORE PUSH1 0x4 ADD PUSH2 0x1717 SWAP3 SWAP2 SWAP1 PUSH2 0x2A8F JUMP JUMPDEST PUSH1 0x0 PUSH1 0x40 MLOAD DUP1 DUP4 SUB DUP2 PUSH1 0x0 DUP8 DUP1 EXTCODESIZE ISZERO DUP1 ISZERO PUSH2 0x1731 JUMPI PUSH1 0x0 DUP1 REVERT JUMPDEST POP GAS CALL ISZERO DUP1 ISZERO PUSH2 0x1745 JUMPI RETURNDATASIZE PUSH1 0x0 DUP1 RETURNDATACOPY RETURNDATASIZE PUSH1 0x0 REVERT JUMPDEST POP POP POP POP POP POP POP POP POP POP JUMP JUMPDEST DUP2 PUSH1 0x0 PUSH20 0xFFFFFFFFFFFFFFFFFFFFFFFFFFFFFFFFFFFFFFFF AND PUSH1 0x1 DUP3 PUSH1 0x40 MLOAD PUSH2 0x177A SWAP2 SWAP1 PUSH2 0x2850 JUMP JUMPDEST SWAP1 DUP2 MSTORE PUSH1 0x20 ADD PUSH1 0x40 MLOAD DUP1 SWAP2 SUB SWAP1 KECCAK256 PUSH1 0x0 ADD PUSH1 0x0 SWAP1 SLOAD SWAP1 PUSH2 0x100 EXP SWAP1 DIV PUSH20 0xFFFFFFFFFFFFFFFFFFFFFFFFFFFFFFFFFFFFFFFF AND PUSH20 0xFFFFFFFFFFFFFFFFFFFFFFFFFFFFFFFFFFFFFFFF AND EQ ISZERO PUSH2 0x1803 JUMPI PUSH1 0x40 MLOAD PUSH32 0x8C379A000000000000000000000000000000000000000000000000000000000 DUP2 MSTORE PUSH1 0x4 ADD PUSH2 0x17FA SWAP1 PUSH2 0x28D9 JUMP JUMPDEST PUSH1 0x40 MLOAD DUP1 SWAP2 SUB SWAP1 REVERT JUMPDEST PUSH32 0x0 PUSH20 0xFFFFFFFFFFFFFFFFFFFFFFFFFFFFFFFFFFFFFFFF AND CALLER PUSH20 0xFFFFFFFFFFFFFFFFFFFFFFFFFFFFFFFFFFFFFFFF AND EQ PUSH2 0x1891 JUMPI PUSH1 0x40 MLOAD PUSH32 0x8C379A000000000000000000000000000000000000000000000000000000000 DUP2 MSTORE PUSH1 0x4 ADD PUSH2 0x1888 SWAP1 PUSH2 0x27FF JUMP JUMPDEST PUSH1 0x40 MLOAD DUP1 SWAP2 SUB SWAP1 REVERT JUMPDEST PUSH1 0x1 DUP4 PUSH1 0x40 MLOAD PUSH2 0x18A1 SWAP2 SWAP1 PUSH2 0x2850 JUMP JUMPDEST SWAP1 DUP2 MSTORE PUSH1 0x20 ADD PUSH1 0x40 MLOAD DUP1 SWAP2 SUB SWAP1 KECCAK256 PUSH1 0x3 ADD DUP3 SWAP1 DUP1 PUSH1 0x1 DUP2 SLOAD ADD DUP1 DUP3 SSTORE DUP1 SWAP2 POP POP PUSH1 0x1 SWAP1 SUB SWAP1 PUSH1 0x0 MSTORE PUSH1 0x20 PUSH1 0x0 KECCAK256 ADD PUSH1 0x0 SWAP1 SWAP2 SWAP1 SWAP2 SWAP1 SWAP2 POP SWAP1 DUP1 MLOAD SWAP1 PUSH1 0x20 ADD SWAP1 PUSH2 0x18EB SWAP3 SWAP2 SWAP1 PUSH2 0x1D5B JUMP JUMPDEST POP PUSH1 0x1 DUP4 PUSH1 0x40 MLOAD PUSH2 0x18FC SWAP2 SWAP1 PUSH2 0x2850 JUMP JUMPDEST SWAP1 DUP2 MSTORE PUSH1 0x20 ADD PUSH1 0x40 MLOAD DUP1 SWAP2 SUB SWAP1 KECCAK256 PUSH1 0x3 ADD DUP1 SLOAD SWAP1 POP PUSH1 0x1 DUP5 PUSH1 0x40 MLOAD PUSH2 0x1921 SWAP2 SWAP1 PUSH2 0x2850 JUMP JUMPDEST SWAP1 DUP2 MSTORE PUSH1 0x20 ADD PUSH1 0x40 MLOAD DUP1 SWAP2 SUB SWAP1 KECCAK256 PUSH1 0x2 ADD DUP4 PUSH1 0x40 MLOAD PUSH2 0x1940 SWAP2 SWAP1 PUSH2 0x2850 JUMP JUMPDEST SWAP1 DUP2 MSTORE PUSH1 0x20 ADD PUSH1 0x40 MLOAD DUP1 SWAP2 SUB SWAP1 KECCAK256 DUP2 SWAP1 SSTORE POP PUSH1 0x0 DUP1 SLOAD SWAP1 PUSH2 0x100 EXP SWAP1 DIV PUSH20 0xFFFFFFFFFFFFFFFFFFFFFFFFFFFFFFFFFFFFFFFF AND PUSH20 0xFFFFFFFFFFFFFFFFFFFFFFFFFFFFFFFFFFFFFFFF AND PUSH4 0x40C10F19 PUSH1 0x1 DUP6 PUSH1 0x40 MLOAD PUSH2 0x199E SWAP2 SWAP1 PUSH2 0x2850 JUMP JUMPDEST SWAP1 DUP2 MSTORE PUSH1 0x20 ADD PUSH1 0x40 MLOAD DUP1 SWAP2 SUB SWAP1 KECCAK256 PUSH1 0x0 ADD PUSH1 0x0 SWAP1 SLOAD SWAP1 PUSH2 0x100 EXP SWAP1 DIV PUSH20 0xFFFFFFFFFFFFFFFFFFFFFFFFFFFFFFFFFFFFFFFF AND PUSH1 0x1 PUSH1 0x40 MLOAD DUP4 PUSH4 0xFFFFFFFF AND PUSH1 0xE0 SHL DUP2 MSTORE PUSH1 0x4 ADD PUSH2 0x19EF SWAP3 SWAP2 SWAP1 PUSH2 0x2A8F JUMP JUMPDEST PUSH1 0x0 PUSH1 0x40 MLOAD DUP1 DUP4 SUB DUP2 PUSH1 0x0 DUP8 DUP1 EXTCODESIZE ISZERO DUP1 ISZERO PUSH2 0x1A09 JUMPI PUSH1 0x0 DUP1 REVERT JUMPDEST POP GAS CALL ISZERO DUP1 ISZERO PUSH2 0x1A1D JUMPI RETURNDATASIZE PUSH1 0x0 DUP1 RETURNDATACOPY RETURNDATASIZE PUSH1 0x0 REVERT JUMPDEST POP POP POP POP POP POP POP JUMP JUMPDEST PUSH1 0x0 DUP2 PUSH1 0x0 PUSH20 0xFFFFFFFFFFFFFFFFFFFFFFFFFFFFFFFFFFFFFFFF AND PUSH1 0x1 DUP3 PUSH1 0x40 MLOAD PUSH2 0x1A51 SWAP2 SWAP1 PUSH2 0x2850 JUMP JUMPDEST SWAP1 DUP2 MSTORE PUSH1 0x20 ADD PUSH1 0x40 MLOAD DUP1 SWAP2 SUB SWAP1 KECCAK256 PUSH1 0x0 ADD PUSH1 0x0 SWAP1 SLOAD SWAP1 PUSH2 0x100 EXP SWAP1 DIV PUSH20 0xFFFFFFFFFFFFFFFFFFFFFFFFFFFFFFFFFFFFFFFF AND PUSH20 0xFFFFFFFFFFFFFFFFFFFFFFFFFFFFFFFFFFFFFFFF AND EQ ISZERO PUSH2 0x1ADA JUMPI PUSH1 0x40 MLOAD PUSH32 0x8C379A000000000000000000000000000000000000000000000000000000000 DUP2 MSTORE PUSH1 0x4 ADD PUSH2 0x1AD1 SWAP1 PUSH2 0x28D9 JUMP JUMPDEST PUSH1 0x40 MLOAD DUP1 SWAP2 SUB SWAP1 REVERT JUMPDEST PUSH1 0x1 DUP4 PUSH1 0x40 MLOAD PUSH2 0x1AEA SWAP2 SWAP1 PUSH2 0x2850 JUMP JUMPDEST SWAP1 DUP2 MSTORE PUSH1 0x20 ADD PUSH1 0x40 MLOAD DUP1 SWAP2 SUB SWAP1 KECCAK256 PUSH1 0x0 ADD PUSH1 0x0 SWAP1 SLOAD SWAP1 PUSH2 0x100 EXP SWAP1 DIV PUSH20 0xFFFFFFFFFFFFFFFFFFFFFFFFFFFFFFFFFFFFFFFF AND SWAP2 POP POP SWAP2 SWAP1 POP JUMP JUMPDEST PUSH32 0x0 PUSH20 0xFFFFFFFFFFFFFFFFFFFFFFFFFFFFFFFFFFFFFFFF AND CALLER PUSH20 0xFFFFFFFFFFFFFFFFFFFFFFFFFFFFFFFFFFFFFFFF AND EQ PUSH2 0x1BB2 JUMPI PUSH1 0x40 MLOAD PUSH32 0x8C379A000000000000000000000000000000000000000000000000000000000 DUP2 MSTORE PUSH1 0x4 ADD PUSH2 0x1BA9 SWAP1 PUSH2 0x27FF JUMP JUMPDEST PUSH1 0x40 MLOAD DUP1 SWAP2 SUB SWAP1 REVERT JUMPDEST PUSH1 0x0 PUSH20 0xFFFFFFFFFFFFFFFFFFFFFFFFFFFFFFFFFFFFFFFF AND PUSH1 0x1 DUP3 PUSH1 0x40 MLOAD PUSH2 0x1BDA SWAP2 SWAP1 PUSH2 0x2850 JUMP JUMPDEST SWAP1 DUP2 MSTORE PUSH1 0x20 ADD PUSH1 0x40 MLOAD DUP1 SWAP2 SUB SWAP1 KECCAK256 PUSH1 0x0 ADD PUSH1 0x0 SWAP1 SLOAD SWAP1 PUSH2 0x100 EXP SWAP1 DIV PUSH20 0xFFFFFFFFFFFFFFFFFFFFFFFFFFFFFFFFFFFFFFFF AND PUSH20 0xFFFFFFFFFFFFFFFFFFFFFFFFFFFFFFFFFFFFFFFF AND EQ PUSH2 0x1C62 JUMPI PUSH1 0x40 MLOAD PUSH32 0x8C379A000000000000000000000000000000000000000000000000000000000 DUP2 MSTORE PUSH1 0x4 ADD PUSH2 0x1C59 SWAP1 PUSH2 0x2B04 JUMP JUMPDEST PUSH1 0x40 MLOAD DUP1 SWAP2 SUB SWAP1 REVERT JUMPDEST PUSH1 0x0 DUP2 PUSH1 0x40 MLOAD PUSH1 0x20 ADD PUSH2 0x1C75 SWAP2 SWAP1 PUSH2 0x2850 JUMP JUMPDEST PUSH1 0x40 MLOAD PUSH1 0x20 DUP2 DUP4 SUB SUB DUP2 MSTORE SWAP1 PUSH1 0x40 MSTORE DUP1 MLOAD SWAP1 PUSH1 0x20 ADD KECCAK256 PUSH1 0x60 SHR SWAP1 POP DUP1 PUSH1 0x1 DUP4 PUSH1 0x40 MLOAD PUSH2 0x1CA1 SWAP2 SWAP1 PUSH2 0x2850 JUMP JUMPDEST SWAP1 DUP2 MSTORE PUSH1 0x20 ADD PUSH1 0x40 MLOAD DUP1 SWAP2 SUB SWAP1 KECCAK256 PUSH1 0x0 ADD PUSH1 0x0 PUSH2 0x100 EXP DUP2 SLOAD DUP2 PUSH20 0xFFFFFFFFFFFFFFFFFFFFFFFFFFFFFFFFFFFFFFFF MUL NOT AND SWAP1 DUP4 PUSH20 0xFFFFFFFFFFFFFFFFFFFFFFFFFFFFFFFFFFFFFFFF AND MUL OR SWAP1 SSTORE POP PUSH1 0x2 DUP1 SLOAD SWAP1 POP PUSH1 0x1 DUP4 PUSH1 0x40 MLOAD PUSH2 0x1D06 SWAP2 SWAP1 PUSH2 0x2850 JUMP JUMPDEST SWAP1 DUP2 MSTORE PUSH1 0x20 ADD PUSH1 0x40 MLOAD DUP1 SWAP2 SUB SWAP1 KECCAK256 PUSH1 0x1 ADD DUP2 SWAP1 SSTORE POP PUSH1 0x2 DUP3 SWAP1 DUP1 PUSH1 0x1 DUP2 SLOAD ADD DUP1 DUP3 SSTORE DUP1 SWAP2 POP POP PUSH1 0x1 SWAP1 SUB SWAP1 PUSH1 0x0 MSTORE PUSH1 0x20 PUSH1 0x0 KECCAK256 ADD PUSH1 0x0 SWAP1 SWAP2 SWAP1 SWAP2 SWAP1 SWAP2 POP SWAP1 DUP1 MLOAD SWAP1 PUSH1 0x20 ADD SWAP1 PUSH2 0x1D56 SWAP3 SWAP2 SWAP1 PUSH2 0x1D5B JUMP JUMPDEST POP POP POP JUMP JUMPDEST DUP3 DUP1 SLOAD PUSH2 0x1D67 SWAP1 PUSH2 0x2653 JUMP JUMPDEST SWAP1 PUSH1 0x0 MSTORE PUSH1 0x20 PUSH1 0x0 KECCAK256 SWAP1 PUSH1 0x1F ADD PUSH1 0x20 SWAP1 DIV DUP2 ADD SWAP3 DUP3 PUSH2 0x1D89 JUMPI PUSH1 0x0 DUP6 SSTORE PUSH2 0x1DD0 JUMP JUMPDEST DUP3 PUSH1 0x1F LT PUSH2 0x1DA2 JUMPI DUP1 MLOAD PUSH1 0xFF NOT AND DUP4 DUP1 ADD OR DUP6 SSTORE PUSH2 0x1DD0 JUMP JUMPDEST DUP3 DUP1 ADD PUSH1 0x1 ADD DUP6 SSTORE DUP3 ISZERO PUSH2 0x1DD0 JUMPI SWAP2 DUP3 ADD JUMPDEST DUP3 DUP2 GT ISZERO PUSH2 0x1DCF JUMPI DUP3 MLOAD DUP3 SSTORE SWAP2 PUSH1 0x20 ADD SWAP2 SWAP1 PUSH1 0x1 ADD SWAP1 PUSH2 0x1DB4 JUMP JUMPDEST JUMPDEST POP SWAP1 POP PUSH2 0x1DDD SWAP2 SWAP1 PUSH2 0x1E42 JUMP JUMPDEST POP SWAP1 JUMP JUMPDEST POP DUP1 SLOAD PUSH2 0x1DED SWAP1 PUSH2 0x2653 JUMP JUMPDEST PUSH1 0x0 DUP3 SSTORE DUP1 PUSH1 0x1F LT PUSH2 0x1DFF JUMPI POP PUSH2 0x1E1E JUMP JUMPDEST PUSH1 0x1F ADD PUSH1 0x20 SWAP1 DIV SWAP1 PUSH1 0x0 MSTORE PUSH1 0x20 PUSH1 0x0 KECCAK256 SWAP1 DUP2 ADD SWAP1 PUSH2 0x1E1D SWAP2 SWAP1 PUSH2 0x1E42 JUMP JUMPDEST JUMPDEST POP JUMP JUMPDEST POP DUP1 SLOAD PUSH1 0x0 DUP3 SSTORE SWAP1 PUSH1 0x0 MSTORE PUSH1 0x20 PUSH1 0x0 KECCAK256 SWAP1 DUP2 ADD SWAP1 PUSH2 0x1E3F SWAP2 SWAP1 PUSH2 0x1E5F JUMP JUMPDEST POP JUMP JUMPDEST JUMPDEST DUP1 DUP3 GT ISZERO PUSH2 0x1E5B JUMPI PUSH1 0x0 DUP2 PUSH1 0x0 SWAP1 SSTORE POP PUSH1 0x1 ADD PUSH2 0x1E43 JUMP JUMPDEST POP SWAP1 JUMP JUMPDEST JUMPDEST DUP1 DUP3 GT ISZERO PUSH2 0x1E7F JUMPI PUSH1 0x0 DUP2 DUP2 PUSH2 0x1E76 SWAP2 SWAP1 PUSH2 0x1DE1 JUMP JUMPDEST POP PUSH1 0x1 ADD PUSH2 0x1E60 JUMP JUMPDEST POP SWAP1 JUMP JUMPDEST PUSH1 0x0 DUP2 MLOAD SWAP1 POP SWAP2 SWAP1 POP JUMP JUMPDEST PUSH1 0x0 DUP3 DUP3 MSTORE PUSH1 0x20 DUP3 ADD SWAP1 POP SWAP3 SWAP2 POP POP JUMP JUMPDEST PUSH1 0x0 DUP2 SWAP1 POP PUSH1 0x20 DUP3 ADD SWAP1 POP SWAP2 SWAP1 POP JUMP JUMPDEST PUSH1 0x0 PUSH20 0xFFFFFFFFFFFFFFFFFFFFFFFFFFFFFFFFFFFFFFFF DUP3 AND SWAP1 POP SWAP2 SWAP1 POP JUMP JUMPDEST PUSH1 0x0 PUSH2 0x1EDA DUP3 PUSH2 0x1EAF JUMP JUMPDEST SWAP1 POP SWAP2 SWAP1 POP JUMP JUMPDEST PUSH2 0x1EEA DUP2 PUSH2 0x1ECF JUMP JUMPDEST DUP3 MSTORE POP POP JUMP JUMPDEST PUSH1 0x0 PUSH2 0x1EFC DUP4 DUP4 PUSH2 0x1EE1 JUMP JUMPDEST PUSH1 0x20 DUP4 ADD SWAP1 POP SWAP3 SWAP2 POP POP JUMP JUMPDEST PUSH1 0x0 PUSH1 0x20 DUP3 ADD SWAP1 POP SWAP2 SWAP1 POP JUMP JUMPDEST PUSH1 0x0 PUSH2 0x1F20 DUP3 PUSH2 0x1E83 JUMP JUMPDEST PUSH2 0x1F2A DUP2 DUP6 PUSH2 0x1E8E JUMP JUMPDEST SWAP4 POP PUSH2 0x1F35 DUP4 PUSH2 0x1E9F JUMP JUMPDEST DUP1 PUSH1 0x0 JUMPDEST DUP4 DUP2 LT ISZERO PUSH2 0x1F66 JUMPI DUP2 MLOAD PUSH2 0x1F4D DUP9 DUP3 PUSH2 0x1EF0 JUMP JUMPDEST SWAP8 POP PUSH2 0x1F58 DUP4 PUSH2 0x1F08 JUMP JUMPDEST SWAP3 POP POP PUSH1 0x1 DUP2 ADD SWAP1 POP PUSH2 0x1F39 JUMP JUMPDEST POP DUP6 SWAP4 POP POP POP POP SWAP3 SWAP2 POP POP JUMP JUMPDEST PUSH1 0x0 PUSH1 0x20 DUP3 ADD SWAP1 POP DUP2 DUP2 SUB PUSH1 0x0 DUP4 ADD MSTORE PUSH2 0x1F8D DUP2 DUP5 PUSH2 0x1F15 JUMP JUMPDEST SWAP1 POP SWAP3 SWAP2 POP POP JUMP JUMPDEST PUSH1 0x0 PUSH1 0x40 MLOAD SWAP1 POP SWAP1 JUMP JUMPDEST PUSH1 0x0 DUP1 REVERT JUMPDEST PUSH1 0x0 DUP1 REVERT JUMPDEST PUSH1 0x0 DUP1 REVERT JUMPDEST PUSH1 0x0 PUSH1 0x1F NOT PUSH1 0x1F DUP4 ADD AND SWAP1 POP SWAP2 SWAP1 POP JUMP JUMPDEST PUSH32 0x4E487B7100000000000000000000000000000000000000000000000000000000 PUSH1 0x0 MSTORE PUSH1 0x41 PUSH1 0x4 MSTORE PUSH1 0x24 PUSH1 0x0 REVERT JUMPDEST PUSH2 0x1FF7 DUP3 PUSH2 0x1FAE JUMP JUMPDEST DUP2 ADD DUP2 DUP2 LT PUSH8 0xFFFFFFFFFFFFFFFF DUP3 GT OR ISZERO PUSH2 0x2016 JUMPI PUSH2 0x2015 PUSH2 0x1FBF JUMP JUMPDEST JUMPDEST DUP1 PUSH1 0x40 MSTORE POP POP POP JUMP JUMPDEST PUSH1 0x0 PUSH2 0x2029 PUSH2 0x1F95 JUMP JUMPDEST SWAP1 POP PUSH2 0x2035 DUP3 DUP3 PUSH2 0x1FEE JUMP JUMPDEST SWAP2 SWAP1 POP JUMP JUMPDEST PUSH1 0x0 PUSH8 0xFFFFFFFFFFFFFFFF DUP3 GT ISZERO PUSH2 0x2055 JUMPI PUSH2 0x2054 PUSH2 0x1FBF JUMP JUMPDEST JUMPDEST PUSH1 0x20 DUP3 MUL SWAP1 POP PUSH1 0x20 DUP2 ADD SWAP1 POP SWAP2 SWAP1 POP JUMP JUMPDEST PUSH1 0x0 DUP1 REVERT JUMPDEST PUSH1 0x0 DUP1 REVERT JUMPDEST PUSH1 0x0 PUSH8 0xFFFFFFFFFFFFFFFF DUP3 GT ISZERO PUSH2 0x208B JUMPI PUSH2 0x208A PUSH2 0x1FBF JUMP JUMPDEST JUMPDEST PUSH2 0x2094 DUP3 PUSH2 0x1FAE JUMP JUMPDEST SWAP1 POP PUSH1 0x20 DUP2 ADD SWAP1 POP SWAP2 SWAP1 POP JUMP JUMPDEST DUP3 DUP2 DUP4 CALLDATACOPY PUSH1 0x0 DUP4 DUP4 ADD MSTORE POP POP POP JUMP JUMPDEST PUSH1 0x0 PUSH2 0x20C3 PUSH2 0x20BE DUP5 PUSH2 0x2070 JUMP JUMPDEST PUSH2 0x201F JUMP JUMPDEST SWAP1 POP DUP3 DUP2 MSTORE PUSH1 0x20 DUP2 ADD DUP5 DUP5 DUP5 ADD GT ISZERO PUSH2 0x20DF JUMPI PUSH2 0x20DE PUSH2 0x206B JUMP JUMPDEST JUMPDEST PUSH2 0x20EA DUP5 DUP3 DUP6 PUSH2 0x20A1 JUMP JUMPDEST POP SWAP4 SWAP3 POP POP POP JUMP JUMPDEST PUSH1 0x0 DUP3 PUSH1 0x1F DUP4 ADD SLT PUSH2 0x2107 JUMPI PUSH2 0x2106 PUSH2 0x1FA9 JUMP JUMPDEST JUMPDEST DUP2 CALLDATALOAD PUSH2 0x2117 DUP5 DUP3 PUSH1 0x20 DUP7 ADD PUSH2 0x20B0 JUMP JUMPDEST SWAP2 POP POP SWAP3 SWAP2 POP POP JUMP JUMPDEST PUSH1 0x0 PUSH2 0x2133 PUSH2 0x212E DUP5 PUSH2 0x203A JUMP JUMPDEST PUSH2 0x201F JUMP JUMPDEST SWAP1 POP DUP1 DUP4 DUP3 MSTORE PUSH1 0x20 DUP3 ADD SWAP1 POP PUSH1 0x20 DUP5 MUL DUP4 ADD DUP6 DUP2 GT ISZERO PUSH2 0x2156 JUMPI PUSH2 0x2155 PUSH2 0x2066 JUMP JUMPDEST JUMPDEST DUP4 JUMPDEST DUP2 DUP2 LT ISZERO PUSH2 0x219D JUMPI DUP1 CALLDATALOAD PUSH8 0xFFFFFFFFFFFFFFFF DUP2 GT ISZERO PUSH2 0x217B JUMPI PUSH2 0x217A PUSH2 0x1FA9 JUMP JUMPDEST JUMPDEST DUP1 DUP7 ADD PUSH2 0x2188 DUP10 DUP3 PUSH2 0x20F2 JUMP JUMPDEST DUP6 MSTORE PUSH1 0x20 DUP6 ADD SWAP5 POP POP POP PUSH1 0x20 DUP2 ADD SWAP1 POP PUSH2 0x2158 JUMP JUMPDEST POP POP POP SWAP4 SWAP3 POP POP POP JUMP JUMPDEST PUSH1 0x0 DUP3 PUSH1 0x1F DUP4 ADD SLT PUSH2 0x21BC JUMPI PUSH2 0x21BB PUSH2 0x1FA9 JUMP JUMPDEST JUMPDEST DUP2 CALLDATALOAD PUSH2 0x21CC DUP5 DUP3 PUSH1 0x20 DUP7 ADD PUSH2 0x2120 JUMP JUMPDEST SWAP2 POP POP SWAP3 SWAP2 POP POP JUMP JUMPDEST PUSH1 0x0 PUSH1 0x20 DUP3 DUP5 SUB SLT ISZERO PUSH2 0x21EB JUMPI PUSH2 0x21EA PUSH2 0x1F9F JUMP JUMPDEST JUMPDEST PUSH1 0x0 DUP3 ADD CALLDATALOAD PUSH8 0xFFFFFFFFFFFFFFFF DUP2 GT ISZERO PUSH2 0x2209 JUMPI PUSH2 0x2208 PUSH2 0x1FA4 JUMP JUMPDEST JUMPDEST PUSH2 0x2215 DUP5 DUP3 DUP6 ADD PUSH2 0x21A7 JUMP JUMPDEST SWAP2 POP POP SWAP3 SWAP2 POP POP JUMP JUMPDEST PUSH1 0x0 DUP2 MLOAD SWAP1 POP SWAP2 SWAP1 POP JUMP JUMPDEST PUSH1 0x0 DUP3 DUP3 MSTORE PUSH1 0x20 DUP3 ADD SWAP1 POP SWAP3 SWAP2 POP POP JUMP JUMPDEST PUSH1 0x0 DUP2 SWAP1 POP PUSH1 0x20 DUP3 ADD SWAP1 POP SWAP2 SWAP1 POP JUMP JUMPDEST PUSH1 0x0 DUP2 MLOAD SWAP1 POP SWAP2 SWAP1 POP JUMP JUMPDEST PUSH1 0x0 DUP3 DUP3 MSTORE PUSH1 0x20 DUP3 ADD SWAP1 POP SWAP3 SWAP2 POP POP JUMP JUMPDEST PUSH1 0x0 JUMPDEST DUP4 DUP2 LT ISZERO PUSH2 0x2284 JUMPI DUP1 DUP3 ADD MLOAD DUP2 DUP5 ADD MSTORE PUSH1 0x20 DUP2 ADD SWAP1 POP PUSH2 0x2269 JUMP JUMPDEST DUP4 DUP2 GT ISZERO PUSH2 0x2293 JUMPI PUSH1 0x0 DUP5 DUP5 ADD MSTORE JUMPDEST POP POP POP POP JUMP JUMPDEST PUSH1 0x0 PUSH2 0x22A4 DUP3 PUSH2 0x224A JUMP JUMPDEST PUSH2 0x22AE DUP2 DUP6 PUSH2 0x2255 JUMP JUMPDEST SWAP4 POP PUSH2 0x22BE DUP2 DUP6 PUSH1 0x20 DUP7 ADD PUSH2 0x2266 JUMP JUMPDEST PUSH2 0x22C7 DUP2 PUSH2 0x1FAE JUMP JUMPDEST DUP5 ADD SWAP2 POP POP SWAP3 SWAP2 POP POP JUMP JUMPDEST PUSH1 0x0 PUSH2 0x22DE DUP4 DUP4 PUSH2 0x2299 JUMP JUMPDEST SWAP1 POP SWAP3 SWAP2 POP POP JUMP JUMPDEST PUSH1 0x0 PUSH1 0x20 DUP3 ADD SWAP1 POP SWAP2 SWAP1 POP JUMP JUMPDEST PUSH1 0x0 PUSH2 0x22FE DUP3 PUSH2 0x221E JUMP JUMPDEST PUSH2 0x2308 DUP2 DUP6 PUSH2 0x2229 JUMP JUMPDEST SWAP4 POP DUP4 PUSH1 0x20 DUP3 MUL DUP6 ADD PUSH2 0x231A DUP6 PUSH2 0x223A JUMP JUMPDEST DUP1 PUSH1 0x0 JUMPDEST DUP6 DUP2 LT ISZERO PUSH2 0x2356 JUMPI DUP5 DUP5 SUB DUP10 MSTORE DUP2 MLOAD PUSH2 0x2337 DUP6 DUP3 PUSH2 0x22D2 JUMP JUMPDEST SWAP5 POP PUSH2 0x2342 DUP4 PUSH2 0x22E6 JUMP JUMPDEST SWAP3 POP PUSH1 0x20 DUP11 ADD SWAP10 POP POP PUSH1 0x1 DUP2 ADD SWAP1 POP PUSH2 0x231E JUMP JUMPDEST POP DUP3 SWAP8 POP DUP8 SWAP6 POP POP POP POP POP POP SWAP3 SWAP2 POP POP JUMP JUMPDEST PUSH1 0x0 PUSH1 0x20 DUP3 ADD SWAP1 POP DUP2 DUP2 SUB PUSH1 0x0 DUP4 ADD MSTORE PUSH2 0x2382 DUP2 DUP5 PUSH2 0x22F3 JUMP JUMPDEST SWAP1 POP SWAP3 SWAP2 POP POP JUMP JUMPDEST PUSH1 0x0 PUSH1 0x20 DUP3 DUP5 SUB SLT ISZERO PUSH2 0x23A0 JUMPI PUSH2 0x239F PUSH2 0x1F9F JUMP JUMPDEST JUMPDEST PUSH1 0x0 DUP3 ADD CALLDATALOAD PUSH8 0xFFFFFFFFFFFFFFFF DUP2 GT ISZERO PUSH2 0x23BE JUMPI PUSH2 0x23BD PUSH2 0x1FA4 JUMP JUMPDEST JUMPDEST PUSH2 0x23CA DUP5 DUP3 DUP6 ADD PUSH2 0x20F2 JUMP JUMPDEST SWAP2 POP POP SWAP3 SWAP2 POP POP JUMP JUMPDEST PUSH1 0x0 DUP3 DUP3 MSTORE PUSH1 0x20 DUP3 ADD SWAP1 POP SWAP3 SWAP2 POP POP JUMP JUMPDEST PUSH1 0x0 PUSH2 0x23EF DUP3 PUSH2 0x224A JUMP JUMPDEST PUSH2 0x23F9 DUP2 DUP6 PUSH2 0x23D3 JUMP JUMPDEST SWAP4 POP PUSH2 0x2409 DUP2 DUP6 PUSH1 0x20 DUP7 ADD PUSH2 0x2266 JUMP JUMPDEST PUSH2 0x2412 DUP2 PUSH2 0x1FAE JUMP JUMPDEST DUP5 ADD SWAP2 POP POP SWAP3 SWAP2 POP POP JUMP JUMPDEST PUSH1 0x0 PUSH1 0x20 DUP3 ADD SWAP1 POP DUP2 DUP2 SUB PUSH1 0x0 DUP4 ADD MSTORE PUSH2 0x2437 DUP2 DUP5 PUSH2 0x23E4 JUMP JUMPDEST SWAP1 POP SWAP3 SWAP2 POP POP JUMP JUMPDEST PUSH1 0x0 DUP2 MLOAD SWAP1 POP SWAP2 SWAP1 POP JUMP JUMPDEST PUSH1 0x0 DUP3 DUP3 MSTORE PUSH1 0x20 DUP3 ADD SWAP1 POP SWAP3 SWAP2 POP POP JUMP JUMPDEST PUSH1 0x0 DUP2 SWAP1 POP PUSH1 0x20 DUP3 ADD SWAP1 POP SWAP2 SWAP1 POP JUMP JUMPDEST PUSH1 0x0 DUP2 SWAP1 POP SWAP2 SWAP1 POP JUMP JUMPDEST PUSH2 0x247E DUP2 PUSH2 0x246B JUMP JUMPDEST DUP3 MSTORE POP POP JUMP JUMPDEST PUSH1 0x0 PUSH2 0x2490 DUP4 DUP4 PUSH2 0x2475 JUMP JUMPDEST PUSH1 0x20 DUP4 ADD SWAP1 POP SWAP3 SWAP2 POP POP JUMP JUMPDEST PUSH1 0x0 PUSH1 0x20 DUP3 ADD SWAP1 POP SWAP2 SWAP1 POP JUMP JUMPDEST PUSH1 0x0 PUSH2 0x24B4 DUP3 PUSH2 0x243F JUMP JUMPDEST PUSH2 0x24BE DUP2 DUP6 PUSH2 0x244A JUMP JUMPDEST SWAP4 POP PUSH2 0x24C9 DUP4 PUSH2 0x245B JUMP JUMPDEST DUP1 PUSH1 0x0 JUMPDEST DUP4 DUP2 LT ISZERO PUSH2 0x24FA JUMPI DUP2 MLOAD PUSH2 0x24E1 DUP9 DUP3 PUSH2 0x2484 JUMP JUMPDEST SWAP8 POP PUSH2 0x24EC DUP4 PUSH2 0x249C JUMP JUMPDEST SWAP3 POP POP PUSH1 0x1 DUP2 ADD SWAP1 POP PUSH2 0x24CD JUMP JUMPDEST POP DUP6 SWAP4 POP POP POP POP SWAP3 SWAP2 POP POP JUMP JUMPDEST PUSH1 0x0 PUSH1 0x20 DUP3 ADD SWAP1 POP DUP2 DUP2 SUB PUSH1 0x0 DUP4 ADD MSTORE PUSH2 0x2521 DUP2 DUP5 PUSH2 0x24A9 JUMP JUMPDEST SWAP1 POP SWAP3 SWAP2 POP POP JUMP JUMPDEST PUSH2 0x2532 DUP2 PUSH2 0x246B JUMP JUMPDEST DUP3 MSTORE POP POP JUMP JUMPDEST PUSH1 0x0 PUSH1 0x20 DUP3 ADD SWAP1 POP PUSH2 0x254D PUSH1 0x0 DUP4 ADD DUP5 PUSH2 0x2529 JUMP JUMPDEST SWAP3 SWAP2 POP POP JUMP JUMPDEST PUSH1 0x0 DUP1 PUSH1 0x40 DUP4 DUP6 SUB SLT ISZERO PUSH2 0x256A JUMPI PUSH2 0x2569 PUSH2 0x1F9F JUMP JUMPDEST JUMPDEST PUSH1 0x0 DUP4 ADD CALLDATALOAD PUSH8 0xFFFFFFFFFFFFFFFF DUP2 GT ISZERO PUSH2 0x2588 JUMPI PUSH2 0x2587 PUSH2 0x1FA4 JUMP JUMPDEST JUMPDEST PUSH2 0x2594 DUP6 DUP3 DUP7 ADD PUSH2 0x20F2 JUMP JUMPDEST SWAP3 POP POP PUSH1 0x20 DUP4 ADD CALLDATALOAD PUSH8 0xFFFFFFFFFFFFFFFF DUP2 GT ISZERO PUSH2 0x25B5 JUMPI PUSH2 0x25B4 PUSH2 0x1FA4 JUMP JUMPDEST JUMPDEST PUSH2 0x25C1 DUP6 DUP3 DUP7 ADD PUSH2 0x20F2 JUMP JUMPDEST SWAP2 POP POP SWAP3 POP SWAP3 SWAP1 POP JUMP JUMPDEST PUSH2 0x25D4 DUP2 PUSH2 0x1ECF JUMP JUMPDEST DUP3 MSTORE POP POP JUMP JUMPDEST PUSH1 0x0 PUSH1 0x20 DUP3 ADD SWAP1 POP PUSH2 0x25EF PUSH1 0x0 DUP4 ADD DUP5 PUSH2 0x25CB JUMP JUMPDEST SWAP3 SWAP2 POP POP JUMP JUMPDEST PUSH32 0x4E487B7100000000000000000000000000000000000000000000000000000000 PUSH1 0x0 MSTORE PUSH1 0x32 PUSH1 0x4 MSTORE PUSH1 0x24 PUSH1 0x0 REVERT JUMPDEST PUSH32 0x4E487B7100000000000000000000000000000000000000000000000000000000 PUSH1 0x0 MSTORE PUSH1 0x22 PUSH1 0x4 MSTORE PUSH1 0x24 PUSH1 0x0 REVERT JUMPDEST PUSH1 0x0 PUSH1 0x2 DUP3 DIV SWAP1 POP PUSH1 0x1 DUP3 AND DUP1 PUSH2 0x266B JUMPI PUSH1 0x7F DUP3 AND SWAP2 POP JUMPDEST PUSH1 0x20 DUP3 LT DUP2 EQ ISZERO PUSH2 0x267F JUMPI PUSH2 0x267E PUSH2 0x2624 JUMP JUMPDEST JUMPDEST POP SWAP2 SWAP1 POP JUMP JUMPDEST PUSH1 0x0 DUP2 SWAP1 POP SWAP3 SWAP2 POP POP JUMP JUMPDEST PUSH1 0x0 DUP2 SWAP1 POP DUP2 PUSH1 0x0 MSTORE PUSH1 0x20 PUSH1 0x0 KECCAK256 SWAP1 POP SWAP2 SWAP1 POP JUMP JUMPDEST PUSH1 0x0 DUP2 SLOAD PUSH2 0x26B2 DUP2 PUSH2 0x2653 JUMP JUMPDEST PUSH2 0x26BC DUP2 DUP7 PUSH2 0x2685 JUMP JUMPDEST SWAP5 POP PUSH1 0x1 DUP3 AND PUSH1 0x0 DUP2 EQ PUSH2 0x26D7 JUMPI PUSH1 0x1 DUP2 EQ PUSH2 0x26E8 JUMPI PUSH2 0x271B JUMP JUMPDEST PUSH1 0xFF NOT DUP4 AND DUP7 MSTORE DUP2 DUP7 ADD SWAP4 POP PUSH2 0x271B JUMP JUMPDEST PUSH2 0x26F1 DUP6 PUSH2 0x2690 JUMP JUMPDEST PUSH1 0x0 JUMPDEST DUP4 DUP2 LT ISZERO PUSH2 0x2713 JUMPI DUP2 SLOAD DUP2 DUP10 ADD MSTORE PUSH1 0x1 DUP3 ADD SWAP2 POP PUSH1 0x20 DUP2 ADD SWAP1 POP PUSH2 0x26F4 JUMP JUMPDEST DUP4 DUP9 ADD SWAP6 POP POP POP JUMPDEST POP POP POP SWAP3 SWAP2 POP POP JUMP JUMPDEST PUSH1 0x0 PUSH2 0x2730 DUP3 DUP5 PUSH2 0x26A5 JUMP JUMPDEST SWAP2 POP DUP2 SWAP1 POP SWAP3 SWAP2 POP POP JUMP JUMPDEST PUSH32 0x4E487B7100000000000000000000000000000000000000000000000000000000 PUSH1 0x0 MSTORE PUSH1 0x11 PUSH1 0x4 MSTORE PUSH1 0x24 PUSH1 0x0 REVERT JUMPDEST PUSH1 0x0 PUSH2 0x2775 DUP3 PUSH2 0x246B JUMP JUMPDEST SWAP2 POP PUSH32 0xFFFFFFFFFFFFFFFFFFFFFFFFFFFFFFFFFFFFFFFFFFFFFFFFFFFFFFFFFFFFFFFF DUP3 EQ ISZERO PUSH2 0x27A8 JUMPI PUSH2 0x27A7 PUSH2 0x273B JUMP JUMPDEST JUMPDEST PUSH1 0x1 DUP3 ADD SWAP1 POP SWAP2 SWAP1 POP JUMP JUMPDEST PUSH32 0x4E6F20616C6C6F77616E63657300000000000000000000000000000000000000 PUSH1 0x0 DUP3 ADD MSTORE POP JUMP JUMPDEST PUSH1 0x0 PUSH2 0x27E9 PUSH1 0xD DUP4 PUSH2 0x23D3 JUMP JUMPDEST SWAP2 POP PUSH2 0x27F4 DUP3 PUSH2 0x27B3 JUMP JUMPDEST PUSH1 0x20 DUP3 ADD SWAP1 POP SWAP2 SWAP1 POP JUMP JUMPDEST PUSH1 0x0 PUSH1 0x20 DUP3 ADD SWAP1 POP DUP2 DUP2 SUB PUSH1 0x0 DUP4 ADD MSTORE PUSH2 0x2818 DUP2 PUSH2 0x27DC JUMP JUMPDEST SWAP1 POP SWAP2 SWAP1 POP JUMP JUMPDEST PUSH1 0x0 PUSH2 0x282A DUP3 PUSH2 0x224A JUMP JUMPDEST PUSH2 0x2834 DUP2 DUP6 PUSH2 0x2685 JUMP JUMPDEST SWAP4 POP PUSH2 0x2844 DUP2 DUP6 PUSH1 0x20 DUP7 ADD PUSH2 0x2266 JUMP JUMPDEST DUP1 DUP5 ADD SWAP2 POP POP SWAP3 SWAP2 POP POP JUMP JUMPDEST PUSH1 0x0 PUSH2 0x285C DUP3 DUP5 PUSH2 0x281F JUMP JUMPDEST SWAP2 POP DUP2 SWAP1 POP SWAP3 SWAP2 POP POP JUMP JUMPDEST PUSH32 0x4E6F742064657465637465642061732061207061727469636970616E7420696E PUSH1 0x0 DUP3 ADD MSTORE PUSH32 0x206F75722073797374656D000000000000000000000000000000000000000000 PUSH1 0x20 DUP3 ADD MSTORE POP JUMP JUMPDEST PUSH1 0x0 PUSH2 0x28C3 PUSH1 0x2B DUP4 PUSH2 0x23D3 JUMP JUMPDEST SWAP2 POP PUSH2 0x28CE DUP3 PUSH2 0x2867 JUMP JUMPDEST PUSH1 0x40 DUP3 ADD SWAP1 POP SWAP2 SWAP1 POP JUMP JUMPDEST PUSH1 0x0 PUSH1 0x20 DUP3 ADD SWAP1 POP DUP2 DUP2 SUB PUSH1 0x0 DUP4 ADD MSTORE PUSH2 0x28F2 DUP2 PUSH2 0x28B6 JUMP JUMPDEST SWAP1 POP SWAP2 SWAP1 POP JUMP JUMPDEST PUSH2 0x2902 DUP2 PUSH2 0x246B JUMP JUMPDEST DUP2 EQ PUSH2 0x290D JUMPI PUSH1 0x0 DUP1 REVERT JUMPDEST POP JUMP JUMPDEST PUSH1 0x0 DUP2 MLOAD SWAP1 POP PUSH2 0x291F DUP2 PUSH2 0x28F9 JUMP JUMPDEST SWAP3 SWAP2 POP POP JUMP JUMPDEST PUSH1 0x0 PUSH1 0x20 DUP3 DUP5 SUB SLT ISZERO PUSH2 0x293B JUMPI PUSH2 0x293A PUSH2 0x1F9F JUMP JUMPDEST JUMPDEST PUSH1 0x0 PUSH2 0x2949 DUP5 DUP3 DUP6 ADD PUSH2 0x2910 JUMP JUMPDEST SWAP2 POP POP SWAP3 SWAP2 POP POP JUMP JUMPDEST PUSH1 0x0 PUSH1 0x40 DUP3 ADD SWAP1 POP PUSH2 0x2967 PUSH1 0x0 DUP4 ADD DUP6 PUSH2 0x25CB JUMP JUMPDEST PUSH2 0x2974 PUSH1 0x20 DUP4 ADD DUP5 PUSH2 0x2529 JUMP JUMPDEST SWAP4 SWAP3 POP POP POP JUMP JUMPDEST PUSH1 0x0 PUSH2 0x2986 DUP3 PUSH2 0x246B JUMP JUMPDEST SWAP2 POP PUSH2 0x2991 DUP4 PUSH2 0x246B JUMP JUMPDEST SWAP3 POP DUP3 DUP3 LT ISZERO PUSH2 0x29A4 JUMPI PUSH2 0x29A3 PUSH2 0x273B JUMP JUMPDEST JUMPDEST DUP3 DUP3 SUB SWAP1 POP SWAP3 SWAP2 POP POP JUMP JUMPDEST PUSH32 0x4E487B7100000000000000000000000000000000000000000000000000000000 PUSH1 0x0 MSTORE PUSH1 0x31 PUSH1 0x4 MSTORE PUSH1 0x24 PUSH1 0x0 REVERT JUMPDEST PUSH32 0x5468697320636F6D706C61696E742069736E2774207265676973746572656400 PUSH1 0x0 DUP3 ADD MSTORE POP JUMP JUMPDEST PUSH1 0x0 PUSH2 0x2A14 PUSH1 0x1F DUP4 PUSH2 0x23D3 JUMP JUMPDEST SWAP2 POP PUSH2 0x2A1F DUP3 PUSH2 0x29DE JUMP JUMPDEST PUSH1 0x20 DUP3 ADD SWAP1 POP SWAP2 SWAP1 POP JUMP JUMPDEST PUSH1 0x0 PUSH1 0x20 DUP3 ADD SWAP1 POP DUP2 DUP2 SUB PUSH1 0x0 DUP4 ADD MSTORE PUSH2 0x2A43 DUP2 PUSH2 0x2A07 JUMP JUMPDEST SWAP1 POP SWAP2 SWAP1 POP JUMP JUMPDEST PUSH1 0x0 DUP2 SWAP1 POP SWAP2 SWAP1 POP JUMP JUMPDEST PUSH1 0x0 DUP2 SWAP1 POP SWAP2 SWAP1 POP JUMP JUMPDEST PUSH1 0x0 PUSH2 0x2A79 PUSH2 0x2A74 PUSH2 0x2A6F DUP5 PUSH2 0x2A4A JUMP JUMPDEST PUSH2 0x2A54 JUMP JUMPDEST PUSH2 0x246B JUMP JUMPDEST SWAP1 POP SWAP2 SWAP1 POP JUMP JUMPDEST PUSH2 0x2A89 DUP2 PUSH2 0x2A5E JUMP JUMPDEST DUP3 MSTORE POP POP JUMP JUMPDEST PUSH1 0x0 PUSH1 0x40 DUP3 ADD SWAP1 POP PUSH2 0x2AA4 PUSH1 0x0 DUP4 ADD DUP6 PUSH2 0x25CB JUMP JUMPDEST PUSH2 0x2AB1 PUSH1 0x20 DUP4 ADD DUP5 PUSH2 0x2A80 JUMP JUMPDEST SWAP4 SWAP3 POP POP POP JUMP JUMPDEST PUSH32 0x436F6D70616E7920697320616C726561647920696E207468652073797374656D PUSH1 0x0 DUP3 ADD MSTORE POP JUMP JUMPDEST PUSH1 0x0 PUSH2 0x2AEE PUSH1 0x20 DUP4 PUSH2 0x23D3 JUMP JUMPDEST SWAP2 POP PUSH2 0x2AF9 DUP3 PUSH2 0x2AB8 JUMP JUMPDEST PUSH1 0x20 DUP3 ADD SWAP1 POP SWAP2 SWAP1 POP JUMP JUMPDEST PUSH1 0x0 PUSH1 0x20 DUP3 ADD SWAP1 POP DUP2 DUP2 SUB PUSH1 0x0 DUP4 ADD MSTORE PUSH2 0x2B1D DUP2 PUSH2 0x2AE1 JUMP JUMPDEST SWAP1 POP SWAP2 SWAP1 POP JUMP INVALID LOG2 PUSH5 0x6970667358 0x22 SLT KECCAK256 TIMESTAMP BASEFEE 0xEF 0xD0 0xED ADDRESS 0xE5 COINBASE LOG2 0xAA DUP1 SELFBALANCE PUSH1 0x2D SWAP13 0xD0 EXTCODECOPY PUSH19 0x4ADF59DE0205535D443C3C2A24A464736F6C63 NUMBER STOP ADDMOD EXP STOP CALLER PUSH1 0xA0 PUSH1 0x40 MSTORE CALLVALUE DUP1 ISZERO PUSH3 0x11 JUMPI PUSH1 0x0 DUP1 REVERT JUMPDEST POP PUSH1 0x40 MLOAD PUSH3 0x1E94 CODESIZE SUB DUP1 PUSH3 0x1E94 DUP4 CODECOPY DUP2 DUP2 ADD PUSH1 0x40 MSTORE DUP2 ADD SWAP1 PUSH3 0x37 SWAP2 SWAP1 PUSH3 0x2F6 JUMP JUMPDEST DUP2 DUP2 DUP2 PUSH1 0x3 SWAP1 DUP1 MLOAD SWAP1 PUSH1 0x20 ADD SWAP1 PUSH3 0x51 SWAP3 SWAP2 SWAP1 PUSH3 0xA9 JUMP JUMPDEST POP DUP1 PUSH1 0x4 SWAP1 DUP1 MLOAD SWAP1 PUSH1 0x20 ADD SWAP1 PUSH3 0x6A SWAP3 SWAP2 SWAP1 PUSH3 0xA9 JUMP JUMPDEST POP POP POP CALLER PUSH20 0xFFFFFFFFFFFFFFFFFFFFFFFFFFFFFFFFFFFFFFFF AND PUSH1 0x80 DUP2 PUSH20 0xFFFFFFFFFFFFFFFFFFFFFFFFFFFFFFFFFFFFFFFF AND DUP2 MSTORE POP POP POP POP PUSH3 0x3E0 JUMP JUMPDEST DUP3 DUP1 SLOAD PUSH3 0xB7 SWAP1 PUSH3 0x3AA JUMP JUMPDEST SWAP1 PUSH1 0x0 MSTORE PUSH1 0x20 PUSH1 0x0 KECCAK256 SWAP1 PUSH1 0x1F ADD PUSH1 0x20 SWAP1 DIV DUP2 ADD SWAP3 DUP3 PUSH3 0xDB JUMPI PUSH1 0x0 DUP6 SSTORE PUSH3 0x127 JUMP JUMPDEST DUP3 PUSH1 0x1F LT PUSH3 0xF6 JUMPI DUP1 MLOAD PUSH1 0xFF NOT AND DUP4 DUP1 ADD OR DUP6 SSTORE PUSH3 0x127 JUMP JUMPDEST DUP3 DUP1 ADD PUSH1 0x1 ADD DUP6 SSTORE DUP3 ISZERO PUSH3 0x127 JUMPI SWAP2 DUP3 ADD JUMPDEST DUP3 DUP2 GT ISZERO PUSH3 0x126 JUMPI DUP3 MLOAD DUP3 SSTORE SWAP2 PUSH1 0x20 ADD SWAP2 SWAP1 PUSH1 0x1 ADD SWAP1 PUSH3 0x109 JUMP JUMPDEST JUMPDEST POP SWAP1 POP PUSH3 0x136 SWAP2 SWAP1 PUSH3 0x13A JUMP JUMPDEST POP SWAP1 JUMP JUMPDEST JUMPDEST DUP1 DUP3 GT ISZERO PUSH3 0x155 JUMPI PUSH1 0x0 DUP2 PUSH1 0x0 SWAP1 SSTORE POP PUSH1 0x1 ADD PUSH3 0x13B JUMP JUMPDEST POP SWAP1 JUMP JUMPDEST PUSH1 0x0 PUSH1 0x40 MLOAD SWAP1 POP SWAP1 JUMP JUMPDEST PUSH1 0x0 DUP1 REVERT JUMPDEST PUSH1 0x0 DUP1 REVERT JUMPDEST PUSH1 0x0 DUP1 REVERT JUMPDEST PUSH1 0x0 DUP1 REVERT JUMPDEST PUSH1 0x0 PUSH1 0x1F NOT PUSH1 0x1F DUP4 ADD AND SWAP1 POP SWAP2 SWAP1 POP JUMP JUMPDEST PUSH32 0x4E487B7100000000000000000000000000000000000000000000000000000000 PUSH1 0x0 MSTORE PUSH1 0x41 PUSH1 0x4 MSTORE PUSH1 0x24 PUSH1 0x0 REVERT JUMPDEST PUSH3 0x1C2 DUP3 PUSH3 0x177 JUMP JUMPDEST DUP2 ADD DUP2 DUP2 LT PUSH8 0xFFFFFFFFFFFFFFFF DUP3 GT OR ISZERO PUSH3 0x1E4 JUMPI PUSH3 0x1E3 PUSH3 0x188 JUMP JUMPDEST JUMPDEST DUP1 PUSH1 0x40 MSTORE POP POP POP JUMP JUMPDEST PUSH1 0x0 PUSH3 0x1F9 PUSH3 0x159 JUMP JUMPDEST SWAP1 POP PUSH3 0x207 DUP3 DUP3 PUSH3 0x1B7 JUMP JUMPDEST SWAP2 SWAP1 POP JUMP JUMPDEST PUSH1 0x0 PUSH8 0xFFFFFFFFFFFFFFFF DUP3 GT ISZERO PUSH3 0x22A JUMPI PUSH3 0x229 PUSH3 0x188 JUMP JUMPDEST JUMPDEST PUSH3 0x235 DUP3 PUSH3 0x177 JUMP JUMPDEST SWAP1 POP PUSH1 0x20 DUP2 ADD SWAP1 POP SWAP2 SWAP1 POP JUMP JUMPDEST PUSH1 0x0 JUMPDEST DUP4 DUP2 LT ISZERO PUSH3 0x262 JUMPI DUP1 DUP3 ADD MLOAD DUP2 DUP5 ADD MSTORE PUSH1 0x20 DUP2 ADD SWAP1 POP PUSH3 0x245 JUMP JUMPDEST DUP4 DUP2 GT ISZERO PUSH3 0x272 JUMPI PUSH1 0x0 DUP5 DUP5 ADD MSTORE JUMPDEST POP POP POP POP JUMP JUMPDEST PUSH1 0x0 PUSH3 0x28F PUSH3 0x289 DUP5 PUSH3 0x20C JUMP JUMPDEST PUSH3 0x1ED JUMP JUMPDEST SWAP1 POP DUP3 DUP2 MSTORE PUSH1 0x20 DUP2 ADD DUP5 DUP5 DUP5 ADD GT ISZERO PUSH3 0x2AE JUMPI PUSH3 0x2AD PUSH3 0x172 JUMP JUMPDEST JUMPDEST PUSH3 0x2BB DUP5 DUP3 DUP6 PUSH3 0x242 JUMP JUMPDEST POP SWAP4 SWAP3 POP POP POP JUMP JUMPDEST PUSH1 0x0 DUP3 PUSH1 0x1F DUP4 ADD SLT PUSH3 0x2DB JUMPI PUSH3 0x2DA PUSH3 0x16D JUMP JUMPDEST JUMPDEST DUP2 MLOAD PUSH3 0x2ED DUP5 DUP3 PUSH1 0x20 DUP7 ADD PUSH3 0x278 JUMP JUMPDEST SWAP2 POP POP SWAP3 SWAP2 POP POP JUMP JUMPDEST PUSH1 0x0 DUP1 PUSH1 0x40 DUP4 DUP6 SUB SLT ISZERO PUSH3 0x310 JUMPI PUSH3 0x30F PUSH3 0x163 JUMP JUMPDEST JUMPDEST PUSH1 0x0 DUP4 ADD MLOAD PUSH8 0xFFFFFFFFFFFFFFFF DUP2 GT ISZERO PUSH3 0x331 JUMPI PUSH3 0x330 PUSH3 0x168 JUMP JUMPDEST JUMPDEST PUSH3 0x33F DUP6 DUP3 DUP7 ADD PUSH3 0x2C3 JUMP JUMPDEST SWAP3 POP POP PUSH1 0x20 DUP4 ADD MLOAD PUSH8 0xFFFFFFFFFFFFFFFF DUP2 GT ISZERO PUSH3 0x363 JUMPI PUSH3 0x362 PUSH3 0x168 JUMP JUMPDEST JUMPDEST PUSH3 0x371 DUP6 DUP3 DUP7 ADD PUSH3 0x2C3 JUMP JUMPDEST SWAP2 POP POP SWAP3 POP SWAP3 SWAP1 POP JUMP JUMPDEST PUSH32 0x4E487B7100000000000000000000000000000000000000000000000000000000 PUSH1 0x0 MSTORE PUSH1 0x22 PUSH1 0x4 MSTORE PUSH1 0x24 PUSH1 0x0 REVERT JUMPDEST PUSH1 0x0 PUSH1 0x2 DUP3 DIV SWAP1 POP PUSH1 0x1 DUP3 AND DUP1 PUSH3 0x3C3 JUMPI PUSH1 0x7F DUP3 AND SWAP2 POP JUMPDEST PUSH1 0x20 DUP3 LT DUP2 EQ ISZERO PUSH3 0x3DA JUMPI PUSH3 0x3D9 PUSH3 0x37B JUMP JUMPDEST JUMPDEST POP SWAP2 SWAP1 POP JUMP JUMPDEST PUSH1 0x80 MLOAD PUSH2 0x1A83 PUSH3 0x411 PUSH1 0x0 CODECOPY PUSH1 0x0 DUP2 DUP2 PUSH2 0x397 ADD MSTORE DUP2 DUP2 PUSH2 0x493 ADD MSTORE DUP2 DUP2 PUSH2 0x609 ADD MSTORE PUSH2 0x71E ADD MSTORE PUSH2 0x1A83 PUSH1 0x0 RETURN INVALID PUSH1 0x80 PUSH1 0x40 MSTORE CALLVALUE DUP1 ISZERO PUSH2 0x10 JUMPI PUSH1 0x0 DUP1 REVERT JUMPDEST POP PUSH1 0x4 CALLDATASIZE LT PUSH2 0xCF JUMPI PUSH1 0x0 CALLDATALOAD PUSH1 0xE0 SHR DUP1 PUSH4 0x40C10F19 GT PUSH2 0x8C JUMPI DUP1 PUSH4 0x9DC29FAC GT PUSH2 0x66 JUMPI DUP1 PUSH4 0x9DC29FAC EQ PUSH2 0x228 JUMPI DUP1 PUSH4 0xA457C2D7 EQ PUSH2 0x244 JUMPI DUP1 PUSH4 0xA9059CBB EQ PUSH2 0x274 JUMPI DUP1 PUSH4 0xDD62ED3E EQ PUSH2 0x2A4 JUMPI PUSH2 0xCF JUMP JUMPDEST DUP1 PUSH4 0x40C10F19 EQ PUSH2 0x1BE JUMPI DUP1 PUSH4 0x70A08231 EQ PUSH2 0x1DA JUMPI DUP1 PUSH4 0x95D89B41 EQ PUSH2 0x20A JUMPI PUSH2 0xCF JUMP JUMPDEST DUP1 PUSH4 0x6FDDE03 EQ PUSH2 0xD4 JUMPI DUP1 PUSH4 0x95EA7B3 EQ PUSH2 0xF2 JUMPI DUP1 PUSH4 0x18160DDD EQ PUSH2 0x122 JUMPI DUP1 PUSH4 0x23B872DD EQ PUSH2 0x140 JUMPI DUP1 PUSH4 0x313CE567 EQ PUSH2 0x170 JUMPI DUP1 PUSH4 0x39509351 EQ PUSH2 0x18E JUMPI JUMPDEST PUSH1 0x0 DUP1 REVERT JUMPDEST PUSH2 0xDC PUSH2 0x2D4 JUMP JUMPDEST PUSH1 0x40 MLOAD PUSH2 0xE9 SWAP2 SWAP1 PUSH2 0x110D JUMP JUMPDEST PUSH1 0x40 MLOAD DUP1 SWAP2 SUB SWAP1 RETURN JUMPDEST PUSH2 0x10C PUSH1 0x4 DUP1 CALLDATASIZE SUB DUP2 ADD SWAP1 PUSH2 0x107 SWAP2 SWAP1 PUSH2 0x11C8 JUMP JUMPDEST PUSH2 0x366 JUMP JUMPDEST PUSH1 0x40 MLOAD PUSH2 0x119 SWAP2 SWAP1 PUSH2 0x1223 JUMP JUMPDEST PUSH1 0x40 MLOAD DUP1 SWAP2 SUB SWAP1 RETURN JUMPDEST PUSH2 0x12A PUSH2 0x389 JUMP JUMPDEST PUSH1 0x40 MLOAD PUSH2 0x137 SWAP2 SWAP1 PUSH2 0x124D JUMP JUMPDEST PUSH1 0x40 MLOAD DUP1 SWAP2 SUB SWAP1 RETURN JUMPDEST PUSH2 0x15A PUSH1 0x4 DUP1 CALLDATASIZE SUB DUP2 ADD SWAP1 PUSH2 0x155 SWAP2 SWAP1 PUSH2 0x1268 JUMP JUMPDEST PUSH2 0x393 JUMP JUMPDEST PUSH1 0x40 MLOAD PUSH2 0x167 SWAP2 SWAP1 PUSH2 0x1223 JUMP JUMPDEST PUSH1 0x40 MLOAD DUP1 SWAP2 SUB SWAP1 RETURN JUMPDEST PUSH2 0x178 PUSH2 0x451 JUMP JUMPDEST PUSH1 0x40 MLOAD PUSH2 0x185 SWAP2 SWAP1 PUSH2 0x12D7 JUMP JUMPDEST PUSH1 0x40 MLOAD DUP1 SWAP2 SUB SWAP1 RETURN JUMPDEST PUSH2 0x1A8 PUSH1 0x4 DUP1 CALLDATASIZE SUB DUP2 ADD SWAP1 PUSH2 0x1A3 SWAP2 SWAP1 PUSH2 0x11C8 JUMP JUMPDEST PUSH2 0x45A JUMP JUMPDEST PUSH1 0x40 MLOAD PUSH2 0x1B5 SWAP2 SWAP1 PUSH2 0x1223 JUMP JUMPDEST PUSH1 0x40 MLOAD DUP1 SWAP2 SUB SWAP1 RETURN JUMPDEST PUSH2 0x1D8 PUSH1 0x4 DUP1 CALLDATASIZE SUB DUP2 ADD SWAP1 PUSH2 0x1D3 SWAP2 SWAP1 PUSH2 0x11C8 JUMP JUMPDEST PUSH2 0x491 JUMP JUMPDEST STOP JUMPDEST PUSH2 0x1F4 PUSH1 0x4 DUP1 CALLDATASIZE SUB DUP2 ADD SWAP1 PUSH2 0x1EF SWAP2 SWAP1 PUSH2 0x12F2 JUMP JUMPDEST PUSH2 0x52D JUMP JUMPDEST PUSH1 0x40 MLOAD PUSH2 0x201 SWAP2 SWAP1 PUSH2 0x124D JUMP JUMPDEST PUSH1 0x40 MLOAD DUP1 SWAP2 SUB SWAP1 RETURN JUMPDEST PUSH2 0x212 PUSH2 0x575 JUMP JUMPDEST PUSH1 0x40 MLOAD PUSH2 0x21F SWAP2 SWAP1 PUSH2 0x110D JUMP JUMPDEST PUSH1 0x40 MLOAD DUP1 SWAP2 SUB SWAP1 RETURN JUMPDEST PUSH2 0x242 PUSH1 0x4 DUP1 CALLDATASIZE SUB DUP2 ADD SWAP1 PUSH2 0x23D SWAP2 SWAP1 PUSH2 0x11C8 JUMP JUMPDEST PUSH2 0x607 JUMP JUMPDEST STOP JUMPDEST PUSH2 0x25E PUSH1 0x4 DUP1 CALLDATASIZE SUB DUP2 ADD SWAP1 PUSH2 0x259 SWAP2 SWAP1 PUSH2 0x11C8 JUMP JUMPDEST PUSH2 0x6A3 JUMP JUMPDEST PUSH1 0x40 MLOAD PUSH2 0x26B SWAP2 SWAP1 PUSH2 0x1223 JUMP JUMPDEST PUSH1 0x40 MLOAD DUP1 SWAP2 SUB SWAP1 RETURN JUMPDEST PUSH2 0x28E PUSH1 0x4 DUP1 CALLDATASIZE SUB DUP2 ADD SWAP1 PUSH2 0x289 SWAP2 SWAP1 PUSH2 0x11C8 JUMP JUMPDEST PUSH2 0x71A JUMP JUMPDEST PUSH1 0x40 MLOAD PUSH2 0x29B SWAP2 SWAP1 PUSH2 0x1223 JUMP JUMPDEST PUSH1 0x40 MLOAD DUP1 SWAP2 SUB SWAP1 RETURN JUMPDEST PUSH2 0x2BE PUSH1 0x4 DUP1 CALLDATASIZE SUB DUP2 ADD SWAP1 PUSH2 0x2B9 SWAP2 SWAP1 PUSH2 0x131F JUMP JUMPDEST PUSH2 0x7CC JUMP JUMPDEST PUSH1 0x40 MLOAD PUSH2 0x2CB SWAP2 SWAP1 PUSH2 0x124D JUMP JUMPDEST PUSH1 0x40 MLOAD DUP1 SWAP2 SUB SWAP1 RETURN JUMPDEST PUSH1 0x60 PUSH1 0x3 DUP1 SLOAD PUSH2 0x2E3 SWAP1 PUSH2 0x138E JUMP JUMPDEST DUP1 PUSH1 0x1F ADD PUSH1 0x20 DUP1 SWAP2 DIV MUL PUSH1 0x20 ADD PUSH1 0x40 MLOAD SWAP1 DUP2 ADD PUSH1 0x40 MSTORE DUP1 SWAP3 SWAP2 SWAP1 DUP2 DUP2 MSTORE PUSH1 0x20 ADD DUP3 DUP1 SLOAD PUSH2 0x30F SWAP1 PUSH2 0x138E JUMP JUMPDEST DUP1 ISZERO PUSH2 0x35C JUMPI DUP1 PUSH1 0x1F LT PUSH2 0x331 JUMPI PUSH2 0x100 DUP1 DUP4 SLOAD DIV MUL DUP4 MSTORE SWAP2 PUSH1 0x20 ADD SWAP2 PUSH2 0x35C JUMP JUMPDEST DUP3 ADD SWAP2 SWAP1 PUSH1 0x0 MSTORE PUSH1 0x20 PUSH1 0x0 KECCAK256 SWAP1 JUMPDEST DUP2 SLOAD DUP2 MSTORE SWAP1 PUSH1 0x1 ADD SWAP1 PUSH1 0x20 ADD DUP1 DUP4 GT PUSH2 0x33F JUMPI DUP3 SWAP1 SUB PUSH1 0x1F AND DUP3 ADD SWAP2 JUMPDEST POP POP POP POP POP SWAP1 POP SWAP1 JUMP JUMPDEST PUSH1 0x0 DUP1 PUSH2 0x371 PUSH2 0x853 JUMP JUMPDEST SWAP1 POP PUSH2 0x37E DUP2 DUP6 DUP6 PUSH2 0x85B JUMP JUMPDEST PUSH1 0x1 SWAP2 POP POP SWAP3 SWAP2 POP POP JUMP JUMPDEST PUSH1 0x0 PUSH1 0x2 SLOAD SWAP1 POP SWAP1 JUMP JUMPDEST PUSH1 0x0 PUSH32 0x0 PUSH20 0xFFFFFFFFFFFFFFFFFFFFFFFFFFFFFFFFFFFFFFFF AND CALLER PUSH20 0xFFFFFFFFFFFFFFFFFFFFFFFFFFFFFFFFFFFFFFFF AND EQ PUSH2 0x423 JUMPI PUSH1 0x40 MLOAD PUSH32 0x8C379A000000000000000000000000000000000000000000000000000000000 DUP2 MSTORE PUSH1 0x4 ADD PUSH2 0x41A SWAP1 PUSH2 0x140C JUMP JUMPDEST PUSH1 0x40 MLOAD DUP1 SWAP2 SUB SWAP1 REVERT JUMPDEST PUSH1 0x0 PUSH2 0x42D PUSH2 0x853 JUMP JUMPDEST SWAP1 POP PUSH2 0x43A DUP6 DUP3 DUP6 PUSH2 0xA26 JUMP JUMPDEST PUSH2 0x445 DUP6 DUP6 DUP6 PUSH2 0xAB2 JUMP JUMPDEST PUSH1 0x1 SWAP2 POP POP SWAP4 SWAP3 POP POP POP JUMP JUMPDEST PUSH1 0x0 PUSH1 0x12 SWAP1 POP SWAP1 JUMP JUMPDEST PUSH1 0x0 DUP1 PUSH2 0x465 PUSH2 0x853 JUMP JUMPDEST SWAP1 POP PUSH2 0x486 DUP2 DUP6 DUP6 PUSH2 0x477 DUP6 DUP10 PUSH2 0x7CC JUMP JUMPDEST PUSH2 0x481 SWAP2 SWAP1 PUSH2 0x145B JUMP JUMPDEST PUSH2 0x85B JUMP JUMPDEST PUSH1 0x1 SWAP2 POP POP SWAP3 SWAP2 POP POP JUMP JUMPDEST PUSH32 0x0 PUSH20 0xFFFFFFFFFFFFFFFFFFFFFFFFFFFFFFFFFFFFFFFF AND CALLER PUSH20 0xFFFFFFFFFFFFFFFFFFFFFFFFFFFFFFFFFFFFFFFF AND EQ PUSH2 0x51F JUMPI PUSH1 0x40 MLOAD PUSH32 0x8C379A000000000000000000000000000000000000000000000000000000000 DUP2 MSTORE PUSH1 0x4 ADD PUSH2 0x516 SWAP1 PUSH2 0x140C JUMP JUMPDEST PUSH1 0x40 MLOAD DUP1 SWAP2 SUB SWAP1 REVERT JUMPDEST PUSH2 0x529 DUP3 DUP3 PUSH2 0xD33 JUMP JUMPDEST POP POP JUMP JUMPDEST PUSH1 0x0 DUP1 PUSH1 0x0 DUP4 PUSH20 0xFFFFFFFFFFFFFFFFFFFFFFFFFFFFFFFFFFFFFFFF AND PUSH20 0xFFFFFFFFFFFFFFFFFFFFFFFFFFFFFFFFFFFFFFFF AND DUP2 MSTORE PUSH1 0x20 ADD SWAP1 DUP2 MSTORE PUSH1 0x20 ADD PUSH1 0x0 KECCAK256 SLOAD SWAP1 POP SWAP2 SWAP1 POP JUMP JUMPDEST PUSH1 0x60 PUSH1 0x4 DUP1 SLOAD PUSH2 0x584 SWAP1 PUSH2 0x138E JUMP JUMPDEST DUP1 PUSH1 0x1F ADD PUSH1 0x20 DUP1 SWAP2 DIV MUL PUSH1 0x20 ADD PUSH1 0x40 MLOAD SWAP1 DUP2 ADD PUSH1 0x40 MSTORE DUP1 SWAP3 SWAP2 SWAP1 DUP2 DUP2 MSTORE PUSH1 0x20 ADD DUP3 DUP1 SLOAD PUSH2 0x5B0 SWAP1 PUSH2 0x138E JUMP JUMPDEST DUP1 ISZERO PUSH2 0x5FD JUMPI DUP1 PUSH1 0x1F LT PUSH2 0x5D2 JUMPI PUSH2 0x100 DUP1 DUP4 SLOAD DIV MUL DUP4 MSTORE SWAP2 PUSH1 0x20 ADD SWAP2 PUSH2 0x5FD JUMP JUMPDEST DUP3 ADD SWAP2 SWAP1 PUSH1 0x0 MSTORE PUSH1 0x20 PUSH1 0x0 KECCAK256 SWAP1 JUMPDEST DUP2 SLOAD DUP2 MSTORE SWAP1 PUSH1 0x1 ADD SWAP1 PUSH1 0x20 ADD DUP1 DUP4 GT PUSH2 0x5E0 JUMPI DUP3 SWAP1 SUB PUSH1 0x1F AND DUP3 ADD SWAP2 JUMPDEST POP POP POP POP POP SWAP1 POP SWAP1 JUMP JUMPDEST PUSH32 0x0 PUSH20 0xFFFFFFFFFFFFFFFFFFFFFFFFFFFFFFFFFFFFFFFF AND CALLER PUSH20 0xFFFFFFFFFFFFFFFFFFFFFFFFFFFFFFFFFFFFFFFF AND EQ PUSH2 0x695 JUMPI PUSH1 0x40 MLOAD PUSH32 0x8C379A000000000000000000000000000000000000000000000000000000000 DUP2 MSTORE PUSH1 0x4 ADD PUSH2 0x68C SWAP1 PUSH2 0x140C JUMP JUMPDEST PUSH1 0x40 MLOAD DUP1 SWAP2 SUB SWAP1 REVERT JUMPDEST PUSH2 0x69F DUP3 DUP3 PUSH2 0xE93 JUMP JUMPDEST POP POP JUMP JUMPDEST PUSH1 0x0 DUP1 PUSH2 0x6AE PUSH2 0x853 JUMP JUMPDEST SWAP1 POP PUSH1 0x0 PUSH2 0x6BC DUP3 DUP7 PUSH2 0x7CC JUMP JUMPDEST SWAP1 POP DUP4 DUP2 LT ISZERO PUSH2 0x701 JUMPI PUSH1 0x40 MLOAD PUSH32 0x8C379A000000000000000000000000000000000000000000000000000000000 DUP2 MSTORE PUSH1 0x4 ADD PUSH2 0x6F8 SWAP1 PUSH2 0x1523 JUMP JUMPDEST PUSH1 0x40 MLOAD DUP1 SWAP2 SUB SWAP1 REVERT JUMPDEST PUSH2 0x70E DUP3 DUP7 DUP7 DUP5 SUB PUSH2 0x85B JUMP JUMPDEST PUSH1 0x1 SWAP3 POP POP POP SWAP3 SWAP2 POP POP JUMP JUMPDEST PUSH1 0x0 PUSH32 0x0 PUSH20 0xFFFFFFFFFFFFFFFFFFFFFFFFFFFFFFFFFFFFFFFF AND CALLER PUSH20 0xFFFFFFFFFFFFFFFFFFFFFFFFFFFFFFFFFFFFFFFF AND EQ PUSH2 0x7AA JUMPI PUSH1 0x40 MLOAD PUSH32 0x8C379A000000000000000000000000000000000000000000000000000000000 DUP2 MSTORE PUSH1 0x4 ADD PUSH2 0x7A1 SWAP1 PUSH2 0x140C JUMP JUMPDEST PUSH1 0x40 MLOAD DUP1 SWAP2 SUB SWAP1 REVERT JUMPDEST PUSH1 0x0 PUSH2 0x7B4 PUSH2 0x853 JUMP JUMPDEST SWAP1 POP PUSH2 0x7C1 DUP2 DUP6 DUP6 PUSH2 0xAB2 JUMP JUMPDEST PUSH1 0x1 SWAP2 POP POP SWAP3 SWAP2 POP POP JUMP JUMPDEST PUSH1 0x0 PUSH1 0x1 PUSH1 0x0 DUP5 PUSH20 0xFFFFFFFFFFFFFFFFFFFFFFFFFFFFFFFFFFFFFFFF AND PUSH20 0xFFFFFFFFFFFFFFFFFFFFFFFFFFFFFFFFFFFFFFFF AND DUP2 MSTORE PUSH1 0x20 ADD SWAP1 DUP2 MSTORE PUSH1 0x20 ADD PUSH1 0x0 KECCAK256 PUSH1 0x0 DUP4 PUSH20 0xFFFFFFFFFFFFFFFFFFFFFFFFFFFFFFFFFFFFFFFF AND PUSH20 0xFFFFFFFFFFFFFFFFFFFFFFFFFFFFFFFFFFFFFFFF AND DUP2 MSTORE PUSH1 0x20 ADD SWAP1 DUP2 MSTORE PUSH1 0x20 ADD PUSH1 0x0 KECCAK256 SLOAD SWAP1 POP SWAP3 SWAP2 POP POP JUMP JUMPDEST PUSH1 0x0 CALLER SWAP1 POP SWAP1 JUMP JUMPDEST PUSH1 0x0 PUSH20 0xFFFFFFFFFFFFFFFFFFFFFFFFFFFFFFFFFFFFFFFF AND DUP4 PUSH20 0xFFFFFFFFFFFFFFFFFFFFFFFFFFFFFFFFFFFFFFFF AND EQ ISZERO PUSH2 0x8CB JUMPI PUSH1 0x40 MLOAD PUSH32 0x8C379A000000000000000000000000000000000000000000000000000000000 DUP2 MSTORE PUSH1 0x4 ADD PUSH2 0x8C2 SWAP1 PUSH2 0x15B5 JUMP JUMPDEST PUSH1 0x40 MLOAD DUP1 SWAP2 SUB SWAP1 REVERT JUMPDEST PUSH1 0x0 PUSH20 0xFFFFFFFFFFFFFFFFFFFFFFFFFFFFFFFFFFFFFFFF AND DUP3 PUSH20 0xFFFFFFFFFFFFFFFFFFFFFFFFFFFFFFFFFFFFFFFF AND EQ ISZERO PUSH2 0x93B JUMPI PUSH1 0x40 MLOAD PUSH32 0x8C379A000000000000000000000000000000000000000000000000000000000 DUP2 MSTORE PUSH1 0x4 ADD PUSH2 0x932 SWAP1 PUSH2 0x1647 JUMP JUMPDEST PUSH1 0x40 MLOAD DUP1 SWAP2 SUB SWAP1 REVERT JUMPDEST DUP1 PUSH1 0x1 PUSH1 0x0 DUP6 PUSH20 0xFFFFFFFFFFFFFFFFFFFFFFFFFFFFFFFFFFFFFFFF AND PUSH20 0xFFFFFFFFFFFFFFFFFFFFFFFFFFFFFFFFFFFFFFFF AND DUP2 MSTORE PUSH1 0x20 ADD SWAP1 DUP2 MSTORE PUSH1 0x20 ADD PUSH1 0x0 KECCAK256 PUSH1 0x0 DUP5 PUSH20 0xFFFFFFFFFFFFFFFFFFFFFFFFFFFFFFFFFFFFFFFF AND PUSH20 0xFFFFFFFFFFFFFFFFFFFFFFFFFFFFFFFFFFFFFFFF AND DUP2 MSTORE PUSH1 0x20 ADD SWAP1 DUP2 MSTORE PUSH1 0x20 ADD PUSH1 0x0 KECCAK256 DUP2 SWAP1 SSTORE POP DUP2 PUSH20 0xFFFFFFFFFFFFFFFFFFFFFFFFFFFFFFFFFFFFFFFF AND DUP4 PUSH20 0xFFFFFFFFFFFFFFFFFFFFFFFFFFFFFFFFFFFFFFFF AND PUSH32 0x8C5BE1E5EBEC7D5BD14F71427D1E84F3DD0314C0F7B2291E5B200AC8C7C3B925 DUP4 PUSH1 0x40 MLOAD PUSH2 0xA19 SWAP2 SWAP1 PUSH2 0x124D JUMP JUMPDEST PUSH1 0x40 MLOAD DUP1 SWAP2 SUB SWAP1 LOG3 POP POP POP JUMP JUMPDEST PUSH1 0x0 PUSH2 0xA32 DUP5 DUP5 PUSH2 0x7CC JUMP JUMPDEST SWAP1 POP PUSH32 0xFFFFFFFFFFFFFFFFFFFFFFFFFFFFFFFFFFFFFFFFFFFFFFFFFFFFFFFFFFFFFFFF DUP2 EQ PUSH2 0xAAC JUMPI DUP2 DUP2 LT ISZERO PUSH2 0xA9E JUMPI PUSH1 0x40 MLOAD PUSH32 0x8C379A000000000000000000000000000000000000000000000000000000000 DUP2 MSTORE PUSH1 0x4 ADD PUSH2 0xA95 SWAP1 PUSH2 0x16B3 JUMP JUMPDEST PUSH1 0x40 MLOAD DUP1 SWAP2 SUB SWAP1 REVERT JUMPDEST PUSH2 0xAAB DUP5 DUP5 DUP5 DUP5 SUB PUSH2 0x85B JUMP JUMPDEST JUMPDEST POP POP POP POP JUMP JUMPDEST PUSH1 0x0 PUSH20 0xFFFFFFFFFFFFFFFFFFFFFFFFFFFFFFFFFFFFFFFF AND DUP4 PUSH20 0xFFFFFFFFFFFFFFFFFFFFFFFFFFFFFFFFFFFFFFFF AND EQ ISZERO PUSH2 0xB22 JUMPI PUSH1 0x40 MLOAD PUSH32 0x8C379A000000000000000000000000000000000000000000000000000000000 DUP2 MSTORE PUSH1 0x4 ADD PUSH2 0xB19 SWAP1 PUSH2 0x1745 JUMP JUMPDEST PUSH1 0x40 MLOAD DUP1 SWAP2 SUB SWAP1 REVERT JUMPDEST PUSH1 0x0 PUSH20 0xFFFFFFFFFFFFFFFFFFFFFFFFFFFFFFFFFFFFFFFF AND DUP3 PUSH20 0xFFFFFFFFFFFFFFFFFFFFFFFFFFFFFFFFFFFFFFFF AND EQ ISZERO PUSH2 0xB92 JUMPI PUSH1 0x40 MLOAD PUSH32 0x8C379A000000000000000000000000000000000000000000000000000000000 DUP2 MSTORE PUSH1 0x4 ADD PUSH2 0xB89 SWAP1 PUSH2 0x17D7 JUMP JUMPDEST PUSH1 0x40 MLOAD DUP1 SWAP2 SUB SWAP1 REVERT JUMPDEST PUSH2 0xB9D DUP4 DUP4 DUP4 PUSH2 0x106A JUMP JUMPDEST PUSH1 0x0 DUP1 PUSH1 0x0 DUP6 PUSH20 0xFFFFFFFFFFFFFFFFFFFFFFFFFFFFFFFFFFFFFFFF AND PUSH20 0xFFFFFFFFFFFFFFFFFFFFFFFFFFFFFFFFFFFFFFFF AND DUP2 MSTORE PUSH1 0x20 ADD SWAP1 DUP2 MSTORE PUSH1 0x20 ADD PUSH1 0x0 KECCAK256 SLOAD SWAP1 POP DUP2 DUP2 LT ISZERO PUSH2 0xC23 JUMPI PUSH1 0x40 MLOAD PUSH32 0x8C379A000000000000000000000000000000000000000000000000000000000 DUP2 MSTORE PUSH1 0x4 ADD PUSH2 0xC1A SWAP1 PUSH2 0x1869 JUMP JUMPDEST PUSH1 0x40 MLOAD DUP1 SWAP2 SUB SWAP1 REVERT JUMPDEST DUP2 DUP2 SUB PUSH1 0x0 DUP1 DUP7 PUSH20 0xFFFFFFFFFFFFFFFFFFFFFFFFFFFFFFFFFFFFFFFF AND PUSH20 0xFFFFFFFFFFFFFFFFFFFFFFFFFFFFFFFFFFFFFFFF AND DUP2 MSTORE PUSH1 0x20 ADD SWAP1 DUP2 MSTORE PUSH1 0x20 ADD PUSH1 0x0 KECCAK256 DUP2 SWAP1 SSTORE POP DUP2 PUSH1 0x0 DUP1 DUP6 PUSH20 0xFFFFFFFFFFFFFFFFFFFFFFFFFFFFFFFFFFFFFFFF AND PUSH20 0xFFFFFFFFFFFFFFFFFFFFFFFFFFFFFFFFFFFFFFFF AND DUP2 MSTORE PUSH1 0x20 ADD SWAP1 DUP2 MSTORE PUSH1 0x20 ADD PUSH1 0x0 KECCAK256 PUSH1 0x0 DUP3 DUP3 SLOAD PUSH2 0xCB6 SWAP2 SWAP1 PUSH2 0x145B JUMP JUMPDEST SWAP3 POP POP DUP2 SWAP1 SSTORE POP DUP3 PUSH20 0xFFFFFFFFFFFFFFFFFFFFFFFFFFFFFFFFFFFFFFFF AND DUP5 PUSH20 0xFFFFFFFFFFFFFFFFFFFFFFFFFFFFFFFFFFFFFFFF AND PUSH32 0xDDF252AD1BE2C89B69C2B068FC378DAA952BA7F163C4A11628F55A4DF523B3EF DUP5 PUSH1 0x40 MLOAD PUSH2 0xD1A SWAP2 SWAP1 PUSH2 0x124D JUMP JUMPDEST PUSH1 0x40 MLOAD DUP1 SWAP2 SUB SWAP1 LOG3 PUSH2 0xD2D DUP5 DUP5 DUP5 PUSH2 0x106F JUMP JUMPDEST POP POP POP POP JUMP JUMPDEST PUSH1 0x0 PUSH20 0xFFFFFFFFFFFFFFFFFFFFFFFFFFFFFFFFFFFFFFFF AND DUP3 PUSH20 0xFFFFFFFFFFFFFFFFFFFFFFFFFFFFFFFFFFFFFFFF AND EQ ISZERO PUSH2 0xDA3 JUMPI PUSH1 0x40 MLOAD PUSH32 0x8C379A000000000000000000000000000000000000000000000000000000000 DUP2 MSTORE PUSH1 0x4 ADD PUSH2 0xD9A SWAP1 PUSH2 0x18D5 JUMP JUMPDEST PUSH1 0x40 MLOAD DUP1 SWAP2 SUB SWAP1 REVERT JUMPDEST PUSH2 0xDAF PUSH1 0x0 DUP4 DUP4 PUSH2 0x106A JUMP JUMPDEST DUP1 PUSH1 0x2 PUSH1 0x0 DUP3 DUP3 SLOAD PUSH2 0xDC1 SWAP2 SWAP1 PUSH2 0x145B JUMP JUMPDEST SWAP3 POP POP DUP2 SWAP1 SSTORE POP DUP1 PUSH1 0x0 DUP1 DUP5 PUSH20 0xFFFFFFFFFFFFFFFFFFFFFFFFFFFFFFFFFFFFFFFF AND PUSH20 0xFFFFFFFFFFFFFFFFFFFFFFFFFFFFFFFFFFFFFFFF AND DUP2 MSTORE PUSH1 0x20 ADD SWAP1 DUP2 MSTORE PUSH1 0x20 ADD PUSH1 0x0 KECCAK256 PUSH1 0x0 DUP3 DUP3 SLOAD PUSH2 0xE16 SWAP2 SWAP1 PUSH2 0x145B JUMP JUMPDEST SWAP3 POP POP DUP2 SWAP1 SSTORE POP DUP2 PUSH20 0xFFFFFFFFFFFFFFFFFFFFFFFFFFFFFFFFFFFFFFFF AND PUSH1 0x0 PUSH20 0xFFFFFFFFFFFFFFFFFFFFFFFFFFFFFFFFFFFFFFFF AND PUSH32 0xDDF252AD1BE2C89B69C2B068FC378DAA952BA7F163C4A11628F55A4DF523B3EF DUP4 PUSH1 0x40 MLOAD PUSH2 0xE7B SWAP2 SWAP1 PUSH2 0x124D JUMP JUMPDEST PUSH1 0x40 MLOAD DUP1 SWAP2 SUB SWAP1 LOG3 PUSH2 0xE8F PUSH1 0x0 DUP4 DUP4 PUSH2 0x106F JUMP JUMPDEST POP POP JUMP JUMPDEST PUSH1 0x0 PUSH20 0xFFFFFFFFFFFFFFFFFFFFFFFFFFFFFFFFFFFFFFFF AND DUP3 PUSH20 0xFFFFFFFFFFFFFFFFFFFFFFFFFFFFFFFFFFFFFFFF AND EQ ISZERO PUSH2 0xF03 JUMPI PUSH1 0x40 MLOAD PUSH32 0x8C379A000000000000000000000000000000000000000000000000000000000 DUP2 MSTORE PUSH1 0x4 ADD PUSH2 0xEFA SWAP1 PUSH2 0x1967 JUMP JUMPDEST PUSH1 0x40 MLOAD DUP1 SWAP2 SUB SWAP1 REVERT JUMPDEST PUSH2 0xF0F DUP3 PUSH1 0x0 DUP4 PUSH2 0x106A JUMP JUMPDEST PUSH1 0x0 DUP1 PUSH1 0x0 DUP5 PUSH20 0xFFFFFFFFFFFFFFFFFFFFFFFFFFFFFFFFFFFFFFFF AND PUSH20 0xFFFFFFFFFFFFFFFFFFFFFFFFFFFFFFFFFFFFFFFF AND DUP2 MSTORE PUSH1 0x20 ADD SWAP1 DUP2 MSTORE PUSH1 0x20 ADD PUSH1 0x0 KECCAK256 SLOAD SWAP1 POP DUP2 DUP2 LT ISZERO PUSH2 0xF95 JUMPI PUSH1 0x40 MLOAD PUSH32 0x8C379A000000000000000000000000000000000000000000000000000000000 DUP2 MSTORE PUSH1 0x4 ADD PUSH2 0xF8C SWAP1 PUSH2 0x19F9 JUMP JUMPDEST PUSH1 0x40 MLOAD DUP1 SWAP2 SUB SWAP1 REVERT JUMPDEST DUP2 DUP2 SUB PUSH1 0x0 DUP1 DUP6 PUSH20 0xFFFFFFFFFFFFFFFFFFFFFFFFFFFFFFFFFFFFFFFF AND PUSH20 0xFFFFFFFFFFFFFFFFFFFFFFFFFFFFFFFFFFFFFFFF AND DUP2 MSTORE PUSH1 0x20 ADD SWAP1 DUP2 MSTORE PUSH1 0x20 ADD PUSH1 0x0 KECCAK256 DUP2 SWAP1 SSTORE POP DUP2 PUSH1 0x2 PUSH1 0x0 DUP3 DUP3 SLOAD PUSH2 0xFEC SWAP2 SWAP1 PUSH2 0x1A19 JUMP JUMPDEST SWAP3 POP POP DUP2 SWAP1 SSTORE POP PUSH1 0x0 PUSH20 0xFFFFFFFFFFFFFFFFFFFFFFFFFFFFFFFFFFFFFFFF AND DUP4 PUSH20 0xFFFFFFFFFFFFFFFFFFFFFFFFFFFFFFFFFFFFFFFF AND PUSH32 0xDDF252AD1BE2C89B69C2B068FC378DAA952BA7F163C4A11628F55A4DF523B3EF DUP5 PUSH1 0x40 MLOAD PUSH2 0x1051 SWAP2 SWAP1 PUSH2 0x124D JUMP JUMPDEST PUSH1 0x40 MLOAD DUP1 SWAP2 SUB SWAP1 LOG3 PUSH2 0x1065 DUP4 PUSH1 0x0 DUP5 PUSH2 0x106F JUMP JUMPDEST POP POP POP JUMP JUMPDEST POP POP POP JUMP JUMPDEST POP POP POP JUMP JUMPDEST PUSH1 0x0 DUP2 MLOAD SWAP1 POP SWAP2 SWAP1 POP JUMP JUMPDEST PUSH1 0x0 DUP3 DUP3 MSTORE PUSH1 0x20 DUP3 ADD SWAP1 POP SWAP3 SWAP2 POP POP JUMP JUMPDEST PUSH1 0x0 JUMPDEST DUP4 DUP2 LT ISZERO PUSH2 0x10AE JUMPI DUP1 DUP3 ADD MLOAD DUP2 DUP5 ADD MSTORE PUSH1 0x20 DUP2 ADD SWAP1 POP PUSH2 0x1093 JUMP JUMPDEST DUP4 DUP2 GT ISZERO PUSH2 0x10BD JUMPI PUSH1 0x0 DUP5 DUP5 ADD MSTORE JUMPDEST POP POP POP POP JUMP JUMPDEST PUSH1 0x0 PUSH1 0x1F NOT PUSH1 0x1F DUP4 ADD AND SWAP1 POP SWAP2 SWAP1 POP JUMP JUMPDEST PUSH1 0x0 PUSH2 0x10DF DUP3 PUSH2 0x1074 JUMP JUMPDEST PUSH2 0x10E9 DUP2 DUP6 PUSH2 0x107F JUMP JUMPDEST SWAP4 POP PUSH2 0x10F9 DUP2 DUP6 PUSH1 0x20 DUP7 ADD PUSH2 0x1090 JUMP JUMPDEST PUSH2 0x1102 DUP2 PUSH2 0x10C3 JUMP JUMPDEST DUP5 ADD SWAP2 POP POP SWAP3 SWAP2 POP POP JUMP JUMPDEST PUSH1 0x0 PUSH1 0x20 DUP3 ADD SWAP1 POP DUP2 DUP2 SUB PUSH1 0x0 DUP4 ADD MSTORE PUSH2 0x1127 DUP2 DUP5 PUSH2 0x10D4 JUMP JUMPDEST SWAP1 POP SWAP3 SWAP2 POP POP JUMP JUMPDEST PUSH1 0x0 DUP1 REVERT JUMPDEST PUSH1 0x0 PUSH20 0xFFFFFFFFFFFFFFFFFFFFFFFFFFFFFFFFFFFFFFFF DUP3 AND SWAP1 POP SWAP2 SWAP1 POP JUMP JUMPDEST PUSH1 0x0 PUSH2 0x115F DUP3 PUSH2 0x1134 JUMP JUMPDEST SWAP1 POP SWAP2 SWAP1 POP JUMP JUMPDEST PUSH2 0x116F DUP2 PUSH2 0x1154 JUMP JUMPDEST DUP2 EQ PUSH2 0x117A JUMPI PUSH1 0x0 DUP1 REVERT JUMPDEST POP JUMP JUMPDEST PUSH1 0x0 DUP2 CALLDATALOAD SWAP1 POP PUSH2 0x118C DUP2 PUSH2 0x1166 JUMP JUMPDEST SWAP3 SWAP2 POP POP JUMP JUMPDEST PUSH1 0x0 DUP2 SWAP1 POP SWAP2 SWAP1 POP JUMP JUMPDEST PUSH2 0x11A5 DUP2 PUSH2 0x1192 JUMP JUMPDEST DUP2 EQ PUSH2 0x11B0 JUMPI PUSH1 0x0 DUP1 REVERT JUMPDEST POP JUMP JUMPDEST PUSH1 0x0 DUP2 CALLDATALOAD SWAP1 POP PUSH2 0x11C2 DUP2 PUSH2 0x119C JUMP JUMPDEST SWAP3 SWAP2 POP POP JUMP JUMPDEST PUSH1 0x0 DUP1 PUSH1 0x40 DUP4 DUP6 SUB SLT ISZERO PUSH2 0x11DF JUMPI PUSH2 0x11DE PUSH2 0x112F JUMP JUMPDEST JUMPDEST PUSH1 0x0 PUSH2 0x11ED DUP6 DUP3 DUP7 ADD PUSH2 0x117D JUMP JUMPDEST SWAP3 POP POP PUSH1 0x20 PUSH2 0x11FE DUP6 DUP3 DUP7 ADD PUSH2 0x11B3 JUMP JUMPDEST SWAP2 POP POP SWAP3 POP SWAP3 SWAP1 POP JUMP JUMPDEST PUSH1 0x0 DUP2 ISZERO ISZERO SWAP1 POP SWAP2 SWAP1 POP JUMP JUMPDEST PUSH2 0x121D DUP2 PUSH2 0x1208 JUMP JUMPDEST DUP3 MSTORE POP POP JUMP JUMPDEST PUSH1 0x0 PUSH1 0x20 DUP3 ADD SWAP1 POP PUSH2 0x1238 PUSH1 0x0 DUP4 ADD DUP5 PUSH2 0x1214 JUMP JUMPDEST SWAP3 SWAP2 POP POP JUMP JUMPDEST PUSH2 0x1247 DUP2 PUSH2 0x1192 JUMP JUMPDEST DUP3 MSTORE POP POP JUMP JUMPDEST PUSH1 0x0 PUSH1 0x20 DUP3 ADD SWAP1 POP PUSH2 0x1262 PUSH1 0x0 DUP4 ADD DUP5 PUSH2 0x123E JUMP JUMPDEST SWAP3 SWAP2 POP POP JUMP JUMPDEST PUSH1 0x0 DUP1 PUSH1 0x0 PUSH1 0x60 DUP5 DUP7 SUB SLT ISZERO PUSH2 0x1281 JUMPI PUSH2 0x1280 PUSH2 0x112F JUMP JUMPDEST JUMPDEST PUSH1 0x0 PUSH2 0x128F DUP7 DUP3 DUP8 ADD PUSH2 0x117D JUMP JUMPDEST SWAP4 POP POP PUSH1 0x20 PUSH2 0x12A0 DUP7 DUP3 DUP8 ADD PUSH2 0x117D JUMP JUMPDEST SWAP3 POP POP PUSH1 0x40 PUSH2 0x12B1 DUP7 DUP3 DUP8 ADD PUSH2 0x11B3 JUMP JUMPDEST SWAP2 POP POP SWAP3 POP SWAP3 POP SWAP3 JUMP JUMPDEST PUSH1 0x0 PUSH1 0xFF DUP3 AND SWAP1 POP SWAP2 SWAP1 POP JUMP JUMPDEST PUSH2 0x12D1 DUP2 PUSH2 0x12BB JUMP JUMPDEST DUP3 MSTORE POP POP JUMP JUMPDEST PUSH1 0x0 PUSH1 0x20 DUP3 ADD SWAP1 POP PUSH2 0x12EC PUSH1 0x0 DUP4 ADD DUP5 PUSH2 0x12C8 JUMP JUMPDEST SWAP3 SWAP2 POP POP JUMP JUMPDEST PUSH1 0x0 PUSH1 0x20 DUP3 DUP5 SUB SLT ISZERO PUSH2 0x1308 JUMPI PUSH2 0x1307 PUSH2 0x112F JUMP JUMPDEST JUMPDEST PUSH1 0x0 PUSH2 0x1316 DUP5 DUP3 DUP6 ADD PUSH2 0x117D JUMP JUMPDEST SWAP2 POP POP SWAP3 SWAP2 POP POP JUMP JUMPDEST PUSH1 0x0 DUP1 PUSH1 0x40 DUP4 DUP6 SUB SLT ISZERO PUSH2 0x1336 JUMPI PUSH2 0x1335 PUSH2 0x112F JUMP JUMPDEST JUMPDEST PUSH1 0x0 PUSH2 0x1344 DUP6 DUP3 DUP7 ADD PUSH2 0x117D JUMP JUMPDEST SWAP3 POP POP PUSH1 0x20 PUSH2 0x1355 DUP6 DUP3 DUP7 ADD PUSH2 0x117D JUMP JUMPDEST SWAP2 POP POP SWAP3 POP SWAP3 SWAP1 POP JUMP JUMPDEST PUSH32 0x4E487B7100000000000000000000000000000000000000000000000000000000 PUSH1 0x0 MSTORE PUSH1 0x22 PUSH1 0x4 MSTORE PUSH1 0x24 PUSH1 0x0 REVERT JUMPDEST PUSH1 0x0 PUSH1 0x2 DUP3 DIV SWAP1 POP PUSH1 0x1 DUP3 AND DUP1 PUSH2 0x13A6 JUMPI PUSH1 0x7F DUP3 AND SWAP2 POP JUMPDEST PUSH1 0x20 DUP3 LT DUP2 EQ ISZERO PUSH2 0x13BA JUMPI PUSH2 0x13B9 PUSH2 0x135F JUMP JUMPDEST JUMPDEST POP SWAP2 SWAP1 POP JUMP JUMPDEST PUSH32 0x4E6F207065726D697373696F6E00000000000000000000000000000000000000 PUSH1 0x0 DUP3 ADD MSTORE POP JUMP JUMPDEST PUSH1 0x0 PUSH2 0x13F6 PUSH1 0xD DUP4 PUSH2 0x107F JUMP JUMPDEST SWAP2 POP PUSH2 0x1401 DUP3 PUSH2 0x13C0 JUMP JUMPDEST PUSH1 0x20 DUP3 ADD SWAP1 POP SWAP2 SWAP1 POP JUMP JUMPDEST PUSH1 0x0 PUSH1 0x20 DUP3 ADD SWAP1 POP DUP2 DUP2 SUB PUSH1 0x0 DUP4 ADD MSTORE PUSH2 0x1425 DUP2 PUSH2 0x13E9 JUMP JUMPDEST SWAP1 POP SWAP2 SWAP1 POP JUMP JUMPDEST PUSH32 0x4E487B7100000000000000000000000000000000000000000000000000000000 PUSH1 0x0 MSTORE PUSH1 0x11 PUSH1 0x4 MSTORE PUSH1 0x24 PUSH1 0x0 REVERT JUMPDEST PUSH1 0x0 PUSH2 0x1466 DUP3 PUSH2 0x1192 JUMP JUMPDEST SWAP2 POP PUSH2 0x1471 DUP4 PUSH2 0x1192 JUMP JUMPDEST SWAP3 POP DUP3 PUSH32 0xFFFFFFFFFFFFFFFFFFFFFFFFFFFFFFFFFFFFFFFFFFFFFFFFFFFFFFFFFFFFFFFF SUB DUP3 GT ISZERO PUSH2 0x14A6 JUMPI PUSH2 0x14A5 PUSH2 0x142C JUMP JUMPDEST JUMPDEST DUP3 DUP3 ADD SWAP1 POP SWAP3 SWAP2 POP POP JUMP JUMPDEST PUSH32 0x45524332303A2064656372656173656420616C6C6F77616E63652062656C6F77 PUSH1 0x0 DUP3 ADD MSTORE PUSH32 0x207A65726F000000000000000000000000000000000000000000000000000000 PUSH1 0x20 DUP3 ADD MSTORE POP JUMP JUMPDEST PUSH1 0x0 PUSH2 0x150D PUSH1 0x25 DUP4 PUSH2 0x107F JUMP JUMPDEST SWAP2 POP PUSH2 0x1518 DUP3 PUSH2 0x14B1 JUMP JUMPDEST PUSH1 0x40 DUP3 ADD SWAP1 POP SWAP2 SWAP1 POP JUMP JUMPDEST PUSH1 0x0 PUSH1 0x20 DUP3 ADD SWAP1 POP DUP2 DUP2 SUB PUSH1 0x0 DUP4 ADD MSTORE PUSH2 0x153C DUP2 PUSH2 0x1500 JUMP JUMPDEST SWAP1 POP SWAP2 SWAP1 POP JUMP JUMPDEST PUSH32 0x45524332303A20617070726F76652066726F6D20746865207A65726F20616464 PUSH1 0x0 DUP3 ADD MSTORE PUSH32 0x7265737300000000000000000000000000000000000000000000000000000000 PUSH1 0x20 DUP3 ADD MSTORE POP JUMP JUMPDEST PUSH1 0x0 PUSH2 0x159F PUSH1 0x24 DUP4 PUSH2 0x107F JUMP JUMPDEST SWAP2 POP PUSH2 0x15AA DUP3 PUSH2 0x1543 JUMP JUMPDEST PUSH1 0x40 DUP3 ADD SWAP1 POP SWAP2 SWAP1 POP JUMP JUMPDEST PUSH1 0x0 PUSH1 0x20 DUP3 ADD SWAP1 POP DUP2 DUP2 SUB PUSH1 0x0 DUP4 ADD MSTORE PUSH2 0x15CE DUP2 PUSH2 0x1592 JUMP JUMPDEST SWAP1 POP SWAP2 SWAP1 POP JUMP JUMPDEST PUSH32 0x45524332303A20617070726F766520746F20746865207A65726F206164647265 PUSH1 0x0 DUP3 ADD MSTORE PUSH32 0x7373000000000000000000000000000000000000000000000000000000000000 PUSH1 0x20 DUP3 ADD MSTORE POP JUMP JUMPDEST PUSH1 0x0 PUSH2 0x1631 PUSH1 0x22 DUP4 PUSH2 0x107F JUMP JUMPDEST SWAP2 POP PUSH2 0x163C DUP3 PUSH2 0x15D5 JUMP JUMPDEST PUSH1 0x40 DUP3 ADD SWAP1 POP SWAP2 SWAP1 POP JUMP JUMPDEST PUSH1 0x0 PUSH1 0x20 DUP3 ADD SWAP1 POP DUP2 DUP2 SUB PUSH1 0x0 DUP4 ADD MSTORE PUSH2 0x1660 DUP2 PUSH2 0x1624 JUMP JUMPDEST SWAP1 POP SWAP2 SWAP1 POP JUMP JUMPDEST PUSH32 0x45524332303A20696E73756666696369656E7420616C6C6F77616E6365000000 PUSH1 0x0 DUP3 ADD MSTORE POP JUMP JUMPDEST PUSH1 0x0 PUSH2 0x169D PUSH1 0x1D DUP4 PUSH2 0x107F JUMP JUMPDEST SWAP2 POP PUSH2 0x16A8 DUP3 PUSH2 0x1667 JUMP JUMPDEST PUSH1 0x20 DUP3 ADD SWAP1 POP SWAP2 SWAP1 POP JUMP JUMPDEST PUSH1 0x0 PUSH1 0x20 DUP3 ADD SWAP1 POP DUP2 DUP2 SUB PUSH1 0x0 DUP4 ADD MSTORE PUSH2 0x16CC DUP2 PUSH2 0x1690 JUMP JUMPDEST SWAP1 POP SWAP2 SWAP1 POP JUMP JUMPDEST PUSH32 0x45524332303A207472616E736665722066726F6D20746865207A65726F206164 PUSH1 0x0 DUP3 ADD MSTORE PUSH32 0x6472657373000000000000000000000000000000000000000000000000000000 PUSH1 0x20 DUP3 ADD MSTORE POP JUMP JUMPDEST PUSH1 0x0 PUSH2 0x172F PUSH1 0x25 DUP4 PUSH2 0x107F JUMP JUMPDEST SWAP2 POP PUSH2 0x173A DUP3 PUSH2 0x16D3 JUMP JUMPDEST PUSH1 0x40 DUP3 ADD SWAP1 POP SWAP2 SWAP1 POP JUMP JUMPDEST PUSH1 0x0 PUSH1 0x20 DUP3 ADD SWAP1 POP DUP2 DUP2 SUB PUSH1 0x0 DUP4 ADD MSTORE PUSH2 0x175E DUP2 PUSH2 0x1722 JUMP JUMPDEST SWAP1 POP SWAP2 SWAP1 POP JUMP JUMPDEST PUSH32 0x45524332303A207472616E7366657220746F20746865207A65726F2061646472 PUSH1 0x0 DUP3 ADD MSTORE PUSH32 0x6573730000000000000000000000000000000000000000000000000000000000 PUSH1 0x20 DUP3 ADD MSTORE POP JUMP JUMPDEST PUSH1 0x0 PUSH2 0x17C1 PUSH1 0x23 DUP4 PUSH2 0x107F JUMP JUMPDEST SWAP2 POP PUSH2 0x17CC DUP3 PUSH2 0x1765 JUMP JUMPDEST PUSH1 0x40 DUP3 ADD SWAP1 POP SWAP2 SWAP1 POP JUMP JUMPDEST PUSH1 0x0 PUSH1 0x20 DUP3 ADD SWAP1 POP DUP2 DUP2 SUB PUSH1 0x0 DUP4 ADD MSTORE PUSH2 0x17F0 DUP2 PUSH2 0x17B4 JUMP JUMPDEST SWAP1 POP SWAP2 SWAP1 POP JUMP JUMPDEST PUSH32 0x45524332303A207472616E7366657220616D6F756E7420657863656564732062 PUSH1 0x0 DUP3 ADD MSTORE PUSH32 0x616C616E63650000000000000000000000000000000000000000000000000000 PUSH1 0x20 DUP3 ADD MSTORE POP JUMP JUMPDEST PUSH1 0x0 PUSH2 0x1853 PUSH1 0x26 DUP4 PUSH2 0x107F JUMP JUMPDEST SWAP2 POP PUSH2 0x185E DUP3 PUSH2 0x17F7 JUMP JUMPDEST PUSH1 0x40 DUP3 ADD SWAP1 POP SWAP2 SWAP1 POP JUMP JUMPDEST PUSH1 0x0 PUSH1 0x20 DUP3 ADD SWAP1 POP DUP2 DUP2 SUB PUSH1 0x0 DUP4 ADD MSTORE PUSH2 0x1882 DUP2 PUSH2 0x1846 JUMP JUMPDEST SWAP1 POP SWAP2 SWAP1 POP JUMP JUMPDEST PUSH32 0x45524332303A206D696E7420746F20746865207A65726F206164647265737300 PUSH1 0x0 DUP3 ADD MSTORE POP JUMP JUMPDEST PUSH1 0x0 PUSH2 0x18BF PUSH1 0x1F DUP4 PUSH2 0x107F JUMP JUMPDEST SWAP2 POP PUSH2 0x18CA DUP3 PUSH2 0x1889 JUMP JUMPDEST PUSH1 0x20 DUP3 ADD SWAP1 POP SWAP2 SWAP1 POP JUMP JUMPDEST PUSH1 0x0 PUSH1 0x20 DUP3 ADD SWAP1 POP DUP2 DUP2 SUB PUSH1 0x0 DUP4 ADD MSTORE PUSH2 0x18EE DUP2 PUSH2 0x18B2 JUMP JUMPDEST SWAP1 POP SWAP2 SWAP1 POP JUMP JUMPDEST PUSH32 0x45524332303A206275726E2066726F6D20746865207A65726F20616464726573 PUSH1 0x0 DUP3 ADD MSTORE PUSH32 0x7300000000000000000000000000000000000000000000000000000000000000 PUSH1 0x20 DUP3 ADD MSTORE POP JUMP JUMPDEST PUSH1 0x0 PUSH2 0x1951 PUSH1 0x21 DUP4 PUSH2 0x107F JUMP JUMPDEST SWAP2 POP PUSH2 0x195C DUP3 PUSH2 0x18F5 JUMP JUMPDEST PUSH1 0x40 DUP3 ADD SWAP1 POP SWAP2 SWAP1 POP JUMP JUMPDEST PUSH1 0x0 PUSH1 0x20 DUP3 ADD SWAP1 POP DUP2 DUP2 SUB PUSH1 0x0 DUP4 ADD MSTORE PUSH2 0x1980 DUP2 PUSH2 0x1944 JUMP JUMPDEST SWAP1 POP SWAP2 SWAP1 POP JUMP JUMPDEST PUSH32 0x45524332303A206275726E20616D6F756E7420657863656564732062616C616E PUSH1 0x0 DUP3 ADD MSTORE PUSH32 0x6365000000000000000000000000000000000000000000000000000000000000 PUSH1 0x20 DUP3 ADD MSTORE POP JUMP JUMPDEST PUSH1 0x0 PUSH2 0x19E3 PUSH1 0x22 DUP4 PUSH2 0x107F JUMP JUMPDEST SWAP2 POP PUSH2 0x19EE DUP3 PUSH2 0x1987 JUMP JUMPDEST PUSH1 0x40 DUP3 ADD SWAP1 POP SWAP2 SWAP1 POP JUMP JUMPDEST PUSH1 0x0 PUSH1 0x20 DUP3 ADD SWAP1 POP DUP2 DUP2 SUB PUSH1 0x0 DUP4 ADD MSTORE PUSH2 0x1A12 DUP2 PUSH2 0x19D6 JUMP JUMPDEST SWAP1 POP SWAP2 SWAP1 POP JUMP JUMPDEST PUSH1 0x0 PUSH2 0x1A24 DUP3 PUSH2 0x1192 JUMP JUMPDEST SWAP2 POP PUSH2 0x1A2F DUP4 PUSH2 0x1192 JUMP JUMPDEST SWAP3 POP DUP3 DUP3 LT ISZERO PUSH2 0x1A42 JUMPI PUSH2 0x1A41 PUSH2 0x142C JUMP JUMPDEST JUMPDEST DUP3 DUP3 SUB SWAP1 POP SWAP3 SWAP2 POP POP JUMP INVALID LOG2 PUSH5 0x6970667358 0x22 SLT KECCAK256 CALLVALUE BASEFEE 0x4D JUMPDEST CALLDATASIZE DUP6 0xA8 DUP12 SDIV SWAP1 0xEE 0xA9 0xC1 SWAP13 RETURNDATACOPY DUP3 SWAP12 SIGNEXTEND 0xAB 0x4F 0xD3 PUSH3 0xD63032 ADD ISZERO 0xB4 0xB9 0xDB PUSH8 0xCD64736F6C634300 ADDMOD EXP STOP CALLER "
    },
    "gasEstimates": {
      "creation": {
        "codeDepositCost": "2219600",
        "executionCost": "infinite",
        "totalCost": "infinite"
      },
      "external": {
        "changeAmountDonated(string)": "infinite",
        "getAllReputations()": "infinite",
        "getAmountDonated()": "infinite",
        "getCompaniesAddresses()": "infinite",
        "getCompaniesNames()": "infinite",
        "getCompanyAddress(string)": "infinite",
        "getCompanyComplaints(string)": "infinite",
        "getReputation(string)": "infinite",
        "getTotalComplaints()": "infinite",
        "newCompanies(string[])": "infinite",
        "newCompany(string)": "infinite",
        "newComplaint(string,string)": "infinite",
        "retireCompany(string)": "infinite",
        "retireComplaint(string,string)": "infinite"
      }
    },
    "methodIdentifiers": {
      "changeAmountDonated(string)": "639147af",
      "getAllReputations()": "2f435b3f",
      "getAmountDonated()": "1c17dee8",
      "getCompaniesAddresses()": "05e5e5a3",
      "getCompaniesNames()": "09a7a006",
      "getCompanyAddress(string)": "d6a16afa",
      "getCompanyComplaints(string)": "6b5f35c2",
      "getReputation(string)": "3d1103f4",
      "getTotalComplaints()": "59f97801",
      "newCompanies(string[])": "08459850",
      "newCompany(string)": "f1e6fe87",
      "newComplaint(string,string)": "d09cdac1",
      "retireCompany(string)": "112e4143",
      "retireComplaint(string,string)": "bfef1851"
    }
  },
  "storageLayout": {
    "storage": [
      {
        "astId": 141,
        "contract": "ReputationControlV2.sol:ReputationControl",
        "label": "tokenContract",
        "offset": 0,
        "slot": "0",
        "type": "t_contract(ReksTokens)126"
      },
      {
        "astId": 146,
        "contract": "ReputationControlV2.sol:ReputationControl",
        "label": "infoCompanies",
        "offset": 0,
        "slot": "1",
        "type": "t_mapping(t_string_memory_ptr,t_struct(CompanyData)138_storage)"
      },
      {
        "astId": 149,
        "contract": "ReputationControlV2.sol:ReputationControl",
        "label": "companies",
        "offset": 0,
        "slot": "2",
        "type": "t_array(t_string_storage)dyn_storage"
      },
      {
        "astId": 153,
        "contract": "ReputationControlV2.sol:ReputationControl",
        "label": "amountDonated",
        "offset": 0,
        "slot": "3",
        "type": "t_string_storage"
      }
    ],
    "types": {
      "t_address": {
        "encoding": "inplace",
        "label": "address",
        "numberOfBytes": "20"
      },
      "t_array(t_string_storage)dyn_storage": {
        "base": "t_string_storage",
        "encoding": "dynamic_array",
        "label": "string[]",
        "numberOfBytes": "32"
      },
      "t_contract(ReksTokens)126": {
        "encoding": "inplace",
        "label": "contract ReksTokens",
        "numberOfBytes": "20"
      },
      "t_mapping(t_string_memory_ptr,t_struct(CompanyData)138_storage)": {
        "encoding": "mapping",
        "key": "t_string_memory_ptr",
        "label": "mapping(string => struct ReputationControl.CompanyData)",
        "numberOfBytes": "32",
        "value": "t_struct(CompanyData)138_storage"
      },
      "t_mapping(t_string_memory_ptr,t_uint256)": {
        "encoding": "mapping",
        "key": "t_string_memory_ptr",
        "label": "mapping(string => uint256)",
        "numberOfBytes": "32",
        "value": "t_uint256"
      },
      "t_string_memory_ptr": {
        "encoding": "bytes",
        "label": "string",
        "numberOfBytes": "32"
      },
      "t_string_storage": {
        "encoding": "bytes",
        "label": "string",
        "numberOfBytes": "32"
      },
      "t_struct(CompanyData)138_storage": {
        "encoding": "inplace",
        "label": "struct ReputationControl.CompanyData",
        "members": [
          {
            "astId": 128,
            "contract": "ReputationControlV2.sol:ReputationControl",
            "label": "_address",
            "offset": 0,
            "slot": "0",
            "type": "t_address"
          },
          {
            "astId": 130,
            "contract": "ReputationControlV2.sol:ReputationControl",
            "label": "pos",
            "offset": 0,
            "slot": "1",
            "type": "t_uint256"
          },
          {
            "astId": 134,
            "contract": "ReputationControlV2.sol:ReputationControl",
            "label": "posArray",
            "offset": 0,
            "slot": "2",
            "type": "t_mapping(t_string_memory_ptr,t_uint256)"
          },
          {
            "astId": 137,
            "contract": "ReputationControlV2.sol:ReputationControl",
            "label": "hashComplaints",
            "offset": 0,
            "slot": "3",
            "type": "t_array(t_string_storage)dyn_storage"
          }
        ],
        "numberOfBytes": "128"
      },
      "t_uint256": {
        "encoding": "inplace",
        "label": "uint256",
        "numberOfBytes": "32"
      }
    }
  },
  "userdoc": {
    "kind": "user",
    "methods": {},
    "version": 1
  }
}